:100000000C9429010C945A010C945A010C945A0135
:100010000C945A010C945A010C945A010C945A01F4
:100020000C945A010C945A010C945A010C945A01E4
:100030000C945A010C94CA030C945A010C945A0162
:100040000C945A010C945A010C945A010C945A01C4
:100050000C945A010C945A010C945A010C9480038C
:100060000C945A010C9452040C9428040C945A01D8
:100070000C945A010C945A010C945A010C945A0194
:100080000C945A010C945A010C945A010C945A0184
:100090000C945A010C945A010C945A010C945A0174
:1000A0000C945A010C945A010C945A010C945A0164
:1000B0000C945A010C945A010C945A010C945A0154
:1000C0000C945A010C945A010C945A010C945A0144
:1000D0000C945A010C945A010C945A010C945A0134
:1000E0000C945A010C94D9010C9402030C94FA025A
:1000F0000C945E020C94CB010C9451050C94B70146
:100100000C94A8010C9419030C9415030C94270368
:100110000C94E4020C9411020C940B030C94F60260
:100120000C942B030C940F030C9431030C947B015F
:100130000C941D030C9435030C9405030C94FE02DF
:100140000C94DF020C94230300000A0B02090C0D2F
:100150000E0807030401000000000000000000007A
:10016000000000000000000000000000000000008F
:10017000000000001211100000000000000000004C
:10018000000000000000000000000000000002006D
:10019000002200250028002B002E00310034000230
:1001A000010000050108010B0100002100240027C7
:1001B000002A002D00300033000101000004010777
:1001C000010A0105050505070508080808020202DD
:1001D000020A0A08080404040401010101010101E2
:1001E000010303030303030303040707070C0C0CB9
:1001F0000C0C0C0C0C020202020606060606060691
:10020000060B0B0B0B0B0B0B0B010210202008082D
:100210001020401020408002010201080402010168
:100220000204081020408080402010080402018051
:1002300004020180402010080402010804020101A8
:1002400002040810204080010204081020408000B1
:10025000510511241FBECFEFD1E2DEBFCDBF00E0BC
:100260000CBF12E0A0E0B2E0E0E1FBE000E00BBF79
:1002700002C007900D92A431B107D9F722E0A4E1A2
:10028000B2E001C01D92A93DB207E1F711E0C9E259
:10029000D1E000E006C021970109802FFE010E94F5
:1002A0007E05C832D10780E00807A9F70E948804BC
:1002B0000C9486050C94000090E0FC01E75FFD4F74
:1002C00024918D539E4FFC018491882399F090E0F6
:1002D000880F991FFC01E755FE4FA591B491FC01D1
:1002E000E157FE4F859194918FB7F894EC91E22BF2
:1002F000EC938FBF0895AF92BF92CF92DF92EF92AF
:10030000FF920F931F93CF93DF936C017B018B01BF
:10031000040F151FEB015E01AE18BF08C017D1070F
:1003200059F06991D601ED91FC910190F081E02D99
:10033000C6011995892B79F7C501DF91CF911F91DE
:100340000F91FF90EF90DF90CF90BF90AF90089506
:10035000FC01538D448D252F30E0842F90E0821BCB
:10036000930B541710F0CF96089501970895FC0150
:10037000918D828D981761F0A28DAE0FBF2FB11DA8
:100380005D968C91928D9F5F9F73928F90E0089500
:100390008FEF9FEF0895FC01918D828D981731F0BA
:1003A000828DE80FF11D858D90E008958FEF9FEF0E
:1003B0000895FC01918D228D892F90E0805C9F4FE4
:1003C000821B91098F739927089583E392E00E941D
:1003D000D90121E0892B09F420E0822F0895FC0146
:1003E000A48DA80FB92FB11DA35ABF4F2C91848D96
:1003F00090E001968F739927848FA689B7892C93F3
:10040000A089B1898C91837080648C93938D848D45
:10041000981306C00288F389E02D80818F7D808348
:100420000895EF92FF920F931F93CF93DF93EC0108
:1004300081E0888F9B8D8C8D98131AC0E889F9898B
:10044000808185FF15C09FB7F894EE89FF8960838E
:10045000E889F98980818370806480839FBF81E00F
:1004600090E0DF91CF911F910F91FF90EF90089551
:10047000F62E0B8D10E00F5F1F4F0F731127E02E2C
:100480008C8D8E110CC00FB607FCFACFE889F98964
:10049000808185FFF5CFCE010E94EF01F1CFEB8D7A
:1004A000EC0FFD2FF11DE35AFF4FF0829FB7F89438
:1004B0000B8FEA89FB8980818062CFCFCF93DF9356
:1004C000EC01888D8823B9F0AA89BB89E889F9896C
:1004D0008C9185FD03C0808186FD0DC00FB607FCA1
:1004E000F7CF8C9185FFF2CF808185FFEDCFCE01D4
:1004F0000E94EF01E9CFDF91CF91089580E090E075
:10050000892B29F00E94E50181110E94000080E002
:1005100090E0892B49F080E090E0892B29F00E943F
:10052000000081110E94000080E090E0892B49F0DA
:1005300080E090E0892B29F00E94000081110E9448
:10054000000080E090E0892B49F080E090E0892B6A
:1005500029F00E94000081110C9400000895282FBA
:1005600030E0F901E85BFE4F9491F901E75FFD4F40
:1005700044912D533E4FF9012491222309F435C0B3
:10058000992311F191509231F8F4E92FF0E0882786
:10059000E353FD4F8F4F0C947E05FE020203DF02F2
:1005A000F602FA02E40205030B030F031503190315
:1005B0001D0323032703E4022B033103350380913A
:1005C00080008F7780938000E22FF0E0EE0FFF1F16
:1005D000E157FE4FA591B4918FB7F894EC9161115A
:1005E00048C040954E234C938FBF08958091800062
:1005F0008F7DE8CF80918000877FE4CF84B58F77AF
:1006000084BDE2CF84B58F7DFBCF8091B0008F7722
:100610008093B000D9CF8091B0008F7DF9CF8091C9
:1006200090008F7780939000CFCF809190008F7D46
:10063000F9CF80919000877FF5CF8091A0008F77D0
:100640008093A000C1CF8091A0008F7DF9CF8091D1
:10065000A000877FF5CF809120018F7780932001C4
:10066000B3CF809120018F7DF9CF80912001877FCA
:10067000F5CF4E2BB8CF9091000289130DC0EEE854
:10068000F1E0E4919FEF90930002E230E1F038F462
:10069000EE2381F0E13089F060E00C94AF02E430A9
:1006A00049F110F1E530C1F7909173009D7F90936F
:1006B0007300F2CF10926E00EFCF90916F009D7F8C
:1006C00090936F00E9CF909170009D7F90937000A0
:1006D00091E09093B0009091B100987F94609093D6
:1006E000B1001092B300D8CF909171009D7F90938C
:1006F0007100D2CF909172009D7F90937200CCCF09
:100700001F920F920FB60F9211242F933F938F9346
:100710009F93AF93BF938091D5029091D602A09101
:10072000D702B091D8023091D40223E0230F2D37A5
:1007300058F50196A11DB11D2093D4028093D502D6
:100740009093D602A093D702B093D8028091D002A2
:100750009091D102A091D202B091D3020196A11D35
:10076000B11D8093D0029093D102A093D202B09396
:10077000D302BF91AF919F918F913F912F910F9095
:100780000FBE0F901F90189526E8230F0296A11D0B
:10079000B11DD2CF1F920F920FB60F9211240BB63C
:1007A0000F922F933F934F935F936F937F938F930A
:1007B0009F93AF93BF93EF93FF9380912E029091FD
:1007C0002F02A0913002B0913102892B8A2B8B2B02
:1007D000D1F190912D028091000089278093000033
:1007E00080912E0290912F02A0913002B09131029F
:1007F000181619061A061B069CF480912E02909179
:100800002F02A0913002B09131020197A109B109E4
:1008100080932E0290932F02A0933002B093310266
:10082000FF91EF91BF91AF919F918F917F916F91C8
:100830005F914F913F912F910F900BBE0F900FBE84
:100840000F901F901895809100020E943B03E8CF03
:100850001F920F920FB60F9211240BB60F922F9387
:100860003F934F935F936F937F938F939F93AF9338
:10087000BF93EF93FF9383E392E00E94EF01FF9118
:10088000EF91BF91AF919F918F917F916F915F9108
:100890004F913F912F910F900BBE0F900FBE0F9075
:1008A0001F9018951F920F920FB60F9211240BB63E
:1008B0000F922F938F939F93EF93FF93E0914302B7
:1008C000F09144028081E0914902F0914A0282FD58
:1008D0001DC0908180914C028F5F8F7320914D02DB
:1008E000821741F0E0914C02F0E0ED5CFD4F958FF6
:1008F00080934C02FF91EF919F918F912F910F90D8
:100900000BBE0F900FBE0F901F9018958081F2CFF5
:10091000789484B5826084BD84B5816084BD85B5DA
:10092000826085BD85B5816085BD80916E008160E6
:1009300080936E001092810080918100826080938C
:10094000810080918100816080938100809180008E
:100950008160809380008091B10084608093B100B9
:100960008091B00081608093B0008091910082609E
:10097000809391008091910081608093910080919B
:1009800090008160809390008091A10082608093AC
:10099000A1008091A10081608093A1008091A000BE
:1009A00081608093A0008091210182608093210169
:1009B00080912101816080932101809120018160DB
:1009C0008093200180917A00846080937A008091E6
:1009D0007A00826080937A0080917A0081608093AF
:1009E0007A0080917A00806880937A001092C1002A
:1009F00085E30E945C0185E30E943B038DE00E9439
:100A00005C01E0914302F091440282E08083E09136
:100A10003F02F09140021082E0914102F0914202C7
:100A20008FEC808310924B02E0914702F0914802D4
:100A300086E08083E0914502F091460280818061EA
:100A40008083E0914502F091460280818860808336
:100A5000E0914502F0914602808180688083E091B8
:100A60004502F091460280818F7D808383E392E08E
:100A70000E94D9011816190634F483E392E00E940B
:100A8000B701809332028091320261E0853419F01F
:100A9000813421F460E08DE00E94AF020E947E026A
:100AA000E5CFE3E3F2E01382128288EE93E0A0E068
:100AB000B0E084839583A683B78385E092E0918339
:100AC000808385EC90E09587848784EC90E097871D
:100AD000868780EC90E0918B808B81EC90E0938B0B
:100AE000828B82EC90E0958B848B86EC90E0978BE8
:100AF000868B118E128E138E148E0895EE0FFF1FAB
:100B0000881F8BBF0790F691E02D1994F894FFCFC2
:100B1000FF0000000011027B01A8015E02D901B7AD
:040B200001CB010004
:00000001FF
