:100000000C9458010C9489010C9489010C94890179
:100010000C9489010C9489010C9489010C94890138
:100020000C9489010C9489010C9489010C94890128
:100030000C9489010C9489010C9489010C94890118
:100040000C9489010C9489010C9489010C94890108
:100050000C9489010C9489010C9489010C94340945
:100060000C9489010C94FE080C94D4080C9489011A
:100070000C9489010C9489010C9489010C948901D8
:100080000C9489010C9489010C9489010C948901C8
:100090000C9489010C9489010C9489010C948901B8
:1000A0000C9489010C9489010C9489010C948901A8
:1000B0000C9489010C9489010C9489010C94890198
:1000C0000C9489010C9489010C9489010C94890188
:1000D0000C9489010C9489010C9489010C94890178
:1000E0000C9489010C942E030C941B0A0C944D0A59
:1000F0000C9449030C946B0A0C9460070C942D0A21
:100100000C94BF030C943B030C94EC100C94C101B1
:100110000C94450A0C9431030C944F030C94220365
:100120000C94470A0C9409060C941A020C9453037D
:100130000C9437030C94C0010C9406020C948E03AB
:100140000C94650A0C94FF030C940D0A0C945C0348
:100150000C9457030C9426030C9441030C94570AF7
:100160000C941C030C94F7010C9445030C94FB0AAB
:100170000C942A030C94AD020C945D030C94030AB6
:100180000C9428020C9460020C946103000021007E
:10019000240027002A002D00300033000101000058
:1001A000040107010A0100002200250028002B009D
:1001B0002E003100340002010000050108010B018E
:1001C000000020002300260029002C002F00320010
:1001D00000010000030106010901050505050705E9
:1001E00008080808020202020A0A080804040404B3
:1001F00001010101010101010303030303030303DF
:10020000040707070C0C0C0C0C0C0C0C020202026D
:1002100006060606060606060B0B0B0B0B0B0B0B56
:100220000102102020080810204010204080020108
:1002300002010804020101020408102040808040ED
:1002400020100804020180040201804020100804EC
:10025000020108040201010204081020408001028A
:1002600004081020408000000A0B02090C0D0E0843
:10027000070304010000000000000000000000006F
:10028000000000000000000000000000000000006E
:10029000000012111000000000000000000000002B
:1002A000000000000000000000000000FB0AEC104D
:1002B00011241FBECFEFD1E2DEBFCDBF00E00CBFE7
:1002C00013E0A0E0B2E0EAE6F9E200E00BBF02C012
:1002D00007900D92A637B107D9F725E0A6E7B3E05E
:1002E00001C01D92A731B207E1F711E0C7E5D1E0E7
:1002F00000E006C021970109802FFE010E946812CC
:10030000C635D10780E00807A9F70E947E0C0C943F
:10031000A3140C94000096E0899FD0011124A85AE0
:10032000BB4F90967C936E935F9791E091969C93D0
:100330009197E091C504F091C6049091C40499236B
:1003400039F0309751F0811108C0809174041994EC
:10035000309719F05C968C91FACF0895FC012481B6
:1003600035816217730720F480819181009729F409
:1003700010927F038FE793E00895860F971F0895EB
:100380000895AF92BF92CF92DF92EF92FF920F93B8
:100390001F93CF93DF936C017B018B01040F151F1B
:1003A000EB015E01AE18BF08C017D10759F0699183
:1003B000D601ED91FC910190F081E02DC6011995D7
:1003C000892B79F7C501DF91CF911F910F91FF9094
:1003D000EF90DF90CF90BF90AF900895FC014481E3
:1003E00055816081718187EC94E00C94C101FC011E
:1003F000538D448D252F30E0842F90E0821B930B8A
:10040000541710F0CF96089501970895FC01918D2F
:10041000828D981761F0A28DAE0FBF2FB11D5D9632
:100420008C91928D9F5F9F73928F90E008958FEFD4
:100430009FEF0895FC01918D828D981731F0828D88
:10044000E80FF11D858D90E008958FEF9FEF0895DF
:10045000FC01918D228D892F90E0805C9F4F821B43
:1004600091098F73992708958BE893E00E942802E1
:1004700021E0892B09F420E0822F0895FC01A48D4E
:10048000A80FB92FB11DA35ABF4F2C91848D90E0B6
:1004900001968F739927848FA689B7892C93A08999
:1004A000B1898C91837080648C93938D848D981323
:1004B00006C00288F389E02D80818F7D80830895B6
:1004C000EF92FF920F931F93CF93DF93EC0181E0A4
:1004D000888F9B8D8C8D98131AC0E889F98980814B
:1004E00085FF15C09FB7F894EE89FF896083E8897E
:1004F000F98980818370806480839FBF81E090E070
:10050000DF91CF911F910F91FF90EF900895F62EFC
:100510000B8D10E00F5F1F4F0F731127E02E8C8D96
:100520008E110CC00FB607FCFACFE889F9898081DB
:1005300085FFF5CFCE010E943E02F1CFEB8DEC0F8F
:10054000FD2FF11DE35AFF4FF0829FB7F8940B8FF8
:10055000EA89FB8980818062CFCFCF93DF93EC0162
:10056000888D8823B9F0AA89BB89E889F9898C919B
:1005700085FD03C0808186FD0DC00FB607FCF7CF57
:100580008C9185FFF2CF808185FFEDCFCE010E9457
:100590003E02E9CFDF91CF91089580E090E0892B72
:1005A00029F00E94340281110E94000080E090E056
:1005B000892B49F080E090E0892B29F00E9400000F
:1005C00081110E94000080E090E0892B49F080E0DA
:1005D00090E0892B29F00E94000081110E94000008
:1005E00080E090E0892B49F080E090E0892B29F0B1
:1005F0000E94000081110C94000008958150823106
:1006000008F05AC0E82FF0E08827E65FFC4F8F4FD4
:100610000C9468122A032E031C03220326035C0396
:10062000310337033B034103450349034F0353039E
:100630005C0357035D036103809180008F77809393
:1006400080000895809180008F7DF9CF8091800097
:10065000877FF5CF84B58F7784BD089584B58F7D6E
:10066000FBCF8091B0008F778093B0000895809188
:10067000B0008F7DF9CF809190008F7780939000AC
:100680000895809190008F7DF9CF80919000877FB1
:10069000F5CF8091A0008F778093A000089580917E
:1006A000A0008F7DF9CF8091A000877FF5CF80914A
:1006B00020018F77809320010895809120018F7D04
:1006C000F9CF80912001877FF5CFCF93DF93282F3B
:1006D00030E0F901EA59FD4F8491F901E05EFD4FE8
:1006E000D491F901E652FE4FC491CC23A1F08111BF
:1006F0000E94FE02EC2FF0E0EE0FFF1FE054FE4FD1
:10070000A591B491EC91ED2381E090E009F480E0B3
:10071000DF91CF91089580E090E0FACF862F0C947E
:1007200065031F93CF93DF93282F30E0F901EA5937
:10073000FD4F8491F901E05EFD4FD491F901E6523D
:10074000FE4FC491CC23A9F0162F81110E94FE0206
:10075000EC2FF0E0EE0FFF1FEA55FE4FA591B4918C
:100760008FB7F894EC91111108C0D095DE23DC937B
:100770008FBFDF91CF911F910895DE2BF8CF862F89
:10078000642F0C949103CF93DF9390E0FC01E05E23
:10079000FD4F249186529E4FFC0184918823C9F01D
:1007A00090E0880F991FFC01E457FE4FA591B4918A
:1007B000FC01EA55FE4FC591D49161110DC09FB760
:1007C000F8948C91209582238C9388812823288308
:1007D0009FBFDF91CF910895623051F49FB7F89495
:1007E0003C91822F809583238C93E8812E2BEFCF31
:1007F0008FB7F894EC912E2B2C938FBFEACF862FD6
:10080000642F0C94C3033FB7F89480917B039091BD
:100810007C03A0917D03B0917E0326B5A89B05C003
:100820002F3F19F00196A11DB11D3FBFBA2FA92F6F
:10083000982F8827BC01CD01620F711D811D911D6C
:1008400042E0660F771F881F991F4A95D1F70895D8
:100850008F929F92AF92BF92CF92DF92EF92FF92D0
:100860004B015C010E9403046B017C010E940304A4
:100870006C197D098E099F09683E734081059105B9
:10088000A8F321E0821A9108A108B10888EEC80EE9
:1008900083E0D81EE11CF11C81149104A104B10471
:1008A00029F7FF90EF90DF90CF90BF90AF909F908F
:1008B0008F9008952FB7F894609177037091780323
:1008C0008091790390917A032FBF08950F931F931E
:1008D000CF93DF93C82FD62F86E0C89FF001112455
:1008E000E85AFB4F11A2878D90A181309105F1F05C
:1008F00058F082309105F1F1039709F440C0DF917F
:10090000CF911F910F9108956623C9F361E070E0C4
:100910008C2F0E948B010E945A046093B004709344
:10092000B1048093B2049093B304E9CF0E945A04B7
:100930000091B0041091B1042091B2043091B3043D
:10094000AB01BC01401B510B620B730B8091C204C5
:100950009091C304B0E0A0E084179507A607B707FD
:1009600048F462E070E08C2FDF91CF911F910F91DE
:100970000C948B0163E070E0D111C1CFF4CF70E033
:1009800060E0F1CF6F927F928F929F92AF92BF9271
:10099000CF92DF92EF92FF920F931F93CF93DF934B
:1009A00081E08093C4040E945A040091B404109121
:1009B000B5042091B6043091B704AB01BC01401BD3
:1009C000510B620B730B8091C0049091C104B0E095
:1009D000A0E084179507A607B70708F014C1C0E088
:1009E0008091BE04C81760F4E091BA04F091BB0492
:1009F000EC0FF11D62E080810E94C303CF5FF0CF56
:100A0000712C812C912C540183948091BF04781611
:100A100008F05FC0072D10E0E091BC04F091BD0428
:100A2000E00FF11F61E080810E94C303E091BC04EC
:100A3000F091BD04E00FF11F60E080810E949103FE
:100A4000D501C401072C04C0880F991FAA1FBB1F22
:100A50000A94D2F76C017C01E094F094612C8091AF
:100A6000BE046816F8F4C62DD0E0E091BA04F09107
:100A7000BB04EC0FFD1F80810E9465032496CC0F00
:100A8000DD1FC85ADB4F892B41F4888199818C295D
:100A90009D29998388836394E2CF888199818E21EF
:100AA0009F21F7CFE091BC04F091BD04E00FF11F4E
:100AB00061E080810E9491038091BC049091BD040B
:100AC000080F191F60E0F80180810E94C30373942E
:100AD0009CCFC8E5D4E0FE018FEF9FEF278D30A1BA
:100AE000232B21F4148E968F858F11A2369624E045
:100AF000E439F20799F7F12C96E0D92E8091BE04E3
:100B0000F81608F050C0E12C0F2D10E0000F111F57
:100B1000005A1B4F2091BF04E21608F042C0F801B2
:100B2000608171810E2C02C0769567950A94E2F778
:100B3000F29E900111242E0D311DE8E5F4E080E0D5
:100B4000458D568D2417350709F461C08F5F3696A1
:100B50008A30B1F760FF23C0E8E5F4E090E080E080
:100B6000448D411117C0E091B804F091B904E20F2F
:100B7000F31F4081D89EF001D99EF00D1124E85A50
:100B8000FB4F448F368F258F10A2178E61E00E9495
:100B9000660405C0019636968A30910509F7E394FC
:100BA000B9CFF394ABCF10E089A18111182F26960D
:100BB000F4E0C439DF07C1F70E945A046093B4041B
:100BC0007093B5048093B6049093B7041123D9F0C1
:100BD000809179048823B9F080917704909178040A
:100BE000019789F480917404DF91CF911F910F9147
:100BF000FF90EF90DF90CF90BF90AF909F908F903D
:100C00007F906F9008951092C40480E0EDCF6170E2
:100C1000BECF90E080E00895CF93DF93EC0160E0D9
:100C20008E810E94910361E08E810E94910360E0B9
:100C30008E810E9491038BE891E00197F1F7DF919B
:100C4000CF910895CF92DF92EF92FF920F931F936F
:100C5000CF93DF936C017C0187E0E80EF11CD0E0BC
:100C6000C0E0062F10E0B8010C2E02C07595679504
:100C70000A94E2F76170F70181917F010E9491036C
:100C80002196C430D10579F7C601DF91CF911F912C
:100C90000F91FF90EF90DF90CF900C940C06CF92C5
:100CA000DF92EF92FF920F931F93CF93DF93EC01AC
:100CB000F62E642F8C810E9491038D818F3F19F055
:100CC00060E00E9491030F2D10E08F8584FF25C006
:100CD0006E0187E0C80ED11CF12CE12CB8010E2C5E
:100CE00002C0759567950A94E2F76170F6018191EB
:100CF0006F010E949103FFEFEF1AFF0A88E0E816E8
:100D0000F10461F7CE01DF91CF911F910F91FF9018
:100D1000EF90DF90CF900C940C06B80184E07595AD
:100D200067958A95E1F7CE010E9422066F2DCE01CC
:100D3000DF91CF911F910F91FF90EF90DF90CF90B7
:100D40000C94220640E0682F87EC94E00C944F0648
:100D500081E00E94A2068BE39FE10197F1F70895DD
:100D6000CF93DF93823029F49091D60498609093CA
:100D7000D6048093DA041092DB0480E48093DC04D0
:100D800080E18093DD0480E58093DE0461E0809162
:100D9000CB040E94C3038091CC048F3F19F061E023
:100DA0000E94C30361E08091CD040E94C303C7EC9D
:100DB000D4E09E01275C34408091D60484FD0BC0B2
:100DC00084E090E021962817390744F461E08E8191
:100DD0000E94C303EECF88E090E0F4CF8BE39DE068
:100DE0000197F1F760E08091CB040E94910360E0ED
:100DF0008091CD040E9491038091CC048F3F19F023
:100E000060E00E9491038091D60484FD34C063E0C9
:100E100087EC94E00E942206CBE4D6E4CE01019751
:100E2000F1F763E087EC94E00E9422062197F1F746
:100E300063E087EC94E00E94220683E592E001974C
:100E4000F1F762E087EC94E00E9422068091D604DC
:100E500080620E94A20684E08093D7048CE00E9406
:100E6000A2060E94A80682E08093D80486E0DF9163
:100E7000CF910C94A20680620E94A2068BE496E4B5
:100E80000197F1F78091D60480620E94A20683E563
:100E900092E00197F1F78091D60480620E94A20649
:100EA000D5CF9091DA04691710F06FEF690FE62F34
:100EB000F0E0E953FB4F9489890F80680C94A206F7
:100EC00041E00E944F0681E090E00895FC0101900E
:100ED0000020E9F73197AF01481B590BBC0187ECA3
:100EE00094E00C94C1010F931F93CF93DF938C0177
:100EF000EB01FC01808191810097E1F068817981AB
:100F000061157105A9F0428153812C813D81421701
:100F1000530770F00E949C148C819D81F801958389
:100F200084831D821C82DF91CF911F910F910895C0
:100F30000E94201388819981F801918380838A819E
:100F40009B81938382838C819D8195838483198285
:100F500018821B821A82E5CFFC0180819181009763
:100F600011F00C9420130895FC0124813581FB01BC
:100F70004481558124173507E1F4FC01808191817A
:100F8000FB01608171810097D1F061157105A1F4B9
:100F9000232BC1F0FC01808190E008C0232B91F04D
:100FA000FB01808190E091958195910921E0892B49
:100FB00009F020E0822F08950E949314F7CF611565
:100FC000710561F721E0F6CF0F931F93CF93DF9365
:100FD000EC0188819981009759F02A813B8126177D
:100FE000370730F081E0DF91CF911F910F91089585
:100FF0008B016F5F7F4F0E94A913009759F099836F
:1010000088831B830A832C813D81232B59F7FC01A4
:101010001082E8CF80E0E7CFEF92FF920F931F930B
:10102000CF93DF93EC01FB01E080F180E114F10448
:1010300011F10481158101151105A9F08C819D81A3
:10104000080F191FB801CE010E94E407882399F008
:10105000288139818C819D81B701820F931F0E9465
:101060009C141D830C83CE01DF91CF911F910F91B2
:10107000FF90EF90089588819981009711F00E9468
:101080002013198218821D821C821B821A82EBCFC8
:10109000EF92FF920F931F93CF93DF93EC017B01AD
:1010A0008A01BA010E94E40728813981811114C0A4
:1010B0002115310519F0C9010E94201319821882E7
:1010C0001D821C821B821A82CE01DF91CF911F915B
:1010D0000F91FF90EF9008951D830C83B701C90114
:1010E0000E949C14F1CFFB0101900020E9F7319799
:1010F000AF01461B570B0C9448080F931F93CF93D7
:10110000DF93CDB7DEB7A2970FB6F894DEBF0FBE60
:10111000CDBF8C01CB01BA01F8011182108213827C
:101120001282158214822AE0AE014F5F5F4F0E9447
:10113000B011BE016F5F7F4FC8010E947308A29675
:101140000FB6F894DEBF0FBECDBFDF91CF911F91D8
:101150000F910895CF93DF931F921F92CDB7DEB703
:10116000FC0111821082138212821582148269831B
:101170001A82BE016F5F7F4F0E9473080F900F901D
:10118000DF91CF910895FC011182108213821282A7
:1011900015821482FB0101900020E9F73197AF011D
:1011A000461B570B0C9448081F920F920FB60F92D4
:1011B00011240BB60F922F933F934F935F936F932E
:1011C0007F938F939F93AF93BF93EF93FF938BE89E
:1011D00093E00E943E02FF91EF91BF91AF919F91EA
:1011E0008F917F916F915F914F913F912F910F90D0
:1011F0000BBE0F900FBE0F901F9018951F920F926D
:101200000FB60F9211240BB60F922F938F939F93CB
:10121000EF93FF93E0919B03F0919C038081E09119
:10122000A103F091A20382FD1DC090818091A403CF
:101230008F5F8F732091A503821741F0E091A40383
:10124000F0E0E557FC4F958F8093A403FF91EF9159
:101250009F918F912F910F900BBE0F900FBE0F900B
:101260001F9018958081F2CF1F920F920FB60F92A8
:1012700011242F933F938F939F93AF93BF938091AC
:10128000770390917803A0917903B0917A0330911C
:10129000760323E0230F2D3758F50196A11DB11DCC
:1012A000209376038093770390937803A093790338
:1012B000B0937A0380917B0390917C03A0917D038E
:1012C000B0917E030196A11DB11D80937B03909385
:1012D0007C03A0937D03B0937E03BF91AF919F9158
:1012E0008F913F912F910F900FBE0F901F901895E7
:1012F00026E8230F0296A11DB11DD2CF0F931F9395
:10130000CF93DF93EC018B0188859985029751F487
:101310006130710509F43AC06CF560E00115110502
:1013200009F435C088859985049751F40130110579
:1013300009F455C00CF035C00115110509F43EC083
:1013400088859985059709F0C8C00A30110508F00D
:10135000C4C0F8018827E055F64F8F4F0C946812EF
:10136000030A0D0A1B0A2D0A450A470A4D0A570AA5
:10137000650A6B0A6230710591F060E00330110577
:1013800089F68C850E94910360E005C061E08C8540
:101390000E94910361E08E850E949103C3CF61E0BA
:1013A000F0CF0230110509F10330110509F0C8CF63
:1013B00061E08C850E94910360E01CC061E08C8537
:1013C0000E94910360E08E850E94910361E088890C
:1013D0000E94910360E08A890E949103B1CF60E08E
:1013E0008C850E94910361E0EECF60E08C850E94C5
:1013F000910361E08E850E94910360E088890E94DC
:10140000910361E0E8CF60E08C850E94910361E088
:101410008E850E94910361E009C060E08C850E9486
:10142000910361E08E850E94910360E088890E94AB
:10143000910360E00DC060E08C850E94910361E043
:101440008E850E94910360E088890E94910361E08B
:101450008A890E94910361E011C060E08C850E943E
:10146000910361E08E850E94910360E088890E946B
:10147000910361E08A890E94910360E08C89DF9189
:10148000CF911F910F910C94910361E0E7CF61E040
:101490008C850E94910360E0E5CF61E08C850E941D
:1014A000910360E08E850E94910361E0DFCF61E0EF
:1014B0008C850E94910360E08E850E94910361E01B
:1014C00088890E94910360E0D5CF61E08C850E94FD
:1014D000910360E09DCF60E0F9CFDF91CF911F9144
:1014E0000F9108954F925F926F927F928F929F9289
:1014F000AF92BF92CF92DF92EF92FF920F931F9322
:10150000CF93DF93EC018B0177FF04C000271127F5
:10151000061B170B161617060CF04AC081E090E068
:101520009983888384E0E82EF12C9AE0C92ED12C8F
:101530000115110509F44EC00E9403048E889F888E
:10154000A88CB98C2B013C01481859086A087B0803
:101550008A809B80AC80BD80481459046A047B0457
:1015600038F36E8B7F8B888F998F8A859B85288136
:1015700039812130310511F501969B878A872E81AB
:101580003F818217930711F41B861A8601501109B7
:101590008A859B8528853985B6012530310509F076
:1015A000B7010E945412BC01CE010E947E09C0CF37
:1015B000672B09F4B7CF19821882B4CF892B21F495
:1015C0008E819F819B878A878A859B8501979B87D0
:1015D0008A87DCCFDF91CF911F910F91FF90EF9021
:1015E000DF90CF90BF90AF909F908F907F906F9043
:1015F0005F904F9008950F931F93CF93DF931092B6
:101600008E0310928D0388EE93E0A0E0B0E080930B
:101610008F0390939003A0939103B093920386E37A
:1016200092E090938C0380938B0385EC90E09093F1
:1016300098038093970384EC90E090939A038093AF
:10164000990380EC90E090939C0380939B0381EC42
:1016500090E090939E0380939D0382EC90E09093A2
:10166000A00380939F0386EC90E09093A203809365
:10167000A1031092A4031092A5031092A603109246
:10168000A70310920405109203051092FA04109219
:10169000F90410920F051092100510921105109286
:1016A000120508E210E0109300050093FF0482E4A5
:1016B00090E0909306058093050583E490E0909375
:1016C00008058093070584E490E090930A058093D1
:1016D000090585E490E090930C0580930B0561E08B
:1016E00082E40E94C30361E0809107050E94C30366
:1016F00061E0809109050E94C30361E080910B05C0
:101700000E94C30310920E0510920D05C4E0D0E0B4
:10171000D0930205C09301051092EA041092E904E7
:101720001092E0041092DF041092F5041092F60477
:101730001092F7041092F8041093E6040093E50465
:101740008EE390E09093EC048093EB048FE390E0C1
:101750009093EE048093ED0480E490E09093F00485
:101760008093EF0481E490E09093F2048093F1047D
:1017700061E08EE30E94C30361E08091ED040E946A
:10178000C30361E08091EF040E94C30361E0809194
:10179000F1040E94C3031092F4041092F304D09356
:1017A000E804C093E7041092CA041092C90482E5C9
:1017B00092E09093C8048093C70486E38093CB049F
:1017C0008FEF8093CC0487E38093CD0488E38093EC
:1017D000CE0489E38093CF048AE38093D0048BE323
:1017E0008093D1041092D2041092D3041092D404A6
:1017F0001092D5041092D60481E00E94B006109297
:101800005A0410925E0410925D0410925F0488E402
:1018100092E09093590480935804E4E7F4E080EB5D
:1018200094E0108214821382158236968E179F07D9
:10183000C1F784E192E09093BB048093BA0480E105
:1018400092E09093BD048093BC0484E08093BE0436
:101850008093BF0488E192E09093B9048093B80428
:101860008AE090E09093C1048093C00484EF91E0FB
:101870009093C3048093C2041092C6041092C504CE
:101880001092B4041092B5041092B6041092B704EA
:101890001092C4046FE972E080E494E00E94C308EF
:1018A0006FE972E086E494E00E94C3086FE972E099
:1018B0008CE494E00E94C3086FE972E082E594E052
:1018C0000E94C3086AE772E088E294E00E94C308BD
:1018D0006AE572E08EE294E00E94C3086CE572E073
:1018E00084E394E00E94C3086EE572E08AE394E02A
:1018F000DF91CF911F910F910C94C308CF93DF9389
:10190000CDB7DEB762970FB6F894DEBF0FBECDBF7E
:10191000789484B5826084BD84B5816084BD85B5CA
:10192000826085BD85B5816085BD80916E008160D6
:1019300080936E001092810080918100826080937C
:10194000810080918100816080938100809180007E
:101950008160809380008091B10084608093B100A9
:101960008091B00081608093B0008091910082608E
:10197000809391008091910081608093910080918B
:1019800090008160809390008091A100826080939C
:10199000A1008091A10081608093A1008091A000AE
:1019A00081608093A0008091210182608093210159
:1019B00080912101816080932101809120018160CB
:1019C0008093200180917A00846080937A008091D6
:1019D0007A00826080937A0080917A00816080939F
:1019E0007A0080917A00806880937A001092C1001A
:1019F00061E086E10E94C30361E087E10E94C303C6
:101A000080E40E94A20608E012E0F80161918F01D3
:101A100087EC94E00E946007F2E000311F07A9F70D
:101A200088E40E94A20600E012E058E0E52E52E0B1
:101A3000F52EF80161918F0187EC94E00E94600718
:101A4000E016F106B1F70E945A0460938703709381
:101A500088038093890390938A0382E00E94B006F2
:101A60000E94A80661E08DE00E94C303E0919B0301
:101A7000F0919C0382E08083E0919703F0919803BA
:101A80001082E0919903F0919A038FEC8083109279
:101A9000A303E0919F03F091A00386E08083E0918F
:101AA0009D03F0919E03808180618083E0919D037E
:101AB000F0919E03808188608083E0919D03F09186
:101AC0009E03808180688083E0919D03F0919E0356
:101AD00080818F7D80832AE0822E912CA12CB12CD5
:101AE00034E0432E512C612C712C46E0E42E0E94F0
:101AF0005A04AB01BC018091870390918803A091A7
:101B00008903B0918A0388519C4FAF4FBF4F48174C
:101B100059076A077B07E8F560E083E00E945107F8
:101B200080E692E00E94660760E081E00E94510733
:101B300060E087EC94E00E94600760E08EE00E9425
:101B4000510760E087EC94E00E94600761E080E06C
:101B50000E9451078BE692E00E9466078BE893E0B3
:101B60000E9428021816190634F48BE893E00E94AC
:101B70000602809386038091860361E0853419F024
:101B8000813421F460E08DE00E9491030E94CD0237
:101B9000AECF84179507A607B70700F70E94C204C7
:101BA00060E080E00E9451078CE792E00E946607A7
:101BB00061E080E00E9451078CE892E00E94660795
:101BC00068E873E180E090E00E9428040E945811C8
:101BD000A50194010E94F111AB01BC01CE01019657
:101BE0000E947D08BE016F5F7F4F80E494E00E94F9
:101BF0007307CE0101960E94AC070E945811A501FF
:101C000094010E94F111AB01BC01CE0101960E942A
:101C10007D08BE016F5F7F4F86E494E00E947307EA
:101C2000CE0101960E94AC070E945811A3019201B7
:101C30000E94F1111A8219821C821B821E821D824F
:101C4000E69EF001E79EF00D1124E85DFB4F6081F8
:101C500071816115710531F044815581CE01019684
:101C60000E944808BE016F5F7F4F8CE494E00E94A1
:101C70007307CE0101960E94AC070E945811A30180
:101C800092010E94F1111A8219821C821B821E820B
:101C90001D82E69EF001E79EF00D1124E85DFB4FEA
:101CA000608171816115710531F044815581CE01EA
:101CB00001960E944808BE016F5F7F4F82E594E065
:101CC0000E947307CE0101960E94AC0761E085E097
:101CD0000E94510780EA92E00E94660761E08CE072
:101CE0000E94510780E494E00E94EE0161E08DE0E3
:101CF0000E94510786E494E00E94EE0161E08EE0CC
:101D00000E9451078CE494E00E94EE0161E08FE0B4
:101D10000E94510782E594E00E94EE0168EE73E0B4
:101D200080E090E00E9428046FE972E0CE010D96F9
:101D30000E94C3080E94A80610E000E060E080E076
:101D40000E94510788EA92E00E94660761E080E005
:101D50000E945107CE010D960E94EE010E94C2041E
:101D6000F82E8823D9F3FAE28F1308C218861F824F
:101D70001A8619861C861B866D857E856115710500
:101D800031F049895A89CE0107960E9448088B850F
:101D90009C85049711F0D12C68C070E060E0CE0102
:101DA00007960E94AE01FC016081CE0101960E945F
:101DB000AA0860E474E0CE0101960E94B407D82E10
:101DC000CE0101960E94AC07DD2029F361E070E0AE
:101DD000CE0107960E94AE01FC016081CE01019602
:101DE0000E94AA0866E474E0CE0101960E94B4073E
:101DF000D82ECE0101960E94AC07DD2061F262E090
:101E000070E0CE0107960E94AE01FC016081CE0118
:101E100001960E94AA086CE474E0CE0101960E942B
:101E2000B407D82ECE0101960E94AC07DD2009F43C
:101E3000B2CF63E070E0CE0107960E94AE01FC01D4
:101E40006081CE0101960E94AA0862E574E0CE018D
:101E500001960E94B407C82ECE0101960E94AC07DD
:101E6000DD24D394CC2009F496CFCE0107960E94AE
:101E7000AC07DD2009F404C10E94A80660E080E000
:101E80000E94510789EB92E00E94660761E080E0C2
:101E90000E9451076CE972E0CE0101960E94C308CE
:101EA000BE01635F7F4FCE0101960E940C080E9425
:101EB000EE01CE0101960E94AC0760ED77E080E074
:101EC00090E00E9428040E94A806C12C87E8D82E22
:101ED00083E9E82E83E0F82E9AE0892E912CA12C3C
:101EE000B12C60E080E00E9451078AEC92E00E94F1
:101EF000660761E080E00E94510780918403909121
:101F00008503181619060CF4AEC00E945A0460939B
:101F1000800370938103809382039093830360E036
:101F200080E00E9451078BED92E00E94660761E01D
:101F300080E00E94510761E086E10E9491032091B8
:101F4000FF0430910005032E000C440B550BC70114
:101F5000B6010E94F111CA01B901A50194010E94C4
:101F6000F1112093FB043093FC044093FD04509343
:101F7000FE0468E270E089EF94E00E94720A68EE65
:101F800073E080E090E00E94280460E086E10E9417
:101F9000910360E080E00E94510788EE92E00E9489
:101FA000660761E080E00E9451070E945A04AB017D
:101FB000BC018091800390918103A0918203B09134
:101FC000830388579C4EAF4FBF4F481759076A0786
:101FD0007B0758F368E873E180E090E00E942804F2
:101FE00060E080E00E9451078DEF92E00E9466075A
:101FF00061E080E00E94510761E087E10E94910367
:102000002091E5043091E604032E000C440B550B9F
:10201000C701B6010E94F111CA01B901A5019401DD
:102020000E94F1112093E1043093E2044093E30411
:102030005093E40468ED7FEF8FED94E00E94720A04
:1020400068EE73E080E090E00E94280460E087E1A1
:102050000E9491038091840390918503019690934F
:1020600085038093840360E080E00E9451078AE04A
:1020700093E00E94660761E080E00E94510731CF43
:102080000E94A80660E080E00E94510780E193E092
:102090000E94660761E080E00E9451076CE972E0EF
:1020A000CE0101960E94C308BE01635F7F4FCE013F
:1020B00001960E940C080E94EE01CE0101960E943A
:1020C000AC070F5F1F4F6FE972E0CE010D960E94C3
:1020D000730860ED77E080E090E00E9428040E94A1
:1020E000A80689899A89059710F10E94A80660E0E0
:1020F00080E00E94510782E293E00E94660761E05F
:1021000080E00E9451078EE293E00E94660760ED36
:1021100077E080E090E00E9428046FE972E0CE0151
:102120000D960E9473080E94A8060F5F1F4F83E25E
:10213000F81621F0033011050CF400CE0330110520
:10214000D1F50E94A80660E080E00E9451078DE36F
:1021500093E00E94660761E080E00E9451078CE4F2
:1021600093E00E94660760ED77E080E090E00E94D7
:102170002804CE010D960E94AC07F0CC89831A8208
:10218000C988DA88FFEFCF1ADF0AB601CE010D96B3
:102190000E94E407882309F4A4CF2D853E85898910
:1021A0009A89BE016F5F7F4F820F931F0E949C141C
:1021B000DA8AC98A96CF0E94A80660E080E00E9471
:1021C00051078EE593E00E94660761E080E00E947F
:1021D00051078BE693E0C5CF8AE394E00E94AC07F9
:1021E00084E394E00E94AC078EE294E00E94AC0786
:1021F00088E294E00E94AC0782E594E00E94AC077C
:102200008CE494E00E94AC0786E494E00E94AC0762
:1022100080E494E00C94AC078F929F92AF92BF92AF
:10222000CF92DF92EF92FF92CF93DF93EC01688120
:1022300079818A819B81611571058105910521F460
:1022400064E279ED8BE597E02DE133EF41E050E07A
:102250000E94F11149015A019B01AC01A7EAB1E4C6
:102260000E9410126B017C01ACEEB4EFA501940149
:102270000E941E12C60ED71EE81EF91EF7FE06C0EB
:1022800081E0C81AD108E10880E8F80AC882D9823A
:10229000EA82FB82C701B6019F77DF91CF91FF9061
:1022A000EF90DF90CF90BF90AF909F908F90089568
:1022B0008F929F92AF92BF92CF92DF92EF92FF9256
:1022C000609128027091290280912A0290912B023C
:1022D000611571058105910521F464E279ED8BE5C5
:1022E00097E02DE133EF41E050E00E94F111490108
:1022F0005A019B01AC01A7EAB1E40E9410126B01E4
:102300007C01ACEEB4EFA50194010E941E12C60E32
:10231000D71EE81EF91EF7FE06C081E0C81AD108D4
:10232000E10880E8F80AC0922802D0922902E092DF
:102330002A02F0922B02C701B6019F77FF90EF901F
:10234000DF90CF90BF90AF909F908F900895609353
:1023500028027093290280932A0290932B020895F9
:10236000BB272A3051F4992342F4BDE29095809521
:10237000709561957F4F8F4F9F4F0C94C011BB2775
:10238000FA01A62F6217710581059105330B30FB09
:1023900066F0AA27660F771F881F991FAA1FA2172A
:1023A00010F0A21B63953850A9F7A05DAA3308F07E
:1023B000A95DA19336F7B111B1931082CA010C94B3
:1023C000E111DC01FC01672F71917723E1F732976E
:1023D00004C07C916D9370836291AE17BF07C8F300
:1023E0000895052E97FB1EF400940E94081257FDD5
:1023F00007D00E94231207FC03D04EF40C9408125D
:1024000050954095309521953F4F4F4F5F4F089520
:1024100090958095709561957F4F8F4F9F4F089550
:102420000E944512A59F900DB49F900DA49F800D12
:10243000911D11240895B7FF0C9410120E941012E0
:10244000821B930B0895A1E21A2EAA1BBB1BFD0150
:102450000DC0AA1FBB1FEE1FFF1FA217B307E40783
:10246000F50720F0A21BB30BE40BF50B661F771FDB
:10247000881F991F1A9469F76095709580959095BB
:102480009B01AC01BD01CF010895A29FB001B39F94
:10249000C001A39F700D811D1124911DB29F700D6D
:1024A000811D1124911D089597FB072E16F40094A9
:1024B00007D077FD09D00E94701207FC05D03EF4CA
:1024C000909581959F4F0895709561957F4F0895E0
:1024D000EE0FFF1F881F8BBF0790F691E02D199418
:1024E000AA1BBB1B51E107C0AA1FBB1FA617B7073A
:1024F00010F0A61BB70B881F991F5A95A9F7809556
:102500009095BC01CD0108950F931F93CF93DF9356
:102510008230910510F482E090E0E0911505F09191
:10252000160530E020E0B0E0A0E0309799F42115E6
:10253000310509F44AC0281B390B24303105D8F580
:102540008A819B816115710589F1FB0193838283E7
:10255000FE0111C040815181028113814817590742
:10256000E0F04817590799F4109761F012960C9310
:10257000129713961C933296CF01DF91CF911F9142
:102580000F9108950093150510931605F4CF2115AA
:10259000310551F04217530738F0A901DB019A01C8
:1025A000BD01DF01F801C1CFEF01F9CF909316050E
:1025B00080931505CDCFFE01E20FF31F8193919318
:1025C0002250310939832883D7CF209113053091C8
:1025D0001405232B41F420912E0230912F023093C9
:1025E00014052093130520912C0230912D02211502
:1025F000310541F42DB73EB7409130025091310280
:10260000241B350BE0911305F0911405E217F30735
:10261000A0F42E1B3F0B2817390778F0AC014E5F52
:102620005F4F2417350748F04E0F5F1F5093140576
:1026300040931305819391939FCFF0E0E0E09CCF0E
:10264000CF93DF930097E9F0FC0132971382128257
:10265000A0911505B0911605ED0130E020E010972E
:10266000A1F420813181820F931F209113053091B5
:1026700014052817390709F061C0F0931405E09399
:102680001305DF91CF910895EA01CE17DF07E8F532
:102690004A815B819E0141155105B1F7E901FB8338
:1026A000EA8349915991C40FD51FEC17FD0761F4D6
:1026B000808191810296840F951FE9019983888317
:1026C000828193819B838A83F0E0E0E012968D9172
:1026D0009C9113970097B9F52D913C911197CD01DD
:1026E0000296820F931F209113053091140528172D
:1026F000390739F6309751F51092160510921505E5
:10270000B0931405A0931305BCCFD383C28340813B
:102710005181840F951FC817D90761F44E5F5F4F31
:1027200088819981480F591F518340838A819B81F9
:10273000938382832115310509F0B0CFF0931605FC
:10274000E09315059ECFFD01DC01C0CF13821282FC
:10275000D7CF4F925F926F927F928F929F92AF925C
:10276000BF92CF92DF92EF92FF920F931F93CF937E
:10277000DF938C01009799F4CB01DF91CF911F91EA
:102780000F91FF90EF90DF90CF90BF90AF909F9010
:102790008F907F906F905F904F900C948412FC010B
:1027A000E60FF71F9C0122503109E217F30708F4E6
:1027B000AEC0D901CD91DC911197C617D70720F192
:1027C000C530D10578F0CE0104978617970750F0F1
:1027D000C61BD70B2297C193D1936D937C93CF01E6
:1027E0000E942013C801DF91CF911F910F91FF909C
:1027F000EF90DF90CF90BF90AF909F908F907F90A1
:102800006F905F904F9008955B01AC1ABD0A4C0128
:102810008C0E9D1EA0911505B0911605512C412CD2
:10282000F12CE12C109731F580911305909114054E
:102830008815990509F05CC04616570608F058C07F
:1028400080912C0290912D02009741F48DB79EB794
:102850004091300250913102841B950BE817F90723
:1028600008F055C0F0931405E0931305F901718346
:102870006083B8CF8D919C91119712966C901297AE
:1028800013967C901397A815B90559F56C0142E091
:10289000C40ED11CCA14DB0420F1AC014A195B0937
:1028A000DA011296159780F0628273825183408319
:1028B000D9016D937C93E114F10471F0D701139663
:1028C000FC93EE9312978ECF22968C0F9D1FF901E9
:1028D00091838083F301EFCFF0931605E093150504
:1028E00081CF4816590608F42C017D01D3019ACFF7
:1028F000CB010E9484127C01009749F0AE01B8011F
:102900000E948A14C8010E94201387016BCF10E037
:1029100000E068CFFB01DC0102C001900D92415044
:102920005040D8F70895FB01DC018D91019080198A
:102930000110D9F3990B0895FB01DC0101900D9270
:102940000020E1F7089511E0C7E5D1E000E006C0FE
:10295000802FFE010E9468122196011DC835D10703
:0A29600080E00807A9F7F894FFCF04
:10296A000A0A0A0000110E000E11111F1B1B1F007C
:10297A000607080902030405373839413435364257
:10298A00313233432A302344010000000000170586
:10299A008000000000006002C101F701AD022802B8
:1029AA0006021A0200000000FF03BF038E030000A4
:1029BA0000006007C1010906C0014200430044004B
:1029CA004269656E76656E69646F00477275706FED
:1029DA00332D53656363696F6E204100202A555376
:1029EA00554152494F2A2020202020002020202013
:1029FA0020202020202020202020202020202000ED
:102A0A00544F4B454E3A20004449474954452053B8
:102A1A005520544F4B454E3A0020544F4B454E20BB
:102A2A00434F52524543544F2000454E5452414E53
:102A3A00444F205041525155454F002D206162723A
:102A4A0069656E646F202D002D20496E677265736B
:102A5A006F207665686963756C6F202D002D206381
:102A6A00657272616E646F202D004C6973746F0019
:102A7A00544F4B454E20494E434F52524543544FB3
:102A8A0020004558434544452053495A45002020D3
:102A9A0044454C20544F4B454E20202000544F4B68
:102AAA00454E20494E56414C49444F00457863658E
:102ABA0064696F203320696E74656E747300424FC7
:102ACA00544F4E2043414E43454C00534520414309
:062ADA005449564F0000B4
:00000001FF
