:020000040000FA
:100000000C9459010C948A010C948A010C948A0175
:100010000C948A010C948A010C948A010C948A0134
:100020000C948A010C948A010C948A010C948A0124
:100030000C948A010C94920F0C948A010C948A01FE
:100040000C948A010C948A010C948A010C948A0104
:100050000C948A010C948A010C948A010C94B210BD
:100060000C948A010C947C100C9452100C948A010C
:100070000C948A010C948A010C948A010C948A01D4
:100080000C948A010C948A010C948A010C948A01C4
:100090000C941C100C94F20F0C948A010C948A019D
:1000A0000C948A010C948A010C948A010C948A01A4
:1000B0000C948A010C948A010C948A010C948A0194
:1000C0000C948A010C948A010C948A010C948A0184
:1000D0000C948A010C948A010C948A010C948A0174
:1000E0000C948A010C944E090C9424090C94FA087F
:1000F0000C9404090C947C030C9447020C94330276
:100100000C943C090C946E030C94921A0C9490037A
:100110000C9486030C9412090C945D030C948203D6
:100120000C9474030C94E8010C948F030C94FC1051
:100130000C94F2090C94C70B0C9478030C944409AA
:100140000C94C1030C946A030C9462090C9455033B
:100150000C9494030C9424020C9461030C94970265
:100160000C944F030C9459030C9464030C94F20305
:100170000C9439060C94F7010C94E4020C9455028B
:100180000C948A030C945C090C943E090000210035
:10019000240027002A002D00300033000101000058
:1001A000040107010A0100002000230026002900A5
:1001B0002C002F003200000100000301060109019C
:1001C00000000A0B02090C0D0E08070304010000D1
:1001D000000000000000000000000000000000001F
:1001E00000000000000000000000000012111000DC
:1001F00000000000000000000000000000000000FF
:10020000000000000000010210202008081020401B
:1002100010204080020102010804020101020408CA
:100220001020408080402010080402018004020158
:1002300080402010080402010804020101020408A1
:10024000102040800102040810204080000022009D
:10025000250028002B002E00310034000201000090
:10026000050108010B010505050507050808080833
:10027000020202020A0A080804040404010101013E
:100280000101010103030303030303030407070739
:100290000C0C0C0C0C0C0C0C0202020206060606DE
:1002A000060606060B0B0B0B0B0B0B0B0200FC10D0
:1002B000921A11241FBECFEFD1E2DEBFCDBF00E006
:1002C0000CBF14E0A0E0B2E0E8E8FDE300E00BBF03
:1002D00002C007900D92AE3DB107D9F729E0AEED0F
:1002E000B4E001C01D92A339B207E1F711E0C8E5FF
:1002F000D1E000E006C021970109802FFE010E9495
:10030000771CC735D10780E00807A9F70E9473134F
:100310000C94B21E0C940000FC01A089B18982E00B
:100320008C93A485B5851C92A685B7858FEC8C939C
:10033000108EA489B58986E08C93A289B3898C91AB
:1003400080618C93A289B3898C9188608C93A289F7
:10035000B3898C9180688C930288F389E02D808129
:100360008F7D8083089596E0899FD0011124A8583D
:10037000B84F90967C936E935F9791E091969C9383
:100380009197E091E507F091E6079091E4079923B2
:1003900039F0309751F0811108C080919407199479
:1003A000309719F05C968C91FACF0895FC01248166
:1003B00035816217730720F480819181009729F4B9
:1003C0001092E70487EE94E00895860F971F089532
:1003D0000895DB0114964D915C9115976D917C9178
:1003E000DC01ED91FC910280F381E02D1994AF9234
:1003F000BF92CF92DF92EF92FF920F931F93CF9312
:10040000DF936C017B018B01040F151FEB015E0173
:10041000AE18BF08C017D10759F06991D601ED9108
:10042000FC910190F081E02DC6011995892B79F797
:10043000C501DF91CF911F910F91FF90EF90DF9059
:10044000CF90BF90AF900895FC01538D448D252F20
:1004500030E0842F90E0821B930B541710F0CF965E
:10046000089501970895FC01918D828D981761F090
:10047000A28DAE0FBF2FB11D5D968C91928D9F5FA7
:100480009F73928F90E008958FEF9FEF0895FC0186
:10049000918D828D981731F0828DE80FF11D858D39
:1004A00090E008958FEF9FEF0895FC01918D228DCC
:1004B000892F90E0805C9F4F821B91098F73992751
:1004C000089586EB95E00E94550221E0892B09F4FE
:1004D00020E0822F089583E596E00E94550221E0F6
:1004E000892B09F420E0822F0895FC01A48DA80F28
:1004F000B92FB11DA35ABF4F2C91848D90E0019666
:100500008F739927848FA689B7892C93A089B18985
:100510008C91837080648C93938D848D981306C026
:100520000288F389E02D80818F7D80830895EF928A
:10053000FF920F931F93CF93DF93EC0181E0888F9D
:100540009B8D8C8D98131AC0E889F989808185FF6D
:1005500015C09FB7F894EE89FF896083E889F9890F
:1005600080818370806480839FBF81E090E0DF9111
:10057000CF911F910F91FF90EF900895F62E0B8D64
:1005800010E00F5F1F4F0F731127E02E8C8D8E111F
:100590000CC00FB607FCFACFE889F989808185FF86
:1005A000F5CFCE010E947502F1CFEB8DEC0FFD2F40
:1005B000F11DE35AFF4FF0829FB7F8940B8FEA8941
:1005C000FB8980818062CFCFCF93DF93EC01888D50
:1005D0008823B9F0AA89BB89E889F9898C9185FDBE
:1005E00003C0808186FD0DC00FB607FCF7CF8C914C
:1005F00085FFF2CF808185FFEDCFCE010E9475028D
:10060000E9CFDF91CF91089580E090E0892B29F028
:100610000E946B0281110E94000080E090E0892B13
:1006200029F00E94610281110E94000080E090E0A8
:10063000892B49F080E090E0892B29F00E9400008E
:1006400081110E94000080E090E0892B49F080E059
:1006500090E0892B29F00E94000081110C94000089
:1006600008958150823108F05AC0E82FF0E08827C1
:10067000E35CFC4F8F4F0C94771C5D0361034F03C9
:10068000550359038F0364036A036E0374037803ED
:100690007C03820386038F038A0390039403809173
:1006A00080008F77809380000895809180008F7DF7
:1006B000F9CF80918000877FF5CF84B58F7784BD97
:1006C000089584B58F7DFBCF8091B0008F778093A4
:1006D000B00008958091B0008F7DF9CF8091900097
:1006E0008F77809390000895809190008F7DF9CF4F
:1006F00080919000877FF5CF8091A0008F778093C5
:10070000A00008958091A0008F7DF9CF8091A00076
:10071000877FF5CF809120018F7780932001089506
:10072000809120018F7DF9CF80912001877FF5CFC7
:10073000CF93DF93282F30E0F901E054FE4F8491EE
:10074000F901EA5FFD4FD491F901EA59FD4FC491D7
:10075000CC23A1F081110E943103EC2FF0E0EE0FC9
:10076000FF1FEA55FE4FA591B491EC91ED2381E076
:1007700090E009F480E0DF91CF91089580E090E06F
:10078000FACF862F0C9498031F93CF93DF93282FD3
:1007900030E0F901E054FE4F8491F901EA5FFD4F2A
:1007A000D491F901EA59FD4FC491CC23A9F0162F39
:1007B00081110E943103EC2FF0E0EE0FFF1FE45B8C
:1007C000FD4FA591B4918FB7F894EC91111108C029
:1007D000D095DE23DC938FBFDF91CF911F910895D9
:1007E000DE2BF8CF862F642F0C94C4039091100257
:1007F00089130DC0ECEAF2E0E4919FEF90931002B0
:10080000E230E1F038F4EE2381F0E13089F060E08D
:100810000C94C403E43049F110F1E530C1F7909134
:1008200073009D7F90937300F2CF10926E00EFCF14
:1008300090916F009D7F90936F00E9CF9091700031
:100840009D7F9093700091E09093B0009091B100E3
:10085000987F94609093B1001092B300D8CF90919C
:1008600071009D7F90937100D2CF909172009D7F17
:1008700090937200CCCFCF93DF9390E0FC01EA5FBE
:10088000FD4F24918A599D4FFC0184918823C9F022
:1008900090E0880F991FFC01E457FE4FA591B49199
:1008A000FC01E45BFD4FC591D49161110DC09FB770
:1008B000F8948C91209582238C9388812823288317
:1008C0009FBFDF91CF910895623051F49FB7F894A4
:1008D0003C91822F809583238C93E8812E2BEFCF40
:1008E0008FB7F894EC912E2B2C938FBFEACFCF9338
:1008F00090911002891721F09F3FC1F0CF91089588
:10090000ECEAF2E0C491C7FDF9CF61E00E943B043C
:10091000CC2309F4F4C0C23009F008C18091B100C1
:10092000887F84608093B10089EF90C1809310022A
:10093000ECEAF2E0C4919C2FCF3F01F3C23009F4FE
:1009400073C058F4CC2391F1C13009F44BC097FD2A
:10095000D5CF61E00E943B04DECFC43009F4ADC0C6
:1009600008F488C0C53099F7109220011092210137
:1009700090912101986090932101909121019160C3
:1009800090932101282F30E0F901EA59FD4FE491BD
:10099000F0E0EE0FFF1FE45BFD4F45915491F9012C
:1009A000EA5FFD4FE491E0939605AFCF14BC15BC10
:1009B00094B5926094BD95B5916095BD282F30E0B7
:1009C000F901EA59FD4FE491F0E0EE0FFF1FE45BFF
:1009D000FD4F45915491F901EA5FFD4FE491E09399
:1009E0009D0593CF1092800010928100909181001C
:1009F0009860909381009091810091609093810024
:100A0000282F30E0F901EA59FD4FE491F0E0EE0FB4
:100A1000FF1FE45BFD4F45915491F901EA5FFD4FE3
:100A2000E491E0939C0571CF1092B0001092B10058
:100A30009091B00092609093B0009091B10091605D
:100A40009093B100282F30E0F901EA59FD4FE4916D
:100A5000F0E0EE0FFF1FE45BFD4F45915491509382
:100A60009B0540939A05F901EA5FFD4FE491E093FD
:100A700099054BCF109290001092910090919100A7
:100A80009860909391009091910091609093910063
:100A9000282F30E0F901EA59FD4FE491F0E0EE0F24
:100AA000FF1FE45BFD4F45915491F901EA5FFD4F53
:100AB000E491E0939805C3E028CF1092A000109233
:100AC000A1009091A10098609093A1009091A10045
:100AD00091609093A100282F30E0F901EA59FD4F71
:100AE000E491F0E0EE0FFF1FE45BFD4F4591549160
:100AF000F901EA5FFD4FE491E093970506CF85B5D4
:100B0000887F836085BD89EF87BD8FEF9FEFDC0114
:100B10008093B2059093B305A093B405B093B50547
:100B200080916E00826080936E00E8CEC130E9F45F
:100B300080918100887F8160809381008FE79EE3B0
:100B400090938900809388008FEF9FEFDC01809362
:100B5000AE059093AF05A093B005B093B105809119
:100B60006F00826080936F00C9CEC330E9F480913A
:100B70009100887F8160809391008FE79EE390933E
:100B80009900809398008FEF9FEFDC018093A6057A
:100B90009093A705A093A805B093A9058091710033
:100BA000826080937100AACEC430E9F48091A100E4
:100BB000887F81608093A1008FE79EE39093A900D6
:100BC0008093A8008FEF9FEFDC018093A2059093A4
:100BD000A305A093A405B093A5058091720082603F
:100BE000809372008BCEC530E9F480912101887F1B
:100BF0008160809321018FE79EE390932901809388
:100C000028018FEF9FEFDC0180939E0590939F0555
:100C1000A093A005B093A10580917300826080939A
:100C200073006CCEC23089F034F4CC2361F0C13053
:100C300009F064CE83CFC43009F4BECF0CF49DCF4D
:100C4000C530C9F25BCE8FE75FCF8FE78093B300EB
:100C50008FEF9FEFDC018093AA059093AB05A093E3
:100C6000AC05B093AD0580917000826080937000F8
:100C700045CE862F642F0C943B043FB7F8948091A7
:100C8000E3049091E404A091E504B091E60426B554
:100C9000A89B05C02F3F19F00196A11DB11D3FBFB4
:100CA000BA2FA92F982F8827BC01CD01620F711D83
:100CB000811D911D42E0660F771F881F991F4A957D
:100CC000D1F708958F929F92AF92BF92CF92DF9209
:100CD000EF92FF924B015C010E943D066B017C018B
:100CE0000E943D066C197D098E099F09683E73407C
:100CF00081059105A8F321E0821A9108A108B108A5
:100D000088EEC80E83E0D81EE11CF11C811491040A
:100D1000A104B10429F7FF90EF90DF90CF90BF902E
:100D2000AF909F908F9008952FB7F8946091DF0453
:100D30007091E0048091E1049091E2042FBF089546
:100D40000F931F93CF93DF93C82FD62F86E0C89FB2
:100D5000F0011124E858F84F11A2878D90A181303D
:100D60009105F1F058F082309105F1F1039709F403
:100D700040C0DF91CF911F910F9108956623C9F371
:100D800061E070E08C2F0E94B3010E949406609392
:100D9000D0077093D1078093D2079093D307E9CF00
:100DA0000E9494060091D0071091D1072091D2079C
:100DB0003091D307AB01BC01401B510B620B730B8D
:100DC0008091E2079091E307B0E0A0E084179507D7
:100DD000A607B70748F462E070E08C2FDF91CF914F
:100DE0001F910F910C94B30163E070E0D111C1CF5A
:100DF000F4CF70E060E0F1CF6F927F928F929F927C
:100E0000AF92BF92CF92DF92EF92FF920F931F9318
:100E1000CF93DF9381E08093E4070E9494060091D2
:100E2000D4071091D5072091D6073091D707AB0191
:100E3000BC01401B510B620B730B8091E00790913A
:100E4000E107B0E0A0E084179507A607B70708F010
:100E500014C1C0E08091DE07C81760F4E091DA07A2
:100E6000F091DB07EC0FF11D62E080810E943B04F2
:100E7000CF5FF0CF712C812C912C54018394809101
:100E8000DF07781608F05FC0072D10E0E091DC075F
:100E9000F091DD07E00FF11F61E080810E943B04CB
:100EA000E091DC07F091DD07E00FF11F60E0808149
:100EB0000E94C403D501C401072C04C0880F991FE8
:100EC000AA1FBB1F0A94D2F76C017C01E094F09436
:100ED000612C8091DE076816F8F4C62DD0E0E09111
:100EE000DA07F091DB07EC0FFD1F80810E94980369
:100EF0002496CC0FDD1FC858D84F892B41F4888128
:100F000099818C299D29998388836394E2CF888174
:100F100099818E219F21F7CFE091DC07F091DD07C9
:100F2000E00FF11F61E080810E94C4038091DC0723
:100F30009091DD07080F191F60E0F80180810E9481
:100F40003B0473949CCFC8E7D7E0FE018FEF9FEF7F
:100F5000278D30A1232B21F4148E968F858F11A21B
:100F6000369627E0E43BF20799F7F12C96E0D92E6C
:100F70008091DE07F81608F050C0E12C0F2D10E02C
:100F8000000F111F0058184F2091DF07E21608F0DC
:100F900042C0F801608171810E2C02C07695679580
:100FA0000A94E2F7F29E900111242E0D311DE8E71C
:100FB000F7E080E0458D568D2417350709F461C0B0
:100FC0008F5F36968A30B1F760FF23C0E8E7F7E01D
:100FD00090E080E0448D411117C0E091D807F09176
:100FE000D907E20FF31F4081D89EF001D99EF00D82
:100FF0001124E858F84F448F368F258F10A2178E92
:1010000061E00E94A00605C0019636968A309105DF
:1010100009F7E394B9CFF394ABCF10E089A1811124
:10102000182F2696F7E0C43BDF07C1F70E9494060D
:101030006093D4077093D5078093D6079093D70712
:101040001123D9F0809199078823B9F080919707EF
:1010500090919807019789F480919407DF91CF913F
:101060001F910F91FF90EF90DF90CF90BF90AF90C6
:101070009F908F907F906F9008951092E40780E08A
:10108000EDCF6170BECF0F931F930E9494066093C3
:101090005B0670935C0680935D0690935E0683E525
:1010A00096E00E94330297FF1DC00E9494060091B3
:1010B0005B0610915C0620915D0630915E06601B18
:1010C000710B820B930B00915706109158062091DB
:1010D000590630915A066017710782079307F8F294
:1010E0008FEF9FEF1F910F9108950F931F93CF9351
:1010F000DF93EC018B0188859985029751F461306B
:10110000710509F43AC06CF560E00115110509F4A8
:1011100035C088859985049751F40130110509F48B
:1011200055C00CF035C00115110509F43EC0888585
:101130009985059709F0C8C00A30110508F0C4C0A8
:10114000F8018827E955F74F8F4F0C94771CFA0860
:101150000409120924093C093E0944094E095C09A5
:1011600062096230710591F060E00330110589F683
:101170008C850E94C40360E005C061E08C850E94FC
:10118000C40361E08E850E94C403C3CF61E0F0CF49
:101190000230110509F10330110509F0C8CF61E0F3
:1011A0008C850E94C40360E01CC061E08C850E94B5
:1011B000C40360E08E850E94C40361E088890E94B8
:1011C000C40360E08A890E94C403B1CF60E08C85CB
:1011D0000E94C40361E0EECF60E08C850E94C403EE
:1011E00061E08E850E94C40360E088890E94C40388
:1011F00061E0E8CF60E08C850E94C40361E08E85E9
:101200000E94C40361E009C060E08C850E94C403B1
:1012100061E08E850E94C40360E088890E94C40357
:1012200060E00DC060E08C850E94C40361E08E85A3
:101230000E94C40360E088890E94C40361E08A8937
:101240000E94C40361E011C060E08C850E94C40369
:1012500061E08E850E94C40360E088890E94C40317
:1012600061E08A890E94C40360E08C89DF91CF919C
:101270001F910F910C94C40361E0E7CF61E08C856E
:101280000E94C40360E0E5CF61E08C850E94C40346
:1012900060E08E850E94C40361E0DFCF61E08C8551
:1012A0000E94C40360E08E850E94C40361E08889C7
:1012B0000E94C40360E0D5CF61E08C850E94C40326
:1012C00060E09DCF60E0F9CFDF91CF911F910F914A
:1012D00008954F925F926F927F928F929F92AF92FA
:1012E000BF92CF92DF92EF92FF920F931F93CF9313
:1012F000DF93EC018B0177FF04C000271127061B49
:10130000170B161617060CF04AC081E090E099837F
:10131000888384E0E82EF12C9AE0C92ED12C0115A7
:10132000110509F44EC00E943D068E889F88A88C46
:10133000B98C2B013C01481859086A087B088A803F
:101340009B80AC80BD80481459046A047B0438F348
:101350006E8B7F8B888F998F8A859B8528813981B9
:101360002130310511F501969B878A872E813F81B7
:101370008217930711F41B861A86015011098A857A
:101380009B8528853985B6012530310509F0B701DF
:101390000E94631CBC01CE010E947508C0CF672B60
:1013A00009F4B7CF19821882B4CF892B21F48E812A
:1013B0009F819B878A878A859B8501979B878A87E0
:1013C000DCCFDF91CF911F910F91FF90EF90DF90D5
:1013D000CF90BF90AF909F908F907F906F905F90D5
:1013E0004F90089590E080E00895CF92DF92EF92C1
:1013F000FF920F931F93CF93DF931F921F92CDB74E
:10140000DEB769834A83880F991F009146071091C0
:101410004707000F111FE0EFF6E09F01205F364005
:101420002017310714F41192F8CF2981FC01E05103
:10143000F94F21838A81808360E0809144070E9474
:10144000C4031016110604F501501109F801E0510A
:10145000F94FE080D0904207C090400788E0F82E16
:101460006E2D661F6627661F8C2D0E94C403EE0C2E
:1014700061E08D2D0E94C40360E08D2D0E94C403A5
:10148000FA94F110EDCFDDCF61E0809144070F9029
:101490000F90DF91CF911F910F91FF90EF90DF9010
:1014A000CF900C94C403EF92FF920F931F93CF93AE
:1014B0007C018C0183E0000F111F8A95E1F7005039
:1014C000194FC1E0F80111928F0140E06C2FC70164
:1014D0000E94F509CF5FC930A9F7CF911F910F91F5
:1014E000FF90EF900895CF93DF93EC0160E08E8141
:1014F0000E94C40361E08E810E94C40360E08E817B
:101500000E94C4038BE891E00197F1F7DF91CF913E
:101510000895CF92DF92EF92FF920F931F93CF9394
:10152000DF936C017C0187E0E80EF11CD0E0C0E0A5
:10153000062F10E0B8010C2E02C0759567950A942D
:10154000E2F76170F70181917F010E94C403219647
:10155000C430D10579F7C601DF91CF911F910F916A
:10156000FF90EF90DF90CF900C94730ACF92DF92B0
:10157000EF92FF920F931F93CF93DF93EC01F62E20
:10158000642F8C810E94C4038D818F3F19F060E02D
:101590000E94C4030F2D10E08F8584FF25C06E01CB
:1015A00087E0C80ED11CF12CE12CB8010E2C02C032
:1015B000759567950A94E2F76170F60181916F0164
:1015C0000E94C403FFEFEF1AFF0A88E0E816F10457
:1015D00061F7CE01DF91CF911F910F91FF90EF90B6
:1015E000DF90CF900C94730AB80184E075956795ED
:1015F0008A95E1F7CE010E94890A6F2DCE01DF9115
:10160000CF911F910F91FF90EF90DF90CF900C94AE
:10161000890A40E0682F8DE399E00C94B60A81E0D6
:101620000E94090B8BE39FE10197F1F70895CF9397
:10163000DF93823029F490914C09986090934C0983
:10164000809350091092510980E48093520980E1FF
:101650008093530980E58093540961E080914109AA
:101660000E943B04809142098F3F19F061E00E9483
:101670003B0461E0809143090E943B04CDE3D9E043
:101680009E012D53394080914C0984FD0BC084E0AC
:1016900090E021962817390744F461E08E810E947A
:1016A0003B04EECF88E090E0F4CF8BE39DE0019720
:1016B000F1F760E0809141090E94C40360E08091ED
:1016C00043090E94C403809142098F3F19F060E0F2
:1016D0000E94C40380914C0984FD34C063E08DE313
:1016E00099E00E94890ACBE4D6E4CE010197F1F794
:1016F00063E08DE399E00E94890A2197F1F763E0A6
:101700008DE399E00E94890A83E592E00197F1F761
:1017100062E08DE399E00E94890A80914C09806221
:101720000E94090B84E080934D098CE00E94090B14
:101730000E940F0B82E080934E0986E0DF91CF91EB
:101740000C94090B80620E94090B8BE496E40197CC
:10175000F1F780914C0980620E94090B83E592E0C9
:101760000197F1F780914C0980620E94090BD5CF57
:1017700090915009691710F06FEF690FE62FF0E0B4
:10178000E35CF64F9489890F80680C94090B41E063
:101790000E94B60A81E090E00895CF92DF92EF9226
:1017A000FF920F931F93CF93DF93EB017B012FE009
:1017B000E20EF11C8B016C01C61AD70AC601800F1C
:1017C000911F0E94EA1BF80181938F01EE15FF051E
:1017D000A9F7CE01DF91CF911F910F91FF90EF906C
:1017E000DF90CF900895FB0101900020E9F7319739
:1017F000AF01461B570BDC01ED91FC910280F38198
:10180000E02D19948F929F92AF92BF92EF92FF9228
:101810000F931F93CF93DF93CDB7DEB7A1970FB68A
:10182000F894DEBF0FBECDBF7C01FA01CB0119A237
:10183000223008F42AE08E010F5D1F4F822E912C7A
:10184000B12CA12CBF01A50194010E94321CF90109
:10185000CA016A300CF5605DD8016E938D01232BAF
:10186000242B252B79F790E080E0109721F0BD0123
:10187000C7010E94F30BA1960FB6F894DEBF0FBE0E
:10188000CDBFDF91CF911F910F91FF90EF90BF904F
:10189000AF909F908F900895695CDECFCF92DF92DA
:1018A000EF92FF920F931F93CF93DF93EC016A01A6
:1018B0007B016DE20E9497028C0144275527BA01F3
:1018C0004C195D096E097F092AE0CE010E94020CC5
:1018D000800F911FDF91CF911F910F91FF90EF909B
:1018E000DF90CF900895AB01770F660B770B77FDF4
:1018F0000C944E0C2AE00C94020CBC018DE399E090
:101900000C94F30BCF93DF9360E080E00E94B80B60
:101910008BE792E00E947D0C61E080E00E94B80BB2
:1019200061E087E10E94C403C5E5D9E02E813F81D3
:10193000032E000C440B550B60E077E883E993E03D
:101940000E94001CCA01B9012AE030E040E050E0EA
:101950000E94001C2A833B834C835D8368ED7FEFEC
:10196000CE010E94690968EE73E080E090E0DF91AB
:10197000CF910C946206CF93DF9360E080E00E94E9
:10198000B80B8DE892E00E947D0C61E080E00E943F
:10199000B80B61E086E10E94C403CFE6D9E02E8156
:1019A0003F81032E000C440B550B60E077E883E980
:1019B00093E00E94001CCA01B9012AE030E040E037
:1019C00050E00E94001C2A833B834C835D8368E2C5
:1019D00070E0CE010E94690968EE73E080E090E05B
:1019E000DF91CF910C9462060F931F93CF93DF93F7
:1019F000EC010E94E9018C016EE972E0CE010E94C7
:101A0000F30B800F911FDF91CF911F910F910895DC
:101A1000FC0124813581232B39F421E0FB018081F5
:101A2000882349F020E007C0808191810E94A21E96
:101A300021E0892BB9F7822F0895FC01248135819B
:101A4000FB014481558124173507E1F4FC018081B5
:101A50009181FB01608171810097D1F06115710561
:101A6000A1F4232BC1F0FC01808190E008C0232B5E
:101A700091F0FB01808190E091958195910921E0A1
:101A8000892B09F020E0822F08950E94A21EF7CF33
:101A90006115710561F721E0F6CF0F931F93CF9386
:101AA000DF938C01EB01FC01808191810097E1F0D3
:101AB0006881798161157105A9F0428153812C817A
:101AC0003D814217530770F00E94AB1E8C819D81AF
:101AD000F801958384831D821C82DF91CF911F9131
:101AE0000F9108950E942F1D88819981F80191839B
:101AF00080838A819B81938382838C819D8195835E
:101B00008483198218821B821A82E5CFCF93DF93D8
:101B1000EC0188819981009711F00E942F1D198294
:101B200018821D821C821B821A82DF91CF91089538
:101B3000FC0180819181009711F00C942F1D089574
:101B40000F931F93CF93DF93EC01888199810097C6
:101B500059F02A813B812617370730F081E0DF9169
:101B6000CF911F910F9108958B016F5F7F4F0E945E
:101B7000B81D009759F0998388831B830A832C81B1
:101B80003D81232B59F7FC011082E8CF80E0E7CF9D
:101B9000EF92FF920F931F93CF93DF93611571051F
:101BA00041F480E0DF91CF911F910F91FF90EF9072
:101BB000089541155105B1F07B01EC010C811D81A7
:101BC000040F151FB8010E94A00D882351F328812E
:101BD00039818C819D81B701820F931F0E94AB1EBA
:101BE0001D830C8381E0DECFCF93DF93EC01FB01FB
:101BF00044815581608171810E94C80D811103C0AB
:101C0000CE010E94860DCE01DF91CF910895EF9213
:101C1000FF920F931F93CF93DF93EC017B018A0117
:101C2000BA010E94A00D81110BC0CE010E94860D49
:101C3000CE01DF91CF911F910F91FF90EF9008950A
:101C40001D830C83B701888199810E94AB1EF0CF60
:101C5000FB0101900020E9F73197AF01461B570BBC
:101C60000C94070E0F931F93CF93DF93CDB7DEB77E
:101C7000A2970FB6F894DEBF0FBECDBF8C01CB018B
:101C8000BA01F80111821082138212821582148225
:101C90002AE0AE014F5F5F4F0E948F1BBE016F5F56
:101CA0007F4FC8010E94280EA2960FB6F894DEBF9F
:101CB0000FBECDBFDF91CF911F910F910895CF93AC
:101CC000DF931F921F92CDB7DEB7FC011182108205
:101CD000138212821582148269831A82BE016F5F99
:101CE0007F4F0E94280E0F900F90DF91CF910895A3
:101CF000CF93DF93EC01FB018617970749F06081D2
:101D000071816115710541F0448155810E94070E72
:101D1000CE01DF91CF9108950E94860DF9CFFC018D
:101D20001182108213821282158214820C94780E12
:101D3000FC01118210821382128215821482FB012F
:101D400001900020E9F73197AF01461B570B0C9427
:101D5000070E8F929F92AF92BF92CF92DF92EF9237
:101D6000FF920F931F93CF93DF93EC018B01FB0145
:101D7000C480D580D60111972FEF3FEFB12CA12C55
:101D800090E080E070E060E0A817B9072CF14617FA
:101D900057072CF1FC0131967F018C159D0560F4ED
:101DA000F801808091808114910431F0F401E80FF2
:101DB000F91FE081EC3219F0A817B90759F46F5FE9
:101DC0007F4F5901FFEFAF1ABF0A9701A817B90754
:101DD00009F09C01C701D8CF46175707ECF56901F8
:101DE0002A153B0510F06501590160EA72E0CE0149
:101DF0000E94980EF801E480F580CE14DF04D8F438
:101E0000AE14BF0408F47501F80160817181FB0113
:101E1000EE0DFF1DB08010826C0D7D1DCE01611591
:101E20007105B9F00E94280EF80180819181E80EB9
:101E3000F91EF701B082CE01DF91CF911F910F9172
:101E4000FF90EF90DF90CF90BF90AF909F908F90DA
:101E500008950E94860DE8CF60EA72E0CE010E94EC
:101E6000980EE9CFCF92DF92EF92FF921F93CF931C
:101E7000DF93CDB7DEB765970FB6F894DEBF0FBE20
:101E8000CDBF6C01F12CE12C8091E8049091E90424
:101E9000E816F9060CF044C0BE016F5F7F4FC70122
:101EA0000E94CD0BBE016F5F7F4FCE0140960E9416
:101EB000980EBE01605F7F4FC6010E941D0D11E0AC
:101EC000811109C061EA72E0C6010E94080D11E0AB
:101ED000811101C010E0CE0140960E94980D11239F
:101EE000D9F06CEA72E086EB95E00E94F30B6EE9A4
:101EF00072E086EB95E00E94F30B812F65960FB69A
:101F0000F894DEBF0FBECDBFDF91CF911F91FF9040
:101F1000EF90DF90CF9008958FE0E80EF11CB4CFE2
:101F200010E0EBCF1F920F920FB60F9211240BB659
:101F30000F922F933F934F935F936F937F938F9362
:101F40009F93AF93BF93EF93FF938091AA059091D6
:101F5000AB05A091AC05B091AD05892B8A2B8B2BDD
:101F6000E1F190919905E0919A05F0919B058081AE
:101F7000892780838091AA059091AB05A091AC053B
:101F8000B091AD05181619061A061B069CF480912F
:101F9000AA059091AB05A091AC05B091AD05019754
:101FA000A109B1098093AA059093AB05A093AC0554
:101FB000B093AD05FF91EF91BF91AF919F918F913C
:101FC0007F916F915F914F913F912F910F900BBE39
:101FD0000F900FBE0F901F901895809110020E94D5
:101FE000F603E8CF1F920F920FB60F9211240BB693
:101FF0000F922F933F934F935F936F937F938F93A2
:102000009F93AF93BF93EF93FF9386EB95E00E946E
:102010007502FF91EF91BF91AF919F918F917F9149
:102020006F915F914F913F912F910F900BBE0F9049
:102030000FBE0F901F9018951F920F920FB60F9220
:1020400011240BB60F922F938F939F93EF93FF93CF
:10205000E091C605F091C7058081E091CC05F09133
:10206000CD0582FD1DC090818091CF058F5F8F735C
:102070002091D005821741F0E091CF05F0E0EA54BD
:10208000FA4F958F8093CF05FF91EF919F918F919C
:102090002F910F900BBE0F900FBE0F901F901895B1
:1020A0008081F2CF1F920F920FB60F9211240BB6C0
:1020B0000F922F933F934F935F936F937F938F93E1
:1020C0009F93AF93BF93EF93FF9383E596E00E94B6
:1020D0007502FF91EF91BF91AF919F918F917F9189
:1020E0006F915F914F913F912F910F900BBE0F9089
:1020F0000FBE0F901F9018951F920F920FB60F9260
:1021000011240BB60F922F938F939F93EF93FF930E
:10211000E0916306F09164068081E0916906F09198
:102120006A0682FD1DC0908180916C068F5F8F735F
:1021300020916D06821741F0E0916C06F0E0ED5AB7
:10214000F94F958F80936C06FF91EF919F918F913E
:102150002F910F900BBE0F900FBE0F901F901895F0
:102160008081F2CF1F920F920FB60F9211242F93FE
:102170003F938F939F93AF93BF938091DF04909190
:10218000E004A091E104B091E2043091DE0423E088
:10219000230F2D3758F50196A11DB11D2093DE04A4
:1021A0008093DF049093E004A093E104B093E204F1
:1021B0008091E3049091E404A091E504B091E604D9
:1021C0000196A11DB11D8093E3049093E404A093B4
:1021D000E504B093E604BF91AF919F918F913F9139
:1021E0002F910F900FBE0F901F90189526E8230F88
:1021F0000296A11DB11DD2CF0F931F93CF93DF93F2
:102200001092B9051092B80548EE53E060E070E016
:102210004093BA055093BB056093BC057093BD0510
:1022200087E592E09093B7058093B6052DEC30E0FA
:102230003093C3052093C2052CEC30E03093C505E4
:102240002093C40528EC30E03093C7052093C605E1
:1022500029EC30E03093C9052093C8052AEC30E022
:102260003093CB052093CA052EEC30E03093CD059A
:102270002093CC051092CF051092D0051092D10575
:102280001092D205109256061092550640935706AA
:10229000509358066093590670935A0690935406CB
:1022A0008093530685EC90E09093600680935F06E0
:1022B00084EC90E0909362068093610680EC90E05D
:1022C000909364068093630681EC90E09093660699
:1022D0008093650682EC90E0909368068093670691
:1022E00086EC90E090936A068093690610926C06E3
:1022F00010926D0610926E0610926F0660EA72E000
:1023000089E899E00E94980E10927A091092790952
:102310001092700910926F09109285091092860927
:10232000109287091092880908E210E0109376094C
:102330000093750982E490E090937C0980937B0977
:1023400083E490E090937E0980937D0984E490E09B
:102350009093800980937F0985E490E090938209AF
:102360008093810961E082E40E943B0461E08091F6
:102370007D090E943B0461E080917F090E943B043B
:1023800061E0809181090E943B04109284091092BF
:102390008309C4E0D0E0D0937809C0937709109204
:1023A000600910925F091092560910925509109217
:1023B0006B0910926C0910926D0910926E091093BE
:1023C0005C0900935B098EE390E09093620980932F
:1023D00061098FE390E0909364098093630980E43E
:1023E00090E0909366098093650981E490E0909372
:1023F00068098093670961E08EE30E943B0461E015
:10240000809163090E943B0461E0809165090E940C
:102410003B0461E0809167090E943B0410926A09C5
:1024200010926909D0935E09C0935D09109240092A
:1024300010923F0983E792E090933E0980933D0913
:1024400086E3809341098FEF8093420987E380936D
:10245000430988E38093440989E3809345098AE32B
:10246000809346098BE380934709109248091092A4
:10247000490910924A0910924B0910924C0981E0C7
:102480000E94170B60EA72E087E399E00E94980EC1
:1024900067EB72E081E399E00E94980E67EA72E0D0
:1024A0008BE299E00E94980E6DEB72E085E299E074
:1024B0000E94980E64EC72E08FE199E00E94980E01
:1024C00061EA72E083EF97E00E94980E6AEC72E096
:1024D00089EF97E00E94980ED0E0C0E060EA72E0D9
:1024E000CE018150984F0E94980E2696C03281E00E
:1024F000D807A1F766ED72E08DEE97E00E94980E86
:102500006DEE72E087EE97E00E94980E10927A07C7
:1025100010927E0710927D0710927F0789E692E065
:102520009093790780937807E4E9F7E080ED97E0EE
:10253000108214821382158236968E179F07C1F778
:1025400085E192E09093DB078093DA0781E192E0E6
:102550009093DD078093DC0784E08093DE0780930F
:10256000DF0789E192E09093D9078093D8078AE04A
:1025700090E09093E1078093E00784EF91E09093DF
:10258000E3078093E2071092E6071092E5071092A6
:10259000D4071092D5071092D6071092D707109241
:1025A000E40760EA72E080E697E00E94980E60EA35
:1025B00072E086E697E00E94980E60EA72E08CE690
:1025C00097E00E94980E60EA72E082E797E00E942E
:1025D000980E6DE173E088E497E00E94980E64EF36
:1025E00072E08EE497E00E94980E66EF72E084E558
:1025F00097E00E94980E68EF72E08AE597E00E94EB
:10260000980ECFE0D0E0D0934107C093400781E11E
:1026100090E0909343078093420780E190E090938D
:1026200045078093440781E090E0909347078093AB
:10263000460761E08FE00E943B0461E08091420721
:102640000E943B0461E0809144070E943B0461E0EA
:10265000809144070E94C403D0934107C093400770
:10266000E0E0F7E0119287E0E034F807D9F7D0E036
:10267000C0E08091460790914707C817D90774F5C5
:1026800040E06FE0CE010E94F509809146079091ED
:102690004707C817D9072CF447E06BE0CE010E942A
:1026A000F50940E069E0CE010E94F50980914607F6
:1026B00090914707C817D9071CF4CE010E94530A0E
:1026C0008091460790914707C817D9072CF440E03E
:1026D0006CE0CE010E94F5092196CBCFDF91CF911E
:1026E0001F910F910895CF93DF93CDB7DEB7EC978D
:1026F0000FB6F894DEBF0FBECDBF789484B582606C
:1027000084BD84B5816084BD85B5826085BD85B595
:10271000816085BD80916E00816080936E00109213
:10272000810080918100826080938100809181008E
:10273000816080938100809180008160809380001F
:102740008091B10084608093B1008091B00081607D
:102750008093B0008091910082608093910080917D
:1027600091008160809391008091900081608093BE
:1027700090008091A10082608093A1008091A100CF
:1027800081608093A1008091A00081608093A0006F
:1027900080912101826080932101809121018160DB
:1027A000809321018091200181608093200180919C
:1027B0007A00846080937A0080917A0082608093AE
:1027C0007A0080917A00816080937A0080917A000B
:1027D000806880937A001092C10061E08DE00E94D1
:1027E0003B0461E086E10E943B0461E087E10E94D6
:1027F0003B0460E08DE30E943B0461E085E30E94BE
:102800003B0485E30E94F60382E00E94170B0E94BE
:102810000F0B80E40E94090B08E012E0A0E1EA2E11
:10282000A2E0FA2EF80161918F018DE399E00E94F8
:10283000C70BE016F106B1F788E40E94090B00E02F
:1028400012E0F80161918F018DE399E00E94C70BBE
:10285000F2E008301F07A9F70E94940660939205E2
:1028600070939305809394059093950580917B00D8
:10287000877F80937B0086E480937C0080917A0040
:10288000806480937A0080917A0086FDFCCF8091ED
:10289000780060917900762F682F072E000C880B46
:1028A000990B611571058105910511F00E947B1B43
:1028B00083E596E00E948C0186EB95E00E948C01F6
:1028C000BE016E5D7F4F90E080E00E94CD0B809155
:1028D000F0049091F1040F969093F1048093F0042A
:1028E00010E000E0C8010E94EA1B8F3F41F00F5F3B
:1028F0001F4F011520E11207A9F710E000E0109327
:10290000E9040093E8041093F1040093F00410E04C
:1029100000E0EE24E394F12C8091E8049091E90426
:10292000081719070CF053C0BE016D5E7F4FC80138
:102930000E94CD0B1AAA19AA1CAA1BAA1EAA1DAA7C
:102940004AE0BE016F5F7F4FC7010E94841BBE013A
:102950006F5F7F4FCE01C1960E94280E6AEF72E032
:10296000CE0101960E94980EBE016F5C7F4FCE0192
:1029700001960E94F40D6C0142E050E066ED73E0B8
:102980000E94C80D811103C0C6010E94860DB601C8
:1029900086EB95E00E94F40CCE0101960E94980D02
:1029A000CE01C1960E94980D3FEFE31AF30ABE01D3
:1029B0006D5E7F4F86EB95E00E94F30B6EE972E04F
:1029C00086EB95E00E94F30B015F1F4FA5CFE3E577
:1029D000EE2EE2E0FE2E03E312E0F80180810E5FAE
:1029E0001F4F60E00E943B04E016F106B1F78091B2
:1029F0004607909147071816190634F441E06CE039
:102A000090E080E00E94F509809146079091470789
:102A10001816190634F445E06AE090E080E00E9460
:102A2000F50980914607909147071816190624F476
:102A300090E080E00E94530A60E8262E312C74E07A
:102A4000472E512C612C712C0E949406AB01BC01C5
:102A50008091920590919305A0919405B091950570
:102A6000805F984DAF4FBF4F481759076A077B07E4
:102A700028F560E083E00E94B80B83E093E00E94B9
:102A80007D0C60E081E00E94B80B60E08DE399E08E
:102A90000E94C70B60E08EE00E94B80B60E08DE3FF
:102AA00099E00E94C70B61E080E00E94B80B8EE0C5
:102AB00093E00E947D0C0E940403C6CF8417950703
:102AC000A607B707C0F760E080E00E94B80B8FE16F
:102AD00093E00E947D0C61E080E00E94B80B80E3EF
:102AE00093E00E947D0C0E94FC0610E000E098013B
:102AF0002D5C3D4F690152E7852E55E0952EC801AA
:102B00008E589A4F7C01F801E658FA4F5F01F601A2
:102B10008081F2E0CF0ED11C0E949803F7018193CF
:102B200091937F01EA15FB0591F7085F1F4F003273
:102B30001105E9F642EFC42E44E0D42EC601BC01D3
:102B4000605F7F4F9401285F3F4FDC01F4014191AA
:102B500051914F0111965C934E93FB015183408339
:102B600013965C934E9312975383428314966C5F33
:102B70007F4F2815390551F7809622E735E0281751
:102B80003907E9F630EFE32E36E0F32EBB24B39499
:102B900010E000E08091460790914707F801EE0FA2
:102BA000FF1FEC0DFD1D208131812130310509F021
:102BB00040C01816190684F4F7014089C101002E9F
:102BC00002C0959587950A94E2F7482B408B6B2DB0
:102BD00090E080E00E94F5090F5F1F4F083011055B
:102BE000C9F6FFEFEF1AFF0AB39420E1C20ED11C21
:102BF00039E0B312CDCF83E596E00E945502181656
:102C000019060CF058CF60EA72E0CE0101960E94DE
:102C1000980E0E94430897FD1BC08B8B1C8A41E0D5
:102C200050E0BE016D5E7F4FCE0101960E94C80D3F
:102C3000F0CF1816190684F6A101002E02C0559592
:102C400047950A94E2F74095F70180894823BECF63
:102C5000BE016F5F7F4F87E399E00E944D0DCE016B
:102C600001960E94980D67E379E0CE0101960E94DB
:102C70008F0E50E040E0BE016F5F7F4FCE01C796E0
:102C80000E94A90ECE0101960E94980D67E379E09B
:102C9000CE0101960E948F0E41E050E0BE016F5FB1
:102CA0007F4FCE01C1960E94A90ECE0101960E94CF
:102CB000980D63EE72E0CE01C1960E94080D882344
:102CC00009F49FC0BE01695C7F4FCE0182960E94CD
:102CD0008F0EBE016E5D7F4FCE0101960E948F0E5A
:102CE000CE0101960E94320F182FCE0101960E944C
:102CF000980D60E080E0112339F10E94B80B83E465
:102D000093E00E947D0C61E080E00E94B80B8DE5AD
:102D100093E00E947D0C68EB7BE080E090E00E94F5
:102D2000620661E070E083E596E00E94730CCE01DC
:102D300082960E94980DCE01C1960E94980DCE01F8
:102D4000C7960E94980DB7CE0E94B80B83E493E01B
:102D50000E947D0C61E080E00E94B80B87E793E061
:102D60000E947D0C68EB7BE080E090E00E946206B0
:102D7000BE016E5D7F4FCE0143960E948F0E2B8960
:102D80003C89CE0101964C014F89588DFC0190E0A1
:102D900080E04817590759F060E02115310521F00E
:102DA000D901A80FB91F6C9161930196F2CFE09001
:102DB000F004F090F10410E000E0F401B1904F0154
:102DC0006701C00ED11EC6010E94EA1BB81621F091
:102DD0006B2DC6010E94F21B0F5F1F4F0F301105B4
:102DE00061F78091F0049091F1040F969093F104B3
:102DF0008093F004CE0143960E94980D70E060E04D
:102E000092CF62E973E0CE01C1960E94080D88233B
:102E100009F43FC0BE01695C7F4FCE0143960E941A
:102E20008F0EBE016D5E7F4FCE0101960E948F0E08
:102E3000CE0101960E94320F182FCE0101960E94FA
:102E4000980D1123F9F061E070E083E596E00E94AF
:102E5000730C60E080E00E94B80B88E993E00E9468
:102E60007D0C61E080E00E94B80B83EB93E00E9450
:102E70007D0C68E873E180E090E00E946206CE017C
:102E8000439657CF70E060E083E596E00E94730CB4
:102E9000F6CF6BEC73E0CE01C1960E94080D88233B
:102EA00009F449CF0E942C1B2AE030E040E050E0BA
:102EB0000E94001CAB01BC01CE0101960E94320EA3
:102EC000BE016F5F7F4F80E697E00E944D0DCE01FF
:102ED00001960E94980D0E942C1B2AE030E040E0F1
:102EE00050E00E94001CAB01BC01CE0101960E9483
:102EF000320EBE016F5F7F4F86E697E00E944D0D58
:102F0000CE0101960E94980D0E942C1BA3019201F4
:102F10000E94001CF6E0F69F9001F79F300D1124EF
:102F2000B901685B784FCE0101960E948F0EBE01F9
:102F30006F5F7F4F8CE697E00E944D0DCE010196AA
:102F40000E94980D0E942C1BA30192010E94001C5C
:102F500046E0469F9001479F300D1124B901685B00
:102F6000784FCE0101960E948F0EBE016F5F7F4F9A
:102F700082E797E00E944D0DCE0101960E94980DC8
:102F800061E085E00E94B80B81ED93E00E947D0C2A
:102F900060E677E0CE0101960E948F0E66E677E04C
:102FA000CE0101960E94F40D6CE677E00E94F40DCC
:102FB00062E777E00E94F40DBC0189E899E00E9485
:102FC000780ECE0101960E94980D69E879E086EBB3
:102FD00095E00E94F40C69E879E083E596E00E94B0
:102FE000F40C60EA72E0CE0182960E94980E0E9474
:102FF0000F0B10E000E060E080E00E94B80B89ED6C
:1030000093E00E947D0C61E080E00E94B80BBE015D
:103010006E5D7F4F8DE399E00E94E9010E94FC06FE
:10302000F82E8823D9F38AE2F8127BC1BE016E5DC7
:103030007F4FCE0143960E948F0E8F89988D049703
:1030400061F0E12C72C003301105ACF203301105C0
:1030500009F478C16BEA74E095C170E060E0CE01DC
:1030600043960E94D601FC016081CE0101960E9428
:103070005F0E60E677E0CE0101960E941D0DE82EFE
:10308000CE0101960E94980DEE20D9F261E070E029
:10309000CE0143960E94D601FC016081CE010196CB
:1030A0000E945F0E66E677E0CE0101960E941D0D3C
:1030B000E82ECE0101960E94980DEE2011F262E0FA
:1030C00070E0CE0143960E94D601FC016081CE01E2
:1030D00001960E945F0E6CE677E0CE0101960E9499
:1030E0001D0DE82ECE0101960E94980DEE2009F4E8
:1030F000A8CF63E070E0CE0143960E94D601FC01A8
:103100006081CE0101960E945F0E62E777E0CE01FA
:1031100001960E941D0DD82ECE0101960E94980D99
:10312000EE24E394DD2009F48CCFCE0143960E9477
:10313000980DEE2009F4C2C00E940F0B60E080E001
:103140000E94B80B8AEE93E00E947D0C61E080E063
:103150000E94B80B6FE373E0CE0101960E94980EB7
:10316000BE016E5D7F4FCE0101960E94F40DBC0141
:103170008DE399E00E94E901CE0101960E94980D2D
:1031800060ED77E080E090E00E9462060E940F0B05
:1031900060E080E00E94B80B8BEF93E00E947D0C12
:1031A00068EE73E080E090E00E9462068091EE0499
:1031B0009091EF04181619060CF446C00E9494066C
:1031C0006093EA047093EB048093EC049093ED0415
:1031D0000E94BB0C60E086E10E94C40360E080E0D6
:1031E0000E94B80B8CE094E00E947D0C61E080E0CE
:1031F0000E94B80B0E949406AB01BC018091EA04C6
:103200009091EB04A091EC04B091ED0488579C4E92
:10321000AF4FBF4F481759076A077B0758F368E855
:1032200073E180E090E00E9462060E94820C60E000
:1032300087E10E94C4038091EE049091EF0401960F
:103240009093EF048093EE0460E080E00E94B80B5E
:1032500083E294E00E947D0C0E940F0B8EA19FA13F
:10326000059710F10E940F0B60E080E00E94B80B00
:1032700089E494E00E947D0C61E080E00E94B80B3C
:1032800085E594E00E947D0C60ED77E080E090E0C1
:103290000E94620660EA72E0CE0182960E94280EC9
:1032A0000E940F0B0F5F1F4FE11048C0F3E2FF12A7
:1032B000CACE0330110509F0F3C044C00E940F0BC1
:1032C00060E080E00E94B80B87E394E00E947D0CF0
:1032D00061E080E00E94B80B6FE373E0CE010196DD
:1032E0000E94980EBE016E5D7F4FCE0101960E9436
:1032F000F40DBC018DE399E00E94E901CE01019635
:103300000E94980D0F5F1F4F60EA72E0CE01829617
:103310000E94280E60ED77E080E090E00E94620657
:103320009BCFF9821A8241E050E0BE016F5F7F4F70
:10333000CE0182960E94C80DE12C90CF033011057A
:1033400009F0ABC085E30E9477040E940F0B60E098
:1033500080E00E94B80B84E694E00E947D0C61E05E
:1033600080E00E94B80B83E794E00E947D0C60ED42
:1033700077E080E090E00E94620685E30E94F60319
:1033800065E874E0CE0101960E94980ECE01829607
:103390000E94980D64EA74E0CE0101960E94080D27
:1033A000811178C065E874E0CE0101960E94080D95
:1033B000811170C06BEA74E0CE0101960E94080D85
:1033C000882309F467C08DE30E949803AC01990F2C
:1033D000660B770B77FF87C086EB95E00E944E0C5B
:1033E0006EE972E086EB95E00E94F30B8DE30E949C
:1033F0009803019709F07DC08091EE049091EF044D
:10340000181619060CF446C00E9494066093EA044C
:103410007093EB048093EC049093ED040E94BB0C3A
:1034200060E086E10E94C40360E080E00E94B80B87
:1034300084EB94E00E947D0C61E080E00E94B80B78
:103440000E949406AB01BC018091EA049091EB04C8
:10345000A091EC04B091ED0488579C4EAF4FBF4F44
:10346000481759076A077B0758F368E873E180E05B
:1034700090E00E9462060E94820C60E087E10E9458
:10348000C4038091EE049091EF0401969093EF04B1
:103490008093EE04CE0101964CCC23E2F212DACDF9
:1034A00085E30E9477040E940F0B60E080E00E9499
:1034B000B80B8DE894E00E947D0C61E080E00E94F2
:1034C000B80B8AE994E00E947D0C60ED77E080E023
:1034D00090E00E94620685E30E94F6030E940F0BB3
:1034E00064EA74E04FCF2AE086EB95E00E94020C7C
:1034F00077CF68EB7BE080E090E00E9462060E945C
:103500000F0B60E080E00E94B80B8AEC94E00E9410
:103510007D0C60ED77E080E090E00E9462060E9402
:103520000F0BB8CFCF93DF938AE597E00E94980DF9
:1035300084E597E00E94980D8EE497E00E94980D34
:1035400088E497E00E94980D82E797E00E94980D2A
:103550008CE697E00E94980D86E697E00E94980D11
:1035600080E697E00E94980D87EE97E00E94980D04
:103570008DEE97E00E94980DCFE1D9E02697CE011D
:103580000E94980D87E0C33FD807C1F78FE199E00B
:103590000E94980D85E299E00E94980D8BE299E0D7
:1035A0000E94980D81E399E00E94980D87E399E0CD
:1035B0000E94980D89E899E0DF91CF910C94980DC5
:1035C0008F929F92AF92BF92CF92DF92EF92FF9233
:1035D000CF93DF93EC01688179818A819B816115AA
:1035E00071058105910521F464E279ED8BE597E0A1
:1035F0002DE133EF41E050E00E94001C49015A01E7
:103600009B01AC01A7EAB1E40E941F1C6B017C0185
:10361000ACEEB4EFA50194010E942D1CC60ED71E7E
:10362000E81EF91EF7FE06C081E0C81AD108E108BD
:1036300080E8F80AC882D982EA82FB82C701B60113
:103640009F77DF91CF91FF90EF90DF90CF90BF9069
:10365000AF909F908F9008958F929F92AF92BF925C
:10366000CF92DF92EF92FF926091290270912A022D
:1036700080912B0290912C026115710581059105B5
:1036800021F464E279ED8BE597E02DE133EF41E041
:1036900050E00E94001C49015A019B01AC01A7EABD
:1036A000B1E40E941F1C6B017C01ACEEB4EFA501DC
:1036B00094010E942D1CC60ED71EE81EF91EF7FEAF
:1036C00006C081E0C81AD108E10880E8F80AC09273
:1036D0002902D0922A02E0922B02F0922C02C7011A
:1036E000B6019F77FF90EF90DF90CF90BF90AF90A3
:1036F0009F908F9008956093290270932A0280937F
:103700002B0290932C020895BB274A3031F4992361
:1037100022F4BDE2909581959F4F0C94C11BBB276D
:103720002A3051F4992342F4BDE29095809570952A
:1037300061957F4F8F4F9F4F0C949F1BBB27FA01C2
:10374000A62F6217710581059105330B30FB66F0DA
:10375000AA27660F771F881F991FAA1FA21710F0AC
:10376000A21B63953850A9F7A05DAA3308F0A95DA4
:10377000A19336F7B111B1931082CA010C94DA1BF0
:10378000BB27FB015527AA27880F991FAA1FA4173B
:1037900010F0A41B83955051B9F7A05DAA3308F02F
:1037A000A95DA193009779F7B111B1931192CB0163
:1037B0000C94DA1BDC01FC01672F71917723E1F790
:1037C000329704C07C916D9370836291AE17BF07EE
:1037D000C8F30895F999FECF92BD81BDF89A992753
:1037E00080B50895262FF999FECF1FBA92BD81BDED
:1037F00020BD0FB6F894FA9AF99A0FBE0196089573
:10380000052E97FB1EF400940E94171C57FD07D04D
:103810000E94321C07FC03D04EF40C94171C5095E8
:103820004095309521953F4F4F4F5F4F08959095AC
:103830008095709561957F4F8F4F9F4F08950E949F
:10384000541CA59F900DB49F900DA49F800D911DB9
:1038500011240895B7FF0C941F1C0E941F1C821B8B
:10386000930B0895A1E21A2EAA1BBB1BFD010DC0EC
:10387000AA1FBB1FEE1FFF1FA217B307E407F50720
:1038800020F0A21BB30BE40BF50B661F771F881FFC
:10389000991F1A9469F760957095809590959B0192
:1038A000AC01BD01CF010895A29FB001B39FC0013B
:1038B000A39F700D811D1124911DB29F700D811D5C
:1038C0001124911D089597FB072E16F4009407D03C
:1038D00077FD09D00E947F1C07FC05D03EF490952F
:1038E00081959F4F0895709561957F4F0895EE0FD4
:1038F000FF1F881F8BBF0790F691E02D1994AA1B1C
:10390000BB1B51E107C0AA1FBB1FA617B70710F0CA
:10391000A61BB70B881F991F5A95A9F780959095FC
:10392000BC01CD0108950F931F93CF93DF93823095
:10393000910510F482E090E0E0919109F0919209F4
:1039400030E020E0B0E0A0E0309799F42115310597
:1039500009F44AC0281B390B24303105D8F58A8177
:103960009B816115710589F1FB0193838283FE01BF
:1039700011C0408151810281138148175907E0F03D
:103980004817590799F4109761F012960C93129703
:1039900013961C933296CF01DF91CF911F910F9117
:1039A00008950093910910939209F4CF21153105E0
:1039B00051F04217530738F0A901DB019A01BD010C
:1039C000DF01F801C1CFEF01F9CF90939209809305
:1039D0009109CDCFFE01E20FF31F81939193225005
:1039E000310939832883D7CF20918F0930919009ED
:1039F000232B41F420912F02309130023093900913
:103A000020938F0920912D0230912E02211531052E
:103A100041F42DB73EB74091310250913202241B40
:103A2000350BE0918F09F0919009E217F307A0F4AC
:103A30002E1B3F0B2817390778F0AC014E5F5F4F04
:103A40002417350748F04E0F5F1F5093900940939D
:103A50008F09819391939FCFF0E0E0E09CCFCF93CB
:103A6000DF930097E9F0FC01329713821282A09154
:103A70009109B0919209ED0130E020E01097A1F496
:103A800020813181820F931F20918F0930919009FD
:103A90002817390709F061C0F0939009E0938F0966
:103AA000DF91CF910895EA01CE17DF07E8F54A814B
:103AB0005B819E0141155105B1F7E901FB83EA8362
:103AC00049915991C40FD51FEC17FD0761F480810E
:103AD00091810296840F951FE901998388838281E1
:103AE00093819B838A83F0E0E0E012968D919C9114
:103AF00013970097B9F52D913C911197CD0102963E
:103B0000820F931F20918F09309190092817390750
:103B100039F6309751F51092920910929109B093AD
:103B20009009A0938F09BCCFD383C2834081518178
:103B3000840F951FC817D90761F44E5F5F4F8881C6
:103B40009981480F591F518340838A819B819383B8
:103B500082832115310509F0B0CFF0939209E093EB
:103B600091099ECFFD01DC01C0CF13821282D7CF15
:103B70004F925F926F927F928F929F92AF92BF927D
:103B8000CF92DF92EF92FF920F931F93CF93DF9329
:103B90008C01009799F4CB01DF91CF911F910F9188
:103BA000FF90EF90DF90CF90BF90AF909F908F905D
:103BB0007F906F905F904F900C94931CFC01E60FE8
:103BC000F71F9C0122503109E217F30708F4AEC039
:103BD000D901CD91DC911197C617D70720F1C530D7
:103BE000D10578F0CE0104978617970750F0C61BD1
:103BF000D70B2297C193D1936D937C93CF010E94F1
:103C00002F1DC801DF91CF911F910F91FF90EF9071
:103C1000DF90CF90BF90AF909F908F907F906F90EC
:103C20005F904F9008955B01AC1ABD0A4C018C0E59
:103C30009D1EA0919109B0919209512C412CF12C1B
:103C4000E12C109731F580918F099091900988159A
:103C5000990509F05CC04616570608F058C08091D7
:103C60002D0290912E02009741F48DB79EB740919E
:103C7000310250913202841B950BE817F90708F0C6
:103C800055C0F0939009E0938F09F9017183608327
:103C9000B8CF8D919C91119712966C9012971396B4
:103CA0007C901397A815B90559F56C0142E0C40E34
:103CB000D11CCA14DB0420F1AC014A195B09DA01FA
:103CC0001296159780F06282738251834083D901E6
:103CD0006D937C93E114F10471F0D7011396FC937A
:103CE000EE9312978ECF22968C0F9D1FF901918330
:103CF0008083F301EFCFF0939209E093910981CF94
:103D00004816590608F42C017D01D3019ACFCB0146
:103D10000E94931C7C01009749F0AE01B8010E94FB
:103D2000991EC8010E942F1D87016BCF10E000E093
:103D300068CFFB01DC0102C001900D924150504060
:103D4000D8F70895FB01DC018D91019080190110D5
:103D5000D9F3990B0895FB01DC0101900D9200202D
:103D6000E1F7089511E0C8E5D1E000E006C0802F3A
:103D7000FE010E94771C2196011DC935D10780E004
:103D80000807A9F7F894FFCF0A0A0A0000110E00ED
:103D90000E11111F1B1B1F00FF0607080902030459
:103DA000053738394134353642313233432A3023EE
:103DB0004401000000000093098000180019001B56
:103DC000001D001F00210023002500270029002BD3
:103DD000002D002F00310033003400000000009758
:103DE00002F7012402E402550233024702000000F8
:103DF000003906F203C10300000000C70BF701F20F
:103E000009E8012D2063657272616E646F202D20B8
:103E100020202020002D2061627269656E646F2071
:103E20002D20202020000D0A0061646D696E2D3167
:103E300032333400456E636F6E747261646F00617B
:103E4000646D696E0061646D696E320031323334C5
:103E50003200736172612D7361726974610045642F
:103E6000756172646F2D313233342C52454749539A
:103E7000545241520031323334585A004200430008
:103E800044005573756172696F20004269656E76F2
:103E9000656E69646F00477275706F332D5365638B
:103EA00063696F6E20410020204573706572616EFA
:103EB000646F2E2E2E202000202020202020202065
:103EC0002020202020202020202000202020202012
:103ED0005573756172696F202020202020202020DA
:103EE0002020202000202020202045786973746540
:103EF0006E746520202020202020202020200020FB
:103F0000202020205265676973747261646F2020DD
:103F1000202020202020202020004C4F47494E0008
:103F20002020202020436F6E6578696F6E2020204E
:103F300020202020202020202020002020202020A1
:103F4000657869746F736120202020202020202054
:103F5000202000544F4B454E00544F4B454E3A20C5
:103F60000044494749544520535520544F4B454E32
:103F70003A0020544F4B454E20434F525245435434
:103F80004F2000454E5452414E444F205041525113
:103F900055454F00496E677265736F207665686995
:103FA00063756C6F202020202020004C6973746F93
:103FB00020202020202020202020202020200054ED
:103FC0004F4B454E20494E434F52524543544F208C
:103FD000004558434544452053495A450020204454
:103FE000454C20544F4B454E20202000544F4B450C
:103FF0004E20494E56414C49444F00457863656414
:10400000696F203320696E74656E74730066616C2D
:104010006C69646F00424F544F4E2043414E4345FC
:104020004C0053452041435449564F0063616E6331
:10403000656C00636F72726563746F0053616C69C5
:104040006461207665686963756C6F20202020208C
:10405000200073656C656363696F6E6120706172C7
:064060007175656F0000A0
:020000040003F7
:10E000000D9489F10D94B2F10D94B2F10D94B2F129
:10E010000D94B2F10D94B2F10D94B2F10D94B2F1F0
:10E020000D94B2F10D94B2F10D94B2F10D94B2F1E0
:10E030000D94B2F10D94B2F10D94B2F10D94B2F1D0
:10E040000D94B2F10D94B2F10D94B2F10D94B2F1C0
:10E050000D94B2F10D94B2F10D94B2F10D94B2F1B0
:10E060000D94B2F10D94B2F10D94B2F10D94B2F1A0
:10E070000D94B2F10D94B2F10D94B2F10D94B2F190
:10E080000D94B2F10D94B2F10D94B2F10D94B2F180
:10E090000D94B2F10D94B2F10D94B2F10D94B2F170
:10E0A0000D94B2F10D94B2F10D94B2F10D94B2F160
:10E0B0000D94B2F10D94B2F10D94B2F10D94B2F150
:10E0C0000D94B2F10D94B2F10D94B2F10D94B2F140
:10E0D0000D94B2F10D94B2F10D94B2F10D94B2F130
:10E0E0000D94B2F141546D656761323536300041AF
:10E0F000726475696E6F206578706C6F72657220DE
:10E1000073746B3530305632206279204D4C530099
:10E11000426F6F746C6F616465723E004875683F52
:10E1200000436F6D70696C6564206F6E203D200048
:10E130004350552054797065202020203D20005FF9
:10E140005F4156525F415243485F5F3D2000415658
:10E1500052204C696243205665723D20004743437C
:10E160002056657273696F6E203D20004350552024
:10E1700049442020202020203D20004C6F7720663D
:10E18000757365202020203D20004869676820665F
:10E190007573652020203D200045787420667573D6
:10E1A00065202020203D20004C6F636B2066757336
:10E1B000652020203D20004D617220203720323024
:10E1C000313300312E362E3800342E332E350056A2
:10E1D00023202020414444522020206F7020636F70
:10E1E00064652020202020696E73747275637469E1
:10E1F0006F6E2061646472202020496E74657272B3
:10E20000757074006E6F20766563746F7200726A49
:10E210006D702020006A6D70200057686174207056
:10E220006F72743A00506F7274206E6F7420737541
:10E2300070706F72746564004D7573742062652030
:10E2400061206C6574746572002000577269747483
:10E25000696E672045450052656164696E672045B7
:10E26000450045452065727220636E743D00504F35
:10E27000525400303D5A65726F2061646472003FF1
:10E280003D43505520737461747300403D454550C3
:10E29000524F4D207465737400423D426C696E6B41
:10E2A000204C454400453D44756D70204545505215
:10E2B0004F4D00463D44756D7020464C415348001B
:10E2C000483D48656C70004C3D4C69737420492F83
:10E2D0004F20506F72747300513D51756974005234
:10E2E0003D44756D702052414D00563D73686F7707
:10E2F00020696E7465727275707420566563746FF0
:10E30000727300593D506F727420626C696E6B00BD
:10E310002A0011241FBECFEFD1E2DEBFCDBF01E046
:10E320000CBF12E0A0E0B2E0EEE1FDEF03E00BBFB6
:10E3300002C007900D92A030B107D9F712E0A0E01B
:10E34000B2E001C01D92AE30B107E1F70F9460F367
:10E350000D948DFE01E20EBF0FEF0DBF11241FBE05
:10E360000D9460F30D9400F020E030E040ED57E0B4
:10E3700005C0FA013197F1F72F5F3F4F2817390792
:10E38000C0F308959C01260F311DC901A0E0B0E043
:10E390002F5F3F4FABBFFC018791882361F08093D3
:10E3A000C6008091C00086FFFCCF8091C0008064D1
:10E3B0008093C000EACF08958DE08093C6008091DD
:10E3C000C00086FFFCCF8091C00080648093C000B5
:10E3D0008AE08093C6008091C00086FFFCCF8091C8
:10E3E000C00080648093C00008950F94C2F10F9420
:10E3F000DCF10895FC019081992359F09093C600B7
:10E400008091C00086FFFCCF8091C0008064809323
:10E41000C0003196992379F70895282F982F929567
:10E420009F70892F805D8A3308F0895F8093C600D2
:10E430008091C00086FFFCCF8091C00080648093F3
:10E44000C000822F8F70982F905D9A3308F0995FEB
:10E450009093C6008091C00086FFFCCF8091C000E1
:10E4600080648093C00008959C01FB01853691056E
:10E470001CF46330710594F0C90164E670E00F94F8
:10E480002EFE605D7F4F6093C6008091C00086FFC6
:10E49000FCCF8091C00080648093C0002B30310598
:10E4A00014F43297B4F0C90164E670E00F942EFEC4
:10E4B0006AE070E00F942EFE605D7F4F6093C600AF
:10E4C0008091C00086FFFCCF8091C0008064809363
:10E4D000C000C9016AE070E00F942EFEC0968093E0
:10E4E000C6008091C00086FFFCCF8091C000806490
:10E4F0008093C00008951F93182F8EE692EE60E07F
:10E500000F94C2F11093C6008091C00086FFFCCF2B
:10E510008091C00080648093C0000F94DCF11F9153
:10E5200008952F923F924F925F926F927F928F92B7
:10E530009F92AF92BF92CF92DF92EF92FF920F9392
:10E540001F93DF93CF93CDB7DEB762970FB6F894E2
:10E55000DEBF0FBECDBF382E622ECA01DB015C01CB
:10E560006D01772420E2222E2E010894411C511CBB
:10E570008BC081E0A81680E0B80681E0C80680E084
:10E58000D80628F0C601AA27BB270F940DF2BB2797
:10E59000AD2D9C2D8B2D0F940DF28A2D0F940DF225
:10E5A0002092C6008091C00086FFFCCF8091C00001
:10E5B00080648093C0009DE29093C6008091C0006B
:10E5C00086FFFCCF8091C00080648093C0002092C1
:10E5D000C6008091C00086FFFCCF8091C00080649F
:10E5E0008093C00019828601750188249924A1E0D6
:10E5F0003A1651F03A1620F0B2E03B1661F409C029
:10E600000BBFF701779007C0C7010F9477FE782EF4
:10E6100002C0F7017080872D0F940DF22092C60082
:10E620008091C00086FFFCCF8091C0008064809301
:10E63000C000872D8052F401EF70F0708F3520F408
:10E64000E40DF51D708204C0E40DF51D8EE280839B
:10E650000894E11CF11C011D111D0894811C911CE2
:10E6600090E18916910409F0C2CF80E190E0A0E02A
:10E67000B0E0A80EB91ECA1EDB1E198AC2010F9493
:10E68000FAF10F94DCF16A94662009F072CF629679
:10E690000FB6F894DEBF0FBECDBFCF91DF911F91B3
:10E6A0000F91FF90EF90DF90CF90BF90AF909F9031
:10E6B0008F907F906F905F904F903F902F90089534
:10E6C0002F923F924F925F926F927F928F929F9282
:10E6D000AF92BF92CF92DF92EF92FF920F931F9370
:10E6E000DF93CF93CDB7DEB7CD53D1400FB6F894BB
:10E6F000DEBF0FBECDBF01E20EBF0FEF0DBF94B75F
:10E70000F894A89514BE80916000886180936000A1
:10E7100010926000789493FF05C0E0910002F091A0
:10E7200001021995279A2F9A8091C00082608093E8
:10E73000C00080E18093C40088E18093C1000000A4
:10E74000EE24FF24870144E0A42EB12CCC24DD2448
:10E7500024C0C5010197F1F70894E11CF11C011DCB
:10E76000111D21E2E2162EE4F20620E0020720E06D
:10E77000120718F031E0C32ED12CC801B70127ECE5
:10E780003BE140E050E00F9441FE611571058105C9
:10E79000910519F485B1805885B98091C00087FD35
:10E7A00003C0C114D104A9F2A6014F5F5F4FC25E3E
:10E7B000DE4F59834883CE51D140C25EDE4F8881FF
:10E7C0009981CE51D140019711F00D9410FEC05D9A
:10E7D000DE4F19821882C053D14060E0C15DDE4F28
:10E7E0001882CF52D14088249924C35DDE4F19820C
:10E7F0001882CD52D140C05EDE4F188219821A8233
:10E800001B82C052D140CE5CDE4F188219821A8220
:10E810001B82C253D140EE24FF2487010BBFF701B6
:10E8200007911691C45CDE4F19830883CC53D14005
:10E830000D940BFEC25EDE4F28813981CE51D1404E
:10E840002130310509F52091C600C25EDE4F1982E4
:10E850001882CE51D14022C02F5F3F4F4F4F5F4FA4
:10E86000213082E138078AE7480780E0580780F0C6
:10E87000C45CDE4FE881F981CC53D140EF5FFF4F9C
:10E8800019F0EE27FF27099420E030E040E050E047
:10E890008091C00087FFE0CF2091C600C35DDE4FAE
:10E8A00048815981CD52D1404F5F5F4FC35DDE4FEC
:10E8B00059834883CD52D140213209F063C64A3092
:10E8C000510508F05FC60894811C911C53E0851621
:10E8D000910409F059C600E010E018C081E280936D
:10E8E000C6008091C00086FFFCCF8091C00080648C
:10E8F0008093C0002F5F3F4F2931310579F70F9486
:10E90000DCF10F5F1F4F0530110519F020E030E0FA
:10E91000E5CF10920A0210920B0210920C02109294
:10E920000D02109206021092070210920802109235
:10E930000902109202021092030210920402109235
:10E9400005028FEE90EE60E00F94F5F180E191EE1C
:10E9500060E00F94C2F18091C00087FFFCCF9091DE
:10E96000C600903608F09F759032B8F09093C600BC
:10E970008091C00086FFFCCF8091C00080648093AE
:10E98000C000A0E2A093C6008091C00086FFFCCF2B
:10E990008091C00080648093C000983409F4D7C18E
:10E9A0009934B8F4923409F459C1933458F490333B
:10E9B00019F1903308F4E3C59F33A1F1903409F0C5
:10E9C000DEC5BDC0953409F470C1963409F0D7C5D1
:10E9D00098C1923509F42BC2933538F49C3409F46C
:10E9E000F5C1913509F0CBC518C2963509F445C279
:10E9F000993509F0C4C567C483E792EE62E00F94CD
:10EA0000F5F110920602109207021092080210927D
:10EA1000090210920A0210920B0210920C0210923C
:10EA20000D0213C18FE792EE62E00F94F5F18FEEC5
:10EA300090EE60E00F94F5F181E291EE60E00F94CA
:10EA4000C2F187EB91EE60E00F94F5F180E391EE77
:10EA500060E00F94C2F184EE90EE60E00F94F5F167
:10EA60008FE391EE60E00F94C2F186E090E061E008
:10EA700070E00F9434F20F94DCF18DE591EE60E0DC
:10EA80000F94C2F189EC91EE60E00F94F5F18EE401
:10EA900091EE60E00F94C2F183EC91EE60E00F9490
:10EAA000F5F18CE691EE60E00F94C2F18EE10F94E7
:10EAB0000DF288E90F940DF281E00F940DF20F949E
:10EAC000DCF18BE791EE60E00F94C2F119E0E0E039
:10EAD000F0E010935700E4918E2F0F940DF20F94F5
:10EAE000DCF18AE891EE60E00F94C2F1E3E0F0E03F
:10EAF00010935700E4918E2F0F940DF20F94DCF1D8
:10EB000089E991EE60E00F94C2F1E2E0F0E0109349
:10EB10005700E4918E2F0F940DF20F94DCF188EAE8
:10EB200091EE60E00F94C2F1E1E0F0E01093570045
:10EB30001491812F0F940DF20F94DCF107CF8BE825
:10EB400092EE62E00F94F5F18BE492EE60E00F94A8
:10EB5000F5F10F94DCF100E010E019C0C8016F2D51
:10EB60000F947FFEFF2031F489E492EE60E00F9471
:10EB7000C2F10BC0F092C6008091C00086FFFCCFAE
:10EB80008091C00080648093C0000F5F1F4FC80158
:10EB900081519F41A0E0B0E0ABBFFC01F790BAE229
:10EBA000FB1621F0E2E000301E07C1F60F94DCF105
:10EBB0000F94DCF187E592EE60E00F94F5F10F948D
:10EBC000DCF1CC24DD2400E010E01EC0C8010F946D
:10EBD00077FEF82E882331F489E492EE60E00F94FA
:10EBE000C2F10BC08093C6008091C00086FFFCCFAD
:10EBF0008091C00080648093C000FE1419F00894D6
:10EC0000C11CD11C0F5F1F4FC80181519F41A0E063
:10EC1000B0E0ABBFFC01E790FAE2EF1621F022E092
:10EC20000030120799F60F94DCF10F94DCF182E6C4
:10EC300092EE60E00F94C2F1C60161E070E00F94C3
:10EC400034F20F94DCF10F94DCF110920202109276
:10EC50000302109204021092050278CE89E992EE26
:10EC600062E00F94F5F1279A2F9A16C02F9880E052
:10EC700090E0E0EDF7E03197F1F7019684369105E9
:10EC8000C1F72F9A80E090E0E0EDF7E03197F1F7DF
:10EC9000019684369105C1F78091C00087FFE6CFC9
:10ECA0008091C00087FFFCCF64C485EA92EE62E0E9
:10ECB0000F94F5F140910202509103026091040219
:10ECC0007091050281E020E10F9491F2809102029F
:10ECD00090910302A0910402B091050280509F4FD1
:10ECE000AF4FBF4F8093020290930302A0930402A0
:10ECF000B093050280509041A040B04008F426CE69
:10ED0000A4CF83EB92EE62E00F94F5F140910602FE
:10ED100050910702609108027091090280E020E1A1
:10ED20000F9491F28091060290910702A09108023F
:10ED3000B091090280509F4FAF4FBF4F80930602A2
:10ED400090930702A0930802B0930902FFCD80ECD4
:10ED500092EE62E00F94F5F183E792EE60E00F949B
:10ED6000F5F18FE792EE60E00F94F5F18BE892EE0B
:10ED700060E00F94F5F189E992EE60E00F94F5F10F
:10ED800085EA92EE60E00F94F5F183EB92EE60E09D
:10ED90000F94F5F180EC92EE60E00F94F5F187ECC2
:10EDA00092EE60E00F94F5F188ED92EE60E00F9442
:10EDB000F5F18FED92EE60E00F94F5F18AEE92EEB0
:10EDC00060E00F94F5F183E093EEBDCD87EC92EE19
:10EDD00062E00F94F5F181E40F947BF282E40F94EA
:10EDE0007BF283E40F947BF284E40F947BF285E45E
:10EDF0000F947BF286E40F947BF287E40F947BF20E
:10EE000088E40F947BF28AE40F947BF28BE40F94F6
:10EE10007BF28CE40F947BF299CD88ED92EE62E068
:10EE20000F94F5F1772473948824992409C48FED05
:10EE300092EE62E00F94F5F140910A0250910B02BC
:10EE400060910C0270910D0282E020E10F9491F22A
:10EE500080910A0290910B02A0910C02B0910D02D8
:10EE600080509F4FAF4FBF4F80930A0290930B0289
:10EE7000A0930C02B0930D0269CD8AEE92EE62E08F
:10EE80000F94F5F184EE90EE60E00F94F5F18FECC5
:10EE900091EE60E00F94F5F1662477244301CC5D98
:10EEA000DE4F19821882C452D140D401C301B695F5
:10EEB000A79597958795CA5DDE4F88839983AA8326
:10EEC000BB83C652D140CC5DDE4FA881B981C4520C
:10EED000D1401196CC5DDE4FB983A883C452D14096
:10EEE000CD0162E070E00F9434F2B0E2B093C6005E
:10EEF0008091C00086FFFCCF8091C0008064809329
:10EF0000C000EDE2E093C6008091C00086FFFCCF18
:10EF10008091C00080648093C000F0E2F093C6004E
:10EF20008091C00086FFFCCF8091C00080648093F8
:10EF3000C000CA5DDE4FE880F9800A811B81C6529D
:10EF4000D140BB27A12F902F8F2D0F940DF2CA5DBA
:10EF5000DE4F8881C652D1400F940DF2B0E2FB2EF5
:10EF6000F092C6008091C00086FFFCCF8091C00067
:10EF700080648093C0000DE30093C6008091C000C0
:10EF800086FFFCCF8091C00080648093C00010E2B7
:10EF90001093C6008091C00086FFFCCF8091C00016
:10EFA00080648093C0008BBEF3012791C65DDE4F65
:10EFB0002883CA52D140A22EBB24CC24DD2408943D
:10EFC000611C711C811C911C8BBEF3018791282E42
:10EFD0003324442455240894611C711C811C911C09
:10EFE0008BBEF3013791C55DDE4F3883CB52D140E4
:10EFF0000894611C711C811C911C8BBEF30147910C
:10F00000C45DDE4F4883CC52D140ADEFEA2EAFEF66
:10F01000FA2EAFEF0A2FAFEF1A2F6E0C7F1C801E57
:10F02000911E142D032DF22CEE24EA0CFB1C0C1D5A
:10F030001D1D0F940DF220E22093C6008091C000A8
:10F0400086FFFCCF8091C00080648093C000C65DC5
:10F05000DE4F8881CA52D1400F940DF230E23093D6
:10F06000C6008091C00086FFFCCF8091C000806404
:10F070008093C000C45DDE4F8881CC52D1400F9494
:10F080000DF240E24093C6008091C00086FFFCCFA5
:10F090008091C00080648093C000C55DDE4F888190
:10F0A000CB52D1400F940DF250E25093C6008091A4
:10F0B000C00086FFFCCF8091C00080648093C000B8
:10F0C0008FEFE8168FEFF80680E0080780E018075A
:10F0D00031F484E092EE60E00F94C2F1DFC0D80119
:10F0E000C7018070907CA070B0708050904CA040A0
:10F0F000B040D1F52FEF3FE340E050E0E222F322B1
:10F1000004231523CA5DDE4FA880B980CA80DB8046
:10F11000C652D140AE0CBF1CC01ED11EAA0CBB1CD7
:10F12000CC1CDD1C8EE092EE60E00F94C2F1BB2798
:10F13000A12F902F8F2D0F940DF28E2D0F940DF285
:10F1400030E23093C6008091C00086FFFCCF8091F2
:10F15000C00080648093C0004EE34093C60080915D
:10F16000C00086FFFCCF87C08EE09EEFA0E0B0E03D
:10F17000E822F9220A231B239CE0E91694E9F90608
:10F1800090E0090790E0190709F088C0C45DDE4FE0
:10F19000A881CC52D140EA2EFF2400E010E0102FCD
:10F1A0000F2DFE2CEE24C55DDE4FB881CB52D14031
:10F1B000EB0EF11C011D111DD601C501817090706F
:10F1C000A070B070DC0199278827E80EF91E0A1F8D
:10F1D0001B1F20EF30E040E050E0A222B322C42207
:10F1E000D52241E1AA0CBB1CCC1CDD1C4A95D1F7F1
:10F1F000EA0CFB1C0C1D1D1D81E090E0A0E0B0E0BE
:10F20000282239224A225B2235E1220C331C441C7D
:10F21000551C3A95D1F7E20CF31C041D151D57013E
:10F220006801AA0CBB1CCC1CDD1C85E192EE60E0E1
:10F230000F94C2F1C801AA27BB270F940DF2BB2778
:10F24000A12F902F8F2D0F940DF28E2D0F940DF274
:10F2500090E29093C6008091C00086FFFCCF809121
:10F26000C00080648093C000AEE3A093C60080918C
:10F27000C00086FFFCCF8091C00080648093C000F6
:10F28000C601AA27BB270F940DF2BB27AD2D9C2DDD
:10F290008B2D0F940DF28A2D0F940DF20F94DCF14B
:10F2A000CC5DDE4FE881F981C452D140F99709F471
:10F2B0004DCBF4E0EF2EF12C012D112D6E0C7F1CA7
:10F2C000801E911EF2CD83E093EE62E00F94F5F183
:10F2D0008AE192EE60E00F94C2F18091C00087FF56
:10F2E000FCCF1091C6001F751093C6008091C0001E
:10F2F00086FFFCCF8091C00080648093C0000F9493
:10F30000DCF1812F81548A3108F036C1163409F4BA
:10F3100095C0173490F4133409F44EC0143430F40B
:10F320001134F1F0123409F01DC130C0143409F465
:10F3300059C0153409F016C16BC01A3409F4C4C0A1
:10F340001B3438F4173409F48FC0183409F00AC19B
:10F35000A1C01B3409F4D2C01C3409F003C1E8C0B9
:10F360008FEF81B90DC082B1809582B980E090E0C5
:10F37000E0EDF7E03197F1F70196883C9105C1F790
:10F380008091C00087FFEFCF12B8EFC08FEF84B934
:10F390000DC085B1809585B980E090E0E0EDF7E0A3
:10F3A0003197F1F70196883C9105C1F78091C00033
:10F3B00087FFEFCF15B8D9C08FEF87B90DC088B1DF
:10F3C000809588B980E090E0E0EDF7E03197F1F7C3
:10F3D0000196883C9105C1F78091C00087FFEFCF6F
:10F3E00018B8C3C08FEF8AB90DC08BB180958BB9A7
:10F3F00080E090E0E0EDF7E03197F1F70196883C8E
:10F400009105C1F78091C00087FFEFCF1BB8ADC059
:10F410008FEF8DB90DC08EB180958EB980E090E0F0
:10F42000E0EDF7E03197F1F70196883C9105C1F7DF
:10F430008091C00087FFEFCF1EB897C08FEF80BBD1
:10F440000DC081B3809581BB80E090E0E0EDF7E0F6
:10F450003197F1F70196883C9105C1F78091C00082
:10F4600087FFEFCF11BA81C08FEF83BB0DC084B38C
:10F47000809584BB80E090E0E0EDF7E03197F1F714
:10F480000196883C9105C1F78091C00087FFEFCFBE
:10F4900014BA6BC08FEF809301010FC080910201FD
:10F4A00080958093020180E090E0E0EDF7E03197F5
:10F4B000F1F70196883C9105C1F78091C00087FF64
:10F4C000EDCF1092020151C08FEF809304010FC065
:10F4D0008091050180958093050180E090E0E0ED4A
:10F4E000F7E03197F1F70196883C9105C1F78091DB
:10F4F000C00087FFEDCF1092050137C08FEF8093DA
:10F5000007010FC08091080180958093080180E079
:10F5100090E0E0EDF7E03197F1F70196883C910536
:10F52000C1F78091C00087FFEDCF109208011DC088
:10F530008FEF80930A010FC080910B01809580931B
:10F540000B0180E090E0E0EDF7E03197F1F70196F4
:10F55000883C9105C1F78091C00087FFEDCF1092E4
:10F560000B0103C085E292EEEEC98091C00087FFD7
:10F57000FCCF8091C600EAC988E392EEE4C98CE131
:10F5800091EEE1C988249924933011F1943028F444
:10F59000913089F09230B8F408C0953061F195301F
:10F5A000F0F0963009F048C043C02B3109F042C951
:10F5B00091E06BE13FC96227C15DDE4F2883CF52E6
:10F5C000D14092E037C9B22FA0E0622793E032C960
:10F5D000822F90E0A82BB92B622794E02BC92E3004
:10F5E00009F039C3622795E0C05DDE4F19821882A9
:10F5F000C053D1401FC9E1E0F0E0EC0FFD1FC05D3A
:10F60000DE4F08811981C053D140E00FF11F2083E4
:10F610000F5F1F4FC05DDE4F19830883C053D14079
:10F6200062270A171B0709F005C9D80196E002C92D
:10F63000261709F010C303C0973009F0FBC87724E0
:10F640009981933109F412C19431C8F4963009F4C8
:10F65000D8C0973050F4923009F406C1933009F4C1
:10F660006DC0913009F059C253C0913109F477C08F
:10F67000923108F0BBC0903109F04FC2F5C098310B
:10F6800009F487C0993150F4953109F4EFC09531F0
:10F6900008F4C6C1963109F040C2C2C19A3109F4DA
:10F6A0006CC09A3108F491C09B3109F45BC09D3164
:10F6B00009F033C29D81903359F48F81882311F46E
:10F6C0009EE11CC0813011F091E018C098E916C08D
:10F6D000892F807591F0903539F4E0E0F0E089E011
:10F6E0008093570094910AC0983539F4E3E0F0E034
:10F6F00089E080935700949101C090E01A821B82A8
:10F700008D818C831D829E831F8227E030E009C299
:10F710001A8288E08B8381E48C8386E58D8382E581
:10F720008E8389E48F8383E5888780E589878FE5E9
:10F730008A8782E38B872BE030E0F3C18A818139AD
:10F7400041F0823941F0803911F48FE005C080E04A
:10F7500003C082E001C08AE01A828B8344C0772410
:10F76000739482C08D81882311F48EE12CC0813086
:10F7700011F081E028C088E926C01A82E1E0F0E0BB
:10F7800089E08093570084918B831C8224E030E0D1
:10F79000C8C18B81803589F48C81883039F4E2E0EE
:10F7A000F0E089E08093570084910DC0E0E0F0E044
:10F7B00089E080935700849106C0E3E0F0E089E09F
:10F7C0008093570084911A82DFCF8D81836C99E0FA
:10F7D000E1E0F0E0082E90935700E89507B600FCB2
:10F7E000FDCF1A821B8223E030E09BC180EC8A832C
:10F7F000CE5CDE4F188219821A821B82C253D1401E
:10F800008EC18A8190E0A0E0B0E0582F44273327D2
:10F8100022278B8190E0A0E0B0E0DC0199278827C7
:10F82000282B392B4A2B5B2B8D8190E0A0E0B0E098
:10F83000282B392B4A2B5B2B8C8190E0A0E0B0E089
:10F84000BA2FA92F982F8827282B392B4A2B5B2BCF
:10F85000220F331F441F551FC05EDE4F288339839C
:10F860004A835B83C052D1401A8259C13A81C95C34
:10F87000DE4F3883C753D140CA5CDE4F1882C6536F
:10F88000D1408B81C82EDD24CA5CDE4F488159816E
:10F89000C653D140C42AD52A933109F082C0CE5C28
:10F8A000DE4F88819981AA81BB81C253D1408050AB
:10F8B000904CA340B04030F583E0CE5CDE4FE88052
:10F8C000F9800A811B81C253D140F70100935B008C
:10F8D00080935700E89507B600FCFDCFCE5CDE4F65
:10F8E000088119812A813B81C253D14000501F4FAA
:10F8F0002F4F3F4FCE5CDE4F088319832A833B8313
:10F90000C253D140C05EDE4F488159816A817B81FC
:10F91000C052D140DE011B9631E08C9111962C91A2
:10F9200011971296C75CDE4F2883C953D140C85C3B
:10F93000DE4F1882C853D14090E0C85CDE4FE881AA
:10F94000F981C853D1408E2B9F2B0C01FA01609393
:10F950005B0030935700E89511244E5F5F4F6F4F67
:10F960007F4F0EEFE02E0FEFF02ECE0CDF1CC114F8
:10F97000D10499F685E0C05EDE4F088119812A81A5
:10F980003B81C052D140F80120935B008093570027
:10F99000E89507B600FCFDCF81E180935700E8951C
:10F9A00035C0C05EDE4F88819981AA81BB81C0527B
:10F9B000D140B695A795979587957C018601ABE0D8
:10F9C000AA2EB12CAC0EBD1E0BC0D5016D915D01F0
:10F9D000C7010F947FFE0894E11CF11C01501040F8
:10F9E0000115110591F7A60160E070E0440F551F65
:10F9F000661F771FC05EDE4FE880F9800A811B8199
:10FA0000C052D1404E0D5F1D601F711F1A82C05E33
:10FA1000DE4F488359836A837B83C052D1407FC0C5
:10FA2000FA80C55CDE4FF882CB53D140C65CDE4F16
:10FA30001882CA53D1408B81C82EDD24C65CDE4FAC
:10FA400008811981CA53D140C02AD12A1A828981DA
:10FA5000BE016D5F7F4F843121F59601C05EDE4FA0
:10FA6000E880F9800A811B81C052D1400BBFF701A9
