:100000000C9459010C948A010C948A010C948A0175
:100010000C948A010C948A010C948A010C948A0134
:100020000C948A010C948A010C948A010C948A0124
:100030000C948A010C947B0D0C948A010C948A0117
:100040000C948A010C948A010C948A010C948A0104
:100050000C948A010C948A010C948A010C949B0ED6
:100060000C948A010C94650E0C943B0E0C948A013E
:100070000C948A010C948A010C948A010C948A01D4
:100080000C948A010C948A010C948A010C948A01C4
:100090000C94050E0C94DB0D0C948A010C948A01CF
:1000A0000C948A010C948A010C948A010C948A01A4
:1000B0000C948A010C948A010C948A010C948A0194
:1000C0000C948A010C948A010C948A010C948A0184
:1000D0000C948A010C948A010C948A010C948A0174
:1000E0000C948A010C94120B0C942E020C94E50EC5
:1000F0000C945F030C9434060C94C3080C941709F9
:100100000C94ED030C94E8010C94BB090C94DB08EF
:100110000C9450030C9407090C945C030C9405098F
:100120000C9450020C9492020C9485030C94BC0322
:100130000C9454030C941F020C942B090C944A0346
:100140000C9481030C94DB140C947D030C948B03AE
:100150000C94CD080C9442020C948F030C946F0302
:100160000C9458030C948A030C9469030C94DF02DA
:100170000C94E9010C94ED080C9425090C94770378
:100180000C9473030C9465030C940D09000021007A
:10019000240027002A002D00300033000101000058
:1001A000040107010A0100002000230026002900A5
:1001B0002C002F003200000100000301060109019C
:1001C00000000A0B02090C0D0E08070304010000D1
:1001D000000000000000000000000000000000001F
:1001E00000000000000000000000000012111000DC
:1001F00000000000000000000000000000000000FF
:10020000000000000000010210202008081020401B
:1002100010204080020102010804020101020408CA
:100220001020408080402010080402018004020158
:1002300080402010080402010804020101020408A1
:10024000102040800102040810204080000022009D
:10025000250028002B002E00310034000201000090
:10026000050108010B010505050507050808080833
:10027000020202020A0A080804040404010101013E
:100280000101010103030303030303030407070739
:100290000C0C0C0C0C0C0C0C0202020206060606DE
:1002A000060606060B0B0B0B0B0B0B0B0200E50EE9
:1002B000DB1411241FBECFEFD1E2DEBFCDBF00E0C3
:1002C0000CBF14E0A0E0B2E0E0E9F1E300E00BBF16
:1002D00002C007900D92A230B107D9F726E0A2E044
:1002E000B4E001C01D92A539B207E1F711E0C8E5FD
:1002F000D1E000E006C021970109802FFE010E9495
:100300007B16C735D10780E00807A9F70E94DA10ED
:100310000C94B6180C940000FC01A089B18982E00D
:100320008C93A485B5851C92A685B7858FEC8C939C
:10033000108EA489B58986E08C93A289B3898C91AB
:1003400080618C93A289B3898C9188608C93A289F7
:10035000B3898C9180688C930288F389E02D808129
:100360008F7D8083089596E0899FD0011124A05647
:10037000BA4F90967C936E935F9791E091969C9381
:100380009197E0910D06F0910E0690910C0699233D
:1003900039F0309751F0811108C08091BC05199453
:1003A000309719F05C968C91FACF0895FC01248166
:1003B00035816217730720F480819181009729F4B9
:1003C00010920B048BE094E00895860F971F089518
:1003D0000895AF92BF92CF92DF92EF92FF920F9368
:1003E0001F93CF93DF936C017B018B01040F151FCB
:1003F000EB015E01AE18BF08C017D10759F0699133
:10040000D601ED91FC910190F081E02DC601199586
:10041000892B79F7C501DF91CF911F910F91FF9043
:10042000EF90DF90CF90BF90AF900895FC01448192
:1004300055816081718185E496E00C94E901FC01AD
:10044000538D448D252F30E0842F90E0821B930B39
:10045000541710F0CF96089501970895FC01918DDF
:10046000828D981761F0A28DAE0FBF2FB11D5D96E2
:100470008C91928D9F5F9F73928F90E008958FEF84
:100480009FEF0895FC01918D828D981731F0828D38
:10049000E80FF11D858D90E008958FEF9FEF08958F
:1004A000FC01918D228D892F90E0805C9F4F821BF3
:1004B00091098F739927089586E394E00E94500272
:1004C00021E0892B09F420E0822F089583ED94E048
:1004D0000E94500221E0892B09F420E0822F089528
:1004E000FC01A48DA80FB92FB11DA35ABF4F2C91A9
:1004F000848D90E001968F739927848FA689B789A0
:100500002C93A089B1898C91837080648C93938D96
:10051000848D981306C00288F389E02D80818F7D39
:1005200080830895EF92FF920F931F93CF93DF93F1
:10053000EC0181E0888F9B8D8C8D98131AC0E8891F
:10054000F989808185FF15C09FB7F894EE89FF89EE
:100550006083E889F98980818370806480839FBF8C
:1005600081E090E0DF91CF911F910F91FF90EF908C
:100570000895F62E0B8D10E00F5F1F4F0F7311279C
:10058000E02E8C8D8E110CC00FB607FCFACFE889D7
:10059000F989808185FFF5CFCE010E947002F1CFED
:1005A000EB8DEC0FFD2FF11DE35AFF4FF0829FB74B
:1005B000F8940B8FEA89FB8980818062CFCFCF933B
:1005C000DF93EC01888D8823B9F0AA89BB89E8897B
:1005D000F9898C9185FD03C0808186FD0DC00FB621
:1005E00007FCF7CF8C9185FFF2CF808185FFEDCF9F
:1005F000CE010E947002E9CFDF91CF91089580E093
:1006000090E0892B29F00E94660281110E9400006F
:1006100080E090E0892B29F00E945C0281110E9409
:10062000000080E090E0892B49F080E090E0892B89
:1006300029F00E94000081110E94000080E090E0FB
:10064000892B49F080E090E0892B29F00E9400007E
:1006500081110C94000008958150823108F05AC035
:10066000E82FF0E08827E85CFC4F8F4F0C947B1656
:1006700058035C034A03500354038A035F03650372
:1006800069036F03730377037D0381038A03850383
:100690008B038F03809180008F7780938000089573
:1006A000809180008F7DF9CF80918000877FF5CF8A
:1006B00084B58F7784BD089584B58F7DFBCF8091FD
:1006C000B0008F778093B00008958091B0008F7D47
:1006D000F9CF809190008F7780939000089580915A
:1006E00090008F7DF9CF80919000877FF5CF80912A
:1006F000A0008F778093A00008958091A0008F7D47
:10070000F9CF8091A000877FF5CF809120018F776E
:10071000809320010895809120018F7DF9CF8091F1
:100720002001877FF5CFCF93DF93282F30E0F901A9
:10073000E054FE4F8491F901EA5FFD4FD491F90135
:10074000EA59FD4FC491CC23A1F081110E942C03E2
:10075000EC2FF0E0EE0FFF1FEA55FE4FA591B4918C
:10076000EC91ED2381E090E009F480E0DF91CF91FE
:10077000089580E090E0FACF862F0C9493031F93A6
:10078000CF93DF93282F30E0F901E054FE4F84919E
:10079000F901EA5FFD4FD491F901EA59FD4FC49187
:1007A000CC23A9F0162F81110E942C03EC2FF0E02E
:1007B000EE0FFF1FE45BFD4FA591B4918FB7F89446
:1007C000EC91111108C0D095DE23DC938FBFDF912F
:1007D000CF911F910895DE2BF8CF862F642F0C94B4
:1007E000BF039091100289130DC0ECEAF2E0E4918E
:1007F0009FEF90931002E230E1F038F4EE2381F0A5
:10080000E13089F060E00C94BF03E43049F110F16D
:10081000E530C1F7909173009D7F90937300F2CF04
:1008200010926E00EFCF90916F009D7F90936F00BC
:10083000E9CF909170009D7F9093700091E090932C
:10084000B0009091B100987F94609093B1001092A5
:10085000B300D8CF909171009D7F90937100D2CF5B
:10086000909172009D7F90937200CCCFCF93DF93D5
:1008700090E0FC01EA5FFD4F24918A599D4FFC01F5
:1008800084918823C9F090E0880F991FFC01E457F8
:10089000FE4FA591B491FC01E45BFD4FC591D4914D
:1008A00061110DC09FB7F8948C91209582238C9391
:1008B0008881282328839FBFDF91CF9108956230DC
:1008C00051F49FB7F8943C91822F809583238C93A9
:1008D000E8812E2BEFCF8FB7F894EC912E2B2C9331
:1008E0008FBFEACFCF9390911002891721F09F3FDD
:1008F000C1F0CF910895ECEAF2E0C491C7FDF9CFC1
:1009000061E00E943604CC2309F4F4C0C23009F03F
:1009100008C18091B100887F84608093B10089EF25
:1009200090C180931002ECEAF2E0C4919C2FCF3F7B
:1009300001F3C23009F473C058F4CC2391F1C130F3
:1009400009F44BC097FDD5CF61E00E943604DECF9D
:10095000C43009F4ADC008F488C0C53099F71092CE
:100960002001109221019091210198609093210122
:1009700090912101916090932101282F30E0F9019D
:10098000EA59FD4FE491F0E0EE0FFF1FE45BFD4FED
:1009900045915491F901EA5FFD4FE491E09316040B
:1009A000AFCF14BC15BC94B5926094BD95B5916061
:1009B00095BD282F30E0F901EA59FD4FE491F0E0B0
:1009C000EE0FFF1FE45BFD4F45915491F901EA5F83
:1009D000FD4FE491E0931D0493CF1092800010929C
:1009E00081009091810098609093810090918100A6
:1009F000916090938100282F30E0F901EA59FD4F72
:100A0000E491F0E0EE0FFF1FE45BFD4F4591549140
:100A1000F901EA5FFD4FE491E0931C0471CF10925D
:100A2000B0001092B1009091B00092609093B0002D
:100A30009091B10091609093B100282F30E0F901BE
:100A4000EA59FD4FE491F0E0EE0FFF1FE45BFD4F2C
:100A50004591549150931B0440931A04F901EA5FA5
:100A6000FD4FE491E09319044BCF10929000109247
:100A700091009091910098609093910090919100D5
:100A8000916090939100282F30E0F901EA59FD4FD1
:100A9000E491F0E0EE0FFF1FE45BFD4F45915491B0
:100AA000F901EA5FFD4FE491E0931804C3E028CF19
:100AB0001092A0001092A1009091A10098609093D4
:100AC000A1009091A10091609093A100282F30E0A7
:100AD000F901EA59FD4FE491F0E0EE0FFF1FE45BEE
:100AE000FD4F45915491F901EA5FFD4FE491E09388
:100AF000170406CF85B5887F836085BD89EF87BDE4
:100B00008FEF9FEFDC018093320490933304A09326
:100B10003404B093350480916E00826080936E003F
:100B2000E8CEC130E9F480918100887F81608093B4
:100B300081008FE79EE390938900809388008FEF78
:100B40009FEFDC0180932E0490932F04A093300438
:100B5000B093310480916F00826080936F00C9CEA2
:100B6000C330E9F480919100887F81608093910087
:100B70008FE79EE390939900809398008FEF9FEF0B
:100B8000DC018093260490932704A0932804B0935B
:100B9000290480917100826080937100AACEC430D4
:100BA000E9F48091A100887F81608093A1008FE7A4
:100BB0009EE39093A9008093A8008FEF9FEFDC0144
:100BC0008093220490932304A0932404B0932504DB
:100BD000809172008260809372008BCEC530E9F400
:100BE00080912101887F8160809321018FE79EE3BE
:100BF00090932901809328018FEF9FEFDC01809370
:100C00001E0490931F04A0932004B09321048091AC
:100C100073008260809373006CCEC23089F034F42C
:100C2000CC2361F0C13009F064CE83CFC43009F425
:100C3000BECF0CF49DCFC530C9F25BCE8FE75FCF3E
:100C40008FE78093B3008FEF9FEFDC0180932A043E
:100C500090932B04A0932C04B0932D0480917000EA
:100C600082608093700045CE862F642F0C943604EA
:100C70003FB7F8948091070490910804A09109046B
:100C8000B0910A0426B5A89B05C02F3F19F0019624
:100C9000A11DB11D3FBFBA2FA92F982F8827BC01D6
:100CA000CD01620F711D811D911D42E0660F771FFE
:100CB000881F991F4A95D1F708958F929F92AF92FE
:100CC000BF92CF92DF92EF92FF924B015C010E94A4
:100CD00038066B017C010E9438066C197D098E096B
:100CE0009F09683E734081059105A8F321E0821AAF
:100CF0009108A108B10888EEC80E83E0D81EE11C57
:100D0000F11C81149104A104B10429F7FF90EF9024
:100D1000DF90CF90BF90AF909F908F9008952FB7A6
:100D2000F8946091030470910404809105049091FB
:100D300006042FBF08950F931F93CF93DF93C82FFF
:100D4000D62F86E0C89FF0011124E056FA4F11A279
:100D5000878D90A181309105F1F058F08230910596
:100D6000F1F1039709F440C0DF91CF911F910F91EA
:100D700008956623C9F361E070E08C2F0E94B301EF
:100D80000E948F066093F8057093F9058093FA0529
:100D90009093FB05E9CF0E948F060091F805109112
:100DA000F9052091FA053091FB05AB01BC01401B10
:100DB000510B620B730B80910A0690910B06B0E009
:100DC000A0E084179507A607B70748F462E070E033
:100DD0008C2FDF91CF911F910F910C94B30163E0A1
:100DE00070E0D111C1CFF4CF70E060E0F1CF6F922D
:100DF0007F928F929F92AF92BF92CF92DF92EF92AB
:100E0000FF920F931F93CF93DF9381E080930C06A3
:100E10000E948F060091FC051091FD052091FE05B2
:100E20003091FF05AB01BC01401B510B620B730BF2
:100E30008091080690910906B0E0A0E0841795071C
:100E4000A607B70708F014C1C0E080910606C817CE
:100E500060F4E0910206F0910306EC0FF11D62E0F0
:100E600080810E943604CF5FF0CF712C812C912CB1
:100E70005401839480910706781608F05FC0072D0F
:100E800010E0E0910406F0910506E00FF11F61E02B
:100E900080810E943604E0910406F0910506E00F7F
:100EA000F11F60E080810E94BF03D501C401072CBF
:100EB00004C0880F991FAA1FBB1F0A94D2F76C01A8
:100EC0007C01E094F094612C809106066816F8F499
:100ED000C62DD0E0E0910206F0910306EC0FFD1F55
:100EE00080810E9493032496CC0FDD1FC056DA4FF9
:100EF000892B41F4888199818C299D299983888344
:100F00006394E2CF888199818E219F21F7CFE09170
:100F10000406F0910506E00FF11F61E080810E9458
:100F2000BF038091040690910506080F191F60E029
:100F3000F80180810E94360473949CCFC0EAD5E00A
:100F4000FE018FEF9FEF278D30A1232B21F4148E0C
:100F5000968F858F11A2369625E0EC3DF20799F722
:100F6000F12C96E0D92E80910606F81608F050C0B4
:100F7000E12C0F2D10E0000F111F08551A4F209182
:100F80000706E21608F042C0F801608171810E2C5C
:100F900002C0769567950A94E2F7F29E90011124BB
:100FA0002E0D311DE0EAF5E080E0458D568D2417C9
:100FB000350709F461C08F5F36968A30B1F760FF5C
:100FC00023C0E0EAF5E090E080E0448D411117C0D5
:100FD000E0910006F0910106E20FF31F4081D89ED8
:100FE000F001D99EF00D1124E056FA4F448F368F50
:100FF000258F10A2178E61E00E949B0605C0019606
:1010000036968A30910509F7E394B9CFF394ABCFC4
:1010100010E089A18111182F2696F5E0CC3DDF075D
:10102000C1F70E948F066093FC057093FD058093C5
:10103000FE059093FF051123D9F08091C105882307
:10104000B9F08091BF059091C005019789F4809116
:10105000BC05DF91CF911F910F91FF90EF90DF9032
:10106000CF90BF90AF909F908F907F906F9008959A
:1010700010920C0680E0EDCF6170BECF0F931F93EE
:10108000CF93DF93EC018B0188859985029751F40A
:101090006130710509F43AC06CF560E00115110585
:1010A00009F435C088859985049751F401301105FC
:1010B00009F455C00CF035C00115110509F43EC006
:1010C00088859985059709F0C8C00A30110508F090
:1010D000C4C0F8018827E059F74F8F4F0C947B1656
:1010E000C308CD08DB08ED08050907090D09170934
:1010F00025092B096230710591F060E0033011057C
:1011000089F68C850E94BF0360E005C061E08C8594
:101110000E94BF0361E08E850E94BF03C3CF61E0E0
:10112000F0CF0230110509F10330110509F0C8CFE5
:1011300061E08C850E94BF0360E01CC061E08C858B
:101140000E94BF0360E08E850E94BF0361E0888932
:101150000E94BF0360E08A890E94BF03B1CF60E0B4
:101160008C850E94BF0361E0EECF60E08C850E9419
:10117000BF0361E08E850E94BF0360E088890E9402
:10118000BF0361E0E8CF60E08C850E94BF0361E0AF
:101190008E850E94BF0361E009C060E08C850E94DB
:1011A000BF0361E08E850E94BF0360E088890E94D2
:1011B000BF0360E00DC060E08C850E94BF0361E06A
:1011C0008E850E94BF0360E088890E94BF0361E0B2
:1011D0008A890E94BF0361E011C060E08C850E9493
:1011E000BF0361E08E850E94BF0360E088890E9492
:1011F000BF0361E08A890E94BF0360E08C89DF91B0
:10120000CF911F910F910C94BF0361E0E7CF61E094
:101210008C850E94BF0360E0E5CF61E08C850E9471
:10122000BF0360E08E850E94BF0361E0DFCF61E015
:101230008C850E94BF0360E08E850E94BF0361E041
:1012400088890E94BF0360E0D5CF61E08C850E9451
:10125000BF0360E09DCF60E0F9CFDF91CF911F9198
:101260000F9108954F925F926F927F928F929F920B
:10127000AF92BF92CF92DF92EF92FF920F931F93A4
:10128000CF93DF93EC018B0177FF04C00027112778
:10129000061B170B161617060CF04AC081E090E0EB
:1012A0009983888384E0E82EF12C9AE0C92ED12C12
:1012B0000115110509F44EC00E9438068E889F88DA
:1012C000A88CB98C2B013C01481859086A087B0886
:1012D0008A809B80AC80BD80481459046A047B04DA
:1012E00038F36E8B7F8B888F998F8A859B852881B9
:1012F00039812130310511F501969B878A872E812E
:101300003F818217930711F41B861A860150110939
:101310008A859B8528853985B6012530310509F0F8
:10132000B7010E946716BC01CE010E943E08C0CFE3
:10133000672B09F4B7CF19821882B4CF892B21F417
:101340008E819F819B878A878A859B8501979B8752
:101350008A87DCCFDF91CF911F910F91FF90EF90A3
:10136000DF90CF90BF90AF909F908F907F906F90C5
:101370005F904F90089590E080E00895CF93DF93C1
:10138000EC0160E08E810E94BF0361E08E810E94CB
:10139000BF0360E08E810E94BF038BE891E001975C
:1013A000F1F7DF91CF910895CF92DF92EF92FF9204
:1013B0000F931F93CF93DF936C017C0187E0E80EBE
:1013C000F11CD0E0C0E0062F10E0B8010C2E02C0E6
:1013D000759567950A94E2F76170F70181917F0135
:1013E0000E94BF032196C430D10579F7C601DF9171
:1013F000CF911F910F91FF90EF90DF90CF900C94C1
:10140000BE09CF92DF92EF92FF920F931F93CF937B
:10141000DF93EC01F62E642F8C810E94BF038D8137
:101420008F3F19F060E00E94BF030F2D10E08F8501
:1014300084FF25C06E0187E0C80ED11CF12CE12C81
:10144000B8010E2C02C0759567950A94E2F7617099
:10145000F60181916F010E94BF03FFEFEF1AFF0AAF
:1014600088E0E816F10461F7CE01DF91CF911F917A
:101470000F91FF90EF90DF90CF900C94BE09B801D0
:1014800084E0759567958A95E1F7CE010E94D409AD
:101490006F2DCE01DF91CF911F910F91FF90EF90B3
:1014A000DF90CF900C94D40940E0682F85E496E05B
:1014B0000C94010A81E00E94540A8BE39FE101979A
:1014C000F1F70895CF93DF93823029F49091540679
:1014D000986090935406809358061092590680E4C1
:1014E00080935A0680E180935B0680E580935C06DA
:1014F00061E0809149060E94360480914A068F3F40
:1015000019F061E00E94360461E080914B060E9470
:101510003604C5E4D6E09E01255436408091540639
:1015200084FD0BC084E090E021962817390744F42D
:1015300061E08E810E943604EECF88E090E0F4CF27
:101540008BE39DE00197F1F760E0809149060E94EE
:10155000BF0360E080914B060E94BF0380914A0662
:101560008F3F19F060E00E94BF038091540684FD14
:1015700034C063E085E496E00E94D409CBE4D6E46D
:10158000CE010197F1F763E085E496E00E94D4096B
:101590002197F1F763E085E496E00E94D40983E5A2
:1015A00092E00197F1F762E085E496E00E94D409A9
:1015B0008091540680620E94540A84E0809355060C
:1015C0008CE00E94540A0E945A0A82E080935606D8
:1015D00086E0DF91CF910C94540A80620E94540AF5
:1015E0008BE496E40197F1F78091540680620E94A3
:1015F000540A83E592E00197F1F7809154068062E6
:101600000E94540AD5CF90915806691710F06FEFD9
:10161000690FE62FF0E0EB5BF94F9489890F806842
:101620000C94540A41E00E94010A81E090E0089580
:10163000FC0101900020E9F73197AF01481B590BDD
:10164000BC0185E496E00C94E901FC01248135811C
:10165000FB014481558124173507E1F4FC018081A9
:101660009181FB01608171810097D1F06115710555
:10167000A1F4232BC1F0FC01808190E008C0232B52
:1016800091F0FB01808190E091958195910921E095
:10169000892B09F020E0822F08950E94A618F7CF29
:1016A0006115710561F721E0F6CF0F931F93CF937A
:1016B000DF938C01EB01FC01808191810097E1F0C7
:1016C0006881798161157105A9F0428153812C816E
:1016D0003D814217530770F00E94AF188C819D81A5
:1016E000F801958384831D821C82DF91CF911F9125
:1016F0000F9108950E94331788819981F801918391
:1017000080838A819B81938382838C819D81958351
:101710008483198218821B821A82E5CFCF93DF93CC
:10172000EC0188819981009711F00E94331719828A
:1017300018821D821C821B821A82DF91CF9108952C
:10174000FC0180819181009711F00C94331708956A
:101750000F931F93CF93DF93EC01888199810097BA
:1017600059F02A813B812617370730F081E0DF915D
:10177000CF911F910F9108958B016F5F7F4F0E9452
:10178000BC17009759F0998388831B830A832C81A7
:101790003D81232B59F7FC011082E8CF80E0E7CF91
:1017A000EF92FF920F931F93CF93DF93EC01FB0116
:1017B000E080F180E114F10411F10481158101153B
:1017C0001105A9F08C819D81080F191FB801CE0168
:1017D0000E94A80B882399F0288139818C819D81F2
:1017E000B701820F931F0E94AF181D830C83CE0197
:1017F000DF91CF911F910F91FF90EF900895CE014F
:101800000E948E0BF4CFEF92FF920F931F93CF9312
:10181000DF93EC017B018A01BA010E94A80B8111C0
:101820000BC0CE010E948E0BCE01DF91CF911F9194
:101830000F91FF90EF9008951D830C83B70188816D
:1018400099810E94AF18F0CFFB0101900020E9F7C9
:101850003197AF01461B570B0C94030C0F931F934A
:10186000CF93DF93CDB7DEB7A2970FB6F894DEBF64
:101870000FBECDBF8C01CB01BA01F80111821082DD
:1018800013821282158214822AE0AE014F5F5F4FED
:101890000E94C315BE016F5F7F4FC8010E94240CD8
:1018A000A2960FB6F894DEBF0FBECDBFDF91CF91E9
:1018B0001F910F910895CF93DF931F921F92CDB781
:1018C000DEB7FC011182108213821282158214820B
:1018D00069831A82BE016F5F7F4F0E94240C0F90B4
:1018E0000F90DF91CF910895CF93DF93EC01FB012F
:1018F0008617970749F0608171816115710541F084
:10190000448155810E94030CCE01DF91CF9108954F
:101910000E948E0BF9CFFC01118210821382128279
:1019200015821482FB0101900020E9F73197AF0185
:10193000461B570B0C94030CCF92DF92EF92FF9251
:101940001F93CF93DF93CDB7DEB72C970FB6F894E4
:10195000DEBF0FBECDBF60E773E0CE0107960E94E9
:101960008B0C0E946B152AE0C22ED12CE12CF12C9D
:10197000A70196010E940416AB01BC01CE0101969D
:101980000E942E0CBE016F5F7F4F88E895E00E9499
:10199000550BCE0101960E94A00B0E946B15A7016A
:1019A00096010E940416AB01BC01CE0101960E9473
:1019B0002E0CBE016F5F7F4F8EE895E00E94550BA5
:1019C000CE0101960E94A00B0E946B151A8219820B
:1019D0001C821B821E821D8234E0C32ED12CE12C7E
:1019E000F12CA70196010E94041616E0169F9001A3
:1019F000179F300D1124B90160597A4FCE0101961D
:101A00000E94740CBE016F5F7F4F84E995E00E94D5
:101A1000550BCE0101960E94A00B0E946B151A82F5
:101A200019821C821B821E821D82A70196010E94C0
:101A30000416169F9001179F300D1124B9016059AB
:101A40007A4FCE0101960E94740CBE016F5F7F4FEA
:101A50008AE995E00E94550BCE0101960E94A00BE9
:101A600061E085E00E94030B8BE592E00E94180B79
:101A70001A8219821C821B821E821D8268E875E010
:101A8000CE0101960E94740C6EE875E0CE010196BD
:101A90000E94D00B64E975E00E94D00B6AE975E002
:101AA0000E94D00BBC01CE0107960E94740CCE019F
:101AB00001960E94A00B61E08CE00E94030BCE0116
:101AC00007960E94160268EE73E080E090E00E94A4
:101AD0005D06CE0107960E94A00B2C960FB6F894D7
:101AE000DEBF0FBECDBFDF91CF911F91FF90EF9072
:101AF000DF90CF9008951F920F920FB60F9211248E
:101B00000BB60F922F933F934F935F936F937F93F7
:101B10008F939F93AF93BF93EF93FF9380912A048A
:101B200090912B04A0912C04B0912D04892B8A2B29
:101B30008B2BE1F190911904E0911A04F0911B04B0
:101B400080818927808380912A0490912B04A09121
:101B50002C04B0912D04181619061A061B069CF4C5
:101B600080912A0490912B04A0912C04B0912D0413
:101B70000197A109B10980932A0490932B04A093A3
:101B80002C04B0932D04FF91EF91BF91AF919F91E1
:101B90008F917F916F915F914F913F912F910F9016
:101BA0000BBE0F900FBE0F901F90189580911002E2
:101BB0000E94F103E8CF1F920F920FB60F921124EB
:101BC0000BB60F922F933F934F935F936F937F9337
:101BD0008F939F93AF93BF93EF93FF9386E394E02C
:101BE0000E947002FF91EF91BF91AF919F918F91F1
:101BF0007F916F915F914F913F912F910F900BBE0D
:101C00000F900FBE0F901F9018951F920F920FB656
:101C10000F9211240BB60F922F938F939F93EF93F4
:101C2000FF93E0914604F09147048081E0914C04D9
:101C3000F0914D0482FD1DC0908180914F048F5F13
:101C40008F7320915004821741F0E0914F04F0E02F
:101C5000EA5CFB4F958F80934F04FF91EF919F912A
:101C60008F912F910F900BBE0F900FBE0F901F9072
:101C700018958081F2CF1F920F920FB60F92112408
:101C80000BB60F922F933F934F935F936F937F9376
:101C90008F939F93AF93BF93EF93FF9383ED94E064
:101CA0000E947002FF91EF91BF91AF919F918F9130
:101CB0007F916F915F914F913F912F910F900BBE4C
:101CC0000F900FBE0F901F9018951F920F920FB696
:101CD0000F9211240BB60F922F938F939F93EF9334
:101CE000FF93E091E304F091E4048081E091E90442
:101CF000F091EA0482FD1DC090818091EC048F5F19
:101D00008F732091ED04821741F0E091EC04F0E034
:101D1000ED52FB4F958F8093EC04FF91EF919F91D3
:101D20008F912F910F900BBE0F900FBE0F901F90B1
:101D300018958081F2CF1F920F920FB60F92112447
:101D40002F933F938F939F93AF93BF9380910304FF
:101D500090910404A0910504B0910604309102040E
:101D600023E0230F2D3758F50196A11DB11D2093B7
:101D700002048093030490930404A0930504B09399
:101D800006048091070490910804A0910904B09181
:101D90000A040196A11DB11D8093070490930804C5
:101DA000A0930904B0930A04BF91AF919F918F91C2
:101DB0003F912F910F900FBE0F901F90189526E81E
:101DC000230F0296A11DB11DD2CF0F931F93CF9366
:101DD000DF93109239041092380448EE53E060E02B
:101DE00070E040933A0450933B0460933C0470933A
:101DF0003D0487E392E090933704809336042DEC02
:101E000030E030934304209342042CEC30E03093D4
:101E100045042093440428EC30E030934704209399
:101E2000460429EC30E030934904209348042AEC1E
:101E300030E030934B0420934A042EEC30E0309392
:101E40004D0420934C0410924F04109250041092B1
:101E50005104109252041092D6041092D50440936B
:101E6000D7045093D8046093D9047093DA04909304
:101E7000D4048093D30485EC90E09093E0048093A5
:101E8000DF0484EC90E09093E2048093E10480EC22
:101E900090E09093E4048093E30481EC90E09093CD
:101EA000E6048093E50482EC90E09093E80480934C
:101EB000E70486EC90E09093EA048093E9041092A2
:101EC000EC041092ED041092EE041092EF041092C4
:101ED0008206109281061092780610927706109270
:101EE0008D0610928E0610928F061092900608E2D0
:101EF00010E010937E0600937D0682E490E09093BC
:101F000084068093830683E490E090938606809312
:101F1000850684E490E0909388068093870685E4A4
:101F200090E090938A068093890661E082E40E94A3
:101F3000360461E0809185060E94360461E080915C
:101F400087060E94360461E0809189060E9436046B
:101F500010928C0610928B06C4E0D0E0D0938006DD
:101F6000C0937F06109268061092670610925E0674
:101F700010925D0610927306109274061092750608
:101F80001092760610936406009363068EE390E049
:101F900090936A06809369068FE390E090936C06B5
:101FA00080936B0680E490E090936E0680936D06BC
:101FB00081E490E09093700680936F0661E08EE379
:101FC0000E94360461E080916B060E94360461E055
:101FD00080916D060E94360461E080916F060E9438
:101FE00036041092720610927106D0936606C09362
:101FF0006506109248061092470683E592E090939A
:1020000046068093450686E3809349068FEF8093CA
:102010004A0687E380934B0688E380934C0689E366
:1020200080934D068AE380934E068BE380934F06A0
:1020300010925006109251061092520610925306BA
:102040001092540681E00E94620A60E773E08FE319
:1020500096E00E948B0C63E672E089E396E00E94B2
:102060008B0C6CE772E083E396E00E948B0C69E6D0
:1020700072E08DE296E00E948B0C60E772E087E2EE
:1020800096E00E948B0C66E772E08BE196E00E947E
:102090008B0C61E872E081E296E00E948B0C6DE8A7
:1020A00072E085E196E00E948B0C64EA72E08FE0BA
:1020B00096E00E948B0C1092A2051092A605109239
:1020C000A5051092A70589E492E09093A10580935D
:1020D000A005ECEBF5E088EF95E010821482138206
:1020E000158236968E179F07C1F785E192E090938F
:1020F00003068093020681E192E0909305068093A7
:10210000040684E0809306068093070689E192E046
:1021100090930106809300068AE090E09093090670
:102120008093080684EF91E090930B0680930A0653
:1021300010920E0610920D061092FC051092FD05ED
:102140001092FE051092FF0510920C0660E773E0F6
:1021500088E895E00E948B0C60E773E08EE895E0DC
:102160000E948B0C60E773E084E995E00E948B0C81
:1021700060E773E08AE995E00E948B0C6BEC72E0FB
:1021800080E795E00E948B0C6BEA72E086E795E0B1
:102190000E948B0C6DEA72E08CE795E00E948B0C3C
:1021A0006FEA72E082E895E0DF91CF911F910F9185
:1021B0000C948B0CCF93DF93CDB7DEB762970FB63D
:1021C000F894DEBF0FBECDBF789484B5826084BD25
:1021D00084B5816084BD85B5826085BD85B581602B
:1021E00085BD80916E00816080936E0010928100A9
:1021F0008091810082608093810080918100816064
:102200008093810080918000816080938000809124
:10221000B10084608093B1008091B00081608093B0
:10222000B000809191008260809391008091910034
:1022300081608093910080919000816080939000F4
:102240008091A10082608093A1008091A1008160B3
:102250008093A1008091A00081608093A000809174
:10226000210182608093210180912101816080930E
:1022700021018091200181608093200180917A006A
:10228000846080937A0080917A00826080937A00E3
:1022900080917A00816080937A0080917A008068D2
:1022A00080937A001092C10061E08DE00E943604B4
:1022B00061E086E10E94360461E087E10E94360415
:1022C00061E085E30E94360485E30E94F10380E427
:1022D0000E94540A08E012E0F80161918F0185E440
:1022E00096E00E94120BF2E000311F07A9F788E484
:1022F0000E94540A00E012E0F80161918F0185E428
:1023000096E00E94120BF2E008301F07A9F70E9426
:102310008F066093120470931304809314049093B7
:10232000150482E00E94620A0E945A0A80917B0092
:10233000877F80937B0086E480937C0080917A0085
:10234000806480937A0080917A0086FDFCCF809132
:10235000780060917900762F682F072E000C880B8B
:10236000990B611571058105910511F00E94BA154F
:1023700083ED94E00E948C0186E394E00E948C013E
:10238000812C87E8982E83E9A82E83E0B82E9AE066
:10239000492E512C612C712C0E948F06AB01BC017F
:1023A0008091120490911304A0911404B09115042B
:1023B00088519C4FAF4FBF4F481759076A077B079B
:1023C00028F560E083E00E94030B81EB92E00E941D
:1023D000180B60E081E00E94030B60E085E496E06A
:1023E0000E94120B60E08EE00E94030B60E085E427
:1023F00096E00E94120B61E080E00E94030B8CEBE0
:1024000092E00E94180B0E94FF02C6CF8417950726
:10241000A607B707C0F70E94F70660E080E00E94B9
:10242000030B8DEC92E00E94180B61E080E00E94AB
:10243000030B8DED92E00E94180B68E873E180E0D9
:1024400090E00E945D060E949C0C60E773E0CE0164
:102450000D960E948B0C0E945A0A10E000E060E08A
:1024600080E00E94030B80EF92E00E94180B61E075
:1024700080E00E94030BCE010D960E9416020E947E
:10248000F706F82E8823D9F38AE2F812F1C11886EC
:102490001F821A8619861C861B86BE01635F7F4FCA
:1024A000CE0107960E94740C8B859C85049761F081
:1024B000D12C72C00330110594F20330110509F4D8
:1024C000F7C165EE73E014C270E060E0CE010796DC
:1024D0000E94D601FC016081CE0101960E945B0C36
:1024E00068E875E0CE0101960E94250BD82ECE013A
:1024F00001960E94A00BDD20D9F261E070E0CE01D0
:1025000007960E94D601FC016081CE0101960E94CF
:102510005B0C6EE875E0CE0101960E94250BD82E6B
:10252000CE0101960E94A00BDD2011F262E070E066
:10253000CE0107960E94D601FC016081CE01019672
:102540000E945B0C64E975E0CE0101960E94250BA8
:10255000D82ECE0101960E94A00BDD2009F4A8CF51
:1025600063E070E0CE0107960E94D601FC01608115
:10257000CE0101960E945B0C6AE975E0CE010196DE
:102580000E94250BC82ECE0101960E94A00BDD24CF
:10259000D394CC2009F48CCFCE0107960E94A00BD7
:1025A000DD2009F42DC10E945A0A60E080E00E94FB
:1025B000030B81E093E00E94180B61E080E00E9431
:1025C000030B6DE673E0CE0101960E948B0CBE01F9
:1025D000635F7F4FCE0101960E94D00B0E941602CE
:1025E000CE0101960E94A00B60ED77E080E090E0C4
:1025F0000E945D060E945A0A60E080E00E94030B80
:1026000082E193E00E94180B68EE73E080E090E0B6
:102610000E945D068091100490911104181619060D
:102620000CF4AEC00E948F0660930C0470930D04EE
:1026300080930E0490930F0460E080E00E94030BEF
:1026400083E293E00E94180B61E080E00E94030B9C
:1026500061E086E10E94BF0320917D0630917E06F5
:10266000032E000C440B550BC501B4010E94041647
:10267000CA01B901A30192010E94041620937906B0
:1026800030937A0640937B0650937C0668E270E0B4
:1026900087E796E00E94320968EE73E080E090E000
:1026A0000E945D0660E086E10E94BF0360E080E07A
:1026B0000E94030B84E393E00E94180B61E080E02A
:1026C0000E94030B0E948F06AB01BC0180910C0499
:1026D00090910D04A0910E04B0910F0488579C4E68
:1026E000AF4FBF4F481759076A077B0758F368E891
:1026F00073E180E090E00E945D0660E080E00E946F
:10270000030B8BE493E00E94180B61E080E00E94D1
:10271000030B61E087E10E94BF03209163063091C3
:102720006406032E000C440B550BC501B4010E9436
:102730000416CA01B901A30192010E940416209354
:102740005F0630936006409361065093620668ED21
:102750007FEF8DE596E00E94320968EE73E080E03D
:1027600090E00E945D0660E087E10E94BF038091D7
:102770001004909111040196909311048093100419
:1027800060E080E00E94030B8DE593E00E94180B4F
:1027900068EB7BE080E090E00E945D060E945A0AB0
:1027A00089899A89059710F10E945A0A60E080E0B1
:1027B0000E94030B83E893E00E94180B61E080E025
:1027C0000E94030B8FE893E00E94180B60ED77E006
:1027D00080E090E00E945D0660E773E0CE010D9618
:1027E0000E94240C0E945A0A0F5F1F4FD1105DC037
:1027F00083E2F8125FCE0330110509F098C058C08B
:1028000085E30E9472040E945A0A60E080E00E9400
:10281000030B81E793E00E94180B61E080E00E94C7
:10282000030B6DE673E0CE0101960E948B0CBE0196
:10283000635F7F4FCE0101960E94D00B0E9416026B
:10284000CE0101960E94A00B0F5F1F4F60E773E05F
:10285000CE010D960E94240C60ED77E080E090E0C0
:102860000E945D060E945A0A85E30E94F10398CFF8
:10287000F9821A82C988DA88FFEFCF1ADF0AB60117
:10288000CE010D960E94A80B882369F02D853E8508
:1028900089899A89BE016F5F7F4F820F931F0E94C3
:1028A000AF18DA8AC98AD12C7BCF03301105E1F544
:1028B00085E30E9472040E945A0A60E080E00E9450
:1028C000030B8EE993E00E94180B61E080E00E9408
:1028D000030B8DEA93E00E94180B60ED77E080E037
:1028E00090E00E945D0685E30E94F1036FEB73E0C8
:1028F000CE0101960E948B0CCE010D960E94A00B7A
:102900008D819E81892B59F009811A816EED73E0CA
:10291000C8010E94A618892B69F50E949C0CCE0163
:1029200001960E94A00B6FCDE3E2FE12CACD85E3B3
:102930000E9472040E945A0A60E080E00E94030B29
:1029400087EC93E00E94180B61E080E00E94030B8B
:1029500084ED93E00E94180B60ED77E080E090E05A
:102960000E945D0685E30E94F1030E945A0A6EED03
:1029700073E0BECF6FEB73E0C8010E94A618892BED
:1029800061F265EE73E0C8010E94A618892B39F642
:102990000E945A0A60E080E00E94030B8EEE93E0F2
:1029A0000E94180B60ED77E080E090E00E945D06E9
:1029B0000E945A0AB4CF82E895E00E94A00B8CE7EF
:1029C00095E00E94A00B86E795E00E94A00B80E7AF
:1029D00095E00E94A00B8AE995E00E94A00B84E993
:1029E00095E00E94A00B8EE895E00E94A00B88E87D
:1029F00095E00E94A00B8FE096E00E94A00B85E17D
:102A000096E00E94A00B81E296E00E94A00B8BE171
:102A100096E00E94A00B87E296E00E94A00B8DE258
:102A200096E00E94A00B83E396E00E94A00B89E34E
:102A300096E00E94A00B8FE396E00C94A00B8F927F
:102A40009F92AF92BF92CF92DF92EF92FF92CF937D
:102A5000DF93EC01688179818A819B816115710521
:102A60008105910521F464E279ED8BE597E02DE194
:102A700033EF41E050E00E94041649015A019B01E6
:102A8000AC01A7EAB1E40E9423166B017C01ACEE15
:102A9000B4EFA50194010E943116C60ED71EE81EA0
:102AA000F91EF7FE06C081E0C81AD108E10880E8E7
:102AB000F80AC882D982EA82FB82C701B6019F77F1
:102AC000DF91CF91FF90EF90DF90CF90BF90AF90CC
:102AD0009F908F9008958F929F92AF92BF92CF92C6
:102AE000DF92EF92FF926091290270912A02809109
:102AF0002B0290912C02611571058105910521F43D
:102B000064E279ED8BE597E02DE133EF41E050E0B1
:102B10000E94041649015A019B01AC01A7EAB1E4E5
:102B20000E9423166B017C01ACEEB4EFA501940169
:102B30000E943116C60ED71EE81EF91EF7FE06C00B
:102B400081E0C81AD108E10880E8F80AC092290299
:102B5000D0922A02E0922B02F0922C02C701B60119
:102B60009F77FF90EF90DF90CF90BF90AF909F90B6
:102B70008F9008956093290270932A0280932B020C
:102B800090932C020895BB272A3051F4992342F4E4
:102B9000BDE290958095709561957F4F8F4F9F4FC7
:102BA0000C94D315BB27FA01A62F62177105810576
:102BB0009105330B30FB66F0AA27660F771F881F3D
:102BC000991FAA1FA21710F0A21B63953850A9F7EE
:102BD000A05DAA3308F0A95DA19336F7B111B193B6
:102BE0001082CA010C94F415DC01FC01672F71916D
:102BF0007723E1F7329704C07C916D9370836291E3
:102C0000AE17BF07C8F30895052E97FB1EF4009476
:102C10000E941B1657FD07D00E94361607FC03D0F2
:102C20004EF40C941B1650954095309521953F4FCE
:102C30004F4F5F4F089590958095709561957F4FA8
:102C40008F4F9F4F08950E945816A59F900DB49FD7
:102C5000900DA49F800D911D11240895B7FF0C9431
:102C600023160E942316821B930B0895A1E21A2EAD
:102C7000AA1BBB1BFD010DC0AA1FBB1FEE1FFF1F20
:102C8000A217B307E407F50720F0A21BB30BE40B70
:102C9000F50B661F771F881F991F1A9469F76095B7
:102CA0007095809590959B01AC01BD01CF01089571
:102CB000A29FB001B39FC001A39F700D811D11247D
:102CC000911DB29F700D811D1124911D089597FBD8
:102CD000072E16F4009407D077FD09D00E948316C2
:102CE00007FC05D03EF4909581959F4F089570950F
:102CF00061957F4F0895EE0FFF1F881F8BBF0790D0
:102D0000F691E02D1994AA1BBB1B51E107C0AA1F25
:102D1000BB1FA617B70710F0A61BB70B881F991F7C
:102D20005A95A9F780959095BC01CD0108950F9310
:102D30001F93CF93DF938230910510F482E090E0EF
:102D4000E0919306F091940630E020E0B0E0A0E03E
:102D5000309799F42115310509F44AC0281B390B25
:102D600024303105D8F58A819B816115710589F17F
:102D7000FB0193838283FE0111C040815181028156
:102D8000138148175907E0F04817590799F410972D
:102D900061F012960C93129713961C933296CF0102
:102DA000DF91CF911F910F91089500939306109397
:102DB0009406F4CF2115310551F04217530738F02E
:102DC000A901DB019A01BD01DF01F801C1CFEF01CB
:102DD000F9CF9093940680939306CDCFFE01E20F36
:102DE000F31F819391932250310939832883D7CFE0
:102DF0002091910630919206232B41F420912F02CD
:102E000030913002309392062093910620912D024A
:102E100030912E022115310541F42DB73EB7409176
:102E2000310250913202241B350BE0919106F09152
:102E30009206E217F307A0F42E1B3F0B2817390761
:102E400078F0AC014E5F5F4F2417350748F04E0F06
:102E50005F1F5093920640939106819391939FCF69
:102E6000F0E0E0E09CCFCF93DF930097E9F0FC0126
:102E7000329713821282A0919306B0919406ED01CD
:102E800030E020E01097A1F420813181820F931F60
:102E900020919106309192062817390709F061C0F8
:102EA000F0939206E0939106DF91CF910895EA01A5
:102EB000CE17DF07E8F54A815B819E014115510578
:102EC000B1F7E901FB83EA8349915991C40FD51FFA
:102ED000EC17FD0761F4808191810296840F951FA4
:102EE000E90199838883828193819B838A83F0E0BF
:102EF000E0E012968D919C9113970097B9F52D9172
:102F00003C911197CD010296820F931F209191065B
:102F1000309192062817390739F6309751F51092FB
:102F2000940610929306B0939206A0939106BCCF9C
:102F3000D383C28340815181840F951FC817D9075D
:102F400061F44E5F5F4F88819981480F591F51830B
:102F500040838A819B81938382832115310509F007
:102F6000B0CFF0939406E09393069ECFFD01DC0171
:102F7000C0CF13821282D7CF4F925F926F927F920F
:102F80008F929F92AF92BF92CF92DF92EF92FF9279
:102F90000F931F93CF93DF938C01009799F4CB018C
:102FA000DF91CF911F910F91FF90EF90DF90CF9025
:102FB000BF90AF909F908F907F906F905F904F9059
:102FC0000C949716FC01E60FF71F9C012250310963
:102FD000E217F30708F4AEC0D901CD91DC91119747
:102FE000C617D70720F1C530D10578F0CE01049778
:102FF0008617970750F0C61BD70B2297C193D19322
:103000006D937C93CF010E943317C801DF91CF915C
:103010001F910F91FF90EF90DF90CF90BF90AF90F6
:103020009F908F907F906F905F904F9008955B017D
:10303000AC1ABD0A4C018C0E9D1EA0919306B09156
:103040009406512C412CF12CE12C109731F58091F4
:103050009106909192068815990509F05CC0461674
:10306000570608F058C080912D0290912E020097CB
:1030700041F48DB79EB74091310250913202841BCA
:10308000950BE817F90708F055C0F0939206E09306
:103090009106F90171836083B8CF8D919C9111974E
:1030A00012966C90129713967C901397A815B905F9
:1030B00059F56C0142E0C40ED11CCA14DB0420F1A6
:1030C000AC014A195B09DA011296159780F0628209
:1030D000738251834083D9016D937C93E114F10491
:1030E00071F0D7011396FC93EE9312978ECF229630
:1030F0008C0F9D1FF90191838083F301EFCFF09333
:103100009406E093930681CF4816590608F42C01E3
:103110007D01D3019ACFCB010E9497167C010097C5
:1031200049F0AE01B8010E949D18C8010E943317F2
:1031300087016BCF10E000E068CFFB01DC0102C02B
:1031400001900D9241505040D8F70895FB01DC01E9
:103150008D91019080190110D9F3990B0895FB010D
:10316000DC0101900D920020E1F7089511E0C8E51F
:10317000D1E000E006C0802FFE010E947B16219660
:10318000011DC935D10780E00807A9F7F894FFCFE2
:103190000A0A0A0000110E000E11111F1B1B1F004E
:1031A000FF0607080902030405373839413435366C
:1031B00042313233432A302344010000000000959D
:1031C000068000000000009202E9011F02DF0250A9
:1031D000022E024202000000003406ED03BC030090
:1031E000000000120BE901BB09E801544F4B454EAA
:1031F0003A200061646D696E0061646D696E320031
:1032000031323334320061646D696E2D31323334C2
:1032100000736172612D7361726974610045647538
:103220006172646F2D313233342C52454749535407
:103230005241520031323334585A00420043004464
:10324000004269656E76656E69646F0047727570DD
:103250006F332D53656363696F6E204100202A55DB
:1032600053554152494F2A20202020200020202061
:103270004269656E76656E69646F202020202000AB
:1032800044494749544520535520544F4B454E3AE5
:103290000020544F4B454E20434F52524543544F0C
:1032A0002000454E5452414E444F205041525155FA
:1032B000454F002D2061627269656E646F202D207C
:1032C00020202000496E677265736F2076656869FB
:1032D00063756C6F202020202020002D20636572F4
:1032E00072616E646F202D2020202020004C6973B5
:1032F000746F20202020202020202020202020202B
:1033000000544F4B454E20494E434F525245435473
:103310004F20004558434544452053495A45002015
:103320002044454C20544F4B454E20202000544F04
:103330004B454E20494E56414C49444F0045786319
:103340006564696F203320696E74656E74730066FE
:10335000616C6C69646F00424F544F4E2043414E84
:1033600043454C0053452041435449564F00636147
:103370006E63656C00636F72726563746F00736572
:103380006C656363696F6E61207061727175656FE2
:0233900000003B
:00000001FF
