:020000040000FA
:100000000C9444010C9475010C9475010C947501C9
:100010000C9475010C9475010C9475010C94750188
:100020000C9475010C9475010C9475010C94750178
:100030000C9475010C9475010C9475010C94750168
:100040000C9475010C9475010C9475010C94750158
:100050000C9475010C9475010C9475010C94200995
:100060000C9475010C94EA080C94C0080C9475016A
:100070000C9475010C9475010C9475010C94750128
:100080000C9475010C9475010C9475010C94750118
:100090000C9475010C9475010C9475010C94750108
:1000A0000C9475010C9475010C9475010C947501F8
:1000B0000C9475010C9475010C9475010C947501E8
:1000C0000C9475010C9475010C9475010C947501D8
:1000D0000C9475010C9475010C9475010C947501C8
:1000E0000C9475010C9431030C940E030C941402BF
:1000F0000C9406020C9423030C9448030C942D03D7
:100100000C941D030C94AB030C946A090C94EE0D33
:100110000C9443030C943F030C9499020C944903F0
:100120000C9408030C943B030C94E3010C947A03A5
:100130000C944C020C94AD010C94F5050C94F20156
:100140000C944D030C941A030C9427030C94120383
:100150000C94AC010C9435030C94EB030C94160333
:100160000C944C0700002100240027002A002D00D9
:100170003000330001010000040107010A01000002
:100180002200250028002B002E003100340002013F
:100190000000050108010B010000200023002600DB
:1001A00029002C002F00320000010000030106018D
:1001B00009010505050507050808080802020202ED
:1001C0000A0A0808040404040101010101010101F3
:1001D0000303030303030303040707070C0C0C0CBE
:1001E0000C0C0C0C020202020606060606060606A7
:1001F0000B0B0B0B0B0B0B0B010210202008081034
:100200002040102040800201020108040201010286
:10021000040810204080804020100804020180045F
:1002200002018040201008040201080402010102BA
:1002300004081020408001020408102040800000C3
:100240000A0B02090C0D0E08070304010000000050
:10025000000000000000000000000000000000009E
:10026000000000000000000000001211100000005B
:10027000000000000000000000000000000000007E
:10028000000000006A09EE0D11241FBECFEFD1E27D
:10029000DEBFCDBF00E00CBF13E0A0E0B2E0EEE1B6
:1002A000F3E200E00BBF02C007900D92AE34B1073D
:1002B000D9F724E0AEE4B3E001C01D92A53BB2073C
:1002C000E1F711E0C3E4D1E000E006C021970109A5
:1002D000802FFE010E94560FC234D10780E008072C
:1002E000A9F70E94530A0C947D110C94000096E02B
:1002F000899FD0011124A65DBB4F90967C936E938D
:100300005F9791E091969C939197E0919704F0917B
:10031000980490919604992339F0309751F0811107
:1003200008C0809146041994309719F05C968C911E
:10033000FACF0895FC01248135816217730720F4F8
:1003400080819181009729F41092570387E593E00B
:100350000895860F971F08950895AF92BF92CF9288
:10036000DF92EF92FF920F931F93CF93DF936C0175
:100370007B018B01040F151FEB015E01AE18BF0856
:10038000C017D10759F06991D601ED91FC91019008
:10039000F081E02DC6011995892B79F7C501DF9110
:1003A000CF911F910F91FF90EF90DF90CF90BF9072
:1003B000AF900895FC01448155816081718189E984
:1003C00094E00C94AD01FC01538D448D252F30E059
:1003D000842F90E0821B930B541710F0CF96089552
:1003E00001970895FC01918D828D981761F0A28D7F
:1003F000AE0FBF2FB11D5D968C91928D9F5F9F7345
:10040000928F90E008958FEF9FEF0895FC01918DFA
:10041000828D981731F0828DE80FF11D858D90E067
:1004200008958FEF9FEF0895FC01918D228D892F04
:1004300090E0805C9F4F821B91098F7399270895EC
:100440008DE593E00E94140221E0892B09F420E05D
:10045000822F0895FC01A48DA80FB92FB11DA35AB6
:10046000BF4F2C91848D90E001968F739927848FD4
:10047000A689B7892C93A089B1898C9183708064F7
:100480008C93938D848D981306C00288F389E02D98
:1004900080818F7D80830895EF92FF920F931F9349
:1004A000CF93DF93EC0181E0888F9B8D8C8D981327
:1004B0001AC0E889F989808185FF15C09FB7F89433
:1004C000EE89FF896083E889F9898081837080647F
:1004D00080839FBF81E090E0DF91CF911F910F91CA
:1004E000FF90EF900895F62E0B8D10E00F5F1F4FD9
:1004F0000F731127E02E8C8D8E110CC00FB607FCE8
:10050000FACFE889F989808185FFF5CFCE010E9475
:100510002A02F1CFEB8DEC0FFD2FF11DE35AFF4FB7
:10052000F0829FB7F8940B8FEA89FB898081806203
:10053000CFCFCF93DF93EC01888D8823B9F0AA89C0
:10054000BB89E889F9898C9185FD03C0808186FD8E
:100550000DC00FB607FCF7CF8C9185FFF2CF8081DD
:1005600085FFEDCFCE010E942A02E9CFDF91CF9126
:10057000089580E090E0892B29F00E9420028111EB
:100580000E94000080E090E0892B49F080E090E03C
:10059000892B29F00E94000081110E94000080E058
:1005A00090E0892B49F080E090E0892B29F00E94AF
:1005B000000081110E94000080E090E0892B49F04A
:1005C00080E090E0892B29F00E94000081110C94BA
:1005D000000008958150823108F05AC0E82FF0E001
:1005E0008827EA50FD4F8F4F0C94560F16031A03BD
:1005F00008030E03120348031D03230327032D03DF
:10060000310335033B033F034803430349034D03D1
:10061000809180008F778093800008958091800082
:100620008F7DF9CF80918000877FF5CF84B58F775C
:1006300084BD089584B58F7DFBCF8091B0008F7706
:100640008093B00008958091B0008F7DF9CF8091A4
:1006500090008F77809390000895809190008F7D17
:10066000F9CF80919000877FF5CF8091A0008F77A0
:100670008093A00008958091A0008F7DF9CF809194
:10068000A000877FF5CF809120018F778093200194
:100690000895809120018F7DF9CF80912001877F7F
:1006A000F5CFCF93DF93282F30E0F901E25CFD4FC7
:1006B0008491F901E850FE4FD491F901EE54FE4FB8
:1006C000C491CC23A1F081110E94EA02EC2FF0E04A
:1006D000EE0FFF1FE856FE4FA591B491EC91ED236C
:1006E00081E090E009F480E0DF91CF91089580E00F
:1006F00090E0FACF862F0C9451031F93CF93DF9392
:10070000282F30E0F901E25CFD4F8491F901E850B7
:10071000FE4FD491F901EE54FE4FC491CC23A9F0C1
:10072000162F81110E94EA02EC2FF0E0EE0FFF1F5E
:10073000E258FE4FA591B4918FB7F894EC91111146
:1007400008C0D095DE23DC938FBFDF91CF911F913E
:100750000895DE2BF8CF862F642F0C947D03CF9362
:10076000DF9390E0FC01E850FE4F24918E549E4FA1
:10077000FC0184918823C9F090E0880F991FFC0147
:10078000EC59FE4FA591B491FC01E258FE4FC59182
:10079000D49161110DC09FB7F8948C91209582235C
:1007A0008C938881282328839FBFDF91CF91089560
:1007B000623051F49FB7F8943C91822F8095832347
:1007C0008C93E8812E2BEFCF8FB7F894EC912E2BE2
:1007D0002C938FBFEACF862F642F0C94AF033FB7C3
:1007E000F8948091530390915403A0915503B091D4
:1007F000560326B5A89B05C02F3F19F00196A11DF1
:10080000B11D3FBFBA2FA92F982F8827BC01CD015A
:10081000620F711D811D911D42E0660F771F881FB9
:10082000991F4A95D1F708958F929F92AF92BF92E8
:10083000CF92DF92EF92FF924B015C010E94EF0397
:100840006B017C010E94EF036C197D098E099F09E1
:10085000683E734081059105A8F321E0821A910852
:10086000A108B10888EEC80E83E0D81EE11CF11C77
:1008700081149104A104B10429F7FF90EF90DF9057
:10088000CF90BF90AF909F908F9008952FB7F8941E
:1008900060914F03709150038091510390915203E6
:1008A0002FBF08950F931F93CF93DF93C82FD62F99
:1008B00086E0C89FF0011124E65DFB4F11A2878DF1
:1008C00090A181309105F1F058F082309105F1F15D
:1008D000039709F440C0DF91CF911F910F910895C4
:1008E0006623C9F361E070E08C2F0E9477010E94BB
:1008F00046046093820470938304809384049093ED
:100900008504E9CF0E94460400918204109183047B
:100910002091840430918504AB01BC01401B510B34
:10092000620B730B8091940490919504B0E0A0E069
:1009300084179507A607B70748F462E070E08C2F8C
:10094000DF91CF911F910F910C94770163E070E0DC
:10095000D111C1CFF4CF70E060E0F1CF6F927F9200
:100960008F929F92AF92BF92CF92DF92EF92FF92BF
:100970000F931F93CF93DF9381E0809396040E949F
:1009800046040091860410918704209188043091D8
:100990008904AB01BC01401B510B620B730B8091AE
:1009A000920490919304B0E0A0E084179507A60705
:1009B000B70708F014C1C0E080919004C81760F434
:1009C000E0918C04F0918D04EC0FF11D62E08081C8
:1009D0000E94AF03CF5FF0CF712C812C912C54017A
:1009E000839480919104781608F05FC0072D10E081
:1009F000E0918E04F0918F04E00FF11F61E080819F
:100A00000E94AF03E0918E04F0918F04E00FF11F7C
:100A100060E080810E947D03D501C401072C04C0E1
:100A2000880F991FAA1FBB1F0A94D2F76C017C0183
:100A3000E094F094612C809190046816F8F4C62D2F
:100A4000D0E0E0918C04F0918D04EC0FFD1F8081CB
:100A50000E9451032496CC0FDD1FC65DDB4F892B0E
:100A600041F4888199818C299D2999838883639495
:100A7000E2CF888199818E219F21F7CFE0918E046A
:100A8000F0918F04E00FF11F61E080810E947D03EF
:100A900080918E0490918F04080F191F60E0F80177
:100AA00080810E94AF0373949CCFCAE2D4E0FE0120
:100AB0008FEF9FEF278D30A1232B21F4148E968F7B
:100AC000858F11A2369624E0E636F20799F7F12CCD
:100AD00096E0D92E80919004F81608F050C0E12CD1
:100AE0000F2D10E0000F111F0E5C1B4F2091910481
:100AF000E21608F042C0F801608171810E2C02C03C
:100B0000769567950A94E2F7F29E900111242E0DD6
:100B1000311DEAE2F4E080E0458D568D241735075B
:100B200009F461C08F5F36968A30B1F760FF23C049
:100B3000EAE2F4E090E080E0448D411117C0E091DA
:100B40008A04F0918B04E20FF31F4081D89EF001DC
:100B5000D99EF00D1124E65DFB4F448F368F258F13
:100B600010A2178E61E00E94520405C001963696CD
:100B70008A30910509F7E394B9CFF394ABCF10E035
:100B800089A18111182F2696F4E0C636DF07C1F738
:100B90000E944604609386047093870480938804BF
:100BA000909389041123D9F080914B048823B9F0E4
:100BB0008091490490914A04019789F480914604F8
:100BC000DF91CF911F910F91FF90EF90DF90CF9029
:100BD000BF90AF909F908F907F906F9008951092EC
:100BE000960480E0EDCF6170BECF90E080E0089584
:100BF000CF93DF93EC0160E08E810E947D0361E082
:100C00008E810E947D0360E08E810E947D038BE8CF
:100C100091E00197F1F7DF91CF910895CF92DF92A4
:100C2000EF92FF920F931F93CF93DF936C017C01A0
:100C300087E0E80EF11CD0E0C0E0062F10E0B8011C
:100C40000C2E02C0759567950A94E2F76170F70162
:100C500081917F010E947D032196C430D10579F7EF
:100C6000C601DF91CF911F910F91FF90EF90DF9020
:100C7000CF900C94F805CF92DF92EF92FF920F93F2
:100C80001F93CF93DF93EC01F62E642F8C810E948B
:100C90007D038D818F3F19F060E00E947D030F2D51
:100CA00010E08F8584FF25C06E0187E0C80ED11C3F
:100CB000F12CE12CB8010E2C02C0759567950A94B1
:100CC000E2F76170F60181916F010E947D03FFEFF1
:100CD000EF1AFF0A88E0E816F10461F7CE01DF9110
:100CE000CF911F910F91FF90EF90DF90CF900C94D8
:100CF000F805B80184E0759567958A95E1F7CE010E
:100D00000E940E066F2DCE01DF91CF911F910F91A2
:100D1000FF90EF90DF90CF900C940E0640E0682F8C
:100D200089E994E00C943B0681E00E948E068BE3F7
:100D30009FE10197F1F70895CF93DF93823029F473
:100D40009091A80498609093A8048093AC041092AA
:100D5000AD0480E48093AE0480E18093AF0480E52D
:100D60008093B00461E080919D040E94AF03809164
:100D70009E048F3F19F061E00E94AF0361E0809113
:100D80009F040E94AF03C9E9D4E09E012959344071
:100D90008091A80484FD0BC084E090E02196281780
:100DA000390744F461E08E810E94AF03EECF88E002
:100DB00090E0F4CF8BE39DE00197F1F760E0809144
:100DC0009D040E947D0360E080919F040E947D034A
:100DD00080919E048F3F19F060E00E947D03809116
:100DE000A80484FD34C063E089E994E00E940E0603
:100DF000CBE4D6E4CE010197F1F763E089E994E012
:100E00000E940E062197F1F763E089E994E00E94C1
:100E10000E0683E592E00197F1F762E089E994E03C
:100E20000E940E068091A80480620E948E0684E0D3
:100E30008093A9048CE00E948E060E94940682E0B2
:100E40008093AA0486E0DF91CF910C948E06806295
:100E50000E948E068BE496E40197F1F78091A80436
:100E600080620E948E0683E592E00197F1F78091FF
:100E7000A80480620E948E06D5CF9091AC046917B9
:100E800010F06FEF690FE62FF0E0E756FB4F948903
:100E9000890F80680C948E0641E00E943B0681E039
:100EA00090E00895FC0101900020E9F73197AF012F
:100EB000481B590BBC0189E994E00C94AD010F93D8
:100EC0001F93CF93DF938C01EB01FC018081918113
:100ED0000097E1F06881798161157105A9F042817F
:100EE00053812C813D814217530770F00E94761187
:100EF0008C819D81F801958384831D821C82DF9102
:100F0000CF911F910F9108950E94FA0F88819981C6
:100F1000F801918380838A819B81938382838C8172
:100F20009D8195838483198218821B821A82E5CF62
:100F3000FC0180819181009711F00C94FA0F0895C3
:100F4000FC0124813581FB0144815581241735073B
:100F5000E1F4FC0180819181FB0160817181009746
:100F6000D1F061157105A1F4232BC1F0FC01808142
:100F700090E008C0232B91F0FB01808190E09195D7
:100F80008195910921E0892B09F020E0822F0895B5
:100F90000E946D11F7CF6115710561F721E0F6CF61
:100FA0000F931F93CF93DF93EC0188819981009772
:100FB00059F02A813B812617370730F081E0DF9115
:100FC000CF911F910F9108958B016F5F7F4F0E940A
:100FD0008310009759F0998388831B830A832C819F
:100FE0003D81232B59F7FC011082E8CF80E0E7CF49
:100FF000EF92FF920F931F93CF93DF93EC01FB01CE
:10100000E080F180E114F10411F1048115810115F2
:101010001105A9F08C819D81080F191FB801CE011F
:101020000E94D007882399F0288139818C819D8185
:10103000B701820F931F0E9476111D830C83CE018E
:10104000DF91CF911F910F91FF90EF9008958881CC
:101050009981009711F00E94FA0F198218821D825F
:101060001C821B821A82EBCFEF92FF920F931F9389
:10107000CF93DF93EC017B018A01BA010E94D00774
:1010800028813981811114C02115310519F0C90158
:101090000E94FA0F198218821D821C821B821A82FA
:1010A000CE01DF91CF911F910F91FF90EF900895A6
:1010B0001D830C83B701C9010E947611F1CFFB019A
:1010C00001900020E9F73197AF01461B570B0C94B4
:1010D00034080F931F93CF93DF93CDB7DEB7A2975A
:1010E0000FB6F894DEBF0FBECDBF8C01CB01BA01A5
:1010F000F8011182108213821282158214822AE072
:10110000AE014F5F5F4F0E94B20EBE016F5F7F4F17
:10111000C8010E945F08A2960FB6F894DEBF0FBE0A
:10112000CDBFDF91CF911F910F910895CF93DF93A2
:101130001F921F92CDB7DEB7FC011182108213827D
:1011400012821582148269831A82BE016F5F7F4FFB
:101150000E945F080F900F90DF91CF910895FC01DE
:10116000118210821382128215821482FB01019077
:101170000020E9F73197AF01461B570B0C94340858
:101180001F920F920FB60F9211240BB60F922F934E
:101190003F934F935F936F937F938F939F93AF93FF
:1011A000BF93EF93FF938DE593E00E942A02FF9196
:1011B000EF91BF91AF919F918F917F916F915F91CF
:1011C0004F913F912F910F900BBE0F900FBE0F903C
:1011D0001F9018951F920F920FB60F9211240BB605
:1011E0000F922F938F939F93EF93FF93E0916D0353
:1011F000F0916E038081E0917303F091740382FD9E
:101200001DC09081809176038F5F8F73209177034B
:10121000821741F0E0917603F0E0E35AFC4F958F9E
:1012200080937603FF91EF919F918F912F910F9073
:101230000BBE0F900FBE0F901F9018958081F2CFBC
:101240001F920F920FB60F9211242F933F938F93FB
:101250009F93AF93BF9380914F0390915003A091C0
:101260005103B091520330914E0323E0230F2D37E9
:1012700058F50196A11DB11D20934E0380934F0395
:1012800090935003A0935103B09352038091530362
:1012900090915403A0915503B09156030196A11D5E
:1012A000B11D8093530390935403A0935503B093BF
:1012B0005603BF91AF919F918F913F912F910F90C6
:1012C0000FBE0F901F90189526E8230F0296A11DC0
:1012D000B11DD2CF1092600310925F0388EE93E0AD
:1012E000A0E0B0E08093610390936203A093630356
:1012F000B093640386E392E090935E0380935D0372
:1013000085EC90E090936A038093690384EC90E00D
:1013100090936C0380936B0380EC90E090936E034A
:1013200080936D0381EC90E09093700380936F0342
:1013300082EC90E0909372038093710386EC90E0CE
:101340009093740380937303109276031092770343
:10135000109278031092790310929C0410929B04CF
:1013600082E592E090939A048093990486E38093B7
:101370009D048FEF80939E0487E380939F0488E30E
:101380008093A00489E38093A1048AE38093A2045C
:101390008BE38093A3041092A4041092A5041092EE
:1013A000A6041092A7041092A80481E00E949C0653
:1013B00010922C041092300410922F0410923104D9
:1013C00088E492E090932B0480932A04E6E4F4E00E
:1013D00082E894E0108214821382158236968E176A
:1013E0009F07C1F784E192E090938D0480938C0471
:1013F00080E192E090938F0480938E0484E0809348
:1014000090048093910488E192E090938B04809300
:101410008A048AE090E0909393048093920484EF8E
:1014200091E0909395048093940410929804109204
:1014300097041092860410928704109288041092E8
:101440008904109296046FE972E082E194E00E94B0
:10145000AF086FE972E088E194E00E94AF086FE99D
:1014600072E08EE194E00E94AF086FE972E084E2DE
:1014700094E00E94AF086AE772E08AEF93E00E946E
:10148000AF086AE572E080E094E00E94AF086CE586
:1014900072E086E094E00E94AF086EE572E08CE0B6
:1014A00094E00C94AF08CF93DF93CDB7DEB762978B
:1014B0000FB6F894DEBF0FBECDBF789484B58260BE
:1014C00084BD84B5816084BD85B5826085BD85B5E8
:1014D000816085BD80916E00816080936E00109266
:1014E00081008091810082608093810080918100E1
:1014F0008160809381008091800081608093800072
:101500008091B10084608093B1008091B0008160CF
:101510008093B000809191008260809391008091CF
:101520009100816080939100809190008160809310
:1015300090008091A10082608093A1008091A10021
:1015400081608093A1008091A00081608093A000C1
:10155000809121018260809321018091210181602D
:1015600080932101809120018160809320018091EE
:101570007A00846080937A0080917A008260809300
:101580007A0080917A00816080937A0080917A005D
:10159000806880937A001092C10080E40E948E06D9
:1015A00008E012E0F80161918F0189E994E00E945E
:1015B0004C07F2E000311F07A9F788E40E948E066D
:1015C00000E012E038E0E32E32E0F32EF801619102
:1015D0008F0189E994E00E944C07E016F106B1F70B
:1015E0000E9446046093590370935A0380935B03EF
:1015F00090935C0382E00E949C060E94940661E046
:101600008DE00E94AF03E0916D03F0916E0382E0E4
:101610008083E0916903F0916A031082E0916B038B
:10162000F0916C038FEC808310927503E09171034D
:10163000F091720386E08083E0916F03F091700374
:10164000808180618083E0916F03F09170038081DD
:1016500088608083E0916F03F091700380818068DF
:101660008083E0916F03F091700380818F7D808390
:101670008AE0882E912CA12CB12C94E0492E512C7B
:10168000612C712C26E0E22E0E944604AB01BC01C5
:101690008091590390915A03A0915B03B0915C0330
:1016A00088519C4FAF4FBF4F481759076A077B07B8
:1016B000E8F560E083E00E943D0780E692E00E944A
:1016C000520760E081E00E943D0760E089E994E014
:1016D0000E944C0760E08EE00E943D0760E089E9CF
:1016E00094E00E944C0761E080E00E943D078BE699
:1016F00092E00E9452078DE593E00E9414021816B2
:10170000190634F48DE593E00E94F20180935803AA
:101710008091580361E0853419F0813421F460E050
:101720008DE00E947D030E94B902AECF8417950719
:10173000A607B70700F70E94AE0460E080E00E94B1
:101740003D078CE792E00E94520761E080E00E9432
:101750003D078CE892E00E94520768E873E180E060
:1017600090E00E9414040E945A0EA50194010E9468
:10177000F30EAB01BC01CE0101960E946908BE01C7
:101780006F5F7F4F82E194E00E945F07CE01019678
:101790000E9498070E945A0EA50194010E94F30E20
:1017A000AB01BC01CE0101960E946908BE016F5FCA
:1017B0007F4F88E194E00E945F07CE0101960E946E
:1017C00098070E945A0EA30192010E94F30E1A82FA
:1017D00019821C821B821E821D82E69EF001E79EFA
:1017E000F00D1124E650FC4F608171816115710587
:1017F00031F044815581CE0101960E943408BE012A
:101800006F5F7F4F8EE194E00E945F07CE010196EB
:101810000E9498070E945A0EA30192010E94F30EA3
:101820001A8219821C821B821E821D82E69EF00192
:10183000E79EF00D1124E650FC4F60817181611527
:10184000710531F044815581CE0101960E94340822
:10185000BE016F5F7F4F84E294E00E945F07CE017C
:1018600001960E94980761E085E00E943D0780EAAA
:1018700092E00E94520761E08CE00E943D0782E105
:1018800094E00E94DA0161E08DE00E943D0788E16A
:1018900094E00E94DA0161E08EE00E943D078EE153
:1018A00094E00E94DA0161E08FE00E943D0784E24B
:1018B00094E00E94DA0168EE73E080E090E00E941C
:1018C00014046FE972E0CE010D960E94AF080E94E9
:1018D000940610E000E060E080E00E943D0788EAA6
:1018E00092E00E94520761E080E00E943D07CE0135
:1018F0000D960E94DA010E94AE04F82E8823D9F3D7
:10190000FAE28F133DC118861F821A8619861C863B
:101910001B866D857E856115710531F049895A896F
:10192000CE0107960E9434088B859C85049711F0A0
:10193000D12C68C070E060E0CE0107960E949A0149
:10194000FC016081CE0101960E94960862E174E07C
:10195000CE0101960E94A007D82ECE0101960E94CA
:101960009807DD2029F361E070E0CE0107960E9420
:101970009A01FC016081CE0101960E94960868E1FF
:1019800074E0CE0101960E94A007D82ECE010196E8
:101990000E949807DD2061F262E070E0CE010796B8
:1019A0000E949A01FC016081CE0101960E94960876
:1019B0006EE174E0CE0101960E94A007D82ECE0100
:1019C00001960E949807DD2009F4B2CF63E070E031
:1019D000CE0107960E949A01FC016081CE0101961A
:1019E0000E94960864E274E0CE0101960E94A0076E
:1019F000C82ECE0101960E949807DD24D394CC20F6
:101A000009F496CFCE0107960E949807DD20D1F108
:101A10000E94940660E080E00E943D0789EB92E01E
:101A20000E94520761E080E00E943D076CE972E08D
:101A3000CE0101960E94AF08BE01635F7F4FCE01C9
:101A400001960E94F8070E94DA01CE0101960E94D9
:101A5000980760ED77E080E090E00E9414040E9417
:101A6000940660E080E00E943D078AEC92E00E94CC
:101A7000520761E080E00E943D078BED92E00E94FA
:101A80005207EFCF0E94940660E080E00E943D077D
:101A900088EE92E00E94520761E080E00E943D07DC
:101AA0006CE972E0CE0101960E94AF08BE01635F4F
:101AB0007F4FCE0101960E94F8070E94DA01CE0105
:101AC00001960E9498070F5F1F4F6FE972E0CE01E9
:101AD0000D960E945F0860ED77E080E090E00E9444
:101AE00014040E94940689899A89059710F10E942E
:101AF000940660E080E00E943D078AEF92E00E9439
:101B0000520761E080E00E943D0786E093E00E947A
:101B1000520760ED77E080E090E00E9414046FE9E6
:101B200072E0CE010D960E945F080E9494060F5F3E
:101B30001F4F83E2F81621F0033011050CF4CBCED1
:101B400003301105D1F50E94940660E080E00E9408
:101B50003D0785E193E00E94520761E080E00E942A
:101B60003D0784E293E00E94520760ED77E080E059
:101B700090E00E941404CE010D960E949807BBCD00
:101B800089831A82C988DA88FFEFCF1ADF0AB60183
:101B9000CE010D960E94D007882309F4A4CF2D858D
:101BA0003E8589899A89BE016F5F7F4F820F931F9F
:101BB0000E947611DA8AC98A96CF0E94940660E064
:101BC00080E00E943D0786E393E00E94520761E0B7
:101BD00080E00E943D0783E493E0C5CF8CE094E071
:101BE0000E94980786E094E00E94980780E094E0C5
:101BF0000E9498078AEF93E00E94980784E294E09D
:101C00000E9498078EE194E00E94980788E194E092
:101C10000E94980782E194E00C9498078F929F921B
:101C2000AF92BF92CF92DF92EF92FF92CF93DF936A
:101C3000EC01688179818A819B816115710581053B
:101C4000910521F464E279ED8BE597E02DE133EF26
:101C500041E050E00E94F30E49015A019B01AC01A2
:101C6000A7EAB1E40E94120F6B017C01ACEEB4EF65
:101C7000A50194010E94200FC60ED71EE81EF91E72
:101C8000F7FE06C081E0C81AD108E10880E8F80A2A
:101C9000C882D982EA82FB82C701B6019F77DF91B1
:101CA000CF91FF90EF90DF90CF90BF90AF909F903B
:101CB0008F9008958F929F92AF92BF92CF92DF92B2
:101CC000EF92FF92609128027091290280912A027E
:101CD00090912B02611571058105910521F464E253
:101CE00079ED8BE597E02DE133EF41E050E00E9484
:101CF000F30E49015A019B01AC01A7EAB1E40E942D
:101D0000120F6B017C01ACEEB4EFA50194010E94AF
:101D1000200FC60ED71EE81EF91EF7FE06C081E092
:101D2000C81AD108E10880E8F80AC0922802D092C7
:101D30002902E0922A02F0922B02C701B6019F7796
:101D4000FF90EF90DF90CF90BF90AF909F908F90DB
:101D50000895609328027093290280932A02909339
:101D60002B020895BB272A3051F4992342F4BDE297
:101D700090958095709561957F4F8F4F9F4F0C94F4
:101D8000C20EBB27FA01A62F6217710581059105C6
:101D9000330B30FB66F0AA27660F771F881F991F49
:101DA000AA1FA21710F0A21B63953850A9F7A05DD7
:101DB000AA3308F0A95DA19336F7B111B19310824F
:101DC000CA010C94E30EDC01FC01672F71917723AB
:101DD000E1F7329704C07C916D9370836291AE17E6
:101DE000BF07C8F30895052E97FB1EF400940E94C8
:101DF0000A0F57FD07D00E94250F07FC03D04EF4B1
:101E00000C940A0F50954095309521953F4F4F4FB8
:101E10005F4F089590958095709561957F4F8F4F96
:101E20009F4F08950E94470FA59F900DB49F900D5E
:101E3000A49F800D911D11240895B7FF0C94120FDB
:101E40000E94120F821B930B0895A1E21A2EAA1B67
:101E5000BB1BFD010DC0AA1FBB1FEE1FFF1FA2175A
:101E6000B307E407F50720F0A21BB30BE40BF50B57
:101E7000661F771F881F991F1A9469F760957095E0
:101E8000809590959B01AC01BD01CF010895A29F63
:101E9000B001B39FC001A39F700D811D1124911D3E
:101EA000B29F700D811D1124911D0895EE0FFF1F2B
:101EB000881F8BBF0790F691E02D19940F931F9305
:101EC000CF93DF938230910510F482E090E0E091AF
:101ED000B304F091B40430E020E0B0E0A0E030972B
:101EE00099F42115310509F44AC0281B390B243017
:101EF0003105D8F58A819B816115710589F1FB0156
:101F000093838283FE0111C040815181028113813C
:101F100048175907E0F04817590799F4109761F0EE
:101F200012960C93129713961C933296CF01DF9161
:101F3000CF911F910F9108950093B3041093B404AF
:101F4000F4CF2115310551F04217530738F0A9019C
:101F5000DB019A01BD01DF01F801C1CFEF01F9CF2B
:101F60009093B4048093B304CDCFFE01E20FF31F2E
:101F7000819391932250310939832883D7CF2091BF
:101F8000B1043091B204232B41F420912E02309100
:101F90002F023093B2042093B10420912C0230918F
:101FA0002D022115310541F42DB73EB74091300285
:101FB00050913102241B350BE091B104F091B20431
:101FC000E217F307A0F42E1B3F0B2817390778F010
:101FD000AC014E5F5F4F2417350748F04E0F5F1F6F
:101FE0005093B2044093B104819391939FCFF0E05A
:101FF000E0E09CCFCF93DF930097E9F0FC013297AC
:1020000013821282A091B304B091B404ED0130E0C8
:1020100020E01097A1F420813181820F931F20913D
:10202000B1043091B2042817390709F061C0F09368
:10203000B204E093B104DF91CF910895EA01CE1785
:10204000DF07E8F54A815B819E0141155105B1F733
:10205000E901FB83EA8349915991C40FD51FEC171D
:10206000FD0761F4808191810296840F951FE9013B
:1020700099838883828193819B838A83F0E0E0E067
:1020800012968D919C9113970097B9F52D913C91E3
:102090001197CD010296820F931F2091B1043091C8
:1020A000B2042817390739F6309751F51092B40465
:1020B0001092B304B093B204A093B104BCCFD38305
:1020C000C28340815181840F951FC817D90761F4DD
:1020D0004E5F5F4F88819981480F591F518340831C
:1020E0008A819B81938382832115310509F0B0CFCA
:1020F000F093B404E093B3049ECFFD01DC01C0CFA4
:1021000013821282D7CF4F925F926F927F928F92FB
:102110009F92AF92BF92CF92DF92EF92FF920F9376
:102120001F93CF93DF938C01009799F4CB01DF913C
:10213000CF911F910F91FF90EF90DF90CF90BF90C4
:10214000AF909F908F907F906F905F904F900C9486
:102150005E0FFC01E60FF71F9C0122503109E217C8
:10216000F30708F4AEC0D901CD91DC911197C617E1
:10217000D70720F1C530D10578F0CE010497861736
:10218000970750F0C61BD70B2297C193D1936D933D
:102190007C93CF010E94FA0FC801DF91CF911F916C
:1021A0000F91FF90EF90DF90CF90BF90AF909F90F6
:1021B0008F907F906F905F904F9008955B01AC1A65
:1021C000BD0A4C018C0E9D1EA091B304B091B404C5
:1021D000512C412CF12CE12C109731F58091B10458
:1021E0009091B2048815990509F05CC0461657060F
:1021F00008F058C080912C0290912D02009741F474
:102200008DB79EB74091300250913102841B950BDF
:10221000E817F90708F055C0F093B204E093B10451
:10222000F90171836083B8CF8D919C9111971296BB
:102230006C90129713967C901397A815B90559F5D1
:102240006C0142E0C40ED11CCA14DB0420F1AC01C5
:102250004A195B09DA011296159780F0628273823F
:1022600051834083D9016D937C93E114F10471F0A3
:10227000D7011396FC93EE9312978ECF22968C0F74
:102280009D1FF90191838083F301EFCFF093B40494
:10229000E093B30481CF4816590608F42C017D0160
:1022A000D3019ACFCB010E945E0F7C01009749F0C9
:1022B000AE01B8010E946411C8010E94FA0F8701A3
:1022C0006BCF10E000E068CFFB01DC0102C00190A1
:1022D0000D9241505040D8F70895FB01DC018D91DB
:1022E000019080190110D9F3990B0895FB01DC01CD
:1022F00001900D920020E1F7089511E0C3E4D1E0D0
:1023000000E006C0802FFE010E94560F2196011D9D
:10231000C434D10780E00807A9F7F894FFCF0A0A70
:102320000A0000110E000E11111F1B1B1F000607D3
:102330000809020304053738394134353642313251
:1023400033432A302344010000000000B50480001C
:10235000000000004C02AD01E30199021402F201F9
:10236000060200000000EB03AB037A03000000004C
:102370004C07AD01F505AC01420043004400426941
:10238000656E76656E69646F00477275706F332D88
:1023900053656363696F6E204100202A5553554190
:1023A00052494F2A202020202000202020202020B9
:1023B0002020202020202020202020202000544FDA
:1023C0004B454E3A20004449474954452053552037
:1023D000544F4B454E3A0020544F4B454E20434FEF
:1023E00052524543544F2000454E5452414E444FA3
:1023F000205041525155454F002D20616272696550
:102400006E646F202D00544F4B454E20494E434F74
:1024100052524543544F20004558434544452053AC
:10242000495A4500202044454C20544F4B454E20EE
:10243000202000544F4B454E20494E56414C4944B4
:102440004F004578636564696F203320696E746559
:102450006E747300424F544F4E2043414E43454CDF
:0C2460000053452041435449564F0000F2
:10E000000D9489F10D94B2F10D94B2F10D94B2F129
:10E010000D94B2F10D94B2F10D94B2F10D94B2F1F0
:10E020000D94B2F10D94B2F10D94B2F10D94B2F1E0
:10E030000D94B2F10D94B2F10D94B2F10D94B2F1D0
:10E040000D94B2F10D94B2F10D94B2F10D94B2F1C0
:10E050000D94B2F10D94B2F10D94B2F10D94B2F1B0
:10E060000D94B2F10D94B2F10D94B2F10D94B2F1A0
:10E070000D94B2F10D94B2F10D94B2F10D94B2F190
:10E080000D94B2F10D94B2F10D94B2F10D94B2F180
:10E090000D94B2F10D94B2F10D94B2F10D94B2F170
:10E0A0000D94B2F10D94B2F10D94B2F10D94B2F160
:10E0B0000D94B2F10D94B2F10D94B2F10D94B2F150
:10E0C0000D94B2F10D94B2F10D94B2F10D94B2F140
:10E0D0000D94B2F10D94B2F10D94B2F10D94B2F130
:10E0E0000D94B2F141546D656761323536300041AF
:10E0F000726475696E6F206578706C6F72657220DE
:10E1000073746B3530305632206279204D4C530099
:10E11000426F6F746C6F616465723E004875683F52
:10E1200000436F6D70696C6564206F6E203D200048
:10E130004350552054797065202020203D20005FF9
:10E140005F4156525F415243485F5F3D2000415658
:10E1500052204C696243205665723D20004743437C
:10E160002056657273696F6E203D20004350552024
:10E1700049442020202020203D20004C6F7720663D
:10E18000757365202020203D20004869676820665F
:10E190007573652020203D200045787420667573D6
:10E1A00065202020203D20004C6F636B2066757336
:10E1B000652020203D20004D617220203720323024
:10E1C000313300312E362E3800342E332E350056A2
:10E1D00023202020414444522020206F7020636F70
:10E1E00064652020202020696E73747275637469E1
:10E1F0006F6E2061646472202020496E74657272B3
:10E20000757074006E6F20766563746F7200726A49
:10E210006D702020006A6D70200057686174207056
:10E220006F72743A00506F7274206E6F7420737541
:10E2300070706F72746564004D7573742062652030
:10E2400061206C6574746572002000577269747483
:10E25000696E672045450052656164696E672045B7
:10E26000450045452065727220636E743D00504F35
:10E27000525400303D5A65726F2061646472003FF1
:10E280003D43505520737461747300403D454550C3
:10E29000524F4D207465737400423D426C696E6B41
:10E2A000204C454400453D44756D70204545505215
:10E2B0004F4D00463D44756D7020464C415348001B
:10E2C000483D48656C70004C3D4C69737420492F83
:10E2D0004F20506F72747300513D51756974005234
:10E2E0003D44756D702052414D00563D73686F7707
:10E2F00020696E7465727275707420566563746FF0
:10E30000727300593D506F727420626C696E6B00BD
:10E310002A0011241FBECFEFD1E2DEBFCDBF01E046
:10E320000CBF12E0A0E0B2E0EEE1FDEF03E00BBFB6
:10E3300002C007900D92A030B107D9F712E0A0E01B
:10E34000B2E001C01D92AE30B107E1F70F9460F367
:10E350000D948DFE01E20EBF0FEF0DBF11241FBE05
:10E360000D9460F30D9400F020E030E040ED57E0B4
:10E3700005C0FA013197F1F72F5F3F4F2817390792
:10E38000C0F308959C01260F311DC901A0E0B0E043
:10E390002F5F3F4FABBFFC018791882361F08093D3
:10E3A000C6008091C00086FFFCCF8091C0008064D1
:10E3B0008093C000EACF08958DE08093C6008091DD
:10E3C000C00086FFFCCF8091C00080648093C000B5
:10E3D0008AE08093C6008091C00086FFFCCF8091C8
:10E3E000C00080648093C00008950F94C2F10F9420
:10E3F000DCF10895FC019081992359F09093C600B7
:10E400008091C00086FFFCCF8091C0008064809323
:10E41000C0003196992379F70895282F982F929567
:10E420009F70892F805D8A3308F0895F8093C600D2
:10E430008091C00086FFFCCF8091C00080648093F3
:10E44000C000822F8F70982F905D9A3308F0995FEB
:10E450009093C6008091C00086FFFCCF8091C000E1
:10E4600080648093C00008959C01FB01853691056E
:10E470001CF46330710594F0C90164E670E00F94F8
:10E480002EFE605D7F4F6093C6008091C00086FFC6
:10E49000FCCF8091C00080648093C0002B30310598
:10E4A00014F43297B4F0C90164E670E00F942EFEC4
:10E4B0006AE070E00F942EFE605D7F4F6093C600AF
:10E4C0008091C00086FFFCCF8091C0008064809363
:10E4D000C000C9016AE070E00F942EFEC0968093E0
:10E4E000C6008091C00086FFFCCF8091C000806490
:10E4F0008093C00008951F93182F8EE692EE60E07F
:10E500000F94C2F11093C6008091C00086FFFCCF2B
:10E510008091C00080648093C0000F94DCF11F9153
:10E5200008952F923F924F925F926F927F928F92B7
:10E530009F92AF92BF92CF92DF92EF92FF920F9392
:10E540001F93DF93CF93CDB7DEB762970FB6F894E2
:10E55000DEBF0FBECDBF382E622ECA01DB015C01CB
:10E560006D01772420E2222E2E010894411C511CBB
:10E570008BC081E0A81680E0B80681E0C80680E084
:10E58000D80628F0C601AA27BB270F940DF2BB2797
:10E59000AD2D9C2D8B2D0F940DF28A2D0F940DF225
:10E5A0002092C6008091C00086FFFCCF8091C00001
:10E5B00080648093C0009DE29093C6008091C0006B
:10E5C00086FFFCCF8091C00080648093C0002092C1
:10E5D000C6008091C00086FFFCCF8091C00080649F
:10E5E0008093C00019828601750188249924A1E0D6
:10E5F0003A1651F03A1620F0B2E03B1661F409C029
:10E600000BBFF701779007C0C7010F9477FE782EF4
:10E6100002C0F7017080872D0F940DF22092C60082
:10E620008091C00086FFFCCF8091C0008064809301
:10E63000C000872D8052F401EF70F0708F3520F408
:10E64000E40DF51D708204C0E40DF51D8EE280839B
:10E650000894E11CF11C011D111D0894811C911CE2
:10E6600090E18916910409F0C2CF80E190E0A0E02A
:10E67000B0E0A80EB91ECA1EDB1E198AC2010F9493
:10E68000FAF10F94DCF16A94662009F072CF629679
:10E690000FB6F894DEBF0FBECDBFCF91DF911F91B3
:10E6A0000F91FF90EF90DF90CF90BF90AF909F9031
:10E6B0008F907F906F905F904F903F902F90089534
:10E6C0002F923F924F925F926F927F928F929F9282
:10E6D000AF92BF92CF92DF92EF92FF920F931F9370
:10E6E000DF93CF93CDB7DEB7CD53D1400FB6F894BB
:10E6F000DEBF0FBECDBF01E20EBF0FEF0DBF94B75F
:10E70000F894A89514BE80916000886180936000A1
:10E7100010926000789493FF05C0E0910002F091A0
:10E7200001021995279A2F9A8091C00082608093E8
:10E73000C00080E18093C40088E18093C1000000A4
:10E74000EE24FF24870144E0A42EB12CCC24DD2448
:10E7500024C0C5010197F1F70894E11CF11C011DCB
:10E76000111D21E2E2162EE4F20620E0020720E06D
:10E77000120718F031E0C32ED12CC801B70127ECE5
:10E780003BE140E050E00F9441FE611571058105C9
:10E79000910519F485B1805885B98091C00087FD35
:10E7A00003C0C114D104A9F2A6014F5F5F4FC25E3E
:10E7B000DE4F59834883CE51D140C25EDE4F8881FF
:10E7C0009981CE51D140019711F00D9410FEC05D9A
:10E7D000DE4F19821882C053D14060E0C15DDE4F28
:10E7E0001882CF52D14088249924C35DDE4F19820C
:10E7F0001882CD52D140C05EDE4F188219821A8233
:10E800001B82C052D140CE5CDE4F188219821A8220
:10E810001B82C253D140EE24FF2487010BBFF701B6
:10E8200007911691C45CDE4F19830883CC53D14005
:10E830000D940BFEC25EDE4F28813981CE51D1404E
:10E840002130310509F52091C600C25EDE4F1982E4
:10E850001882CE51D14022C02F5F3F4F4F4F5F4FA4
:10E86000213082E138078AE7480780E0580780F0C6
:10E87000C45CDE4FE881F981CC53D140EF5FFF4F9C
:10E8800019F0EE27FF27099420E030E040E050E047
:10E890008091C00087FFE0CF2091C600C35DDE4FAE
:10E8A00048815981CD52D1404F5F5F4FC35DDE4FEC
:10E8B00059834883CD52D140213209F063C64A3092
:10E8C000510508F05FC60894811C911C53E0851621
:10E8D000910409F059C600E010E018C081E280936D
:10E8E000C6008091C00086FFFCCF8091C00080648C
:10E8F0008093C0002F5F3F4F2931310579F70F9486
:10E90000DCF10F5F1F4F0530110519F020E030E0FA
:10E91000E5CF10920A0210920B0210920C02109294
:10E920000D02109206021092070210920802109235
:10E930000902109202021092030210920402109235
:10E9400005028FEE90EE60E00F94F5F180E191EE1C
:10E9500060E00F94C2F18091C00087FFFCCF9091DE
:10E96000C600903608F09F759032B8F09093C600BC
:10E970008091C00086FFFCCF8091C00080648093AE
:10E98000C000A0E2A093C6008091C00086FFFCCF2B
:10E990008091C00080648093C000983409F4D7C18E
:10E9A0009934B8F4923409F459C1933458F490333B
:10E9B00019F1903308F4E3C59F33A1F1903409F0C5
:10E9C000DEC5BDC0953409F470C1963409F0D7C5D1
:10E9D00098C1923509F42BC2933538F49C3409F46C
:10E9E000F5C1913509F0CBC518C2963509F445C279
:10E9F000993509F0C4C567C483E792EE62E00F94CD
:10EA0000F5F110920602109207021092080210927D
:10EA1000090210920A0210920B0210920C0210923C
:10EA20000D0213C18FE792EE62E00F94F5F18FEEC5
:10EA300090EE60E00F94F5F181E291EE60E00F94CA
:10EA4000C2F187EB91EE60E00F94F5F180E391EE77
:10EA500060E00F94C2F184EE90EE60E00F94F5F167
:10EA60008FE391EE60E00F94C2F186E090E061E008
:10EA700070E00F9434F20F94DCF18DE591EE60E0DC
:10EA80000F94C2F189EC91EE60E00F94F5F18EE401
:10EA900091EE60E00F94C2F183EC91EE60E00F9490
:10EAA000F5F18CE691EE60E00F94C2F18EE10F94E7
:10EAB0000DF288E90F940DF281E00F940DF20F949E
:10EAC000DCF18BE791EE60E00F94C2F119E0E0E039
:10EAD000F0E010935700E4918E2F0F940DF20F94F5
:10EAE000DCF18AE891EE60E00F94C2F1E3E0F0E03F
:10EAF00010935700E4918E2F0F940DF20F94DCF1D8
:10EB000089E991EE60E00F94C2F1E2E0F0E0109349
:10EB10005700E4918E2F0F940DF20F94DCF188EAE8
:10EB200091EE60E00F94C2F1E1E0F0E01093570045
:10EB30001491812F0F940DF20F94DCF107CF8BE825
:10EB400092EE62E00F94F5F18BE492EE60E00F94A8
:10EB5000F5F10F94DCF100E010E019C0C8016F2D51
:10EB60000F947FFEFF2031F489E492EE60E00F9471
:10EB7000C2F10BC0F092C6008091C00086FFFCCFAE
:10EB80008091C00080648093C0000F5F1F4FC80158
:10EB900081519F41A0E0B0E0ABBFFC01F790BAE229
:10EBA000FB1621F0E2E000301E07C1F60F94DCF105
:10EBB0000F94DCF187E592EE60E00F94F5F10F948D
:10EBC000DCF1CC24DD2400E010E01EC0C8010F946D
:10EBD00077FEF82E882331F489E492EE60E00F94FA
:10EBE000C2F10BC08093C6008091C00086FFFCCFAD
:10EBF0008091C00080648093C000FE1419F00894D6
:10EC0000C11CD11C0F5F1F4FC80181519F41A0E063
:10EC1000B0E0ABBFFC01E790FAE2EF1621F022E092
:10EC20000030120799F60F94DCF10F94DCF182E6C4
:10EC300092EE60E00F94C2F1C60161E070E00F94C3
:10EC400034F20F94DCF10F94DCF110920202109276
:10EC50000302109204021092050278CE89E992EE26
:10EC600062E00F94F5F1279A2F9A16C02F9880E052
:10EC700090E0E0EDF7E03197F1F7019684369105E9
:10EC8000C1F72F9A80E090E0E0EDF7E03197F1F7DF
:10EC9000019684369105C1F78091C00087FFE6CFC9
:10ECA0008091C00087FFFCCF64C485EA92EE62E0E9
:10ECB0000F94F5F140910202509103026091040219
:10ECC0007091050281E020E10F9491F2809102029F
:10ECD00090910302A0910402B091050280509F4FD1
:10ECE000AF4FBF4F8093020290930302A0930402A0
:10ECF000B093050280509041A040B04008F426CE69
:10ED0000A4CF83EB92EE62E00F94F5F140910602FE
:10ED100050910702609108027091090280E020E1A1
:10ED20000F9491F28091060290910702A09108023F
:10ED3000B091090280509F4FAF4FBF4F80930602A2
:10ED400090930702A0930802B0930902FFCD80ECD4
:10ED500092EE62E00F94F5F183E792EE60E00F949B
:10ED6000F5F18FE792EE60E00F94F5F18BE892EE0B
:10ED700060E00F94F5F189E992EE60E00F94F5F10F
:10ED800085EA92EE60E00F94F5F183EB92EE60E09D
:10ED90000F94F5F180EC92EE60E00F94F5F187ECC2
:10EDA00092EE60E00F94F5F188ED92EE60E00F9442
:10EDB000F5F18FED92EE60E00F94F5F18AEE92EEB0
:10EDC00060E00F94F5F183E093EEBDCD87EC92EE19
:10EDD00062E00F94F5F181E40F947BF282E40F94EA
:10EDE0007BF283E40F947BF284E40F947BF285E45E
:10EDF0000F947BF286E40F947BF287E40F947BF20E
:10EE000088E40F947BF28AE40F947BF28BE40F94F6
:10EE10007BF28CE40F947BF299CD88ED92EE62E068
:10EE20000F94F5F1772473948824992409C48FED05
:10EE300092EE62E00F94F5F140910A0250910B02BC
:10EE400060910C0270910D0282E020E10F9491F22A
:10EE500080910A0290910B02A0910C02B0910D02D8
:10EE600080509F4FAF4FBF4F80930A0290930B0289
:10EE7000A0930C02B0930D0269CD8AEE92EE62E08F
:10EE80000F94F5F184EE90EE60E00F94F5F18FECC5
:10EE900091EE60E00F94F5F1662477244301CC5D98
:10EEA000DE4F19821882C452D140D401C301B695F5
:10EEB000A79597958795CA5DDE4F88839983AA8326
:10EEC000BB83C652D140CC5DDE4FA881B981C4520C
:10EED000D1401196CC5DDE4FB983A883C452D14096
:10EEE000CD0162E070E00F9434F2B0E2B093C6005E
:10EEF0008091C00086FFFCCF8091C0008064809329
:10EF0000C000EDE2E093C6008091C00086FFFCCF18
:10EF10008091C00080648093C000F0E2F093C6004E
:10EF20008091C00086FFFCCF8091C00080648093F8
:10EF3000C000CA5DDE4FE880F9800A811B81C6529D
:10EF4000D140BB27A12F902F8F2D0F940DF2CA5DBA
:10EF5000DE4F8881C652D1400F940DF2B0E2FB2EF5
:10EF6000F092C6008091C00086FFFCCF8091C00067
:10EF700080648093C0000DE30093C6008091C000C0
:10EF800086FFFCCF8091C00080648093C00010E2B7
:10EF90001093C6008091C00086FFFCCF8091C00016
:10EFA00080648093C0008BBEF3012791C65DDE4F65
:10EFB0002883CA52D140A22EBB24CC24DD2408943D
:10EFC000611C711C811C911C8BBEF3018791282E42
:10EFD0003324442455240894611C711C811C911C09
:10EFE0008BBEF3013791C55DDE4F3883CB52D140E4
:10EFF0000894611C711C811C911C8BBEF30147910C
:10F00000C45DDE4F4883CC52D140ADEFEA2EAFEF66
:10F01000FA2EAFEF0A2FAFEF1A2F6E0C7F1C801E57
:10F02000911E142D032DF22CEE24EA0CFB1C0C1D5A
:10F030001D1D0F940DF220E22093C6008091C000A8
:10F0400086FFFCCF8091C00080648093C000C65DC5
:10F05000DE4F8881CA52D1400F940DF230E23093D6
:10F06000C6008091C00086FFFCCF8091C000806404
:10F070008093C000C45DDE4F8881CC52D1400F9494
:10F080000DF240E24093C6008091C00086FFFCCFA5
:10F090008091C00080648093C000C55DDE4F888190
:10F0A000CB52D1400F940DF250E25093C6008091A4
:10F0B000C00086FFFCCF8091C00080648093C000B8
:10F0C0008FEFE8168FEFF80680E0080780E018075A
:10F0D00031F484E092EE60E00F94C2F1DFC0D80119
:10F0E000C7018070907CA070B0708050904CA040A0
:10F0F000B040D1F52FEF3FE340E050E0E222F322B1
:10F1000004231523CA5DDE4FA880B980CA80DB8046
:10F11000C652D140AE0CBF1CC01ED11EAA0CBB1CD7
:10F12000CC1CDD1C8EE092EE60E00F94C2F1BB2798
:10F13000A12F902F8F2D0F940DF28E2D0F940DF285
:10F1400030E23093C6008091C00086FFFCCF8091F2
:10F15000C00080648093C0004EE34093C60080915D
:10F16000C00086FFFCCF87C08EE09EEFA0E0B0E03D
:10F17000E822F9220A231B239CE0E91694E9F90608
:10F1800090E0090790E0190709F088C0C45DDE4FE0
:10F19000A881CC52D140EA2EFF2400E010E0102FCD
:10F1A0000F2DFE2CEE24C55DDE4FB881CB52D14031
:10F1B000EB0EF11C011D111DD601C501817090706F
:10F1C000A070B070DC0199278827E80EF91E0A1F8D
:10F1D0001B1F20EF30E040E050E0A222B322C42207
:10F1E000D52241E1AA0CBB1CCC1CDD1C4A95D1F7F1
:10F1F000EA0CFB1C0C1D1D1D81E090E0A0E0B0E0BE
:10F20000282239224A225B2235E1220C331C441C7D
:10F21000551C3A95D1F7E20CF31C041D151D57013E
:10F220006801AA0CBB1CCC1CDD1C85E192EE60E0E1
:10F230000F94C2F1C801AA27BB270F940DF2BB2778
:10F24000A12F902F8F2D0F940DF28E2D0F940DF274
:10F2500090E29093C6008091C00086FFFCCF809121
:10F26000C00080648093C000AEE3A093C60080918C
:10F27000C00086FFFCCF8091C00080648093C000F6
:10F28000C601AA27BB270F940DF2BB27AD2D9C2DDD
:10F290008B2D0F940DF28A2D0F940DF20F94DCF14B
:10F2A000CC5DDE4FE881F981C452D140F99709F471
:10F2B0004DCBF4E0EF2EF12C012D112D6E0C7F1CA7
:10F2C000801E911EF2CD83E093EE62E00F94F5F183
:10F2D0008AE192EE60E00F94C2F18091C00087FF56
:10F2E000FCCF1091C6001F751093C6008091C0001E
:10F2F00086FFFCCF8091C00080648093C0000F9493
:10F30000DCF1812F81548A3108F036C1163409F4BA
:10F3100095C0173490F4133409F44EC0143430F40B
:10F320001134F1F0123409F01DC130C0143409F465
:10F3300059C0153409F016C16BC01A3409F4C4C0A1
:10F340001B3438F4173409F48FC0183409F00AC19B
:10F35000A1C01B3409F4D2C01C3409F003C1E8C0B9
:10F360008FEF81B90DC082B1809582B980E090E0C5
:10F37000E0EDF7E03197F1F70196883C9105C1F790
:10F380008091C00087FFEFCF12B8EFC08FEF84B934
:10F390000DC085B1809585B980E090E0E0EDF7E0A3
:10F3A0003197F1F70196883C9105C1F78091C00033
:10F3B00087FFEFCF15B8D9C08FEF87B90DC088B1DF
:10F3C000809588B980E090E0E0EDF7E03197F1F7C3
:10F3D0000196883C9105C1F78091C00087FFEFCF6F
:10F3E00018B8C3C08FEF8AB90DC08BB180958BB9A7
:10F3F00080E090E0E0EDF7E03197F1F70196883C8E
:10F400009105C1F78091C00087FFEFCF1BB8ADC059
:10F410008FEF8DB90DC08EB180958EB980E090E0F0
:10F42000E0EDF7E03197F1F70196883C9105C1F7DF
:10F430008091C00087FFEFCF1EB897C08FEF80BBD1
:10F440000DC081B3809581BB80E090E0E0EDF7E0F6
:10F450003197F1F70196883C9105C1F78091C00082
:10F4600087FFEFCF11BA81C08FEF83BB0DC084B38C
:10F47000809584BB80E090E0E0EDF7E03197F1F714
:10F480000196883C9105C1F78091C00087FFEFCFBE
:10F4900014BA6BC08FEF809301010FC080910201FD
:10F4A00080958093020180E090E0E0EDF7E03197F5
:10F4B000F1F70196883C9105C1F78091C00087FF64
:10F4C000EDCF1092020151C08FEF809304010FC065
:10F4D0008091050180958093050180E090E0E0ED4A
:10F4E000F7E03197F1F70196883C9105C1F78091DB
:10F4F000C00087FFEDCF1092050137C08FEF8093DA
:10F5000007010FC08091080180958093080180E079
:10F5100090E0E0EDF7E03197F1F70196883C910536
:10F52000C1F78091C00087FFEDCF109208011DC088
:10F530008FEF80930A010FC080910B01809580931B
:10F540000B0180E090E0E0EDF7E03197F1F70196F4
:10F55000883C9105C1F78091C00087FFEDCF1092E4
:10F560000B0103C085E292EEEEC98091C00087FFD7
:10F57000FCCF8091C600EAC988E392EEE4C98CE131
:10F5800091EEE1C988249924933011F1943028F444
:10F59000913089F09230B8F408C0953061F195301F
:10F5A000F0F0963009F048C043C02B3109F042C951
:10F5B00091E06BE13FC96227C15DDE4F2883CF52E6
:10F5C000D14092E037C9B22FA0E0622793E032C960
:10F5D000822F90E0A82BB92B622794E02BC92E3004
:10F5E00009F039C3622795E0C05DDE4F19821882A9
:10F5F000C053D1401FC9E1E0F0E0EC0FFD1FC05D3A
:10F60000DE4F08811981C053D140E00FF11F2083E4
:10F610000F5F1F4FC05DDE4F19830883C053D14079
:10F6200062270A171B0709F005C9D80196E002C92D
:10F63000261709F010C303C0973009F0FBC87724E0
:10F640009981933109F412C19431C8F4963009F4C8
:10F65000D8C0973050F4923009F406C1933009F4C1
:10F660006DC0913009F059C253C0913109F477C08F
:10F67000923108F0BBC0903109F04FC2F5C098310B
:10F6800009F487C0993150F4953109F4EFC09531F0
:10F6900008F4C6C1963109F040C2C2C19A3109F4DA
:10F6A0006CC09A3108F491C09B3109F45BC09D3164
:10F6B00009F033C29D81903359F48F81882311F46E
:10F6C0009EE11CC0813011F091E018C098E916C08D
:10F6D000892F807591F0903539F4E0E0F0E089E011
:10F6E0008093570094910AC0983539F4E3E0F0E034
:10F6F00089E080935700949101C090E01A821B82A8
:10F700008D818C831D829E831F8227E030E009C299
:10F710001A8288E08B8381E48C8386E58D8382E581
:10F720008E8389E48F8383E5888780E589878FE5E9
:10F730008A8782E38B872BE030E0F3C18A818139AD
:10F7400041F0823941F0803911F48FE005C080E04A
:10F7500003C082E001C08AE01A828B8344C0772410
:10F76000739482C08D81882311F48EE12CC0813086
:10F7700011F081E028C088E926C01A82E1E0F0E0BB
:10F7800089E08093570084918B831C8224E030E0D1
:10F79000C8C18B81803589F48C81883039F4E2E0EE
:10F7A000F0E089E08093570084910DC0E0E0F0E044
:10F7B00089E080935700849106C0E3E0F0E089E09F
:10F7C0008093570084911A82DFCF8D81836C99E0FA
:10F7D000E1E0F0E0082E90935700E89507B600FCB2
:10F7E000FDCF1A821B8223E030E09BC180EC8A832C
:10F7F000CE5CDE4F188219821A821B82C253D1401E
:10F800008EC18A8190E0A0E0B0E0582F44273327D2
:10F8100022278B8190E0A0E0B0E0DC0199278827C7
:10F82000282B392B4A2B5B2B8D8190E0A0E0B0E098
:10F83000282B392B4A2B5B2B8C8190E0A0E0B0E089
:10F84000BA2FA92F982F8827282B392B4A2B5B2BCF
:10F85000220F331F441F551FC05EDE4F288339839C
:10F860004A835B83C052D1401A8259C13A81C95C34
:10F87000DE4F3883C753D140CA5CDE4F1882C6536F
:10F88000D1408B81C82EDD24CA5CDE4F488159816E
:10F89000C653D140C42AD52A933109F082C0CE5C28
:10F8A000DE4F88819981AA81BB81C253D1408050AB
:10F8B000904CA340B04030F583E0CE5CDE4FE88052
:10F8C000F9800A811B81C253D140F70100935B008C
:10F8D00080935700E89507B600FCFDCFCE5CDE4F65
:10F8E000088119812A813B81C253D14000501F4FAA
:10F8F0002F4F3F4FCE5CDE4F088319832A833B8313
:10F90000C253D140C05EDE4F488159816A817B81FC
:10F91000C052D140DE011B9631E08C9111962C91A2
:10F9200011971296C75CDE4F2883C953D140C85C3B
:10F93000DE4F1882C853D14090E0C85CDE4FE881AA
:10F94000F981C853D1408E2B9F2B0C01FA01609393
:10F950005B0030935700E89511244E5F5F4F6F4F67
:10F960007F4F0EEFE02E0FEFF02ECE0CDF1CC114F8
:10F97000D10499F685E0C05EDE4F088119812A81A5
:10F980003B81C052D140F80120935B008093570027
:10F99000E89507B600FCFDCF81E180935700E8951C
:10F9A00035C0C05EDE4F88819981AA81BB81C0527B
:10F9B000D140B695A795979587957C018601ABE0D8
:10F9C000AA2EB12CAC0EBD1E0BC0D5016D915D01F0
:10F9D000C7010F947FFE0894E11CF11C01501040F8
:10F9E0000115110591F7A60160E070E0440F551F65
:10F9F000661F771FC05EDE4FE880F9800A811B8199
:10FA0000C052D1404E0D5F1D601F711F1A82C05E33
:10FA1000DE4F488359836A837B83C052D1407FC0C5
:10FA2000FA80C55CDE4FF882CB53D140C65CDE4F16
:10FA30001882CA53D1408B81C82EDD24C65CDE4FAC
:10FA400008811981CA53D140C02AD12A1A828981DA
:10FA5000BE016D5F7F4F843121F59601C05EDE4FA0
:10FA6000E880F9800A811B81C052D1400BBFF701A9
:10FA700087919691DB018C9311969C936E5F7F4FDB
:10FA8000D801C7010296A11DB11DC05EDE4F88835B
:10FA90009983AA83BB83C052D14022503040F1F6F3
:10FAA00036C0C05EDE4F288139814A815B81C052F9
:10FAB000D1400894C108D108760100E010E0089414
:10FAC000C11CD11C0894E11CF11C011D111DE20E8A
:10FAD000F31E041F151F21BDBB27A52F942F832FB5
:10FAE00082BD2F5F3F4F4F4F5F4FF89A80B5DB01CC
:10FAF0008D93BD012E153F054007510761F7C05E8C
:10FB0000DE4F288339834A835B83C052D1409601FC
:10FB10002D5F3F4FFB01108204C080EC8A8322E0FE
:10FB200030E08BE18093C6008091C00086FFFCCF5F
:10FB30008091C00080648093C000C15DDE4FF88179
:10FB4000CF52D140F093C6008091C00086FFFCCF19
:10FB50008091C00080648093C000432F3093C60022
:10FB60008091C00086FFFCCF8091C00080648093AC
:10FB7000C000922F2093C6008091C00086FFFCCF6A
:10FB80008091C00080648093C0008EE08093C600A6
:10FB90008091C00086FFFCCF8091C000806480937C
:10FBA000C00065E1C15DDE4FE880CF52D1406E25D7
:10FBB00069276427FE01319610C090819093C6009A
:10FBC0008091C00086FFFCCF31968091C000806498
:10FBD0008093C0006927215030402115310569F715
:10FBE0006093C6008091C00086FFFCCF8091C0006A
:10FBF00080648093C00085B1805885B9772081F4F6
:10FC0000C15DDE4F0881CF52D1400F5FC15DDE4F35
:10FC10000883CF52D14090E0A0E0B0E00D941AF4F8
:10FC200027982F9880E090E020ED37E0F901319798
:10FC3000F1F7019684369105C9F700008091C00064
:10FC40008D7F8093C00081E180935700E895EE2777
:10FC5000FF270994FFCF90E00D941AF497FB092E2B
:10FC600007260AD077FD04D02ED006D000201AF443
:10FC7000709561957F4F0895F6F7909581959F4F08
:10FC80000895A1E21A2EAA1BBB1BFD010DC0AA1FDD
:10FC9000BB1FEE1FFF1FA217B307E407F50720F0F5
:10FCA000A21BB30BE40BF50B661F771F881F991F70
:10FCB0001A9469F760957095809590959B01AC01B9
:10FCC000BD01CF010895AA1BBB1B51E107C0AA1FAC
:10FCD000BB1FA617B70710F0A61BB70B881F991FED
:10FCE0005A95A9F780959095BC01CD010895F99991
:10FCF000FECF92BD81BDF89A992780B50895262F31
:10FD0000F999FECF1FBA92BD81BD20BD0FB6F89400
:0EFD1000FA9AF99A0FBE01960895F894FFCF63
:00000001FF
