:100000000C9445010C9476010C9476010C947601C5
:100010000C9476010C9476010C9476010C94760184
:100020000C9476010C9476010C9476010C94760174
:100030000C9476010C9491050C9476010C94760145
:100040000C9476010C9476010C9476010C94760154
:100050000C9476010C9476010C9476010C948E0627
:100060000C9476010C9458060C942E060C94760190
:100070000C9476010C9476010C9476010C94760124
:100080000C9476010C9476010C9476010C94760114
:100090000C9476010C9476010C9476010C94760104
:1000A0000C9476010C9476010C9476010C947601F4
:1000B0000C9476010C9476010C9476010C947601E4
:1000C0000C9476010C9476010C9476010C947601D4
:1000D0000C9476010C9476010C9476010C947601C4
:1000E0000C9476010C94F7020C94D6010C940A033C
:1000F0000C94A2030C94DF020C94E5020C941805F6
:100100000C94A5010C940B030C940E020C94CA02DF
:100110000C94A3030C94A6030C94D4020C94C80171
:100120000C94D2030C945B020C94D8060C94050337
:100130000C94E9020C94FD020C94DC020C940F0365
:100140000C94CE030C94EF020C94F9090C94D80291
:100150000C94D0020C94B4010C9478010C94F3022A
:100160000C940103000020002300260029002C002D
:100170002F00320000010000030106010901000008
:100180002100240027002A002D0030003300010147
:100190000000040107010A010000220025002800D8
:1001A0002B002E003100340002010000050108017F
:1001B0000B010505050507050808080802020202EB
:1001C0000A0A0808040404040101010101010101F3
:1001D0000303030303030303040707070C0C0C0CBE
:1001E0000C0C0C0C020202020606060606060606A7
:1001F0000B0B0B0B0B0B0B0B010210202008081034
:100200002040102040800201020108040201010286
:10021000040810204080804020100804020180045F
:1002200002018040201008040201080402010102BA
:1002300004081020408001020408102040800000C3
:100240000A0B02090C0D0E08070304010000000050
:10025000000000000000000000000000000000009E
:10026000000000000000000000001211100000005B
:10027000000000000000000000000000000000007E
:10028000000000000200D806F90911241FBECFEFBC
:10029000D1E2DEBFCDBF00E00CBF12E0A0E0B2E0D3
:1002A000E2EAF8E100E00BBF02C007900D92AC3625
:1002B000B107D9F724E0ACE6B2E001C01D92AB3241
:1002C000B207E1F711E0C4E4D1E000E006C02197F5
:1002D0000109802FFE010E94210AC334D10780E06A
:1002E0000807A9F70E9467080C943F0C0C940000C3
:1002F000AF92BF92CF92DF92EF92FF920F931F9334
:10030000CF93DF936C017B018B01040F151FEB0171
:100310005E01AE18BF08C017D10759F06991D60128
:10032000ED91FC910190F081E02DC6011995892B8A
:1003300079F7C501DF91CF911F910F91FF90EF9059
:10034000DF90CF90BF90AF900895FC01538D448D06
:10035000252F30E0842F90E0821B930B541710F070
:10036000CF96089501970895FC01918D828D98177D
:1003700061F0A28DAE0FBF2FB11D5D968C91928D55
:100380009F5F9F73928F90E008958FEF9FEF089586
:10039000FC01918D828D981731F0828DE80FF11D4F
:1003A000858D90E008958FEF9FEF0895FC01918D6A
:1003B000228D892F90E0805C9F4F821B91098F7363
:1003C0009927089583E992E00E94D60121E0892BC4
:1003D00009F420E0822F0895FC01A48DA80FB92F05
:1003E000B11DA35ABF4F2C91848D90E001968F735D
:1003F0009927848FA689B7892C93A089B1898C917C
:10040000837080648C93938D848D981306C00288CA
:10041000F389E02D80818F7D80830895EF92FF9294
:100420000F931F93CF93DF93EC0181E0888F9B8D17
:100430008C8D98131AC0E889F989808185FF15C0D1
:100440009FB7F894EE89FF896083E889F9898081F4
:100450008370806480839FBF81E090E0DF91CF91C3
:100460001F910F91FF90EF900895F62E0B8D10E0E5
:100470000F5F1F4F0F731127E02E8C8D8E110CC054
:100480000FB607FCFACFE889F989808185FFF5CF9F
:10049000CE010E94EC01F1CFEB8DEC0FFD2FF11D91
:1004A000E35AFF4FF0829FB7F8940B8FEA89FB89DC
:1004B00080818062CFCFCF93DF93EC01888D88233A
:1004C000B9F0AA89BB89E889F9898C9185FD03C0B7
:1004D000808186FD0DC00FB607FCF7CF8C9185FF9C
:1004E000F2CF808185FFEDCFCE010E94EC01E9CFF4
:1004F000DF91CF91089580E090E0892B29F00E9450
:10050000E20181110E94000080E090E0892B49F017
:1005100080E090E0892B29F00E94000081110E9468
:10052000000080E090E0892B49F080E090E0892B8A
:1005300029F00E94000081110E94000080E090E0FC
:10054000892B49F080E090E0892B29F00E9400007F
:1005500081110C94000008958150823108F05AC036
:10056000E82FF0E08827E854FD4F8F4F0C94210AC4
:10057000D802DC02CA02D002D4020A03DF02E5027A
:10058000E902EF02F302F702FD0201030A03050389
:100590000B030F03809180008F7780938000089574
:1005A000809180008F7DF9CF80918000877FF5CF8B
:1005B00084B58F7784BD089584B58F7DFBCF8091FE
:1005C000B0008F778093B00008958091B0008F7D48
:1005D000F9CF809190008F7780939000089580915B
:1005E00090008F7DF9CF80919000877FF5CF80912B
:1005F000A0008F778093A00008958091A0008F7D48
:10060000F9CF8091A000877FF5CF809120018F776F
:10061000809320010895809120018F7DF9CF8091F2
:100620002001877FF5CF1F93CF93DF93282F30E0F2
:10063000F901E25CFD4F8491F901E850FE4FD4913D
:10064000F901EE54FE4FC491CC23A9F0162F81116D
:100650000E94AC02EC2FF0E0EE0FFF1FE856FE4FB9
:10066000A591B4918FB7F894EC91111108C0D09571
:10067000DE23DC938FBFDF91CF911F910895DE2B96
:10068000F8CFCF93DF9390E0FC01E850FE4F249128
:100690008E549E4FFC0184918823C9F090E0880F0E
:1006A000991FFC01E258FE4FA591B491FC01E85658
:1006B000FE4FC591D49161110DC09FB7F8948C91F4
:1006C000209582238C938881282328839FBFDF91E4
:1006D000CF910895623051F49FB7F8943C91822FE6
:1006E000809583238C93E8812E2BEFCF8FB7F894DE
:1006F000EC912E2B2C938FBFEACF3FB7F8948091CB
:10070000860290918702A0918802B091890226B555
:10071000A89B05C02F3F19F00196A11DB11D3FBF39
:10072000BA2FA92F982F8827BC01CD01620F711D08
:10073000811D911D42E0660F771F881F991F4A9502
:10074000D1F70895089590E080E00895CF93DF9366
:1007500070E0FB01E25CFD4F8491FB01E850FE4F2D
:10076000D4916E547E4FFB01C491CC23A1F0811132
:100770000E94AC02EC2FF0E0EE0FFF1FEC59FE4F91
:10078000A591B491EC91ED2381E090E009F480E033
:10079000DF91CF91089580E090E0FACF862F642F0B
:1007A0000C941303862F642F0C944103CF93DF9393
:1007B000EC0160E08E810E94130361E08E810E9453
:1007C000130360E08E810E9413038BE891E0019790
:1007D000F1F7DF91CF910895CF92DF92EF92FF92E0
:1007E0000F931F93CF93DF936C017C0187E0E80E9A
:1007F000F11CD0E0C0E0062F10E0B8010C2E02C0C2
:10080000759567950A94E2F76170F70181917F0110
:100810000E9413032196C430D10579F7C601DF91F8
:10082000CF911F910F91FF90EF90DF90CF900C949C
:10083000D603CF92DF92EF92FF920F931F93CF9345
:10084000DF93EC01F62E642F8C810E9413038D81BF
:100850008F3F19F060E00E9413030F2D10E08F8589
:1008600084FF25C06E0187E0C80ED11CF12CE12C5D
:10087000B8010E2C02C0759567950A94E2F7617075
:10088000F60181916F010E941303FFEFEF1AFF0A37
:1008900088E0E816F10461F7CE01DF91CF911F9156
:1008A0000F91FF90EF90DF90CF900C94D603B8019A
:1008B00084E0759567958A95E1F7CE010E94EC0377
:1008C0006F2DCE01DF91CF911F910F91FF90EF908F
:1008D000DF90CF900C94EC0340E0682F8BED93E019
:1008E0000C941904CF93DF93823029F49091EA039A
:1008F00098609093EA038093EE031092EF0380E4F4
:100900008093F00380E18093F10380E58093F2030C
:1009100061E08091DF030E9441038091E0038F3FFB
:1009200019F061E00E94410361E08091E1030E94BF
:100930004103CBEDD3E09E012B5D33408091EA0370
:1009400084FD0BC084E090E021962817390744F419
:1009500061E08E810E944103EECF88E090E0F4CF09
:100960008BE39DE00197F1F760E08091DF030E9447
:10097000130360E08091E1030E9413038091E00380
:100980008F3F19F060E00E9413038091EA0384FD19
:1009900039C063E08BED93E00E94EC03CBE4D6E436
:1009A000CE010197F1F763E08BED93E00E94EC0339
:1009B0002197F1F763E08BED93E00E94EC0383E570
:1009C00092E00197F1F762E08BED93E00E94EC0377
:1009D0008091EA0380620E946C0484E08093EB03C0
:1009E0008CE00E946C0481E00E946C048BE39FE128
:1009F0000197F1F782E08093EC0386E0DF91CF91DD
:100A00000C946C0480620E946C048BE496E4019761
:100A1000F1F78091EA0380620E946C0483E592E022
:100A20000197F1F78091EA0380620E946C04D0CFB5
:100A300041E00E94190481E090E00895CF93DF9394
:100A4000EC0188819981009711F00E94C50A1982F2
:100A500018821D821C821B821A82DF91CF91089519
:100A6000FC0180819181009711F00C94C50A0895D2
:100A70000F931F93CF93DF93EC01888199810097A7
:100A800059F02A813B812617370730F081E0DF914A
:100A9000CF911F910F9108958B016F5F7F4F0E943F
:100AA0004E0B009759F0998388831B830A832C810E
:100AB0003D81232B59F7FC011082E8CF80E0E7CF7E
:100AC000EF92FF920F931F93CF93DF93EC017B0183
:100AD000198218821B821A821D821C82FB010190DE
:100AE0000020E9F731978F01061B170BB8010E9410
:100AF0003805811109C0CE01DF91CF911F910F916F
:100B0000FF90EF900C941E051D830C83B701888124
:100B10009981DF91CF911F910F91FF90EF900C94ED
:100B2000380C1F920F920FB60F9211240BB60F9232
:100B30002F933F934F935F936F937F938F939F93E5
:100B4000AF93BF93EF93FF9380918B0290918C02B0
:100B5000A0918D02B0918E02892B8A2B8B2BD1F123
:100B600090918A02809100008927809300008091F3
:100B70008B0290918C02A0918D02B0918E0218167A
:100B800019061A061B069CF480918B0290918C0228
:100B9000A0918D02B0918E020197A109B1098093B5
:100BA0008B0290938C02A0938D02B0938E02FF91E2
:100BB000EF91BF91AF919F918F917F916F915F91D5
:100BC0004F913F912F910F900BBE0F900FBE0F9042
:100BD0001F90189580910002E4E8F2E0E4919FEF05
:100BE00090930002E230E9F040F4EE2389F0E13026
:100BF00091F060E00E941303DACFE43049F110F184
:100C0000E530B9F7909173009D7F90937300F1CF19
:100C100010926E00EECF90916F009D7F90936F00C9
:100C2000E8CF909170009D7F9093700091E0909339
:100C3000B0009091B100987F94609093B1001092B1
:100C4000B300D7CF909171009D7F90937100D1CF69
:100C5000909172009D7F90937200CBCF1F920F9264
:100C60000FB60F9211240BB60F922F933F934F9311
:100C70005F936F937F938F939F93AF93BF93EF9304
:100C8000FF9383E992E00E94EC01FF91EF91BF9105
:100C9000AF919F918F917F916F915F914F913F9114
:100CA0002F910F900BBE0F900FBE0F901F901895B5
:100CB0001F920F920FB60F9211240BB60F922F9323
:100CC0008F939F93EF93FF93E091A302F091A4027F
:100CD0008081E091A902F091AA0282FD1DC090815D
:100CE0008091AC028F5F8F732091AD02821741F02B
:100CF000E091AC02F0E0ED56FD4F958F8093AC0291
:100D0000FF91EF919F918F912F910F900BBE0F90BC
:100D10000FBE0F901F9018958081F2CF1F920F92F7
:100D20000FB60F9211242F933F938F939F93AF93FE
:100D3000BF9380918F0290919002A0919102B09107
:100D400092023091850223E0230F2D3758F501964A
:100D5000A11DB11D2093850280938F029093900274
:100D6000A0939102B09392028091860290918702A3
:100D7000A0918802B09189020196A11DB11D8093B6
:100D8000860290938702A0938802B0938902BF9154
:100D9000AF919F918F913F912F910F900FBE0F9028
:100DA0001F90189526E8230F0296A11DB11DD2CFE2
:100DB0000F931F93CF93DF93109296021092950298
:100DC00088EE93E0A0E0B0E08093970290939802C1
:100DD000A0939902B0939A0283E392E090939402D5
:100DE0008093930285EC90E09093A00280939F0201
:100DF00084EC90E09093A2028093A10280EC90E0BA
:100E00009093A4028093A30281EC90E09093A602B9
:100E10008093A50282EC90E09093A8028093A702B1
:100E200086EC90E09093AA028093A9021092AC0203
:100E30001092AD021092AE021092AF0210921804FE
:100E40001092170410920E0410920D0410922304B5
:100E500010922404109225041092260408E210E057
:100E6000109314040093130482E490E090931A0406
:100E70008093190483E490E090931C0480931B04F6
:100E800084E490E090931E0480931D0485E490E038
:100E90009093200480931F0461E082E40E94410348
:100EA00061E080911B040E94410361E080911D0478
:100EB0000E94410361E080911F040E94410310924F
:100EC000220410922104C4E0D0E0D0931604C09311
:100ED00015041092FE031092FD031092F403109279
:100EE000F3031092090410920A0410920B0410925A
:100EF0000C041093FA030093F9038EE390E09093AF
:100F000000048093FF038FE390E0909302048093AA
:100F1000010480E490E0909304048093030481E44E
:100F200090E0909306048093050461E08EE30E94B4
:100F3000410361E0809101040E94410361E08091DE
:100F400003040E94410361E0809105040E94410373
:100F50001092080410920704D093FC03C093FB0383
:100F60001092DE031092DD038FE492E09093DC0395
:100F70008093DB0386E38093DF038FEF8093E003AE
:100F800087E38093E10388E38093E20389E380931E
:100F9000E3038AE38093E4038BE38093E5031092F9
:100FA000E6031092E7031092E8031092E90310920F
:100FB000EA0381E00E94720467E572E085ED93E048
:100FC0000E9460056DE572E08FEC93E00E94600581
:100FD00010926203109266031092650310926703E9
:100FE00085E492E09093610380936003ECE7F3E083
:100FF00088EB93E0108214821382158236968E1746
:101000009F07C1F785E192E09093C3038093C203E9
:1010100081E192E09093C5038093C40384E08093C0
:10102000C6038093C70389E192E09093C103809344
:10103000C0038AE090E09093C9038093C80384EFD3
:1010400091E09093CB038093CA031092CE03109249
:10105000CD031092BC031092BD031092BE031092F8
:10106000BF031092CC036BE672E088E493E00E9429
:1010700060056BE672E08EE493E00E9460056BE62B
:1010800072E084E593E00E9460056BE672E08AE519
:1010900093E00E94600562E672E080E393E00E94C4
:1010A000600564E672E086E393E00E94600566E610
:1010B00072E08CE393E00E94600568E672E082E4EF
:1010C00093E0DF91CF911F910F910C946005CF9326
:1010D000DF9300D000D0CDB7DEB7789484B58260BE
:1010E00084BD84B5816084BD85B5826085BD85B5CC
:1010F000816085BD80916E00816080936E0010924A
:1011000081008091810082608093810080918100C4
:101110008160809381008091800081608093800055
:101120008091B10084608093B1008091B0008160B3
:101130008093B000809191008260809391008091B3
:1011400091008160809391008091900081608093F4
:1011500090008091A10082608093A1008091A10005
:1011600081608093A1008091A00081608093A000A5
:101170008091210182608093210180912101816011
:1011800080932101809120018160809320018091D2
:101190007A00846080937A0080917A0082608093E4
:1011A0007A0080917A00816080937A0080917A0041
:1011B000806880937A001092C10061E08DE00E9407
:1011C000410361E086E10E94410361E087E10E9402
:1011D000410380E40E946C0409E012E021E1E22E68
:1011E00022E0F22EF80161918F018BED93E00E94D5
:1011F0001805E016F106B1F788E40E946C0401E0DE
:1012000012E099E0E92E92E0F92EF80161918F0148
:101210008BED93E00E941805E016F106B1F78FB749
:10122000F89440918F0250919002609191027091D8
:1012300092028FBF82E00E94720481E00E946C04DF
:101240008BE39FE10197F1F7E091A302F091A402F3
:1012500082E08083E0919F02F091A0021082E091F1
:10126000A102F091A2028FEC80831092AB02E09178
:10127000A702F091A80286E08083E091A502F09198
:10128000A602808180618083E091A502F091A60290
:10129000808188608083E091A502F091A602808120
:1012A00080688083E091A502F091A60280818F7D05
:1012B00080831A8219821C821B821E821D820091E9
:1012C000D5031091D6030115110579F0E090D903EB
:1012D000F090DA03B701CE0101960E943805811122
:1012E00076C0CE0101960E941E050D811E810F5F02
:1012F0001F4FB801CE0101960E943805882309F4DA
:101300006EC029813A818D819E816AE672E0820FEA
:10131000931F0E94380C1E830D83E090CF03F09042
:10132000D003E114F10409F45FC00091D3031091DC
:10133000D40301151105B9F08D819E81080F191F85
:10134000B801CE0101960E943805882309F44CC0EB
:1013500029813A818D819E81B701820F931F0E945E
:10136000380C1E830D834D815E8169817A8183E90A
:1013700092E00E947801CE0101960E9430050E9401
:101380007D034B015C0184EFC82EDD24D394E12C56
:10139000F12C0E947D03681979098A099B09683E2E
:1013A000734081059105A8F3F1E0CF1AD108E10857
:1013B000F10828EE820E23E0921EA11CB11CC1147C
:1013C000D104E104F10429F70E947B0272CFFE826E
:1013D000ED82B80189819A810E94380C86CFCE01B6
:1013E00001960E941E0599CFCE0101960E941E050E
:1013F000BACF82E493E00E9430058CE393E00E9430
:10140000300586E393E00E94300580E393E00E947C
:1014100030058AE593E00E94300584E593E00E9460
:1014200030058EE493E00E94300588E493E00E944A
:1014300030058FEC93E00E94300585ED93E00C942D
:101440003005EE0FFF1F881F8BBF0790F691E02D30
:1014500019940F931F93CF93DF938230910510F46B
:1014600082E090E0E0912904F0912A0430E020E04D
:10147000B0E0A0E0309799F42115310509F44AC095
:10148000281B390B24303105D8F58A819B816115E1
:10149000710589F1FB0193838283FE0111C04081B4
:1014A00051810281138148175907E0F04817590705
:1014B00099F4109761F012960C93129713961C935F
:1014C0003296CF01DF91CF911F910F910895009334
:1014D000290410932A04F4CF2115310551F0421745
:1014E000530738F0A901DB019A01BD01DF01F801C2
:1014F000C1CFEF01F9CF90932A0480932904CDCF77
:10150000FE01E20FF31F8193919322503109398339
:101510002883D7CF2091270430912804232B41F42E
:1015200020912B0230912C02309328042093270421
:101530002091290230912A022115310541F42DB75D
:101540003EB740912D0250912E02241B350BE091A5
:101550002704F0912804E217F307A0F42E1B3F0B99
:101560002817390778F0AC014E5F5F4F2417350715
:1015700048F04E0F5F1F5093280440932704819337
:1015800091939FCFF0E0E0E09CCFCF93DF93009763
:10159000E9F0FC01329713821282A0912904B091E4
:1015A0002A04ED0130E020E01097A1F42081318180
:1015B000820F931F209127043091280428173907A0
:1015C00009F061C0F0932804E0932704DF91CF91E4
:1015D0000895EA01CE17DF07E8F54A815B819E0195
:1015E00041155105B1F7E901FB83EA83499159910E
:1015F000C40FD51FEC17FD0761F48081918102961D
:10160000840F951FE90199838883828193819B834D
:101610008A83F0E0E0E012968D919C9113970097F9
:10162000B9F52D913C911197CD010296820F931F30
:1016300020912704309128042817390739F630976C
:1016400051F510922A0410922904B0932804A09313
:101650002704BCCFD383C28340815181840F951F5F
:10166000C817D90761F44E5F5F4F88819981480F91
:10167000591F518340838A819B81938382832115E3
:10168000310509F0B0CFF0932A04E09329049ECFEE
:10169000FD01DC01C0CF13821282D7CF4F925F923F
:1016A0006F927F928F929F92AF92BF92CF92DF9272
:1016B000EF92FF920F931F93CF93DF938C010097CC
:1016C00099F4CB01DF91CF911F910F91FF90EF9093
:1016D000DF90CF90BF90AF909F908F907F906F9052
:1016E0005F904F900C94290AFC01E60FF71F9C01B4
:1016F00022503109E217F30708F4AEC0D901CD91A9
:10170000DC911197C617D70720F1C530D10578F0C5
:10171000CE0104978617970750F0C61BD70B229768
:10172000C193D1936D937C93CF010E94C50AC801E8
:10173000DF91CF911F910F91FF90EF90DF90CF90AD
:10174000BF90AF909F908F907F906F905F904F90E1
:1017500008955B01AC1ABD0A4C018C0E9D1EA09130
:101760002904B0912A04512C412CF12CE12C109722
:1017700031F580912704909128048815990509F086
:101780005CC04616570608F058C080912902909117
:101790002A02009741F48DB79EB740912D025091D7
:1017A0002E02841B950BE817F90708F055C0F0933B
:1017B0002804E0932704F90171836083B8CF8D91E9
:1017C0009C91119712966C90129713967C90139798
:1017D000A815B90559F56C0142E0C40ED11CCA1414
:1017E000DB0420F1AC014A195B09DA011296159766
:1017F00080F06282738251834083D9016D937C9320
:10180000E114F10471F0D7011396FC93EE93129753
:101810008ECF22968C0F9D1FF90191838083F30157
:10182000EFCFF0932A04E093290481CF481659069C
:1018300008F42C017D01D3019ACFCB010E94290A23
:101840007C01009749F0AE01B8010E942F0CC8013D
:101850000E94C50A87016BCF10E000E068CFFB0152
:10186000DC0102C001900D9241505040D8F708951C
:10187000FB01DC0101900D920020E1F7089511E0D9
:10188000C4E4D1E000E006C0802FFE010E94210ADE
:101890002196011DC534D10780E00807A9F7F89407
:0218A000FFCF78
:1018A200FF0A0A0A0000110E000E11111F1B1B1F56
:1018B2000006070809020304053738394134353672
:1018C20042313233432A30234400002B048000008B
:1018D2000000000E027801A5015B02D601B401C826
:1018E2000100000000D203CE03A60300000000188E
:1018F200057801A303A20361646D696E003132337E
:0C190200340041004200430044002D006E
:00000001FF
