:100000000C9445010C9476010C9476010C947601C5
:100010000C9476010C9476010C9476010C94760184
:100020000C9476010C9476010C9476010C94760174
:100030000C9476010C944A050C9476010C9476018C
:100040000C9476010C9476010C9476010C94760154
:100050000C9476010C9476010C9476010C9447066E
:100060000C9476010C9411060C94E7050C9476011F
:100070000C9476010C9476010C9476010C94760124
:100080000C9476010C9476010C9476010C94760114
:100090000C9476010C9476010C9476010C94760104
:1000A0000C9476010C9476010C9476010C947601F4
:1000B0000C9476010C9476010C9476010C947601E4
:1000C0000C9476010C9476010C9476010C947601D4
:1000D0000C9476010C9476010C9476010C947601C4
:1000E0000C9476010C94F7020C94D6010C940A033C
:1000F0000C94AD030C947D030C94DF020C948103EB
:100100000C94E5020C94F3040C94A5010C940B03DD
:100110000C940E020C94CA020C947E030C94D4022C
:100120000C94C8010C945B020C9491060C9405038A
:100130000C94E9020C94FD020C94A9030C94DC02CB
:100140000C940F030C94EF020C9406090C94D80243
:100150000C94D0020C94B4010C9478010C94F3022A
:100160000C940103000020002300260029002C002D
:100170002F00320000010000030106010901000008
:100180002100240027002A002D0030003300010147
:100190000000040107010A010000220025002800D8
:1001A0002B002E003100340002010000050108017F
:1001B0000B010505050507050808080802020202EB
:1001C0000A0A0808040404040101010101010101F3
:1001D0000303030303030303040707070C0C0C0CBE
:1001E0000C0C0C0C020202020606060606060606A7
:1001F0000B0B0B0B0B0B0B0B010210202008081034
:100200002040102040800201020108040201010286
:10021000040810204080804020100804020180045F
:1002200002018040201008040201080402010102BA
:1002300004081020408001020408102040800000C3
:100240000A0B02090C0D0E08070304010000000050
:10025000000000000000000000000000000000009E
:10026000000000000000000000001211100000005B
:10027000000000000000000000000000000000007E
:100280000000000002009106060911241FBECFEFF6
:10029000D1E2DEBFCDBF00E00CBF12E0A0E0B2E0D3
:1002A000ECEBF6E100E00BBF02C007900D92AA361E
:1002B000B107D9F724E0AAE6B2E001C01D92A93245
:1002C000B207E1F711E0C4E4D1E000E006C02197F5
:1002D0000109802FFE010E942E09C334D10780E05E
:1002E0000807A9F70E9420080C944C0B0C940000FE
:1002F000AF92BF92CF92DF92EF92FF920F931F9334
:10030000CF93DF936C017B018B01040F151FEB0171
:100310005E01AE18BF08C017D10759F06991D60128
:10032000ED91FC910190F081E02DC6011995892B8A
:1003300079F7C501DF91CF911F910F91FF90EF9059
:10034000DF90CF90BF90AF900895FC01538D448D06
:10035000252F30E0842F90E0821B930B541710F070
:10036000CF96089501970895FC01918D828D98177D
:1003700061F0A28DAE0FBF2FB11D5D968C91928D55
:100380009F5F9F73928F90E008958FEF9FEF089586
:10039000FC01918D828D981731F0828DE80FF11D4F
:1003A000858D90E008958FEF9FEF0895FC01918D6A
:1003B000228D892F90E0805C9F4F821B91098F7363
:1003C0009927089581E992E00E94D60121E0892BC6
:1003D00009F420E0822F0895FC01A48DA80FB92F05
:1003E000B11DA35ABF4F2C91848D90E001968F735D
:1003F0009927848FA689B7892C93A089B1898C917C
:10040000837080648C93938D848D981306C00288CA
:10041000F389E02D80818F7D80830895EF92FF9294
:100420000F931F93CF93DF93EC0181E0888F9B8D17
:100430008C8D98131AC0E889F989808185FF15C0D1
:100440009FB7F894EE89FF896083E889F9898081F4
:100450008370806480839FBF81E090E0DF91CF91C3
:100460001F910F91FF90EF900895F62E0B8D10E0E5
:100470000F5F1F4F0F731127E02E8C8D8E110CC054
:100480000FB607FCFACFE889F989808185FFF5CF9F
:10049000CE010E94EC01F1CFEB8DEC0FFD2FF11D91
:1004A000E35AFF4FF0829FB7F8940B8FEA89FB89DC
:1004B00080818062CFCFCF93DF93EC01888D88233A
:1004C000B9F0AA89BB89E889F9898C9185FD03C0B7
:1004D000808186FD0DC00FB607FCF7CF8C9185FF9C
:1004E000F2CF808185FFEDCFCE010E94EC01E9CFF4
:1004F000DF91CF91089580E090E0892B29F00E9450
:10050000E20181110E94000080E090E0892B49F017
:1005100080E090E0892B29F00E94000081110E9468
:10052000000080E090E0892B49F080E090E0892B8A
:1005300029F00E94000081110E94000080E090E0FC
:10054000892B49F080E090E0892B29F00E9400007F
:1005500081110C94000008958150823108F05AC036
:10056000E82FF0E08827E854FD4F8F4F0C942E09B8
:10057000D802DC02CA02D002D4020A03DF02E5027A
:10058000E902EF02F302F702FD0201030A03050389
:100590000B030F03809180008F7780938000089574
:1005A000809180008F7DF9CF80918000877FF5CF8B
:1005B00084B58F7784BD089584B58F7DFBCF8091FE
:1005C000B0008F778093B00008958091B0008F7D48
:1005D000F9CF809190008F7780939000089580915B
:1005E00090008F7DF9CF80919000877FF5CF80912B
:1005F000A0008F778093A00008958091A0008F7D48
:10060000F9CF8091A000877FF5CF809120018F776F
:10061000809320010895809120018F7DF9CF8091F2
:100620002001877FF5CF1F93CF93DF93282F30E0F2
:10063000F901E25CFD4F8491F901E850FE4FD4913D
:10064000F901EE54FE4FC491CC23A9F0162F81116D
:100650000E94AC02EC2FF0E0EE0FFF1FE856FE4FB9
:10066000A591B4918FB7F894EC91111108C0D09571
:10067000DE23DC938FBFDF91CF911F910895DE2B96
:10068000F8CFCF93DF9390E0FC01E850FE4F249128
:100690008E549E4FFC0184918823C9F090E0880F0E
:1006A000991FFC01E258FE4FA591B491FC01E85658
:1006B000FE4FC591D49161110DC09FB7F8948C91F4
:1006C000209582238C938881282328839FBFDF91E4
:1006D000CF910895623051F49FB7F8943C91822FE6
:1006E000809583238C93E8812E2BEFCF8FB7F894DE
:1006F000EC912E2B2C938FBFEACF089590E080E0F1
:100700000895CF93DF9370E0FB01E25CFD4F84918D
:10071000FB01E850FE4FD4916E547E4FFB01C49113
:10072000CC23A1F081110E94AC02EC2FF0E0EE0F7F
:10073000FF1FEC59FE4FA591B491EC91ED2381E0A0
:1007400090E009F480E0DF91CF91089580E090E09F
:10075000FACF862F642F0C941303862F642F0C94EA
:100760004103CF93DF93EC0160E08E810E9413037D
:1007700061E08E810E94130360E08E810E9413036A
:100780008BE891E00197F1F7DF91CF910895CF9237
:10079000DF92EF92FF920F931F93CF93DF936C0141
:1007A0007C0187E0E80EF11CD0E0C0E0062F10E0ED
:1007B000B8010C2E02C0759567950A94E2F7617036
:1007C000F70181917F010E9413032196C430D10566
:1007D00079F7C601DF91CF911F910F91FF90EF90B4
:1007E000DF90CF900C94B103CF92DF92EF92FF9203
:1007F0000F931F93CF93DF93EC01F62E642F8C8120
:100800000E9413038D818F3F19F060E00E94130353
:100810000F2D10E08F8584FF25C06E0187E0C80E84
:10082000D11CF12CE12CB8010E2C02C075956795F6
:100830000A94E2F76170F60181916F010E9413033F
:10084000FFEFEF1AFF0A88E0E816F10461F7CE0126
:10085000DF91CF911F910F91FF90EF90DF90CF909C
:100860000C94B103B80184E0759567958A95E1F71A
:10087000CE010E94C7036F2DCE01DF91CF911F9152
:100880000F91FF90EF90DF90CF900C94C70340E062
:10089000682F89ED93E00C94F403CF93DF938230BB
:1008A00029F49091E80398609093E8038093EC0317
:1008B0001092ED0380E48093EE0380E18093EF03D8
:1008C00080E58093F00361E08091DD030E944103A5
:1008D0008091DE038F3F19F061E00E94410361E0E7
:1008E0008091DF030E944103C9EDD3E09E01295DA1
:1008F00033408091E80384FD0BC084E090E02196B2
:100900002817390744F461E08E810E944103EECF3D
:1009100088E090E0F4CF8BE39DE00197F1F760E091
:100920008091DD030E94130360E08091DF030E9449
:1009300013038091DE038F3F19F060E00E941303E0
:100940008091E80384FD39C063E089ED93E00E9463
:10095000C703CBE4D6E4CE010197F1F763E089ED5C
:1009600093E00E94C7032197F1F763E089ED93E0DC
:100970000E94C70383E592E00197F1F762E089EDF9
:1009800093E00E94C7038091E80380620E944704BD
:1009900084E08093E9038CE00E94470481E00E9498
:1009A00047048BE39FE10197F1F782E08093EA032C
:1009B00086E0DF91CF910C94470480620E94470447
:1009C0008BE496E40197F1F78091E80380620E943E
:1009D000470483E592E00197F1F78091E803806294
:1009E0000E944704D0CF41E00E94F40381E090E0F0
:1009F0000895FC0180819181009711F00C94D20937
:100A00000895EF92FF920F931F93CF93DF93EC0122
:100A10007B01198218821B821A821D821C82FB01B3
:100A200001900020E9F731978F01061B170BB801E1
:100A30006F5F7F4F90E080E00E945B0A0097B9F003
:100A4000998388831B830A832C813D81232B11F496
:100A5000FC0110821D830C83B70188819981DF918D
:100A6000CF911F910F91FF90EF900C94450B8881CF
:100A70009981009711F00E94D209198218821D8273
:100A80001C821B821A82DF91CF911F910F91FF90E0
:100A9000EF9008951F920F920FB60F9211240BB68C
:100AA0000F922F933F934F935F936F937F938F9307
:100AB0009F93AF93BF93EF93FF938091890290919F
:100AC0008A02A0918B02B0918C02892B8A2B8B2BEE
:100AD000D1F19091880280910000892780930000D5
:100AE0008091890290918A02A0918B02B0918C0230
:100AF000181619061A061B069CF48091890290911B
:100B00008A02A0918B02B0918C020197A109B109D0
:100B10008093890290938A02A0938B02B0938C02F7
:100B2000FF91EF91BF91AF919F918F917F916F91C5
:100B30005F914F913F912F910F900BBE0F900FBE81
:100B40000F901F90189580910002E4E8F2E0E49184
:100B50009FEF90930002E230E9F040F4EE2389F039
:100B6000E13091F060E00E941303DACFE43049F104
:100B700010F1E530B9F7909173009D7F9093730069
:100B8000F1CF10926E00EECF90916F009D7F909309
:100B90006F00E8CF909170009D7F9093700091E07E
:100BA0009093B0009091B100987F94609093B100C1
:100BB0001092B300D7CF909171009D7F90937100F8
:100BC000D1CF909172009D7F90937200CBCF1F92F6
:100BD0000F920FB60F9211240BB60F922F933F93E3
:100BE0004F935F936F937F938F939F93AF93BF9335
:100BF000EF93FF9381E992E00E94EC01FF91EF9166
:100C0000BF91AF919F918F917F916F915F914F9124
:100C10003F912F910F900BBE0F900FBE0F901F9022
:100C200018951F920F920FB60F9211240BB60F92C8
:100C30002F938F939F93EF93FF93E091A102F091F5
:100C4000A2028081E091A702F091A80282FD1DC05E
:100C500090818091AA028F5F8F732091AB028217DF
:100C600041F0E091AA02F0E0EF56FD4F958F80939E
:100C7000AA02FF91EF919F918F912F910F900BBE40
:100C80000F900FBE0F901F9018958081F2CF1F928A
:100C90000F920FB60F9211242F933F938F939F9330
:100CA000AF93BF9380918D0290918E02A0918F029D
:100CB000B09190023091870223E0230F2D3758F531
:100CC0000196A11DB11D2093870280938D02909300
:100CD0008E02A0938F02B093900280918302909134
:100CE0008402A0918502B09186020196A11DB11DDA
:100CF0008093830290938402A0938502B09386022E
:100D0000BF91AF919F918F913F912F910F900FBE07
:100D10000F901F90189526E8230F0296A11DB11D74
:100D2000D2CF0F931F93CF93DF9310929402109220
:100D3000930288EE93E0A0E0B0E080939502909358
:100D40009602A0939702B093980283E392E0909367
:100D500092028093910285EC90E090939E028093A2
:100D60009D0284EC90E09093A00280939F0280EC1F
:100D700090E09093A2028093A10281EC90E0909386
:100D8000A4028093A30282EC90E09093A602809349
:100D9000A50286EC90E09093A8028093A70210929F
:100DA000AA021092AB021092AC021092AD02109205
:100DB00016041092150410920C0410920B04109259
:100DC000210410922204109223041092240408E2B9
:100DD00010E0109312040093110482E490E09093C9
:100DE00018048093170483E490E090931A0480938E
:100DF000190484E490E090931C0480931B0485E420
:100E000090E090931E0480931D0461E082E40E94B0
:100E1000410361E0809119040E94410361E08091E7
:100E20001B040E94410361E080911D040E94410364
:100E30001092200410921F04C4E0D0E0D093140458
:100E4000C09313041092FC031092FB031092F20360
:100E50001092F103109207041092080410920904F2
:100E600010920A041093F8030093F7038EE390E0C6
:100E70009093FE038093FD038FE390E09093000432
:100E80008093FF0380E490E0909302048093010438
:100E900081E490E0909304048093030461E08EE386
:100EA0000E94410361E08091FF030E94410361E0E1
:100EB000809101040E94410361E0809103040E943B
:100EC00041031092060410920504D093FA03C093D4
:100ED000F9031092DC031092DB038FE492E090930D
:100EE000DA038093D90386E38093DD038FEF809349
:100EF000DE0387E38093DF0388E38093E00389E3E5
:100F00008093E1038AE38093E2038BE38093E3031E
:100F10001092E4031092E5031092E6031092E703A7
:100F20001092E80381E00E944D0467E572E083EDD2
:100F300093E00E9401056DE572E08DEC93E00E9464
:100F400001051092600310926403109263031092E3
:100F5000650385E492E090935F0380935E03EAE784
:100F6000F3E086EB93E010821482138215823696AA
:100F70008E179F07C1F785E192E09093C10380939C
:100F8000C00381E192E09093C3038093C20384E0A5
:100F90008093C4038093C50389E192E09093BF03DB
:100FA0008093BE038AE090E09093C7038093C603CA
:100FB00084EF91E09093C9038093C8031092CC030F
:100FC0001092CB031092BA031092BB031092BC0391
:100FD0001092BD031092CA0361E672E086E493E0CA
:100FE0000E94010561E672E08CE493E00E94010535
:100FF00061E672E082E593E00E94010561E672E03D
:1010000088E593E00E94010562E672E08EE293E0DB
:101010000E94010564E672E084E393E00E9401050A
:1010200066E672E08AE393E00E94010568E672E0FA
:1010300080E493E0DF91CF911F910F910C94010513
:10104000789484B5826084BD84B5816084BD85B5A3
:10105000826085BD85B5816085BD80916E008160AF
:1010600080936E0010928100809181008260809355
:101070008100809181008160809381008091800057
:101080008160809380008091B10084608093B10082
:101090008091B00081608093B00080919100826067
:1010A0008093910080919100816080939100809164
:1010B00090008160809390008091A1008260809375
:1010C000A1008091A10081608093A1008091A00087
:1010D00081608093A0008091210182608093210132
:1010E00080912101816080932101809120018160A4
:1010F0008093200180917A00846080937A008091AF
:101100007A00826080937A0080917A008160809377
:101110007A0080917A00806880937A001092C100F2
:1011200061E08DE00E94410361E086E10E9441039D
:1011300061E087E10E94410380E40E944704C9E026
:10114000D2E0699189ED93E00E94F30482E0C1311D
:10115000D807B9F788E40E944704C1E0D2E009E06B
:1011600012E0699189ED93E00E94F3040C171D07CA
:10117000C1F78FB7F89440918D0250918E02609123
:101180008F02709190028FBF82E00E944D0481E037
:101190000E9447048BE39FE10197F1F7E091A102E0
:1011A000F091A20282E08083E0919D02F0919E0284
:1011B0001082E0919F02F091A0028FEC8083109248
:1011C000A902E091A502F091A60286E08083E09159
:1011D000A302F091A402808180618083E091A30248
:1011E000F091A402808188608083E091A302F09155
:1011F000A402808180688083E091A302F091A40220
:1012000080818F7D80830E947B02FDCF80E493E00C
:101210000E94F9048AE393E00E94F90484E393E0D6
:101220000E94F9048EE293E00E94F90488E593E0BD
:101230000E94F90482E593E00E94F9048CE493E0B3
:101240000E94F90486E493E00E94F9048DEC93E097
:101250000E94F90483ED93E00C94F904EE0FFF1F54
:10126000881F8BBF0790F691E02D19940F931F9361
:10127000CF93DF938230910510F482E090E0E0910B
:101280002704F091280430E020E0B0E0A0E030979F
:1012900099F42115310509F44AC0281B390B243073
:1012A0003105D8F58A819B816115710589F1FB01B2
:1012B00093838283FE0111C0408151810281138199
:1012C00048175907E0F04817590799F4109761F04B
:1012D00012960C93129713961C933296CF01DF91BE
:1012E000CF911F910F910895009327041093280424
:1012F000F4CF2115310551F04217530738F0A901F9
:10130000DB019A01BD01DF01F801C1CFEF01F9CF87
:101310009093280480932704CDCFFE01E20FF31FA2
:10132000819391932250310939832883D7CF20911B
:10133000250430912604232B41F420912B02309177
:101340002C02309326042093250420912902309109
:101350002A022115310541F42DB73EB740912D02E7
:1013600050912E02241B350BE0912504F0912604A8
:10137000E217F307A0F42E1B3F0B2817390778F06C
:10138000AC014E5F5F4F2417350748F04E0F5F1FCB
:101390005093260440932504819391939FCFF0E0CE
:1013A000E0E09CCFCF93DF930097E9F0FC01329708
:1013B00013821282A0912704B0912804ED0130E03D
:1013C00020E01097A1F420813181820F931F20919A
:1013D0002504309126042817390709F061C0F093DD
:1013E0002604E0932504DF91CF910895EA01CE17FA
:1013F000DF07E8F54A815B819E0141155105B1F790
:10140000E901FB83EA8349915991C40FD51FEC1779
:10141000FD0761F4808191810296840F951FE90197
:1014200099838883828193819B838A83F0E0E0E0C3
:1014300012968D919C9113970097B9F52D913C913F
:101440001197CD010296820F931F209125043091B0
:1014500026042817390739F6309751F510922804D9
:1014600010922704B0932604A0932504BCCFD38305
:10147000C28340815181840F951FC817D90761F439
:101480004E5F5F4F88819981480F591F5183408378
:101490008A819B81938382832115310509F0B0CF26
:1014A000F0932804E09327049ECFFD01DC01C0CF18
:1014B00013821282D7CF4F925F926F927F928F9258
:1014C0009F92AF92BF92CF92DF92EF92FF920F93D3
:1014D0001F93CF93DF938C01009799F4CB01DF9199
:1014E000CF911F910F91FF90EF90DF90CF90BF9021
:1014F000AF909F908F907F906F905F904F900C94E3
:101500003609FC01E60FF71F9C0122503109E21752
:10151000F30708F4AEC0D901CD91DC911197C6173D
:10152000D70720F1C530D10578F0CE010497861792
:10153000970750F0C61BD70B2297C193D1936D9399
:101540007C93CF010E94D209C801DF91CF911F91F6
:101550000F91FF90EF90DF90CF90BF90AF909F9052
:101560008F907F906F905F904F9008955B01AC1AC1
:10157000BD0A4C018C0E9D1EA0912704B091280439
:10158000512C412CF12CE12C109731F58091250440
:10159000909126048815990509F05CC046165706F7
:1015A00008F058C08091290290912A02009741F4D6
:1015B0008DB79EB740912D0250912E02841B950B42
:1015C000E817F90708F055C0F0932604E0932504C6
:1015D000F90171836083B8CF8D919C911197129618
:1015E0006C90129713967C901397A815B90559F52E
:1015F0006C0142E0C40ED11CCA14DB0420F1AC0122
:101600004A195B09DA011296159780F0628273829B
:1016100051834083D9016D937C93E114F10471F0FF
:10162000D7011396FC93EE9312978ECF22968C0FD0
:101630009D1FF90191838083F301EFCFF09328047C
:10164000E093270481CF4816590608F42C017D0148
:10165000D3019ACFCB010E9436097C01009749F053
:10166000AE01B8010E943C0BC8010E94D20987015B
:101670006BCF10E000E068CFFB01DC0102C00190FD
:101680000D9241505040D8F70895FB01DC010190C4
:101690000D920020E1F7089511E0C4E4D1E000E0EC
:1016A00006C0802FFE010E942E092196011DC5341F
:0C16B000D10780E00807A9F7F894FFCFED
:1016BC00FF0A0A0A0000110E000E11111F1B1B1F3E
:1016CC00000607080902030405373839413435365A
:1016DC0042313233432A3023440000290480000075
:1016EC000000000E027801A5015B02D601B401C80E
:1016FC000100000000AD03A903810300000000F30A
:10170C000478017E037D0361646D696E00313233B0
:0A171C003400410042004300440085
:00000001FF
