:100000000C942E010C945F010C945F010C945F0121
:100010000C945F010C945F010C945F010C945F01E0
:100020000C945F010C945F010C945F010C945F01D0
:100030000C945F010C945F010C945F010C945F01C0
:100040000C945F010C945F010C945F010C945F01B0
:100050000C945F010C945F010C945F010C94E80414
:100060000C945F010C94B2040C9488040C945F010E
:100070000C945F010C945F010C945F010C945F0180
:100080000C945F010C945F010C945F010C945F0170
:100090000C945F010C945F010C945F010C945F0160
:1000A0000C945F010C945F010C945F010C945F0150
:1000B0000C945F010C945F010C945F010C945F0140
:1000C0000C945F010C945F010C945F010C945F0130
:1000D0000C945F010C945F010C945F010C945F0120
:1000E0000C945F010C941A030C942C030C94E902F9
:1000F0000C94AD010C9428030C94FF020C94D001D5
:100100000C94E4020C9407030C9403030C94360340
:100110000C9480010C9441030C9432050C946302FE
:100120000C9414030C94DE010C9482040C943003A0
:100130000C940A030C941E030C94FB020C944003D1
:100140000C943A030C94BC010C9410030C9416020A
:100150000C94220300000A0B02090C0D0E08070381
:10016000040100000000000000000000000000008A
:10017000000000000000000000000000000000007F
:10018000121110000000000000000000000000003C
:100190000000000000000000000000002200250018
:1001A00028002B002E003100340002010000050160
:1001B00008010B0100002100240027002A002D0067
:1001C0003000330001010000040107010A010505A8
:1001D0000505070508080808020202020A0A0808BD
:1001E00004040404010101010101010103030303EB
:1001F00003030303040707070C0C0C0C0C0C0C0C7A
:100200000202020206060606060606060B0B0B0B8A
:100210000B0B0B0B010210202008081020401020AF
:1002200040800201020108040201010204081020BA
:1002300040808040201008040201800402018040B8
:100240002010080402010804020101020408102021
:1002500040800102040810204080320511241FBE96
:10026000CFEFD1E2DEBFCDBF00E00CBF12E0A0E0D7
:10027000B2E0E0E2FDE000E00BBF02C007900D92AB
:10028000A034B107D9F722E0A0E4B2E001C01D928A
:10029000AF3FB207E1F711E0CEE2D1E000E006C0E7
:1002A00021970109802FFE010E948606CD32D107D9
:1002B00080E00807A9F70E947C050C948E060C9438
:1002C000000090E0FC01EC5EFD4F249182539E4FB4
:1002D000FC018491882399F090E0880F991FFC011C
:1002E000EC54FE4FA591B491FC01E656FE4F85916A
:1002F00094918FB7F894EC91E22BEC938FBF089513
:10030000AF92BF92CF92DF92EF92FF920F931F9323
:10031000CF93DF936C017B018B01040F151FEB0161
:100320005E01AE18BF08C017D10759F06991D60118
:10033000ED91FC910190F081E02DC6011995892B7A
:1003400079F7C501DF91CF911F910F91FF90EF9049
:10035000DF90CF90BF90AF900895FC01538D448DF6
:10036000252F30E0842F90E0821B930B541710F060
:10037000CF96089501970895FC01918D828D98176D
:1003800061F0A28DAE0FBF2FB11D5D968C91928D45
:100390009F5F9F73928F90E008958FEF9FEF089576
:1003A000FC01918D828D981731F0828DE80FF11D3F
:1003B000858D90E008958FEF9FEF0895FC01918D5A
:1003C000228D892F90E0805C9F4F821B91098F7353
:1003D000992708958AE492E00E94DE0121E0892BAA
:1003E00009F420E0822F0895FC01A48DA80FB92FF5
:1003F000B11DA35ABF4F2C91848D90E001968F734D
:100400009927848FA689B7892C93A089B1898C916B
:10041000837080648C93938D848D981306C00288BA
:10042000F389E02D80818F7D80830895EF92FF9284
:100430000F931F93CF93DF93EC0181E0888F9B8D07
:100440008C8D98131AC0E889F989808185FF15C0C1
:100450009FB7F894EE89FF896083E889F9898081E4
:100460008370806480839FBF81E090E0DF91CF91B3
:100470001F910F91FF90EF900895F62E0B8D10E0D5
:100480000F5F1F4F0F731127E02E8C8D8E110CC044
:100490000FB607FCFACFE889F989808185FFF5CF8F
:1004A000CE010E94F401F1CFEB8DEC0FFD2FF11D79
:1004B000E35AFF4FF0829FB7F8940B8FEA89FB89CC
:1004C00080818062CFCFCF93DF93EC01888D88232A
:1004D000B9F0AA89BB89E889F9898C9185FD03C0A7
:1004E000808186FD0DC00FB607FCF7CF8C9185FF8C
:1004F000F2CF808185FFEDCFCE010E94F401E9CFDC
:10050000DF91CF91089580E090E0892B29F00E943F
:10051000EA0181110E94000080E090E0892B49F0FF
:1005200080E090E0892B29F00E94000081110E9458
:10053000000080E090E0892B49F080E090E0892B7A
:1005400029F00E94000081110E94000080E090E0EC
:10055000892B49F080E090E0892B29F00E9400006F
:1005600081110C9400000895282F30E0F901EC5A15
:10057000FE4F9491F901EC5EFD4F449122533E4FA2
:10058000F9012491222309F435C0992311F19150E6
:100590009231F8F4E92FF0E08827EE52FD4F8F4FAB
:1005A0000C94860603030703E402FB02FF02E90240
:1005B0000A03100314031A031E03220328032C0347
:1005C000E902300336033A03809180008F778093ED
:1005D0008000E22FF0E0EE0FFF1FE656FE4FA591E0
:1005E000B4918FB7F894EC91611148C040954E23B7
:1005F0004C938FBF0895809180008F7DE8CF8091CC
:100600008000877FE4CF84B58F7784BDE2CF84B547
:100610008F7DFBCF8091B0008F778093B000D9CFD2
:100620008091B0008F7DF9CF809190008F7780937B
:100630009000CFCF809190008F7DF9CF8091900076
:10064000877FF5CF8091A0008F778093A000C1CFE6
:100650008091A0008F7DF9CF8091A000877FF5CF9A
:10066000809120018F7780932001B3CF809120016A
:100670008F7DF9CF80912001877FF5CF4E2BB8CFAA
:10068000089590E080E00895CF93DF93EC0160E05F
:100690008E810E94B40261E08E810E94B40260E00B
:1006A0008E810E94B4028BE891E00197F1F7DF910F
:1006B000CF910895CF92DF92EF92FF920F931F9305
:1006C000CF93DF936C017C0187E0E80EF11CD0E052
:1006D000C0E0062F10E0B8010C2E02C0759567959A
:1006E0000A94E2F76170F70181917F010E94B402E0
:1006F0002196C430D10579F7C601DF91CF911F91C2
:100700000F91FF90EF90DF90CF900C944403CF9225
:10071000DF92EF92FF920F931F93CF93DF93EC0141
:10072000F62E642F8C810E94B4028D818F3F19F0C8
:1007300060E00E94B4020F2D10E08F8584FF25C079
:100740006E0187E0C80ED11CF12CE12CB8010E2CF3
:1007500002C0759567950A94E2F76170F601819180
:100760006F010E94B402FFEFEF1AFF0A88E0E8165B
:10077000F10461F7CE01DF91CF911F910F91FF90AE
:10078000EF90DF90CF900C944403B80184E075950E
:1007900067958A95E1F7CE010E945A036F2DCE012D
:1007A000DF91CF911F910F91FF90EF90DF90CF904D
:1007B0000C945A0340E0682F87EE92E00C94870374
:1007C000CF93DF93823029F49091F6029860909352
:1007D000F6028093FA021092FB0280E48093FC02FE
:1007E00080E18093FD0280E58093FE028091EB0220
:1007F0000E9461018091EC028F3F11F00E94610123
:100800008091ED020E946101C7EED2E09E01275E59
:1008100032408091F60284FD0AC084E090E0219687
:10082000281739073CF48E810E946101EFCF88E0E0
:1008300090E0F5CF8BE39DE00197F1F760E08091C8
:10084000EB020E94B40260E08091ED020E94B402CB
:100850008091EC028F3F19F060E00E94B402809119
:10086000F60284FD39C063E087EE92E00E945A03ED
:10087000CBE4D6E4CE010197F1F763E087EE92E096
:100880000E945A032197F1F763E087EE92E00E94FD
:100890005A0383E592E00197F1F762E087EE92E078
:1008A0000E945A038091F60280620E94DA0384E07B
:1008B0008093F7028CE00E94DA0381E00E94DA0361
:1008C0008BE39FE10197F1F782E08093F80286E0E5
:1008D000DF91CF910C94DA0380620E94DA038BE4FB
:1008E00096E40197F1F78091F60280620E94DA03A4
:1008F00083E592E00197F1F78091F60280620E9411
:10090000DA03D0CF41E00E94870381E090E00895B0
:100910001F920F920FB60F9211240BB60F922F93C6
:100920003F934F935F936F937F938F939F93AF9377
:10093000BF93EF93FF938AE492E00E94F401FF914A
:10094000EF91BF91AF919F918F917F916F915F9147
:100950004F913F912F910F900BBE0F900FBE0F90B4
:100960001F9018951F920F920FB60F9211240BB67D
:100970000F922F938F939F93EF93FF93E0915A02DF
:10098000F0915B028081E0916002F091610282FD52
:100990001DC09081809163028F5F8F7320916402EC
:1009A000821741F0E0916302F0E0E65BFD4F958F26
:1009B00080936302FF91EF919F918F912F910F9000
:1009C0000BBE0F900FBE0F901F9018958081F2CF35
:1009D0001F920F920FB60F9211242F933F938F9374
:1009E0009F93AF93BF938091450290914602A0914F
:1009F0004702B09148023091440223E0230F2D3783
:100A000058F50196A11DB11D209344028093450223
:100A100090934602A0934702B0934802809140020F
:100A200090914102A0914202B09143020196A11D12
:100A3000B11D8093400290934102A0934202B09373
:100A40004302BF91AF919F918F913F912F910F9052
:100A50000FBE0F901F90189526E8230F0296A11D38
:100A6000B11DD2CFEAE4F2E01382128288EE93E065
:100A7000A0E0B0E084839583A683B78384E192E00D
:100A80009183808385EC90E09587848784EC90E067
:100A90009787868780EC90E0918B808B81EC90E04B
:100AA000938B828B82EC90E0958B848B86EC90E02C
:100AB000978B868B118E128E138E148EE7EEF2E0DA
:100AC0001382128286E292E09183808386E384839C
:100AD0008FEF858387E3868388E3878389E3808735
:100AE0008AE381878BE382871386148615861686B0
:100AF000178681E00C94E003789484B5826084BD0D
:100B000084B5816084BD85B5826085BD85B5816011
:100B100085BD80916E00816080936E00109281008F
:100B2000809181008260809381008091810081604A
:100B3000809381008091800081608093800080910B
:100B4000B10084608093B1008091B0008160809397
:100B5000B00080919100826080939100809191001B
:100B600081608093910080919000816080939000DB
:100B70008091A10082608093A1008091A10081609A
:100B80008093A1008091A00081608093A00080915B
:100B900021018260809321018091210181608093F5
:100BA00021018091200181608093200180917A0051
:100BB000846080937A0080917A00826080937A00CA
:100BC00080917A00816080937A0080917A008068B9
:100BD00080937A001092C10080E40E94DA03C8E09A
:100BE000D2E0699187EE92E00E94820482E0C031F7
:100BF000D807B9F788E40E94DA03C0E0D2E008E041
:100C000012E0699187EE92E00E9482040C171D07A2
:100C1000C1F78FB7F8944091450250914602609118
:100C20004702709148028FBF82E00E94E00381E09A
:100C30000E94DA038BE39FE10197F1F78DE00E94B8
:100C40006101E0915A02F0915B0282E08083E091C1
:100C50005602F09157021082E0915802F091590229
:100C60008FEC808310926202E0915E02F0915F024D
:100C700086E08083E0915C02F0915D02808180617A
:100C80008083E0915C02F0915D02808188608083C6
:100C9000E0915C02F0915D02808180688083E09148
:100CA0005C02F0915D0280818F7D80838AE492E016
:100CB0000E94DE011816190634F48AE492E00E94BC
:100CC000BC0180934902809149028534A1F44DE032
:100CD00050E06EE272E08AE492E00E94800142E01D
:100CE00050E06CE372E08AE492E00E94800161E0EF
:100CF0008DE00E94B40280914902813421F460E0C9
:100D00008DE00E94B4020E948302D0CFEE0FFF1F3D
:100D1000881F8BBF0790F691E02D1994F894FFCFB0
:100D20000A0A0A0000110E000E11111F1B1B1F00E2
:100D30000000000016028001AD016302DE01BC016B
:100D4000D001000000008204800141034003456E91
:100D500074726520616C206C6F6F70000D0A00006A
:00000001FF
