:100000000C9444010C9475010C9475010C947501C9
:100010000C9475010C9475010C9475010C94750188
:100020000C9475010C9475010C9475010C94750178
:100030000C9475010C9475010C9475010C94750168
:100040000C9475010C9475010C9475010C94750158
:100050000C9475010C9475010C9475010C94200995
:100060000C9475010C94EA080C94C0080C9475016A
:100070000C9475010C9475010C9475010C94750128
:100080000C9475010C9475010C9475010C94750118
:100090000C9475010C9475010C9475010C94750108
:1000A0000C9475010C9475010C9475010C947501F8
:1000B0000C9475010C9475010C9475010C947501E8
:1000C0000C9475010C9475010C9475010C947501D8
:1000D0000C9475010C9475010C9475010C947501C8
:1000E0000C9475010C9431030C940E030C941402BF
:1000F0000C9406020C9423030C9448030C942D03D7
:100100000C941D030C94AB030C946A090C94EE0D33
:100110000C9443030C943F030C9499020C944903F0
:100120000C9408030C943B030C94E3010C947A03A5
:100130000C944C020C94AD010C94F5050C94F20156
:100140000C944D030C941A030C9427030C94120383
:100150000C94AC010C9435030C94EB030C94160333
:100160000C944C0700002100240027002A002D00D9
:100170003000330001010000040107010A01000002
:100180002200250028002B002E003100340002013F
:100190000000050108010B010000200023002600DB
:1001A00029002C002F00320000010000030106018D
:1001B00009010505050507050808080802020202ED
:1001C0000A0A0808040404040101010101010101F3
:1001D0000303030303030303040707070C0C0C0CBE
:1001E0000C0C0C0C020202020606060606060606A7
:1001F0000B0B0B0B0B0B0B0B010210202008081034
:100200002040102040800201020108040201010286
:10021000040810204080804020100804020180045F
:1002200002018040201008040201080402010102BA
:1002300004081020408001020408102040800000C3
:100240000A0B02090C0D0E08070304010000000050
:10025000000000000000000000000000000000009E
:10026000000000000000000000001211100000005B
:10027000000000000000000000000000000000007E
:10028000000000006A09EE0D11241FBECFEFD1E27D
:10029000DEBFCDBF00E00CBF13E0A0E0B2E0EEE1B6
:1002A000F3E200E00BBF02C007900D92AE34B1073D
:1002B000D9F724E0AEE4B3E001C01D92A53BB2073C
:1002C000E1F711E0C3E4D1E000E006C021970109A5
:1002D000802FFE010E94560FC234D10780E008072C
:1002E000A9F70E94530A0C947D110C94000096E02B
:1002F000899FD0011124A65DBB4F90967C936E938D
:100300005F9791E091969C939197E0919704F0917B
:10031000980490919604992339F0309751F0811107
:1003200008C0809146041994309719F05C968C911E
:10033000FACF0895FC01248135816217730720F4F8
:1003400080819181009729F41092570387E593E00B
:100350000895860F971F08950895AF92BF92CF9288
:10036000DF92EF92FF920F931F93CF93DF936C0175
:100370007B018B01040F151FEB015E01AE18BF0856
:10038000C017D10759F06991D601ED91FC91019008
:10039000F081E02DC6011995892B79F7C501DF9110
:1003A000CF911F910F91FF90EF90DF90CF90BF9072
:1003B000AF900895FC01448155816081718189E984
:1003C00094E00C94AD01FC01538D448D252F30E059
:1003D000842F90E0821B930B541710F0CF96089552
:1003E00001970895FC01918D828D981761F0A28D7F
:1003F000AE0FBF2FB11D5D968C91928D9F5F9F7345
:10040000928F90E008958FEF9FEF0895FC01918DFA
:10041000828D981731F0828DE80FF11D858D90E067
:1004200008958FEF9FEF0895FC01918D228D892F04
:1004300090E0805C9F4F821B91098F7399270895EC
:100440008DE593E00E94140221E0892B09F420E05D
:10045000822F0895FC01A48DA80FB92FB11DA35AB6
:10046000BF4F2C91848D90E001968F739927848FD4
:10047000A689B7892C93A089B1898C9183708064F7
:100480008C93938D848D981306C00288F389E02D98
:1004900080818F7D80830895EF92FF920F931F9349
:1004A000CF93DF93EC0181E0888F9B8D8C8D981327
:1004B0001AC0E889F989808185FF15C09FB7F89433
:1004C000EE89FF896083E889F9898081837080647F
:1004D00080839FBF81E090E0DF91CF911F910F91CA
:1004E000FF90EF900895F62E0B8D10E00F5F1F4FD9
:1004F0000F731127E02E8C8D8E110CC00FB607FCE8
:10050000FACFE889F989808185FFF5CFCE010E9475
:100510002A02F1CFEB8DEC0FFD2FF11DE35AFF4FB7
:10052000F0829FB7F8940B8FEA89FB898081806203
:10053000CFCFCF93DF93EC01888D8823B9F0AA89C0
:10054000BB89E889F9898C9185FD03C0808186FD8E
:100550000DC00FB607FCF7CF8C9185FFF2CF8081DD
:1005600085FFEDCFCE010E942A02E9CFDF91CF9126
:10057000089580E090E0892B29F00E9420028111EB
:100580000E94000080E090E0892B49F080E090E03C
:10059000892B29F00E94000081110E94000080E058
:1005A00090E0892B49F080E090E0892B29F00E94AF
:1005B000000081110E94000080E090E0892B49F04A
:1005C00080E090E0892B29F00E94000081110C94BA
:1005D000000008958150823108F05AC0E82FF0E001
:1005E0008827EA50FD4F8F4F0C94560F16031A03BD
:1005F00008030E03120348031D03230327032D03DF
:10060000310335033B033F034803430349034D03D1
:10061000809180008F778093800008958091800082
:100620008F7DF9CF80918000877FF5CF84B58F775C
:1006300084BD089584B58F7DFBCF8091B0008F7706
:100640008093B00008958091B0008F7DF9CF8091A4
:1006500090008F77809390000895809190008F7D17
:10066000F9CF80919000877FF5CF8091A0008F77A0
:100670008093A00008958091A0008F7DF9CF809194
:10068000A000877FF5CF809120018F778093200194
:100690000895809120018F7DF9CF80912001877F7F
:1006A000F5CFCF93DF93282F30E0F901E25CFD4FC7
:1006B0008491F901E850FE4FD491F901EE54FE4FB8
:1006C000C491CC23A1F081110E94EA02EC2FF0E04A
:1006D000EE0FFF1FE856FE4FA591B491EC91ED236C
:1006E00081E090E009F480E0DF91CF91089580E00F
:1006F00090E0FACF862F0C9451031F93CF93DF9392
:10070000282F30E0F901E25CFD4F8491F901E850B7
:10071000FE4FD491F901EE54FE4FC491CC23A9F0C1
:10072000162F81110E94EA02EC2FF0E0EE0FFF1F5E
:10073000E258FE4FA591B4918FB7F894EC91111146
:1007400008C0D095DE23DC938FBFDF91CF911F913E
:100750000895DE2BF8CF862F642F0C947D03CF9362
:10076000DF9390E0FC01E850FE4F24918E549E4FA1
:10077000FC0184918823C9F090E0880F991FFC0147
:10078000EC59FE4FA591B491FC01E258FE4FC59182
:10079000D49161110DC09FB7F8948C91209582235C
:1007A0008C938881282328839FBFDF91CF91089560
:1007B000623051F49FB7F8943C91822F8095832347
:1007C0008C93E8812E2BEFCF8FB7F894EC912E2BE2
:1007D0002C938FBFEACF862F642F0C94AF033FB7C3
:1007E000F8948091530390915403A0915503B091D4
:1007F000560326B5A89B05C02F3F19F00196A11DF1
:10080000B11D3FBFBA2FA92F982F8827BC01CD015A
:10081000620F711D811D911D42E0660F771F881FB9
:10082000991F4A95D1F708958F929F92AF92BF92E8
:10083000CF92DF92EF92FF924B015C010E94EF0397
:100840006B017C010E94EF036C197D098E099F09E1
:10085000683E734081059105A8F321E0821A910852
:10086000A108B10888EEC80E83E0D81EE11CF11C77
:1008700081149104A104B10429F7FF90EF90DF9057
:10088000CF90BF90AF909F908F9008952FB7F8941E
:1008900060914F03709150038091510390915203E6
:1008A0002FBF08950F931F93CF93DF93C82FD62F99
:1008B00086E0C89FF0011124E65DFB4F11A2878DF1
:1008C00090A181309105F1F058F082309105F1F15D
:1008D000039709F440C0DF91CF911F910F910895C4
:1008E0006623C9F361E070E08C2F0E9477010E94BB
:1008F00046046093820470938304809384049093ED
:100900008504E9CF0E94460400918204109183047B
:100910002091840430918504AB01BC01401B510B34
:10092000620B730B8091940490919504B0E0A0E069
:1009300084179507A607B70748F462E070E08C2F8C
:10094000DF91CF911F910F910C94770163E070E0DC
:10095000D111C1CFF4CF70E060E0F1CF6F927F9200
:100960008F929F92AF92BF92CF92DF92EF92FF92BF
:100970000F931F93CF93DF9381E0809396040E949F
:1009800046040091860410918704209188043091D8
:100990008904AB01BC01401B510B620B730B8091AE
:1009A000920490919304B0E0A0E084179507A60705
:1009B000B70708F014C1C0E080919004C81760F434
:1009C000E0918C04F0918D04EC0FF11D62E08081C8
:1009D0000E94AF03CF5FF0CF712C812C912C54017A
:1009E000839480919104781608F05FC0072D10E081
:1009F000E0918E04F0918F04E00FF11F61E080819F
:100A00000E94AF03E0918E04F0918F04E00FF11F7C
:100A100060E080810E947D03D501C401072C04C0E1
:100A2000880F991FAA1FBB1F0A94D2F76C017C0183
:100A3000E094F094612C809190046816F8F4C62D2F
:100A4000D0E0E0918C04F0918D04EC0FFD1F8081CB
:100A50000E9451032496CC0FDD1FC65DDB4F892B0E
:100A600041F4888199818C299D2999838883639495
:100A7000E2CF888199818E219F21F7CFE0918E046A
:100A8000F0918F04E00FF11F61E080810E947D03EF
:100A900080918E0490918F04080F191F60E0F80177
:100AA00080810E94AF0373949CCFCAE2D4E0FE0120
:100AB0008FEF9FEF278D30A1232B21F4148E968F7B
:100AC000858F11A2369624E0E636F20799F7F12CCD
:100AD00096E0D92E80919004F81608F050C0E12CD1
:100AE0000F2D10E0000F111F0E5C1B4F2091910481
:100AF000E21608F042C0F801608171810E2C02C03C
:100B0000769567950A94E2F7F29E900111242E0DD6
:100B1000311DEAE2F4E080E0458D568D241735075B
:100B200009F461C08F5F36968A30B1F760FF23C049
:100B3000EAE2F4E090E080E0448D411117C0E091DA
:100B40008A04F0918B04E20FF31F4081D89EF001DC
:100B5000D99EF00D1124E65DFB4F448F368F258F13
:100B600010A2178E61E00E94520405C001963696CD
:100B70008A30910509F7E394B9CFF394ABCF10E035
:100B800089A18111182F2696F4E0C636DF07C1F738
:100B90000E944604609386047093870480938804BF
:100BA000909389041123D9F080914B048823B9F0E4
:100BB0008091490490914A04019789F480914604F8
:100BC000DF91CF911F910F91FF90EF90DF90CF9029
:100BD000BF90AF909F908F907F906F9008951092EC
:100BE000960480E0EDCF6170BECF90E080E0089584
:100BF000CF93DF93EC0160E08E810E947D0361E082
:100C00008E810E947D0360E08E810E947D038BE8CF
:100C100091E00197F1F7DF91CF910895CF92DF92A4
:100C2000EF92FF920F931F93CF93DF936C017C01A0
:100C300087E0E80EF11CD0E0C0E0062F10E0B8011C
:100C40000C2E02C0759567950A94E2F76170F70162
:100C500081917F010E947D032196C430D10579F7EF
:100C6000C601DF91CF911F910F91FF90EF90DF9020
:100C7000CF900C94F805CF92DF92EF92FF920F93F2
:100C80001F93CF93DF93EC01F62E642F8C810E948B
:100C90007D038D818F3F19F060E00E947D030F2D51
:100CA00010E08F8584FF25C06E0187E0C80ED11C3F
:100CB000F12CE12CB8010E2C02C0759567950A94B1
:100CC000E2F76170F60181916F010E947D03FFEFF1
:100CD000EF1AFF0A88E0E816F10461F7CE01DF9110
:100CE000CF911F910F91FF90EF90DF90CF900C94D8
:100CF000F805B80184E0759567958A95E1F7CE010E
:100D00000E940E066F2DCE01DF91CF911F910F91A2
:100D1000FF90EF90DF90CF900C940E0640E0682F8C
:100D200089E994E00C943B0681E00E948E068BE3F7
:100D30009FE10197F1F70895CF93DF93823029F473
:100D40009091A80498609093A8048093AC041092AA
:100D5000AD0480E48093AE0480E18093AF0480E52D
:100D60008093B00461E080919D040E94AF03809164
:100D70009E048F3F19F061E00E94AF0361E0809113
:100D80009F040E94AF03C9E9D4E09E012959344071
:100D90008091A80484FD0BC084E090E02196281780
:100DA000390744F461E08E810E94AF03EECF88E002
:100DB00090E0F4CF8BE39DE00197F1F760E0809144
:100DC0009D040E947D0360E080919F040E947D034A
:100DD00080919E048F3F19F060E00E947D03809116
:100DE000A80484FD34C063E089E994E00E940E0603
:100DF000CBE4D6E4CE010197F1F763E089E994E012
:100E00000E940E062197F1F763E089E994E00E94C1
:100E10000E0683E592E00197F1F762E089E994E03C
:100E20000E940E068091A80480620E948E0684E0D3
:100E30008093A9048CE00E948E060E94940682E0B2
:100E40008093AA0486E0DF91CF910C948E06806295
:100E50000E948E068BE496E40197F1F78091A80436
:100E600080620E948E0683E592E00197F1F78091FF
:100E7000A80480620E948E06D5CF9091AC046917B9
:100E800010F06FEF690FE62FF0E0E756FB4F948903
:100E9000890F80680C948E0641E00E943B0681E039
:100EA00090E00895FC0101900020E9F73197AF012F
:100EB000481B590BBC0189E994E00C94AD010F93D8
:100EC0001F93CF93DF938C01EB01FC018081918113
:100ED0000097E1F06881798161157105A9F042817F
:100EE00053812C813D814217530770F00E94761187
:100EF0008C819D81F801958384831D821C82DF9102
:100F0000CF911F910F9108950E94FA0F88819981C6
:100F1000F801918380838A819B81938382838C8172
:100F20009D8195838483198218821B821A82E5CF62
:100F3000FC0180819181009711F00C94FA0F0895C3
:100F4000FC0124813581FB0144815581241735073B
:100F5000E1F4FC0180819181FB0160817181009746
:100F6000D1F061157105A1F4232BC1F0FC01808142
:100F700090E008C0232B91F0FB01808190E09195D7
:100F80008195910921E0892B09F020E0822F0895B5
:100F90000E946D11F7CF6115710561F721E0F6CF61
:100FA0000F931F93CF93DF93EC0188819981009772
:100FB00059F02A813B812617370730F081E0DF9115
:100FC000CF911F910F9108958B016F5F7F4F0E940A
:100FD0008310009759F0998388831B830A832C819F
:100FE0003D81232B59F7FC011082E8CF80E0E7CF49
:100FF000EF92FF920F931F93CF93DF93EC01FB01CE
:10100000E080F180E114F10411F1048115810115F2
:101010001105A9F08C819D81080F191FB801CE011F
:101020000E94D007882399F0288139818C819D8185
:10103000B701820F931F0E9476111D830C83CE018E
:10104000DF91CF911F910F91FF90EF9008958881CC
:101050009981009711F00E94FA0F198218821D825F
:101060001C821B821A82EBCFEF92FF920F931F9389
:10107000CF93DF93EC017B018A01BA010E94D00774
:1010800028813981811114C02115310519F0C90158
:101090000E94FA0F198218821D821C821B821A82FA
:1010A000CE01DF91CF911F910F91FF90EF900895A6
:1010B0001D830C83B701C9010E947611F1CFFB019A
:1010C00001900020E9F73197AF01461B570B0C94B4
:1010D00034080F931F93CF93DF93CDB7DEB7A2975A
:1010E0000FB6F894DEBF0FBECDBF8C01CB01BA01A5
:1010F000F8011182108213821282158214822AE072
:10110000AE014F5F5F4F0E94B20EBE016F5F7F4F17
:10111000C8010E945F08A2960FB6F894DEBF0FBE0A
:10112000CDBFDF91CF911F910F910895CF93DF93A2
:101130001F921F92CDB7DEB7FC011182108213827D
:1011400012821582148269831A82BE016F5F7F4FFB
:101150000E945F080F900F90DF91CF910895FC01DE
:10116000118210821382128215821482FB01019077
:101170000020E9F73197AF01461B570B0C94340858
:101180001F920F920FB60F9211240BB60F922F934E
:101190003F934F935F936F937F938F939F93AF93FF
:1011A000BF93EF93FF938DE593E00E942A02FF9196
:1011B000EF91BF91AF919F918F917F916F915F91CF
:1011C0004F913F912F910F900BBE0F900FBE0F903C
:1011D0001F9018951F920F920FB60F9211240BB605
:1011E0000F922F938F939F93EF93FF93E0916D0353
:1011F000F0916E038081E0917303F091740382FD9E
:101200001DC09081809176038F5F8F73209177034B
:10121000821741F0E0917603F0E0E35AFC4F958F9E
:1012200080937603FF91EF919F918F912F910F9073
:101230000BBE0F900FBE0F901F9018958081F2CFBC
:101240001F920F920FB60F9211242F933F938F93FB
:101250009F93AF93BF9380914F0390915003A091C0
:101260005103B091520330914E0323E0230F2D37E9
:1012700058F50196A11DB11D20934E0380934F0395
:1012800090935003A0935103B09352038091530362
:1012900090915403A0915503B09156030196A11D5E
:1012A000B11D8093530390935403A0935503B093BF
:1012B0005603BF91AF919F918F913F912F910F90C6
:1012C0000FBE0F901F90189526E8230F0296A11DC0
:1012D000B11DD2CF1092600310925F0388EE93E0AD
:1012E000A0E0B0E08093610390936203A093630356
:1012F000B093640386E392E090935E0380935D0372
:1013000085EC90E090936A038093690384EC90E00D
:1013100090936C0380936B0380EC90E090936E034A
:1013200080936D0381EC90E09093700380936F0342
:1013300082EC90E0909372038093710386EC90E0CE
:101340009093740380937303109276031092770343
:10135000109278031092790310929C0410929B04CF
:1013600082E592E090939A048093990486E38093B7
:101370009D048FEF80939E0487E380939F0488E30E
:101380008093A00489E38093A1048AE38093A2045C
:101390008BE38093A3041092A4041092A5041092EE
:1013A000A6041092A7041092A80481E00E949C0653
:1013B00010922C041092300410922F0410923104D9
:1013C00088E492E090932B0480932A04E6E4F4E00E
:1013D00082E894E0108214821382158236968E176A
:1013E0009F07C1F784E192E090938D0480938C0471
:1013F00080E192E090938F0480938E0484E0809348
:1014000090048093910488E192E090938B04809300
:101410008A048AE090E0909393048093920484EF8E
:1014200091E0909395048093940410929804109204
:1014300097041092860410928704109288041092E8
:101440008904109296046FE972E082E194E00E94B0
:10145000AF086FE972E088E194E00E94AF086FE99D
:1014600072E08EE194E00E94AF086FE972E084E2DE
:1014700094E00E94AF086AE772E08AEF93E00E946E
:10148000AF086AE572E080E094E00E94AF086CE586
:1014900072E086E094E00E94AF086EE572E08CE0B6
:1014A00094E00C94AF08CF93DF93CDB7DEB762978B
:1014B0000FB6F894DEBF0FBECDBF789484B58260BE
:1014C00084BD84B5816084BD85B5826085BD85B5E8
:1014D000816085BD80916E00816080936E00109266
:1014E00081008091810082608093810080918100E1
:1014F0008160809381008091800081608093800072
:101500008091B10084608093B1008091B0008160CF
:101510008093B000809191008260809391008091CF
:101520009100816080939100809190008160809310
:1015300090008091A10082608093A1008091A10021
:1015400081608093A1008091A00081608093A000C1
:10155000809121018260809321018091210181602D
:1015600080932101809120018160809320018091EE
:101570007A00846080937A0080917A008260809300
:101580007A0080917A00816080937A0080917A005D
:10159000806880937A001092C10080E40E948E06D9
:1015A00008E012E0F80161918F0189E994E00E945E
:1015B0004C07F2E000311F07A9F788E40E948E066D
:1015C00000E012E038E0E32E32E0F32EF801619102
:1015D0008F0189E994E00E944C07E016F106B1F70B
:1015E0000E9446046093590370935A0380935B03EF
:1015F00090935C0382E00E949C060E94940661E046
:101600008DE00E94AF03E0916D03F0916E0382E0E4
:101610008083E0916903F0916A031082E0916B038B
:10162000F0916C038FEC808310927503E09171034D
:10163000F091720386E08083E0916F03F091700374
:10164000808180618083E0916F03F09170038081DD
:1016500088608083E0916F03F091700380818068DF
:101660008083E0916F03F091700380818F7D808390
:101670008AE0882E912CA12CB12C94E0492E512C7B
:10168000612C712C26E0E22E0E944604AB01BC01C5
:101690008091590390915A03A0915B03B0915C0330
:1016A00088519C4FAF4FBF4F481759076A077B07B8
:1016B000E8F560E083E00E943D0780E692E00E944A
:1016C000520760E081E00E943D0760E089E994E014
:1016D0000E944C0760E08EE00E943D0760E089E9CF
:1016E00094E00E944C0761E080E00E943D078BE699
:1016F00092E00E9452078DE593E00E9414021816B2
:10170000190634F48DE593E00E94F20180935803AA
:101710008091580361E0853419F0813421F460E050
:101720008DE00E947D030E94B902AECF8417950719
:10173000A607B70700F70E94AE0460E080E00E94B1
:101740003D078CE792E00E94520761E080E00E9432
:101750003D078CE892E00E94520768E873E180E060
:1017600090E00E9414040E945A0EA50194010E9468
:10177000F30EAB01BC01CE0101960E946908BE01C7
:101780006F5F7F4F82E194E00E945F07CE01019678
:101790000E9498070E945A0EA50194010E94F30E20
:1017A000AB01BC01CE0101960E946908BE016F5FCA
:1017B0007F4F88E194E00E945F07CE0101960E946E
:1017C00098070E945A0EA30192010E94F30E1A82FA
:1017D00019821C821B821E821D82E69EF001E79EFA
:1017E000F00D1124E650FC4F608171816115710587
:1017F00031F044815581CE0101960E943408BE012A
:101800006F5F7F4F8EE194E00E945F07CE010196EB
:101810000E9498070E945A0EA30192010E94F30EA3
:101820001A8219821C821B821E821D82E69EF00192
:10183000E79EF00D1124E650FC4F60817181611527
:10184000710531F044815581CE0101960E94340822
:10185000BE016F5F7F4F84E294E00E945F07CE017C
:1018600001960E94980761E085E00E943D0780EAAA
:1018700092E00E94520761E08CE00E943D0782E105
:1018800094E00E94DA0161E08DE00E943D0788E16A
:1018900094E00E94DA0161E08EE00E943D078EE153
:1018A00094E00E94DA0161E08FE00E943D0784E24B
:1018B00094E00E94DA0168EE73E080E090E00E941C
:1018C00014046FE972E0CE010D960E94AF080E94E9
:1018D000940610E000E060E080E00E943D0788EAA6
:1018E00092E00E94520761E080E00E943D07CE0135
:1018F0000D960E94DA010E94AE04F82E8823D9F3D7
:10190000FAE28F133DC118861F821A8619861C863B
:101910001B866D857E856115710531F049895A896F
:10192000CE0107960E9434088B859C85049711F0A0
:10193000D12C68C070E060E0CE0107960E949A0149
:10194000FC016081CE0101960E94960862E174E07C
:10195000CE0101960E94A007D82ECE0101960E94CA
:101960009807DD2029F361E070E0CE0107960E9420
:101970009A01FC016081CE0101960E94960868E1FF
:1019800074E0CE0101960E94A007D82ECE010196E8
:101990000E949807DD2061F262E070E0CE010796B8
:1019A0000E949A01FC016081CE0101960E94960876
:1019B0006EE174E0CE0101960E94A007D82ECE0100
:1019C00001960E949807DD2009F4B2CF63E070E031
:1019D000CE0107960E949A01FC016081CE0101961A
:1019E0000E94960864E274E0CE0101960E94A0076E
:1019F000C82ECE0101960E949807DD24D394CC20F6
:101A000009F496CFCE0107960E949807DD20D1F108
:101A10000E94940660E080E00E943D0789EB92E01E
:101A20000E94520761E080E00E943D076CE972E08D
:101A3000CE0101960E94AF08BE01635F7F4FCE01C9
:101A400001960E94F8070E94DA01CE0101960E94D9
:101A5000980760ED77E080E090E00E9414040E9417
:101A6000940660E080E00E943D078AEC92E00E94CC
:101A7000520761E080E00E943D078BED92E00E94FA
:101A80005207EFCF0E94940660E080E00E943D077D
:101A900088EE92E00E94520761E080E00E943D07DC
:101AA0006CE972E0CE0101960E94AF08BE01635F4F
:101AB0007F4FCE0101960E94F8070E94DA01CE0105
:101AC00001960E9498070F5F1F4F6FE972E0CE01E9
:101AD0000D960E945F0860ED77E080E090E00E9444
:101AE00014040E94940689899A89059710F10E942E
:101AF000940660E080E00E943D078AEF92E00E9439
:101B0000520761E080E00E943D0786E093E00E947A
:101B1000520760ED77E080E090E00E9414046FE9E6
:101B200072E0CE010D960E945F080E9494060F5F3E
:101B30001F4F83E2F81621F0033011050CF4CBCED1
:101B400003301105D1F50E94940660E080E00E9408
:101B50003D0785E193E00E94520761E080E00E942A
:101B60003D0784E293E00E94520760ED77E080E059
:101B700090E00E941404CE010D960E949807BBCD00
:101B800089831A82C988DA88FFEFCF1ADF0AB60183
:101B9000CE010D960E94D007882309F4A4CF2D858D
:101BA0003E8589899A89BE016F5F7F4F820F931F9F
:101BB0000E947611DA8AC98A96CF0E94940660E064
:101BC00080E00E943D0786E393E00E94520761E0B7
:101BD00080E00E943D0783E493E0C5CF8CE094E071
:101BE0000E94980786E094E00E94980780E094E0C5
:101BF0000E9498078AEF93E00E94980784E294E09D
:101C00000E9498078EE194E00E94980788E194E092
:101C10000E94980782E194E00C9498078F929F921B
:101C2000AF92BF92CF92DF92EF92FF92CF93DF936A
:101C3000EC01688179818A819B816115710581053B
:101C4000910521F464E279ED8BE597E02DE133EF26
:101C500041E050E00E94F30E49015A019B01AC01A2
:101C6000A7EAB1E40E94120F6B017C01ACEEB4EF65
:101C7000A50194010E94200FC60ED71EE81EF91E72
:101C8000F7FE06C081E0C81AD108E10880E8F80A2A
:101C9000C882D982EA82FB82C701B6019F77DF91B1
:101CA000CF91FF90EF90DF90CF90BF90AF909F903B
:101CB0008F9008958F929F92AF92BF92CF92DF92B2
:101CC000EF92FF92609128027091290280912A027E
:101CD00090912B02611571058105910521F464E253
:101CE00079ED8BE597E02DE133EF41E050E00E9484
:101CF000F30E49015A019B01AC01A7EAB1E40E942D
:101D0000120F6B017C01ACEEB4EFA50194010E94AF
:101D1000200FC60ED71EE81EF91EF7FE06C081E092
:101D2000C81AD108E10880E8F80AC0922802D092C7
:101D30002902E0922A02F0922B02C701B6019F7796
:101D4000FF90EF90DF90CF90BF90AF909F908F90DB
:101D50000895609328027093290280932A02909339
:101D60002B020895BB272A3051F4992342F4BDE297
:101D700090958095709561957F4F8F4F9F4F0C94F4
:101D8000C20EBB27FA01A62F6217710581059105C6
:101D9000330B30FB66F0AA27660F771F881F991F49
:101DA000AA1FA21710F0A21B63953850A9F7A05DD7
:101DB000AA3308F0A95DA19336F7B111B19310824F
:101DC000CA010C94E30EDC01FC01672F71917723AB
:101DD000E1F7329704C07C916D9370836291AE17E6
:101DE000BF07C8F30895052E97FB1EF400940E94C8
:101DF0000A0F57FD07D00E94250F07FC03D04EF4B1
:101E00000C940A0F50954095309521953F4F4F4FB8
:101E10005F4F089590958095709561957F4F8F4F96
:101E20009F4F08950E94470FA59F900DB49F900D5E
:101E3000A49F800D911D11240895B7FF0C94120FDB
:101E40000E94120F821B930B0895A1E21A2EAA1B67
:101E5000BB1BFD010DC0AA1FBB1FEE1FFF1FA2175A
:101E6000B307E407F50720F0A21BB30BE40BF50B57
:101E7000661F771F881F991F1A9469F760957095E0
:101E8000809590959B01AC01BD01CF010895A29F63
:101E9000B001B39FC001A39F700D811D1124911D3E
:101EA000B29F700D811D1124911D0895EE0FFF1F2B
:101EB000881F8BBF0790F691E02D19940F931F9305
:101EC000CF93DF938230910510F482E090E0E091AF
:101ED000B304F091B40430E020E0B0E0A0E030972B
:101EE00099F42115310509F44AC0281B390B243017
:101EF0003105D8F58A819B816115710589F1FB0156
:101F000093838283FE0111C040815181028113813C
:101F100048175907E0F04817590799F4109761F0EE
:101F200012960C93129713961C933296CF01DF9161
:101F3000CF911F910F9108950093B3041093B404AF
:101F4000F4CF2115310551F04217530738F0A9019C
:101F5000DB019A01BD01DF01F801C1CFEF01F9CF2B
:101F60009093B4048093B304CDCFFE01E20FF31F2E
:101F7000819391932250310939832883D7CF2091BF
:101F8000B1043091B204232B41F420912E02309100
:101F90002F023093B2042093B10420912C0230918F
:101FA0002D022115310541F42DB73EB74091300285
:101FB00050913102241B350BE091B104F091B20431
:101FC000E217F307A0F42E1B3F0B2817390778F010
:101FD000AC014E5F5F4F2417350748F04E0F5F1F6F
:101FE0005093B2044093B104819391939FCFF0E05A
:101FF000E0E09CCFCF93DF930097E9F0FC013297AC
:1020000013821282A091B304B091B404ED0130E0C8
:1020100020E01097A1F420813181820F931F20913D
:10202000B1043091B2042817390709F061C0F09368
:10203000B204E093B104DF91CF910895EA01CE1785
:10204000DF07E8F54A815B819E0141155105B1F733
:10205000E901FB83EA8349915991C40FD51FEC171D
:10206000FD0761F4808191810296840F951FE9013B
:1020700099838883828193819B838A83F0E0E0E067
:1020800012968D919C9113970097B9F52D913C91E3
:102090001197CD010296820F931F2091B1043091C8
:1020A000B2042817390739F6309751F51092B40465
:1020B0001092B304B093B204A093B104BCCFD38305
:1020C000C28340815181840F951FC817D90761F4DD
:1020D0004E5F5F4F88819981480F591F518340831C
:1020E0008A819B81938382832115310509F0B0CFCA
:1020F000F093B404E093B3049ECFFD01DC01C0CFA4
:1021000013821282D7CF4F925F926F927F928F92FB
:102110009F92AF92BF92CF92DF92EF92FF920F9376
:102120001F93CF93DF938C01009799F4CB01DF913C
:10213000CF911F910F91FF90EF90DF90CF90BF90C4
:10214000AF909F908F907F906F905F904F900C9486
:102150005E0FFC01E60FF71F9C0122503109E217C8
:10216000F30708F4AEC0D901CD91DC911197C617E1
:10217000D70720F1C530D10578F0CE010497861736
:10218000970750F0C61BD70B2297C193D1936D933D
:102190007C93CF010E94FA0FC801DF91CF911F916C
:1021A0000F91FF90EF90DF90CF90BF90AF909F90F6
:1021B0008F907F906F905F904F9008955B01AC1A65
:1021C000BD0A4C018C0E9D1EA091B304B091B404C5
:1021D000512C412CF12CE12C109731F58091B10458
:1021E0009091B2048815990509F05CC0461657060F
:1021F00008F058C080912C0290912D02009741F474
:102200008DB79EB74091300250913102841B950BDF
:10221000E817F90708F055C0F093B204E093B10451
:10222000F90171836083B8CF8D919C9111971296BB
:102230006C90129713967C901397A815B90559F5D1
:102240006C0142E0C40ED11CCA14DB0420F1AC01C5
:102250004A195B09DA011296159780F0628273823F
:1022600051834083D9016D937C93E114F10471F0A3
:10227000D7011396FC93EE9312978ECF22968C0F74
:102280009D1FF90191838083F301EFCFF093B40494
:10229000E093B30481CF4816590608F42C017D0160
:1022A000D3019ACFCB010E945E0F7C01009749F0C9
:1022B000AE01B8010E946411C8010E94FA0F8701A3
:1022C0006BCF10E000E068CFFB01DC0102C00190A1
:1022D0000D9241505040D8F70895FB01DC018D91DB
:1022E000019080190110D9F3990B0895FB01DC01CD
:1022F00001900D920020E1F7089511E0C3E4D1E0D0
:1023000000E006C0802FFE010E94560F2196011D9D
:0E231000C434D10780E00807A9F7F894FFCF86
:10231E000A0A0A0000110E000E11111F1B1B1F00CE
:10232E0006070809020304053738394134353642A9
:10233E00313233432A302344010000000000B5043B
:10234E008000000000004C02AD01E301990214026E
:10235E00F201060200000000EB03AB037A0300005B
:10236E0000004C07AD01F505AC01420043004400EE
:10237E004269656E76656E69646F00477275706F3F
:10238E00332D53656363696F6E204100202A5553C8
:10239E00554152494F2A2020202020002020202065
:1023AE00202020202020202020202020202020003F
:1023BE00544F4B454E3A200044494749544520530B
:1023CE005520544F4B454E3A0020544F4B454E200E
:1023DE00434F52524543544F2000454E5452414EA6
:1023EE00444F205041525155454F002D206162728D
:1023FE0069656E646F202D00544F4B454E20494E3B
:10240E00434F52524543544F20004558434544458F
:10241E002053495A4500202044454C20544F4B45EB
:10242E004E20202000544F4B454E20494E56414CD5
:10243E0049444F004578636564696F203320696EA7
:10244E0074656E747300424F544F4E2043414E4399
:0E245E00454C0053452041435449564F000061
:00000001FF
