:100000000C9445010C9476010C9476010C947601C5
:100010000C9476010C9476010C9476010C94760184
:100020000C9476010C9476010C9476010C94760174
:100030000C9476010C943A070C9476010C9476019A
:100040000C9476010C9476010C9476010C94760154
:100050000C9476010C9476010C9476010C9458085B
:100060000C9476010C9422080C94F8070C947601F9
:100070000C9476010C9476010C9476010C94760124
:100080000C9476010C9476010C9476010C94760114
:100090000C94C2070C9498070C9476010C9476018A
:1000A0000C9476010C9476010C9476010C947601F4
:1000B0000C9476010C9476010C9476010C947601E4
:1000C0000C9476010C9476010C9476010C947601D4
:1000D0000C9476010C9476010C9476010C947601C4
:1000E0000C9476010C943E030C944A030C94380350
:1000F0000C94CD020C9465030C9479030C943E028D
:100100000C9453030C9430040C94A70C0C944D03E2
:100110000C945B040C9461030C94DC010C94570365
:100120000C9480020C949F010C945D030C945F046A
:100130000C94A0010C9430020C9433040C946B03C7
:100140000C9478030C9442030C9446030C94CD0158
:100150000C947D030C94A5050C94A2080C946F03D9
:100160000C947303000020002300260029002C00BB
:100170002F00320000010000030106010901000008
:100180002100240027002A002D0030003300010147
:100190000000040107010A010000220025002800D8
:1001A0002B002E003100340002010000050108017F
:1001B0000B010505050507050808080802020202EB
:1001C0000A0A0808040404040101010101010101F3
:1001D0000303030303030303040707070C0C0C0CBE
:1001E0000C0C0C0C020202020606060606060606A7
:1001F0000B0B0B0B0B0B0B0B010210202008081034
:100200002040102040800201020108040201010286
:10021000040810204080804020100804020180045F
:1002200002018040201008040201080402010102BA
:1002300004081020408001020408102040800000C3
:100240000A0B02090C0D0E08070304010000000050
:10025000000000000000000000000000000000009E
:10026000000000000000000000001211100000005B
:10027000000000000000000000000000000000007E
:10028000000000000200A208A70C11241FBECFEF3F
:10029000D1E2DEBFCDBF00E00CBF12E0A0E0B2E0D3
:1002A000EEE4F0E200E00BBF02C007900D92A03C2C
:1002B000B107D9F725E0A0ECB2E001C01D92A0344F
:1002C000B207E1F711E0C4E4D1E000E006C02197F5
:1002D0000109802FFE010E94EE0DC334D10780E09A
:1002E0000807A9F70E94910A0C9415100C940000BD
:1002F000FC01A089B18982E08C93A485B5851C920C
:10030000A685B7858FEC8C93108EA489B58986E07D
:100310008C93A289B3898C9180618C93A289B389D3
:100320008C9188608C93A289B3898C9180688C931E
:100330000288F389E02D80818F7D80830895089560
:10034000AF92BF92CF92DF92EF92FF920F931F93E3
:10035000CF93DF936C017B018B01040F151FEB0121
:100360005E01AE18BF08C017D10759F06991D601D8
:10037000ED91FC910190F081E02DC6011995892B3A
:1003800079F7C501DF91CF911F910F91FF90EF9009
:10039000DF90CF90BF90AF900895FC01538D448DB6
:1003A000252F30E0842F90E0821B930B541710F020
:1003B000CF96089501970895FC01918D828D98172D
:1003C00061F0A28DAE0FBF2FB11D5D968C91928D05
:1003D0009F5F9F73928F90E008958FEF9FEF089536
:1003E0002FB7F8948091E3029091E402A091E50286
:1003F000B091E6022FBF80938C0390938D03A0935E
:100400008E03B0938F0384E893E00E94DC0197FF92
:1004100026C02FB7F8948091E3029091E402A09156
:10042000E502B091E6022FBF40918C0350918D03FD
:1004300060918E0370918F03841B950BA60BB70BF5
:10044000409188035091890360918A0370918B03D6
:1004500084179507A607B707B0F28FEF9FEF0895AF
:10046000FC01918D828D981731F0828DE80FF11D7E
:10047000858D90E008958FEF9FEF0895FC01918D99
:10048000228D892F90E0805C9F4F821B91098F7392
:100490009927089587EE92E00E943E0221E0892B81
:1004A00009F420E0822F089584E893E00E943E0240
:1004B00021E0892B09F420E0822F0895FC01A48D0E
:1004C000A80FB92FB11DA35ABF4F2C91848D90E076
:1004D00001968F739927848FA689B7892C93A08959
:1004E000B1898C91837080648C93938D848D9813E3
:1004F00006C00288F389E02D80818F7D8083089576
:10050000EF92FF920F931F93CF93DF93EC0181E063
:10051000888F9B8D8C8D98131AC0E889F98980810A
:1005200085FF15C09FB7F894EE89FF896083E8893D
:10053000F98980818370806480839FBF81E090E02F
:10054000DF91CF911F910F91FF90EF900895F62EBC
:100550000B8D10E00F5F1F4F0F731127E02E8C8D56
:100560008E110CC00FB607FCFACFE889F98980819B
:1005700085FFF5CFCE010E945E02F1CFEB8DEC0F2F
:10058000FD2FF11DE35AFF4FF0829FB7F8940B8FB8
:10059000EA89FB8980818062CFCFCF93DF93EC0122
:1005A000888D8823B9F0AA89BB89E889F9898C915B
:1005B00085FD03C0808186FD0DC00FB607FCF7CF17
:1005C0008C9185FFF2CF808185FFEDCFCE010E9417
:1005D0005E02E9CFDF91CF91089580E090E0892B12
:1005E00029F00E94540281110E94000080E090E0F6
:1005F000892B29F00E944A0281110E94000080E0AC
:1006000090E0892B49F080E090E0892B29F00E944E
:10061000000081110E94000080E090E0892B49F0E9
:1006200080E090E0892B29F00E94000081110C9459
:10063000000008958150823108F05AC0E82FF0E0A0
:100640008827EA5DFC4F8F4F0C94EE0D46034A035A
:1006500038033E03420378034D03530357035D03FE
:10066000610365036B036F037803730379037D03F1
:10067000809180008F778093800008958091800022
:100680008F7DF9CF80918000877FF5CF84B58F77FC
:1006900084BD089584B58F7DFBCF8091B0008F77A6
:1006A0008093B00008958091B0008F7DF9CF809144
:1006B00090008F77809390000895809190008F7DB7
:1006C000F9CF80919000877FF5CF8091A0008F7740
:1006D0008093A00008958091A0008F7DF9CF809134
:1006E000A000877FF5CF809120018F778093200134
:1006F0000895809120018F7DF9CF80912001877F1F
:10070000F5CF1F93CF93DF93282F30E0F901E25C00
:10071000FD4F8491F901E850FE4FD491F901EE5458
:10072000FE4FC491CC23A9F0162F81110E941A0309
:10073000EC2FF0E0EE0FFF1FE856FE4FA591B491AD
:100740008FB7F894EC91111108C0D095DE23DC939B
:100750008FBFDF91CF911F910895DE2BF8CF90913D
:10076000000289130DC0E4E8F2E0E4919FEF90935A
:100770000002E230E1F038F4EE2381F0E13089F05C
:1007800060E00C948103E43049F110F1E530C1F7E9
:10079000909173009D7F90937300F2CF10926E0042
:1007A000EFCF90916F009D7F90936F00E9CF909174
:1007B00070009D7F9093700091E09093B0009091B5
:1007C000B100987F94609093B1001092B300D8CF9D
:1007D000909171009D7F90937100D2CF90917200A3
:1007E0009D7F90937200CCCFCF93DF9390E0FC017C
:1007F000E850FE4F24918E549E4FFC018491882333
:10080000C9F090E0880F991FFC01E258FE4FA591B6
:10081000B491FC01E856FE4FC591D49161110DC011
:100820009FB7F8948C91209582238C9388812823FC
:1008300028839FBFDF91CF910895623051F49FB715
:10084000F8943C91822F809583238C93E8812E2B02
:10085000EFCF8FB7F894EC912E2B2C938FBFEACF6C
:1008600090E080E00895CF93DF9370E0FB01E25CBD
:10087000FD4F8491FB01E850FE4FD4916E547E4FA2
:10088000FB01C491CC23A1F081110E941A03EC2F2B
:10089000F0E0EE0FFF1FEC59FE4FA591B491EC91E3
:1008A000ED2381E090E009F480E0DF91CF9108959D
:1008B00080E090E0FACF862F642F0C948103862F7E
:1008C000642F0C94F403CF93DF93EC0160E08E81EE
:1008D0000E94810361E08E810E94810360E08E812D
:1008E0000E9481038BE891E00197F1F7DF91CF91AE
:1008F0000895CF92DF92EF92FF920F931F93CF93C1
:10090000DF936C017C0187E0E80EF11CD0E0C0E0D1
:10091000062F10E0B8010C2E02C0759567950A9459
:10092000E2F76170F70181917F010E9481032196B6
:10093000C430D10579F7C601DF91CF911F910F9196
:10094000FF90EF90DF90CF900C946304CF92DF92F2
:10095000EF92FF920F931F93CF93DF93EC01F62E4C
:10096000642F8C810E9481038D818F3F19F060E09C
:100970000E9481030F2D10E08F8584FF25C06E013A
:1009800087E0C80ED11CF12CE12CB8010E2C02C05E
:10099000759567950A94E2F76170F60181916F0190
:1009A0000E948103FFEFEF1AFF0A88E0E816F104C6
:1009B00061F7CE01DF91CF911F910F91FF90EF90E2
:1009C000DF90CF900C946304B80184E0759567952F
:1009D0008A95E1F7CE010E9479046F2DCE01DF9157
:1009E000CF911F910F91FF90EF90DF90CF900C94DB
:1009F000790440E0682F80EF94E00C94A604CF9334
:100A0000DF93823029F49091FF0498609093FF0463
:100A1000809303051092040580E48093050580E12E
:100A20008093060580E58093070561E08091F404DA
:100A30000E94F4038091F5048F3F19F061E00E9459
:100A4000F40361E08091F6040E94F403C0EFD4E067
:100A50009E01205F34408091FF0484FD0BC084E040
:100A600090E021962817390744F461E08E810E94B6
:100A7000F403EECF88E090E0F4CF8BE39DE00197A4
:100A8000F1F760E08091F4040E94810360E08091BE
:100A9000F6040E9481038091F5048F3F19F060E015
:100AA0000E9481038091FF0484FD39C063E080EFE0
:100AB00094E00E947904CBE4D6E4CE010197F1F7EB
:100AC00063E080EF94E00E9479042197F1F763E0FE
:100AD00080EF94E00E94790483E592E00197F1F7BA
:100AE00062E080EF94E00E9479048091FF048062CC
:100AF0000E94F90484E0809300058CE00E94F904D0
:100B000081E00E94F9048BE39FE10197F1F782E015
:100B10008093010586E0DF91CF910C94F904806207
:100B20000E94F9048BE496E40197F1F78091FF04A9
:100B300080620E94F90483E592E00197F1F78091C9
:100B4000FF0480620E94F904D0CF41E00E94A60415
:100B500081E090E00895FB0101900020E9F73197D2
:100B6000AF01461B570B0C94A0018F929F92AF923E
:100B7000BF920F931F93CF93DF93CDB7DEB7A197AB
:100B80000FB6F894DEBF0FBECDBF19A2423008F4F5
:100B90004AE08E010F5D1F4F842E912CB12CA12CA9
:100BA000A50194010E94BD0DE62FB901CA01EA30EA
:100BB00004F5E05DD801EE938D01232B242B252B2A
:100BC00079F790E080E0109729F0BD0184E893E088
:100BD0000E94AB05A1960FB6F894DEBF0FBECDBF45
:100BE000DF91CF911F910F91BF90AF909F908F9009
:100BF0000895E95CDFCFCF92DF92EF92FF92CF931F
:100C0000DF936B017C016DE284E893E00E94800237
:100C1000EC0166277727CB016C197D098E099F09A6
:100C20004AE00E94B5058C0F9D1FDF91CF91FF9088
:100C3000EF90DF90CF900895CF93DF93EC01888100
:100C40009981009711F00E94920E198218821D82DC
:100C50001C821B821A82DF91CF910895FC01808152
:100C60009181009711F00C94920E08950F931F93A9
:100C7000CF93DF93EC0188819981009759F02A8105
:100C80003B812617370730F081E0DF91CF911F912C
:100C90000F9108958B016F5F7F4F0E941B0F00978C
:100CA00059F0998388831B830A832C813D81232BF0
:100CB00059F7FC011082E8CF80E0E7CFEF92FF9276
:100CC0000F931F93CF93DF93EC017B018A01BA014D
:100CD0000E94360681110BC0CE010E941C06CE0177
:100CE000DF91CF911F910F91FF90EF9008951D8399
:100CF0000C83B701888199810E940E10F0CFCF93A9
:100D0000DF93EC01FB018617970749F06081718141
:100D10006115710541F0448155810E945E06CE0146
:100D2000DF91CF9108950E941C06F9CFFC0111823A
:100D300010821382128215821482FB01019000201E
:100D4000E9F73197AF01461B570B0C945E068F9263
:100D50009F92AF92BF92CF92DF92EF92FF920F934A
:100D60001F93CF93DF93EC018B01FB01C480D580EF
:100D7000D60111972FEF3FEFB12CA12C90E080E02E
:100D800070E060E0A817B9072CF14617570734F157
:100D9000FC0131967F018C159D0560F4F80180807F
:100DA00091808114910431F0F401E80FF91FE08182
:100DB000EC3219F0A817B90759F46F5F7F4F59014A
:100DC000FFEFAF1ABF0A9701A817B90709F09C01F6
:100DD000C701D8CF461757070CF046C069012A153E
:100DE0003B0510F06501590169EB72E0CE010E94EC
:100DF0009606F801E480F580CE14DF0418F5AE14F1
:100E0000BF0408F47501F80160817181FB01EE0DEA
:100E1000FF1DB08010826C0D7D1D6115710501F103
:100E2000FB0101900020E9F73197AF01461B570BFA
:100E3000CE010E945E06F80180819181E80EF91EC4
:100E4000F701B082CE01DF91CF911F910F91FF90FA
:100E5000EF90DF90CF90BF90AF909F908F900895CC
:100E6000CE010E941C06E7CF69EB72E0CE010E9422
:100E70009606E8CF1F920F920FB60F9211240BB671
:100E80000F922F933F934F935F936F937F938F9323
:100E90009F93AF93BF93EF93FF938091DF02909165
:100EA000E002A091E102B091E202892B8A2B8B2B08
:100EB000D1F19091DE02809100008927809300009B
:100EC0008091DF029091E002A091E102B091E202F4
:100ED000181619061A061B069CF48091DF029091E1
:100EE000E002A091E102B091E2020197A109B109EB
:100EF0008093DF029093E002A093E102B093E202BC
:100F0000FF91EF91BF91AF919F918F917F916F91E1
:100F10005F914F913F912F910F900BBE0F900FBE9D
:100F20000F901F901895809100020E94AF03E8CFA8
:100F30001F920F920FB60F9211240BB60F922F93A0
:100F40003F934F935F936F937F938F939F93AF9351
:100F5000BF93EF93FF9387EE92E00E945E02FF91B2
:100F6000EF91BF91AF919F918F917F916F915F9121
:100F70004F913F912F910F900BBE0F900FBE0F908E
:100F80001F9018951F920F920FB60F9211240BB657
:100F90000F922F938F939F93EF93FF93E091F7021C
:100FA000F091F8028081E091FD02F091FE0282FD55
:100FB0001DC09081809100038F5F8F73209101038A
:100FC000821741F0E0910003F0E0E951FD4F958F69
:100FD00080930003FF91EF919F918F912F910F903C
:100FE0000BBE0F900FBE0F901F9018958081F2CF0F
:100FF0001F920F920FB60F9211240BB60F922F93E0
:101000003F934F935F936F937F938F939F93AF9390
:10101000BF93EF93FF9384E893E00E945E02FF91F9
:10102000EF91BF91AF919F918F917F916F915F9160
:101030004F913F912F910F900BBE0F900FBE0F90CD
:101040001F9018951F920F920FB60F9211240BB696
:101050000F922F938F939F93EF93FF93E0919403BD
:10106000F09195038081E0919A03F0919B0382FDBA
:101070001DC0908180919D038F5F8F7320919E038F
:10108000821741F0E0919D03F0E0EC57FC4F958F03
:1010900080939D03FF91EF919F918F912F910F90DE
:1010A0000BBE0F900FBE0F901F9018958081F2CF4E
:1010B0001F920F920FB60F9211242F933F938F938D
:1010C0009F93AF93BF938091E3029091E402A0912C
:1010D000E502B091E6023091DD0223E0230F2D37C7
:1010E00058F50196A11DB11D2093DD028093E30206
:1010F0009093E402A093E502B093E6028091D902B6
:101100009091DA02A091DB02B091DC020196A11D60
:10111000B11D8093D9029093DA02A093DB02B093C1
:10112000DC02BF91AF919F918F913F912F910F90D2
:101130000FBE0F901F90189526E8230F0296A11D51
:10114000B11DD2CF0F931F93CF93DF931092EA027A
:101150001092E90248EE53E060E070E04093EB0249
:101160005093EC026093ED027093EE0287E392E0FD
:101170009093E8028093E7022DEC30E03093F40284
:101180002093F3022CEC30E03093F6022093F5022A
:1011900028EC30E03093F8022093F70229EC30E09D
:1011A0003093FA022093F9022AEC30E03093FC02EB
:1011B0002093FB022EEC30E03093FE022093FD02E0
:1011C0001092000310920103109202031092030385
:1011D00010928703109286034093880350938903EB
:1011E00060938A0370938B039093850380938403A9
:1011F00085EC90E0909391038093900384EC90E0D1
:10120000909393038093920380EC90E090939503E6
:101210008093940381EC90E09093970380939603DE
:1012200082EC90E0909399038093980386EC90E091
:1012300090939B0380939A0310929D0310929E03B8
:1012400010929F031092A00310922D0510922C056E
:10125000109223051092220510923805109239053C
:1012600010923A0510923B0508E210E01093290510
:101270000093280582E490E090932F0580932E053B
:1012800083E490E0909331058093300584E490E00E
:10129000909333058093320585E490E09093350573
:1012A0008093340561E082E40E94F40361E0809160
:1012B00030050E94F40361E0809132050E94F4033E
:1012C00061E0809134050E94F4031092370510927A
:1012D0003605C4E0D0E0D0932B05C0932A051092C8
:1012E000130510921205109209051092080510922C
:1012F0001E0510921F0510922005109221051093D3
:101300000F0500930E058EE390E0909315058093F2
:1013100014058FE390E0909317058093160580E401
:1013200090E0909319058093180581E490E09093E4
:101330001B0580931A0561E08EE30E94F40361E0CF
:10134000809116050E94F40361E0809118050E94C7
:10135000F40361E080911A050E94F40310921D05C8
:1013600010921C05D0931105C09310051092F30440
:101370001092F20483E592E09093F1048093F004DC
:1013800086E38093F4048FEF8093F50487E38093E2
:10139000F60488E38093F70489E38093F8048AE3F2
:1013A0008093F9048BE38093FA041092FB0410926B
:1013B000FC041092FD041092FE041092FF0481E0E0
:1013C0000E94FF0469EB72E08AEE94E00E949606A8
:1013D0006BE572E084EE94E00E94960664E772E0AA
:1013E0008EED94E00E94960661E672E088ED94E04E
:1013F0000E94960668E672E082ED94E00E949606EE
:101400006EE672E086EC94E00E94960669E772E070
:101410008CEC94E00E94960665E872E080EC94E023
:101420000E9496061092530410925704109256048C
:101430001092580489E492E09093520480935104EE
:10144000EDE6F4E089EA94E01082148213821582BA
:1014500036968E179F07C1F785E192E09093B4040A
:101460008093B30481E192E09093B6048093B50435
:1014700084E08093B7048093B80489E192E090936C
:10148000B2048093B1048AE090E09093BA04809310
:10149000B90484EF91E09093BC048093BB04109254
:1014A000BF041092BE041092AD041092AE041092CC
:1014B000AF041092B0041092BD0469EB72E089E3AE
:1014C00094E00E94960669EB72E08FE394E00E943C
:1014D000960669EB72E085E494E00E94960669EB5B
:1014E00072E08BE494E00E9496066CE972E081E27F
:1014F00094E00E9496066EE972E087E294E00E9412
:10150000960660EA72E08DE294E00E94960662EA36
:1015100072E083E394E0DF91CF911F910F910C94DF
:101520009606CF93DF93CDB7DEB762970FB6F894E8
:10153000DEBF0FBECDBF789484B5826084BD84B514
:10154000816084BD85B5826085BD85B5816085BDBE
:1015500080916E00816080936E0010928100809176
:1015600081008260809381008091810081608093FE
:101570008100809180008160809380008091B10023
:1015800084608093B1008091B00081608093B0004E
:1015900080919100826080939100809191008160A0
:1015A0008093910080919000816080939000809161
:1015B000A10082608093A1008091A100816080934E
:1015C000A1008091A00081608093A0008091210102
:1015D00082608093210180912101816080932101AB
:1015E0008091200181608093200180917A00846045
:1015F00080937A0080917A00826080937A00809153
:101600007A00816080937A0080917A00806880936C
:101610007A001092C10061E08DE00E94F40361E065
:1016200086E10E94F40361E087E10E94F40361E037
:1016300085E30E94F40385E30E94AF0380E40E94E7
:10164000F90409E012E081E1E82E82E0F82EF801C9
:1016500061918F0180EF94E00E94A505E016F106EC
:10166000B1F788E40E94F90401E012E0F801619109
:101670008F0180EF94E00E94A505F2E009301F077A
:10168000A9F78FB7F8944091E3025091E40260917A
:10169000E5027091E6028FBF82E00E94FF0481E0C4
:1016A0000E94F9048BE39FE10197F1F780917B00A1
:1016B000877F80937B0086E480937C0080917A0012
:1016C000806480937A0080917A0086FDFCCF8091BF
:1016D000780060917900762F682F072E000C880B18
:1016E000990B611571058105910511F00E94820D1C
:1016F00084E893E00E94780187EE92E00E947801EE
:1017000084E893E00E943E02181619060CF0A9C066
:1017100069EB72E0CE0101960E9496060E94F001EC
:1017200097FD1BC08F8318860D811E810F5F1F4F91
:10173000B801CE0101960E943606882379F32981EB
:101740003A818D819E81BE01695F7F4F820F931F19
:101750000E940E101E830D83E1CF8091EA049091C8
:10176000EB04009709F482C069817A8161157105E3
:1017700009F47AC04091EC045091ED042D813E8132
:101780004217530708F470C00E940E108D819E818D
:101790009093EF048093EE041E821D82CE01019689
:1017A0000E942E061A8219821C821B821E821D82B2
:1017B0006AEE74E0CE0101960E947F0650E040E0A0
:1017C000BE016F5F7F4FCE010D960E94A706CE012E
:1017D00001960E942E061A8219821C821B821E828A
:1017E0001D826AEE74E0CE0101960E947F0641E000
:1017F00050E0BE016F5F7F4FCE0107960E94A706A3
:10180000CE0101960E942E068B859C85892B09F1BD
:101810000F81188562E972E0C8010E940510892BCA
:10182000E1F564EA72E084E893E00E94AB0567EBBF
:1018300072E084E893E00E94AB0564EA72E087EE10
:1018400092E00E94AB0567EB72E087EE92E00E94A7
:10185000AB05CE0107960E942E06CE010D960E9482
:101860002E060E94ED024CCF0E94920E89819A8131
:101870009093EB048093EA048B819C819093ED0418
:101880008093EC048D819E819093EF048093EE040D
:101890001A8219821C821B827FCF6AEB72E0C80118
:1018A0000E940510892BA9F61A8219821C821B82BC
:1018B0001E821D82BE01635F7F4FCE0101960E9492
:1018C0007F06CD80DE80E980FA8006EC14E0B12C42
:1018D000F801848195818C159D05F1F480819181B9
:1018E000009751F0E114F10471F5C114D10491F0A5
:1018F000FC01808190E00CC0E114F10459F0C114A6
:10190000D10441F0F701808190E091958195910992
:10191000892B11F4BB24B3940A5F1F4FF4E0023DFE
:101920001F07B1F64AE061E070E080E090E0B1109E
:1019300003C060E070E0CB010E94B505CE010196C6
:101940000E942E0686CFB7010E940510E1CF83E3E7
:1019500094E00E942E068DE294E00E942E0687E21B
:1019600094E00E942E0681E294E00E942E068BE411
:1019700094E00E942E0685E494E00E942E068FE3F8
:1019800094E00E942E0689E394E00E942E0680ECEB
:1019900094E00E942E068CEC94E00E942E0686ECC9
:1019A00094E00E942E0682ED94E00E942E0688EDBF
:1019B00094E00E942E068EED94E00E942E0684EEA6
:1019C00094E00E942E068AEE94E00C942E068F92EC
:1019D0009F92AF92BF92CF92DF92EF92FF92CF93FE
:1019E000DF93EC01688179818A819B8161157105A2
:1019F0008105910521F464E279ED8BE597E02DE115
:101A000033EF41E050E00E948B0D49015A019B01E8
:101A1000AC01A7EAB1E40E94AA0D6B017C01ACEE17
:101A2000B4EFA50194010E94B80DC60ED71EE81EA2
:101A3000F91EF7FE06C081E0C81AD108E10880E867
:101A4000F80AC882D982EA82FB82C701B6019F7771
:101A5000DF91CF91FF90EF90DF90CF90BF90AF904C
:101A60009F908F9008958F929F92AF92BF92CF9246
:101A7000DF92EF92FF926091290270912A02809189
:101A80002B0290912C02611571058105910521F4BD
:101A900064E279ED8BE597E02DE133EF41E050E032
:101AA0000E948B0D49015A019B01AC01A7EAB1E4E8
:101AB0000E94AA0D6B017C01ACEEB4EFA50194016C
:101AC0000E94B80DC60ED71EE81EF91EF7FE06C00E
:101AD00081E0C81AD108E10880E8F80AC09229021A
:101AE000D0922A02E0922B02F0922C02C701B6019A
:101AF0009F77FF90EF90DF90CF90BF90AF909F9037
:101B00008F9008956093290270932A0280932B028C
:101B100090932C020895052E97FB1EF400940E94CA
:101B2000A20D57FD07D00E94BD0D07FC03D04EF457
:101B30000C94A20D50954095309521953F4F4F4FF5
:101B40005F4F089590958095709561957F4F8F4F69
:101B50009F4F08950E94DF0DA59F900DB49F900D9B
:101B6000A49F800D911D11240895B7FF0C94AA0D18
:101B70000E94AA0D821B930B0895A1E21A2EAA1BA4
:101B8000BB1BFD010DC0AA1FBB1FEE1FFF1FA2172D
:101B9000B307E407F50720F0A21BB30BE40BF50B2A
:101BA000661F771F881F991F1A9469F760957095B3
:101BB000809590959B01AC01BD01CF010895A29F36
:101BC000B001B39FC001A39F700D811D1124911D11
:101BD000B29F700D811D1124911D0895EE0FFF1FFE
:101BE000881F8BBF0790F691E02D19940F931F93D8
:101BF000CF93DF938230910510F482E090E0E09182
:101C00003E05F0913F0530E020E0B0E0A0E03097E5
:101C100099F42115310509F44AC0281B390B2430E9
:101C20003105D8F58A819B816115710589F1FB0128
:101C300093838283FE0111C040815181028113810F
:101C400048175907E0F04817590799F4109761F0C1
:101C500012960C93129713961C933296CF01DF9134
:101C6000CF911F910F91089500933E0510933F056A
:101C7000F4CF2115310551F04217530738F0A9016F
:101C8000DB019A01BD01DF01F801C1CFEF01F9CFFE
:101C900090933F0580933E05CDCFFE01E20FF31FE9
:101CA000819391932250310939832883D7CF209192
:101CB0003C0530913D05232B41F420912F023091BA
:101CC000300230933D0520933C0520912D02309148
:101CD0002E022115310541F42DB73EB74091310256
:101CE00050913202241B350BE0913C05F0913D05EB
:101CF000E217F307A0F42E1B3F0B2817390778F0E3
:101D0000AC014E5F5F4F2417350748F04E0F5F1F41
:101D100050933D0540933C05819391939FCFF0E014
:101D2000E0E09CCFCF93DF930097E9F0FC0132977E
:101D300013821282A0913E05B0913F05ED0130E083
:101D400020E01097A1F420813181820F931F209110
:101D50003C0530913D052817390709F061C0F09323
:101D60003D05E0933C05DF91CF910895EA01CE1740
:101D7000DF07E8F54A815B819E0141155105B1F706
:101D8000E901FB83EA8349915991C40FD51FEC17F0
:101D9000FD0761F4808191810296840F951FE9010E
:101DA00099838883828193819B838A83F0E0E0E03A
:101DB00012968D919C9113970097B9F52D913C91B6
:101DC0001197CD010296820F931F20913C0530910F
:101DD0003D052817390739F6309751F510923F0520
:101DE00010923E05B0933D05A0933C05BCCFD38334
:101DF000C28340815181840F951FC817D90761F4B0
:101E00004E5F5F4F88819981480F591F51834083EE
:101E10008A819B81938382832115310509F0B0CF9C
:101E2000F0933F05E0933E059ECFFD01DC01C0CF5E
:101E300013821282D7CF4F925F926F927F928F92CE
:101E40009F92AF92BF92CF92DF92EF92FF920F9349
:101E50001F93CF93DF938C01009799F4CB01DF910F
:101E6000CF911F910F91FF90EF90DF90CF90BF9097
:101E7000AF909F908F907F906F905F904F900C9459
:101E8000F60DFC01E60FF71F9C0122503109E21705
:101E9000F30708F4AEC0D901CD91DC911197C617B4
:101EA000D70720F1C530D10578F0CE010497861709
:101EB000970750F0C61BD70B2297C193D1936D9310
:101EC0007C93CF010E94920EC801DF91CF911F91A8
:101ED0000F91FF90EF90DF90CF90BF90AF909F90C9
:101EE0008F907F906F905F904F9008955B01AC1A38
:101EF000BD0A4C018C0E9D1EA0913E05B0913F0580
:101F0000512C412CF12CE12C109731F580913C059E
:101F100090913D058815990509F05CC04616570655
:101F200008F058C080912D0290912E02009741F444
:101F30008DB79EB74091310250913202841B950BB0
:101F4000E817F90708F055C0F0933D05E0933C050C
:101F5000F90171836083B8CF8D919C91119712968E
:101F60006C90129713967C901397A815B90559F5A4
:101F70006C0142E0C40ED11CCA14DB0420F1AC0198
:101F80004A195B09DA011296159780F06282738212
:101F900051834083D9016D937C93E114F10471F076
:101FA000D7011396FC93EE9312978ECF22968C0F47
:101FB0009D1FF90191838083F301EFCFF0933F05DB
:101FC000E0933E0581CF4816590608F42C017D01A7
:101FD000D3019ACFCB010E94F60D7C01009749F006
:101FE000AE01B8010E94FC0FC8010E94920E870149
:101FF0006BCF10E000E068CFFB01DC0102C0019074
:102000000D9241505040D8F70895FB01DC018D91AD
:10201000019080190110D9F3990B0895FB01DC019F
:1020200001900D920020E1F7089511E0C4E4D1E0A1
:1020300000E006C0802FFE010E94EE0D2196011DDA
:0E204000C534D10780E00807A9F7F894FFCF58
:10204E00FF0A0A0A0000110E000E11111F1B1B1FA2
:10205E0000060708090203040537383941343536BE
:10206E0042313233432A3023440100000000004045
:10207E00058000000000008002A001CD01CD023ECF
:10208E0002DC013002000000005F045B0433040038
:10209E00000000A505A00130049F0161646D696E0A
:1020AE000061646D696E3200313233343200616426
:1020BE006D696E2D3132333400736172612D73612F
:1020CE0072697461004564756172646F2D313233CB
:1020DE00342C52454749535452415200410042005C
:1020EE00430044004573746F7920656E20726567F6
:1020FE00697374726172000D0A004C4F47494E00AD
:00000001FF
