:020000040000FA
:100000000C9459010C948A010C948A010C948A0175
:100010000C948A010C948A010C948A010C948A0134
:100020000C948A010C948A010C948A010C948A0124
:100030000C948A010C94DE0F0C948A010C948A01B2
:100040000C948A010C948A010C948A010C948A0104
:100050000C948A010C948A010C948A010C94FE1071
:100060000C948A010C94C8100C949E100C948A0174
:100070000C948A010C948A010C948A010C948A01D4
:100080000C948A010C948A010C948A010C948A01C4
:100090000C9468100C943E100C948A010C948A0104
:1000A0000C948A010C948A010C948A010C948A01A4
:1000B0000C948A010C948A010C948A010C948A0194
:1000C0000C948A010C948A010C948A010C948A0184
:1000D0000C948A010C948A010C948A010C948A0174
:1000E0000C948A010C9497020C9422040C946906D7
:1000F0000C946A030C9461030C9454090C94790CCD
:100100000C946E030C948C090C9474030C94481199
:100110000C947C030C9464030C9434090C94E40256
:100120000C94220A0C946C090C9492090C94F7011B
:100130000C9442090C942A1B0C945D030C94F1035B
:100140000C9478030C947E090C9424020C948A037A
:100150000C9490030C946E090C9494030C942A094B
:100160000C9482030C9447020C9433020C945502B5
:100170000C94E8010C944F030C948F030C948603A9
:100180000C9459030C9474090C945503000021003D
:10019000240027002A002D00300033000101000058
:1001A000040107010A0100002000230026002900A5
:1001B0002C002F003200000100000301060109019C
:1001C00000000A0B02090C0D0E08070304010000D1
:1001D000000000000000000000000000000000001F
:1001E00000000000000000000000000012111000DC
:1001F00000000000000000000000000000000000FF
:10020000000000000000010210202008081020401B
:1002100010204080020102010804020101020408CA
:100220001020408080402010080402018004020158
:1002300080402010080402010804020101020408A1
:10024000102040800102040810204080000022009D
:10025000250028002B002E00310034000201000090
:10026000050108010B010505050507050808080833
:10027000020202020A0A080804040404010101013E
:100280000101010103030303030303030407070739
:100290000C0C0C0C0C0C0C0C0202020206060606DE
:1002A000060606060B0B0B0B0B0B0B0B0200481183
:1002B0002A1B11241FBECFEFD1E2DEBFCDBF00E06D
:1002C0000CBF14E0A0E0B2E0ECECFEE300E00BBFFA
:1002D00002C007900D92A83EB107D9F729E0A8EE19
:1002E000B4E001C01D92AD3FB207E1F711E0C8E5EF
:1002F000D1E000E006C021970109802FFE010E9495
:10030000191DC735D10780E00807A9F70E941E1400
:100310000C94541F0C940000FC01A089B18982E068
:100320008C93A485B5851C92A685B7858FEC8C939C
:10033000108EA489B58986E08C93A289B3898C91AB
:1003400080618C93A289B3898C9188608C93A289F7
:10035000B3898C9180688C930288F389E02D808129
:100360008F7D8083089596E0899FD0011124AE513E
:10037000B84F90967C936E935F9791E091969C9383
:100380009197E0914F08F091500890914E08992371
:1003900039F0309751F0811108C08091FE0719940F
:1003A000309719F05C968C91FACF0895FC01248166
:1003B00035816217730720F480819181009729F4B9
:1003C0001092710581E795E00895860F971F0895B3
:1003D0000895DB0114964D915C9115976D917C9178
:1003E000DC01ED91FC910280F381E02D1994AF9234
:1003F000BF92CF92DF92EF92FF920F931F93CF9312
:10040000DF936C017B018B01040F151FEB015E0173
:10041000AE18BF08C017D10759F06991D601ED9108
:10042000FC910190F081E02DC6011995892B79F797
:10043000C501DF91CF911F910F91FF90EF90DF9059
:10044000CF90BF90AF900895FC01538D448D252F20
:1004500030E0842F90E0821B930B541710F0CF965E
:10046000089501970895FC01918D828D981761F090
:10047000A28DAE0FBF2FB11D5D968C91928D9F5FA7
:100480009F73928F90E008958FEF9FEF0895FC0186
:10049000918D828D981731F0828DE80FF11D858D39
:1004A00090E008958FEF9FEF0895FC01918D228DCC
:1004B000892F90E0805C9F4F821B91098F73992751
:1004C000089580EC95E00E94550221E0892B09F403
:1004D00020E0822F08958DE596E00E94550221E0EC
:1004E000892B09F420E0822F0895FC01A48DA80F28
:1004F000B92FB11DA35ABF4F2C91848D90E0019666
:100500008F739927848FA689B7892C93A089B18985
:100510008C91837080648C93938D848D981306C026
:100520000288F389E02D80818F7D80830895EF928A
:10053000FF920F931F93CF93DF93EC0181E0888F9D
:100540009B8D8C8D98131AC0E889F989808185FF6D
:1005500015C09FB7F894EE89FF896083E889F9890F
:1005600080818370806480839FBF81E090E0DF9111
:10057000CF911F910F91FF90EF900895F62E0B8D64
:1005800010E00F5F1F4F0F731127E02E8C8D8E111F
:100590000CC00FB607FCFACFE889F989808185FF86
:1005A000F5CFCE010E947502F1CFEB8DEC0FFD2F40
:1005B000F11DE35AFF4FF0829FB7F8940B8FEA8941
:1005C000FB8980818062CFCFCF93DF93EC01888D50
:1005D0008823B9F0AA89BB89E889F9898C9185FDBE
:1005E00003C0808186FD0DC00FB607FCF7CF8C914C
:1005F00085FFF2CF808185FFEDCFCE010E9475028D
:10060000E9CFDF91CF91089580E090E0892B29F028
:100610000E946B0281110E94000080E090E0892B13
:1006200029F00E94610281110E94000080E090E0A8
:10063000892B49F080E090E0892B29F00E9400008E
:1006400081110E94000080E090E0892B49F080E059
:1006500090E0892B29F00E94000081110C94000089
:1006600008958150823108F05AC0E82FF0E08827C1
:10067000E35CFC4F8F4F0C94191D5D0361034F0326
:10068000550359038F0364036A036E0374037803ED
:100690007C03820386038F038A0390039403809173
:1006A00080008F77809380000895809180008F7DF7
:1006B000F9CF80918000877FF5CF84B58F7784BD97
:1006C000089584B58F7DFBCF8091B0008F778093A4
:1006D000B00008958091B0008F7DF9CF8091900097
:1006E0008F77809390000895809190008F7DF9CF4F
:1006F00080919000877FF5CF8091A0008F778093C5
:10070000A00008958091A0008F7DF9CF8091A00076
:10071000877FF5CF809120018F7780932001089506
:10072000809120018F7DF9CF80912001877FF5CFC7
:10073000CF93DF93282F30E0F901E054FE4F8491EE
:10074000F901EA5FFD4FD491F901EA59FD4FC491D7
:10075000CC23A1F081110E943103EC2FF0E0EE0FC9
:10076000FF1FEA55FE4FA591B491EC91ED2381E076
:1007700090E009F480E0DF91CF91089580E090E06F
:10078000FACFCF92DF92EF92FF920F931F93CF9306
:10079000DF93D0E0C0E0CE018D5A9D4F7C018E01E9
:1007A00000561A4FFE01E855FA4F6F01F70180819C
:1007B000F2E0EF0EF11C0E949803F80181939193EF
:1007C0008F01EC15FD0591F72896C032D10519F778
:1007D000DF91CF911F910F91FF90EF90DF90CF901D
:1007E0000895862F0C9498031F93CF93DF93282F9F
:1007F00030E0F901E054FE4F8491F901EA5FFD4FCA
:10080000D491F901EA59FD4FC491CC23A9F0162FD8
:1008100081110E943103EC2FF0E0EE0FFF1FE45B2B
:10082000FD4FA591B4918FB7F894EC91111108C0C8
:10083000D095DE23DC938FBFDF91CF911F91089578
:10084000DE2BF8CF862F642F0C94F40390913002A6
:1008500089130DC0ECEAF2E0E4919FEF909330022F
:10086000E230E1F038F4EE2381F0E13089F060E02D
:100870000C94F403E43049F110F1E530C1F79091A4
:1008800073009D7F90937300F2CF10926E00EFCFB4
:1008900090916F009D7F90936F00E9CF90917000D1
:1008A0009D7F9093700091E09093B0009091B10083
:1008B000987F94609093B1001092B300D8CF90913C
:1008C00071009D7F90937100D2CF909172009D7FB7
:1008D00090937200CCCFCF93DF9390E0FC01EA5F5E
:1008E000FD4F24918A599D4FFC0184918823C9F0C2
:1008F00090E0880F991FFC01E457FE4FA591B49139
:10090000FC01E45BFD4FC591D49161110DC09FB70F
:10091000F8948C91209582238C93888128232883B6
:100920009FBFDF91CF910895623051F49FB7F89443
:100930003C91822F809583238C93E8812E2BEFCFDF
:100940008FB7F894EC912E2B2C938FBFEACFCF93D7
:1009500090913002891721F09F3FC1F0CF91089507
:10096000ECEAF2E0C491C7FDF9CF61E00E946B04AC
:10097000CC2309F4F4C0C23009F008C18091B10061
:10098000887F84608093B10089EF90C180933002AA
:10099000ECEAF2E0C4919C2FCF3F01F3C23009F49E
:1009A00073C058F4CC2391F1C13009F44BC097FDCA
:1009B000D5CF61E00E946B04DECFC43009F4ADC036
:1009C00008F488C0C53099F71092200110922101D7
:1009D0009091210198609093210190912101916063
:1009E00090932101282F30E0F901EA59FD4FE4915D
:1009F000F0E0EE0FFF1FE45BFD4F45915491F901CC
:100A0000EA5FFD4FE491E0938005AFCF14BC15BCC5
:100A100094B5926094BD95B5916095BD282F30E056
:100A2000F901EA59FD4FE491F0E0EE0FFF1FE45B9E
:100A3000FD4F45915491F901EA5FFD4FE491E09338
:100A4000870593CF109280001092810090918100D1
:100A500098609093810090918100916090938100C3
:100A6000282F30E0F901EA59FD4FE491F0E0EE0F54
:100A7000FF1FE45BFD4F45915491F901EA5FFD4F83
:100A8000E491E093860571CF1092B0001092B1000E
:100A90009091B00092609093B0009091B1009160FD
:100AA0009093B100282F30E0F901EA59FD4FE4910D
:100AB000F0E0EE0FFF1FE45BFD4F45915491509322
:100AC000850540938405F901EA5FFD4FE491E093C9
:100AD00083054BCF1092900010929100909191005D
:100AE0009860909391009091910091609093910003
:100AF000282F30E0F901EA59FD4FE491F0E0EE0FC4
:100B0000FF1FE45BFD4F45915491F901EA5FFD4FF2
:100B1000E491E0938205C3E028CF1092A0001092E8
:100B2000A1009091A10098609093A1009091A100E4
:100B300091609093A100282F30E0F901EA59FD4F10
:100B4000E491F0E0EE0FFF1FE45BFD4F45915491FF
:100B5000F901EA5FFD4FE491E093810506CF85B589
:100B6000887F836085BD89EF87BD8FEF9FEFDC01B4
:100B700080939C0590939D05A0939E05B0939F053F
:100B800080916E00826080936E00E8CEC130E9F4FF
:100B900080918100887F8160809381008FE79EE350
:100BA00090938900809388008FEF9FEFDC01809302
:100BB000980590939905A0939A05B0939B05809111
:100BC0006F00826080936F00C9CEC330E9F48091DA
:100BD0009100887F8160809391008FE79EE39093DE
:100BE0009900809398008FEF9FEFDC018093900530
:100BF00090939105A0939205B09393058091710015
:100C0000826080937100AACEC430E9F48091A10083
:100C1000887F81608093A1008FE79EE39093A90075
:100C20008093A8008FEF9FEFDC0180938C05909359
:100C30008D05A0938E05B0938F0580917200826020
:100C4000809372008BCEC530E9F480912101887FBA
:100C50008160809321018FE79EE390932901809327
:100C600028018FEF9FEFDC01809388059093890521
:100C7000A0938A05B0938B05809173008260809366
:100C800073006CCEC23089F034F4CC2361F0C130F3
:100C900009F064CE83CFC43009F4BECF0CF49DCFED
:100CA000C530C9F25BCE8FE75FCF8FE78093B3008B
:100CB0008FEF9FEFDC018093940590939505A093AF
:100CC0009605B093970580917000826080937000C4
:100CD00045CE862F642F0C946B043FB7F894809117
:100CE0006D0590916E05A0916F05B091700526B5C8
:100CF000A89B05C02F3F19F00196A11DB11D3FBF54
:100D0000BA2FA92F982F8827BC01CD01620F711D22
:100D1000811D911D42E0660F771F881F991F4A951C
:100D2000D1F708958F929F92AF92BF92CF92DF92A8
:100D3000EF92FF924B015C010E946D066B017C01FA
:100D40000E946D066C197D098E099F09683E7340EB
:100D500081059105A8F321E0821A9108A108B10844
:100D600088EEC80E83E0D81EE11CF11C81149104AA
:100D7000A104B10429F7FF90EF90DF90CF90BF90CE
:100D8000AF909F908F9008952FB7F8946091690568
:100D900070916A0580916B0590916C052FBF089545
:100DA0000F931F93CF93DF93C82FD62F86E0C89F52
:100DB000F0011124EE51F84F11A2878D90A18130DE
:100DC0009105F1F058F082309105F1F1039709F4A3
:100DD00040C0DF91CF911F910F9108956623C9F311
:100DE00061E070E08C2F0E94B3010E94C406609302
:100DF0003A0870933B0880933C0890933D08E9CFF4
:100E00000E94C40600913A0810913B0820913C08CA
:100E100030913D08AB01BC01401B510B620B730BC1
:100E200080914C0890914D08B0E0A0E084179507A0
:100E3000A607B70748F462E070E08C2FDF91CF91EE
:100E40001F910F910C94B30163E070E0D111C1CFF9
:100E5000F4CF70E060E0F1CF6F927F928F929F921B
:100E6000AF92BF92CF92DF92EF92FF920F931F93B8
:100E7000CF93DF9381E080934E080E94C4060091D7
:100E80003E0810913F082091400830914108AB0185
:100E9000BC01401B510B620B730B80914A0890916F
:100EA0004B08B0E0A0E084179507A607B70708F045
:100EB00014C1C0E080914808C81760F4E09144086C
:100EC000F0914508EC0FF11D62E080810E946B04F7
:100ED000CF5FF0CF712C812C912C540183948091A1
:100EE0004908781608F05FC0072D10E0E091460829
:100EF000F0914708E00FF11F61E080810E946B04D0
:100F0000E0914608F0914708E00FF11F60E0808112
:100F10000E94F403D501C401072C04C0880F991F57
:100F2000AA1FBB1F0A94D2F76C017C01E094F094D5
:100F3000612C809148086816F8F4C62DD0E0E09145
:100F40004408F0914508EC0FFD1F80810E94980332
:100F50002496CC0FDD1FCE51D84F892B41F48881C8
:100F600099818C299D29998388836394E2CF888114
:100F700099818E219F21F7CFE0914608F091470893
:100F8000E00FF11F61E080810E94F4038091460828
:100F900090914708080F191F60E0F80180810E94B6
:100FA0006B0473949CCFC2EED7E0FE018FEF9FEFEE
:100FB000278D30A1232B21F4148E968F858F11A2BB
:100FC000369628E0EE31F20799F7F12C96E0D92E0B
:100FD00080914808F81608F050C0E12C0F2D10E061
:100FE000000F111F0651184F20914908E21608F012
:100FF00042C0F801608171810E2C02C07695679520
:101000000A94E2F7F29E900111242E0D311DE2EEBA
:10101000F7E080E0458D568D2417350709F461C04F
:101020008F5F36968A30B1F760FF23C0E2EEF7E0BB
:1010300090E080E0448D411117C0E0914208F091AA
:101040004308E20FF31F4081D89EF001D99EF00DB6
:101050001124EE51F84F448F368F258F10A2178E32
:1010600061E00E94D00605C0019636968A3091054F
:1010700009F7E394B9CFF394ABCF10E089A18111C4
:10108000182F2696F8E0CE31DF07C1F70E94C4067C
:1010900060933E0870933F08809340089093410806
:1010A0001123D9F0809103088823B9F080910108B9
:1010B00090910208019789F48091FE07DF91CF910A
:1010C0001F910F91FF90EF90DF90CF90BF90AF9066
:1010D0009F908F907F906F90089510924E0880E0BF
:1010E000EDCF6170BECF0F931F930E94C406609333
:1010F00065067093660680936706909368068DE593
:1011000096E00E94330297FF1DC00E94C406009122
:101110006506109166062091670630916806601B8F
:10112000710B820B930B0091610610916206209166
:101130006306309164066017710782079307F8F21F
:101140008FEF9FEF1F910F9108950F931F93CF93F0
:10115000DF93EC018B0188859985029751F461300A
:10116000710509F43AC06CF560E00115110509F448
:1011700035C088859985049751F40130110509F42B
:1011800055C00CF035C00115110509F43EC0888525
:101190009985059709F0C8C00A30110508F0C4C048
:1011A000F8018827E952F74F8F4F0C94191D2A092F
:1011B0003409420954096C096E0974097E098C09C5
:1011C00092096230710591F060E00330110589F6F3
:1011D0008C850E94F40360E005C061E08C850E946C
:1011E000F40361E08E850E94F403C3CF61E0F0CF89
:1011F0000230110509F10330110509F0C8CF61E093
:101200008C850E94F40360E01CC061E08C850E9424
:10121000F40360E08E850E94F40361E088890E94F7
:10122000F40360E08A890E94F403B1CF60E08C850A
:101230000E94F40361E0EECF60E08C850E94F4032D
:1012400061E08E850E94F40360E088890E94F403C7
:1012500061E0E8CF60E08C850E94F40361E08E8558
:101260000E94F40361E009C060E08C850E94F403F1
:1012700061E08E850E94F40360E088890E94F40397
:1012800060E00DC060E08C850E94F40361E08E8513
:101290000E94F40360E088890E94F40361E08A8977
:1012A0000E94F40361E011C060E08C850E94F403A9
:1012B00061E08E850E94F40360E088890E94F40357
:1012C00061E08A890E94F40360E08C89DF91CF910C
:1012D0001F910F910C94F40361E0E7CF61E08C85DE
:1012E0000E94F40360E0E5CF61E08C850E94F40386
:1012F00060E08E850E94F40361E0DFCF61E08C85C1
:101300000E94F40360E08E850E94F40361E0888906
:101310000E94F40360E0D5CF61E08C850E94F40365
:1013200060E09DCF60E0F9CFDF91CF911F910F91E9
:1013300008954F925F926F927F928F929F92AF9299
:10134000BF92CF92DF92EF92FF920F931F93CF93B2
:10135000DF93EC018B0177FF04C000271127061BE8
:10136000170B161617060CF04AC081E090E099831F
:10137000888384E0E82EF12C9AE0C92ED12C011547
:10138000110509F44EC00E946D068E889F88A88CB6
:10139000B98C2B013C01481859086A087B088A80DF
:1013A0009B80AC80BD80481459046A047B0438F3E8
:1013B0006E8B7F8B888F998F8A859B852881398159
:1013C0002130310511F501969B878A872E813F8157
:1013D0008217930711F41B861A86015011098A851A
:1013E0009B8528853985B6012530310509F0B7017F
:1013F0000E94051DBC01CE010E94A508C0CF672B2D
:1014000009F4B7CF19821882B4CF892B21F48E81C9
:101410009F819B878A878A859B8501979B878A877F
:10142000DCCFDF91CF911F910F91FF90EF90DF9074
:10143000CF90BF90AF909F908F907F906F905F9074
:101440004F90089590E080E00895CF93DF9328EEC9
:1014500034E0F9017096BC01685F7F4FD901EC015F
:1014600049915991CE0111965C934E9351834083DB
:1014700013965C934E93129753834283149634963B
:10148000C617D70761F7205E3F4FD5E028363D07E6
:1014900001F7DF91CF910895CF92DF92EF92FF9203
:1014A0000F931F93CF93DF931F921F92CDB7DEB799
:1014B00069834A83880F991F0091B0071091B10783
:1014C000000F111FEAE5F7E09F012A55374020176A
:1014D000310714F41192F8CF2981FC01E65AF84F34
:1014E00021838A81808360E08091AE070E94F403AB
:1014F0001016110604F501501109F801E65AF84FCB
:10150000E080D090AC07C090AA0788E0F82E6E2D3E
:10151000661F6627661F8C2D0E94F403EE0C61E0A7
:101520008D2D0E94F40360E08D2D0E94F403FA9447
:10153000F110EDCFDDCF61E08091AE070F900F90FD
:10154000DF91CF911F910F91FF90EF90DF90CF909F
:101550000C94F403EF92FF920F931F93CF937C01AF
:101560008C0183E0000F111F8A95E1F70659184F8F
:10157000C1E0F80111928F0140E06C2FC7010E9479
:101580004C0ACF5FC930A9F7CF911F910F91FF90FF
:10159000EF900895BF92CF92DF92EF92FF920F9358
:1015A0001F93CF93DF93CAE5D7E038EEE32E34E004
:1015B000F32EBB24B39440E8C42ED12C10E000E0FD
:1015C0008091B0079091B107F801EE0FFF1FEE0D6B
:1015D000FF1D208131812130310549F5181619068A
:1015E0007CF44889C601002E02C0959587950A941F
:1015F000E2F7482B488B6B2D90E080E00E944C0A6C
:101600000F5F1F4F08301105D9F62196B39480E182
:10161000E80EF11C89E0B812D1CFDF91CF911F9174
:101620000F91FF90EF90DF90CF90BF900895181624
:10163000190634F7A601002E02C0559547950A9465
:10164000E2F7409588894823D5CFCF93DF93EC010B
:1016500060E08E810E94F40361E08E810E94F403B9
:1016600060E08E810E94F4038BE891E00197F1F72E
:10167000DF91CF910895CF92DF92EF92FF920F9377
:101680001F93CF93DF936C017C0187E0E80EF11C80
:10169000D0E0C0E0062F10E0B8010C2E02C0759516
:1016A00067950A94E2F76170F70181917F010E94CA
:1016B000F4032196C430D10579F7C601DF91CF91AB
:1016C0001F910F91FF90EF90DF90CF900C94250B1E
:1016D000CF92DF92EF92FF920F931F93CF93DF93FE
:1016E000EC01F62E642F8C810E94F4038D818F3FD4
:1016F00019F060E00E94F4030F2D10E08F8584FF45
:1017000025C06E0187E0C80ED11CF12CE12CB80178
:101710000E2C02C0759567950A94E2F76170F60188
:1017200081916F010E94F403FFEFEF1AFF0A88E036
:10173000E816F10461F7CE01DF91CF911F910F916F
:10174000FF90EF90DF90CF900C94250BB80184E0D0
:10175000759567958A95E1F7CE010E943B0B6F2D39
:10176000CE01DF91CF911F910F91FF90EF90DF900D
:10177000CF900C943B0B40E0682F87EA99E00C94E3
:10178000680B81E00E94BB0B8BE39FE10197F1F7AF
:101790000895CF93DF93823029F49091B609986031
:1017A0009093B6098093BA091092BB0980E48093A4
:1017B000BC0980E18093BD0980E58093BE0961E0AA
:1017C0008091AB090E946B048091AC098F3F19F0A6
:1017D00061E00E946B0461E08091AD090E946B049E
:1017E000C7EAD9E09E01275A39408091B60984FDA5
:1017F0000BC084E090E021962817390744F461E09B
:101800008E810E946B04EECF88E090E0F4CF8BE3F2
:101810009DE00197F1F760E08091AB090E94F4032D
:1018200060E08091AD090E94F4038091AC098F3F84
:1018300019F060E00E94F4038091B60984FD34C081
:1018400063E087EA99E00E943B0BCBE4D6E4CE014B
:101850000197F1F763E087EA99E00E943B0B21973B
:10186000F1F763E087EA99E00E943B0B83E592E0A1
:101870000197F1F762E087EA99E00E943B0B8091C3
:10188000B60980620E94BB0B84E08093B7098CE0AC
:101890000E94BB0B0E94C10B82E08093B80986E0D6
:1018A000DF91CF910C94BB0B80620E94BB0B8BE449
:1018B00096E40197F1F78091B60980620E94BB0B14
:1018C00083E592E00197F1F78091B60980620E946A
:1018D000BB0BD5CF9091BA09691710F06FEF690F64
:1018E000E62FF0E0E955F64F9489890F80680C9453
:1018F000BB0B41E00E94680B81E090E00895CF921D
:10190000DF92EF92FF920F931F93CF93DF93EB0140
:101910007B012FE0E20EF11C8B016C01C61AD70A85
:10192000C601800F911F0E948C1CF80181938F01CA
:10193000EE15FF05A9F7CE01DF91CF911F910F9111
:10194000FF90EF90DF90CF900895FB010190002071
:10195000E9F73197AF01461B570BDC01ED91FC9184
:101960000280F381E02D1994CF93DF93CDB7DEB7DA
:10197000A1970FB6F894DEBF0FBECDBF19A2805D50
:1019800088A3BE01605E7F4F8DE596E00E94A50CA6
:10199000A1960FB6F894DEBF0FBECDBFDF91CF91F9
:1019A0000895BC0187EA99E00C94A50C0F931F934E
:1019B000CF93DF93EC010E94E9018C016BE972E0A7
:1019C000CE010E94A50C800F911FDF91CF911F9136
:1019D0000F910895FC0124813581232B39F421E0F6
:1019E000FB018081882349F020E007C0808191813C
:1019F0000E94441F21E0892BB9F7822F0895FC0132
:101A000024813581FB014481558124173507E1F498
:101A1000FC0180819181FB01608171810097D1F08F
:101A200061157105A1F4232BC1F0FC01808190E0C8
:101A300008C0232B91F0FB01808190E09195819566
:101A4000910921E0892B09F020E0822F08950E945E
:101A5000441FF7CF6115710561F721E0F6CF0F93B1
:101A60001F93CF93DF938C01EB01FC018081918167
:101A70000097E1F06881798161157105A9F04281D3
:101A800053812C813D814217530770F00E944D1FF6
:101A90008C819D81F801958384831D821C82DF9156
:101AA000CF911F910F9108950E94D11D8881998136
:101AB000F801918380838A819B81938382838C81C7
:101AC0009D8195838483198218821B821A82E5CFB7
:101AD000CF93DF93EC0188819981009711F00E94E8
:101AE000D11D198218821D821C821B821A82DF91ED
:101AF000CF910895FC0180819181009711F00C94A1
:101B0000D11D08950F931F93CF93DF93EC0188812C
:101B10009981009759F02A813B812617370730F0C9
:101B200081E0DF91CF911F910F9108958B016F5F3D
:101B30007F4F0E945A1E009759F0998388831B8318
:101B40000A832C813D81232B59F7FC011082E8CFB9
:101B500080E0E7CFEF92FF920F931F93CF93DF9335
:101B60006115710541F480E0DF91CF911F910F91D4
:101B7000FF90EF90089541155105B1F07B01EC0104
:101B80000C811D81040F151FB8010E94820D88234E
:101B900051F3288139818C819D81B701820F931F78
:101BA0000E944D1F1D830C8381E0DECFCF93DF9316
:101BB000EC01FB0144815581608171810E94AA0D75
:101BC000811103C0CE010E94680DCE01DF91CF913B
:101BD0000895EF92FF920F931F93CF93DF93EC0141
:101BE0007B018A01BA010E94820D81110BC0CE01D6
:101BF0000E94680DCE01DF91CF911F910F91FF9050
:101C0000EF9008951D830C83B701888199810E940C
:101C10004D1FF0CFFB0101900020E9F73197AF0194
:101C2000461B570B0C94E90D0F931F93CF93DF9333
:101C3000CDB7DEB762970FB6F894DEBF0FBECDBF4B
:101C40008C01CB01F801118210821382128215825D
:101C500014824AE0BE016F5F7F4F0E94261CBE01C6
:101C60006F5F7F4FC8010E940A0E62960FB6F8940C
:101C7000DEBF0FBECDBFDF91CF911F910F910895B1
:101C80000F931F93CF93DF93CDB7DEB7A2970FB615
:101C9000F894DEBF0FBECDBF8C01CB01BA01F801B5
:101CA0001182108213821282158214822AE0AE0100
:101CB0004F5F5F4F0E94311CBE016F5F7F4FC801B5
:101CC0000E940A0EA2960FB6F894DEBF0FBECDBFDB
:101CD000DF91CF911F910F910895CF93DF931F92C2
:101CE0001F92CDB7DEB7FC011182108213821282DF
:101CF0001582148269831A82BE016F5F7F4F0E9432
:101D00000A0E0F900F90DF91CF910895BF92CF925E
:101D1000DF92EF92FF920F931F93CF93DF9380EAAE
:101D2000E82E85E0F82ED0E0C0E096E0B92E6701FD
:101D300010E000E0F601819191916F01019771F43B
:101D40009E01200F311FB29EC001B39E900D112441
:101D500063E974E08650994F0E940A0E0F5F1F4F8F
:101D60000430110539F72496F8E0EF0EF11CC0316C
:101D7000D105E9F6DF91CF911F910F91FF90EF9080
:101D8000DF90CF90BF900895CF93DF93EC01FB01DC
:101D90008617970749F0608171816115710541F0DF
:101DA000448155810E94E90DCE01DF91CF910895C4
:101DB0000E94680DF9CFFC011182108213821282F9
:101DC000158214820C94C40EFC01118210821382BD
:101DD000128215821482FB0101900020E9F73197ED
:101DE000AF01461B570B0C94E90D8F929F92AF9257
:101DF000BF92CF92DF92EF92FF920F931F93CF93F8
:101E0000DF93EC018B01FB01C480D580D6011197D3
:101E10002FEF3FEFB12CA12C90E080E070E060E06C
:101E2000A817B9072CF1461757072CF1FC0131967A
:101E30007F018C159D0560F4F801808091808114EC
:101E4000910431F0F401E80FF91FE081EC3219F050
:101E5000A817B90759F46F5F7F4F5901FFEFAF1A09
:101E6000BF0A9701A817B90709F09C01C701D8CF8D
:101E700046175707ECF569012A153B0510F0650177
:101E800059016DE972E0CE010E94E40EF801E48090
:101E9000F580CE14DF04D8F4AE14BF0408F4750145
:101EA000F80160817181FB01EE0DFF1DB080108291
:101EB0006C0D7D1DCE0161157105B9F00E940A0EF1
:101EC000F80180819181E80EF91EF701B082CE0100
:101ED000DF91CF911F910F91FF90EF90DF90CF9006
:101EE000BF90AF909F908F9008950E94680DE8CFAB
:101EF0006DE972E0CE010E94E40EE9CFCF92DF924D
:101F0000EF92FF921F93CF93DF93CDB7DEB7659724
:101F10000FB6F894DEBF0FBECDBF6C01F12CE12CE3
:101F20008091720590917305E816F9060CF044C093
:101F3000BE016F5F7F4FC7010E947F0CBE016F5FC4
:101F40007F4FCE0140960E94E40EBE01605F7F4F3E
:101F5000C6010E94FF0C11E0811109C06EE972E018
:101F6000C6010E94EA0C11E0811101C010E0CE010F
:101F700040960E947A0D1123D9F069EA72E080EC54
:101F800095E00E94A50C6BE972E080EC95E00E9460
:101F9000A50C812F65960FB6F894DEBF0FBECDBF9E
:101FA000DF91CF911F91FF90EF90DF90CF90089538
:101FB0008FE0E80EF11CB4CF10E0EBCF1F920F9230
:101FC0000FB60F9211240BB60F922F933F934F939E
:101FD0005F936F937F938F939F93AF93BF93EF9391
:101FE000FF938091940590919505A0919605B091ED
:101FF0009705892B8A2B8B2BE1F190918305E0913A
:102000008405F091850580818927808380919405DE
:1020100090919505A0919605B0919705181619060F
:102020001A061B069CF48091940590919505A09149
:102030009605B09197050197A109B1098093940580
:1020400090939505A0939605B0939705FF91EF9116
:10205000BF91AF919F918F917F916F915F914F91C0
:102060003F912F910F900BBE0F900FBE0F901F90BE
:102070001895809130020E942604E8CF1F920F929B
:102080000FB60F9211240BB60F922F933F934F93DD
:102090005F936F937F938F939F93AF93BF93EF93D0
:1020A000FF9380EC95E00E947502FF91EF91BF9144
:1020B000AF919F918F917F916F915F914F913F91E0
:1020C0002F910F900BBE0F900FBE0F901F90189581
:1020D0001F920F920FB60F9211240BB60F922F93EF
:1020E0008F939F93EF93FF93E091D005F091D105EB
:1020F0008081E091D605F091D70582FD1DC09081C9
:102100008091D9058F5F8F732091DA05821741F096
:10211000E091D905F0E0E054FA4F958F8093D9050E
:10212000FF91EF919F918F912F910F900BBE0F9088
:102130000FBE0F901F9018958081F2CF1F920F92C3
:102140000FB60F9211240BB60F922F933F934F931C
:102150005F936F937F938F939F93AF93BF93EF930F
:10216000FF938DE596E00E947502FF91EF91BF917C
:10217000AF919F918F917F916F915F914F913F911F
:102180002F910F900BBE0F900FBE0F901F901895C0
:102190001F920F920FB60F9211240BB60F922F932E
:1021A0008F939F93EF93FF93E0916D06F0916E06EE
:1021B0008081E0917306F091740682FD1DC09081CC
:1021C000809176068F5F8F7320917706821741F09A
:1021D000E0917606F0E0E35AF94F958F809376060A
:1021E000FF91EF919F918F912F910F900BBE0F90C8
:1021F0000FBE0F901F9018958081F2CF1F920F9203
:102200000FB60F9211242F933F938F939F93AF9309
:10221000BF938091690590916A05A0916B05B0917B
:102220006C053091680523E0230F2D3758F5019692
:10223000A11DB11D209368058093690590936A05DF
:10224000A0936B05B0936C0580916D0590916E0520
:10225000A0916F05B09170050196A11DB11D8093ED
:102260006D0590936E05A0936F05B0937005BF91B7
:10227000AF919F918F913F912F910F900FBE0F9033
:102280001F90189526E8230F0296A11DB11DD2CFED
:102290000F931F93CF93DF931092C3051092C20543
:1022A00048EE53E060E070E04093C4055093C505EC
:1022B0006093C6057093C70587E792E09093C105C8
:1022C0008093C0052DEC30E03093CD052093CC05F4
:1022D0002CEC30E03093CF052093CE0528EC30E095
:1022E0003093D1052093D00529EC30E03093D3050D
:1022F0002093D2052AEC30E03093D5052093D40505
:102300002EEC30E03093D7052093D6051092D905F6
:102310001092DA051092DB051092DC05109260062F
:1023200010925F06409361065093620660936306C5
:102330007093640690935E0680935D0685EC90E052
:1023400090936A068093690684EC90E090936C0603
:1023500080936B0680EC90E090936E0680936D0600
:1023600081EC90E09093700680936F0682EC90E091
:10237000909372068093710686EC90E090937406B9
:102380008093730610927606109277061092780664
:10239000109279066DE972E083EF99E00E94E40EF5
:1023A0001092E4091092E3091092DA091092D90907
:1023B0001092EF091092F0091092F1091092F209AF
:1023C00008E210E01093E0090093DF0982E490E056
:1023D0009093E6098093E50983E490E09093E809FF
:1023E0008093E70984E490E09093EA098093E909F7
:1023F00085E490E09093EC098093EB0961E082E43E
:102400000E946B0461E08091E7090E946B0461E027
:102410008091E9090E946B0461E08091EB090E94C0
:102420006B041092EE091092ED09C4E0D0E0D09355
:10243000E209C093E1091092CA091092C9091092E9
:10244000C0091092BF091092D5091092D6091092B6
:10245000D7091092D8091093C6090093C5098EE3D5
:1024600090E09093CC098093CB098FE390E0909318
:10247000CE098093CD0980E490E09093D0098093B9
:10248000CF0981E490E09093D2098093D10961E073
:102490008EE30E946B0461E08091CD090E946B0481
:1024A00061E08091CF090E946B0461E08091D109C5
:1024B0000E946B041092D4091092D309D093C809DA
:1024C000C093C7091092AA091092A90983E992E062
:1024D0009093A8098093A70986E38093AB098FEFB7
:1024E0008093AC0987E38093AD0988E38093AE09BC
:1024F00089E38093AF098AE38093B0098BE38093EB
:10250000B1091092B2091092B3091092B409109255
:10251000B5091092B60981E00E94C90B6DE972E01D
:1025200081EA99E00E94E40E64EB72E08BE999E0A5
:102530000E94E40E64EA72E085E999E00E94E40EEC
:102540006AEB72E08FE899E00E94E40E61EC72E0C1
:1025500089E899E00E94E40E6EE972E08DE598E06A
:102560000E94E40E67EC72E083E698E00E94E40EBD
:10257000D0E0C0E06DE972E0CE018759974F0E942C
:10258000E40E2696C03281E0D807A1F763ED72E031
:1025900087E598E00E94E40E6AEE72E081E598E03B
:1025A0000E94E40E1092E4071092E8071092E707E9
:1025B0001092E90789E892E09093E3078093E2079D
:1025C000EEEFF7E08AE398E010821482138215821E
:1025D00036968E179F07C1F785E392E090934508E2
:1025E0008093440881E392E09093470880934608E3
:1025F00084E0809348088093490889E392E09093AF
:102600004308809342088AE090E090934B088093BF
:102610004A0884EF91E090934D0880934C08109203
:10262000500810924F0810923E0810923F081092E6
:1026300040081092410810924E086DE972E08AEC51
:1026400097E00E94E40E6DE972E080ED97E00E9451
:10265000E40E6DE972E086ED97E00E94E40E6DE90C
:1026600072E08CED97E00E94E40E6CE173E082EB87
:1026700097E00E94E40E61EF72E088EB97E00E9421
:10268000E40E63EF72E08EEB97E00E94E40E65EFDC
:1026900072E084EC97E00E94E40ECFE0D0E0D093AB
:1026A000AB07C093AA0781E190E09093AD078093B8
:1026B000AC0780E190E09093AF078093AE0781E094
:1026C00090E09093B1078093B00761E08FE00E94A3
:1026D0006B0461E08091AC070E946B0461E0809123
:1026E000AE070E946B0461E08091AE070E94F40384
:1026F000D093AB07C093AA07EAE6F7E0119287E010
:10270000EA3AF807D9F7D0E0C0E08091B00790919D
:10271000B107C817D90774F540E06FE0CE010E94F9
:102720004C0A8091B0079091B107C817D9072CF4D3
:1027300047E06BE0CE010E944C0A40E069E0CE0128
:102740000E944C0A8091B0079091B107C817D90731
:102750001CF4CE010E94AA0A8091B0079091B107A3
:10276000C817D9072CF440E06CE0CE010E944C0A57
:102770002196CBCF67EF72E08AEF96E00E94E40EDD
:1027800067EF72E080E097E00E94E40E67EF72E08E
:1027900086E097E00E94E40E67EF72E08CE097E03D
:1027A0000E94E40E67EF72E082E197E00E94E40E7F
:1027B00067EF72E088E197E00E94E40E67EF72E055
:1027C0008EE197E00E94E40E67EF72E084E297E00A
:1027D0000E94E40E67EF72E08AE297E00E94E40E46
:1027E00067EF72E080E397E00E94E40E67EF72E02B
:1027F00086E397E00E94E40E67EF72E08CE397E0D7
:102800000E94E40E67EF72E082E497E00E94E40E1B
:1028100067EF72E088E497E00E94E40E67EF72E0F1
:102820008EE497E00E94E40E67EF72E084E597E0A3
:10283000DF91CF911F910F910C94E40ECF93DF9312
:10284000CDB7DEB7E1970FB6F894DEBF0FBECDBFB0
:10285000789484B5826084BD84B5816084BD85B57B
:10286000826085BD85B5816085BD80916E00816087
:1028700080936E001092810080918100826080932D
:10288000810080918100816080938100809180002F
:102890008160809380008091B10084608093B1005A
:1028A0008091B00081608093B0008091910082603F
:1028B000809391008091910081608093910080913C
:1028C00090008160809390008091A100826080934D
:1028D000A1008091A10081608093A1008091A0005F
:1028E00081608093A000809121018260809321010A
:1028F000809121018160809321018091200181607C
:102900008093200180917A00846080937A00809186
:102910007A00826080937A0080917A00816080934F
:102920007A0080917A00806880937A001092C100CA
:1029300061E08DE00E946B0461E086E10E946B041F
:1029400061E087E10E946B0460E08DE30E946B040C
:1029500061E085E30E946B0485E30E94260482E027
:102960000E94C90B0E94C10B80E40E94BB0B08E0CF
:1029700012E0F80161918F0187EA99E00E94790CD9
:10298000F2E000311F07A9F788E40E94BB0B00E0CA
:1029900012E0E8E0EE2EE2E0FE2EF80161918F01F8
:1029A00087EA99E00E94790CE016F106B1F70E94DF
:1029B000C40660937C0570937D0580937E0590939B
:1029C0007F0580917B00877F80937B0086E48093E6
:1029D0007C0080917A00806480937A0080917A00F4
:1029E00086FDFCCF8091780060917900762F682F6A
:1029F000072E000C880B990B611571058105910557
:102A000011F00E941D1C8DE596E00E948C0180EC67
:102A100095E00E948C01BE01605F7F4F90E080E0F6
:102A20000E947F0C80917A0590917B050F96909380
:102A30007B0580937A0510E000E0C8010E948C1CA1
:102A40008F3F41F00F5F1F4F0115F0E11F07A9F7FE
:102A500010E000E0109373050093720510937B055E
:102A600000937A0510E000E0EE24E394F12C8091CD
:102A7000720590917305081719070CF044C0BE0148
:102A80006F5F7F4FC8010E947F0CB701CE014F9648
:102A90000E94140E69EF72E0CE0185960E94E40E4A
:102AA000BE01615E7F4FCE0185960E94D60D6C01FE
:102AB00042E050E065ED73E00E94AA0D811103C071
:102AC000C6010E94680DB60180EC95E00E94D60C0C
:102AD000CE0185960E947A0DCE014F960E947A0D06
:102AE0004FEFE41AF40ABE016F5F7F4F80EC95E070
:102AF0000E94A50C6BE972E080EC95E00E94A50CA9
:102B0000015F1F4FB4CF03E512E063E7E62E62E0FA
:102B1000F62EF80180810E5F1F4F60E00E946B046B
:102B2000E016F106B1F78091B0079091B107181641
:102B3000190634F441E06CE090E080E00E944C0A19
:102B40008091B0079091B1071816190634F445E04A
:102B50006AE090E080E00E944C0A8091B00790917A
:102B6000B1071816190624F490E080E00E94AA0A22
:102B70004AE0442E512C612C712C54E0852E912C6E
:102B8000A12CB12C0E94C406AB01BC0180917C0534
:102B900090917D05A0917E05B0917F05805F984D55
:102BA000AF4FBF4F481759076A077B0728F560E00A
:102BB00083E00E946A0C82E093E00E94D10C60E006
:102BC00081E00E946A0C60E087EA99E00E94790C3B
:102BD00060E08EE00E946A0C60E087EA99E00E9463
:102BE000790C61E080E00E946A0C8DE093E00E9425
:102BF000D10C0E940403C6CF84179507A607B70718
:102C0000C0F760E080E00E946A0C8EE193E00E94D1
:102C1000D10C61E080E00E946A0C8FE293E00E9498
:102C2000D10C0E942C078DE596E00E9455021816E3
:102C30001906FCF66DE972E0CE0101960E94E40EE1
:102C40000E94730897FD0CC0888B198A41E050E000
:102C5000BE01605F7F4FCE0101960E94AA0DF0CFAA
:102C6000BE016F5F7F4F81EA99E00E942F0DCE0178
:102C700001960E947A0D61EA79E0CE0101960E94E8
:102C8000DB0E50E040E0BE016F5F7F4FCE018B96C0
:102C90000E94F50ECE0101960E947A0D61EA79E05C
:102CA000CE0101960E94DB0E41E050E0BE016F5F55
:102CB0007F4FCE0185960E94F50ECE0101960E94AF
:102CC0007A0D60EE72E0CE0185960E94EA0C8823B0
:102CD00009F49FC0BE01655D7F4FCE014F960E94F3
:102CE000DB0EBE01615E7F4FCE0101960E94DB0EBE
:102CF000CE0101960E947E0F182FCE0101960E94F0
:102D00007A0D60E080E0112329F10E946A0C82E4D0
:102D100093E00E94D10C61E080E00E946A0C8CE597
:102D200093E00E94D10C68EB7BE080E090E00E9491
:102D3000920681E090E00E94B40CCE014F960E9472
:102D40007A0DCE0185960E947A0DCE018B960E9457
:102D50007A0D4FCF0E946A0C82E493E00E94D10C5E
:102D600061E080E00E946A0C86E793E00E94D10C4B
:102D700068EB7BE080E090E00E949206BE01615E1D
:102D80007F4FCE0140960E94DB0E28893989CE0103
:102D900001967C014C895D89FC0190E080E08417FC
:102DA000950759F060E02115310521F0D901A80FF0
:102DB000B91F6C9161930196F2CF20907A05309003
:102DC0007B0510E000E0F70141917F0149AB610113
:102DD000C00ED11EC6010E948C1C99A9981721F023
:102DE000692FC6010E94941C0F5F1F4F0F30110501
:102DF00051F780917A0590917B050F9690937B0512
:102E000080937A05CE0140960E947A0D90E080E092
:102E100092CF61E973E0CE0185960E94EA0C882387
:102E2000D9F1BE01655D7F4FCE0140960E94DB0E59
:102E3000BE01605F7F4FCE0101960E94DB0ECE0186
:102E400001960E947E0F182FCE0101960E947A0DE6
:102E50001123E9F081E090E00E94B40C60E080E092
:102E60000E946A0C87E993E00E94D10C61E080E047
:102E70000E946A0C82EB93E00E94D10C68E873E137
:102E800080E090E00E949206CE01409658CF90E0FC
:102E900080E00E94B40CF8CF6AEC73E0CE01859616
:102EA0000E94EA0C882309F429C30E94CE1BA301C7
:102EB00092010E94A21CAB01BC01CE0101960E94AE
:102EC000400EBE016F5F7F4F8AEC97E00E942F0D8E
:102ED000CE0101960E947A0D0E94CE1BA3019201A1
:102EE0000E94A21CAB01BC01CE0101960E94400EC3
:102EF000BE016F5F7F4F80ED97E00E942F0DCE01E6
:102F000001960E947A0D0E94CE1BA50194010E9499
:102F1000A21CE6E0E69F9001E79F300D1124B90165
:102F20006E54784FCE0101960E94DB0EBE016F5F9A
:102F30007F4F86ED97E00E942F0DCE0101960E94F3
:102F40007A0D0E94CE1BA50194010E94A21CF6E0FE
:102F5000F69F9001F79F300D1124B9016E54784F00
:102F6000CE0101960E94DB0EBE016F5F7F4F8CED9C
:102F700097E00E942F0DCE0101960E947A0D61E02C
:102F800085E00E946A0C80ED93E00E94D10C6AEC0F
:102F900077E0CE0101960E94DB0E60ED77E0CE0176
:102FA00001960E94D60D66ED77E00E94D60D6CED7D
:102FB00077E00E94D60DBC0183EF99E00E94C40E19
:102FC000CE0101960E947A0D63EF79E080EC95E0E6
:102FD0000E94D60C63EF79E08DE596E00E94D60C56
:102FE0006DE972E0CE014F960E94E40E0E94C10B83
:102FF00010E000E060E080E00E946A0C88ED93E061
:103000000E94D10C61E080E00E946A0CBE01615E0A
:103010007F4F87EA99E00E94E9010E942C07F82E71
:103020008823D9F34AE28413E7C1BE01615E7F4F72
:10303000CE0140960E94DB0E8C899D89049761F039
:10304000E12C72C003301105ACF20330110509F414
:10305000E4C16DEC74E001C270E060E0CE01409626
:103060000E94D601FC016081CE0101960E946D0E86
:103070006AEC77E0CE0101960E94FF0CE82ECE01AB
:1030800001960E947A0DEE20D9F261E070E0CE0147
:1030900040960E94D601FC016081CE0101960E94FB
:1030A0006D0E60ED77E0CE0101960E94FF0CE82ED8
:1030B000CE0101960E947A0DEE2011F262E070E0DE
:1030C000CE0140960E94D601FC016081CE0101969E
:1030D0000E946D0E66ED77E0CE0101960E94FF0C16
:1030E000E82ECE0101960E947A0DEE2009F4A8CFB9
:1030F00063E070E0CE0140960E94D601FC01608141
:10310000CE0101960E946D0E6CED77E0CE01019626
:103110000E94FF0CD82ECE0101960E947A0DEE245B
:10312000E394DD2009F48CCFCE0140960E947A0D05
:10313000EE2009F42EC10E94C10B60E080E00E94E5
:103140006A0C89EE93E00E94D10C61E080E00E945D
:103150006A0C6EE373E0CE0101960E94E40EBE019C
:10316000615E7F4FCE0101960E94D60DBC0187EAB9
:1031700099E00E94E901CE0101960E947A0D60ED6E
:1031800077E080E090E00E9492060E94C10B60E030
:1031900080E00E946A0C8AEF93E00E94D10C68EEF6
:1031A00073E080E090E00E94920680917805909113
:1031B0007905181619060CF4B2C00E94C406609373
:1031C000740570937505809376059093770560E09C
:1031D00080E00E946A0C8BE094E00E94D10C61E0D8
:1031E00080E00E946A0C61E086E10E94F403209175
:1031F000DF093091E009032E000C440B550B60E011
:1032000077E883E993E00E94A21CCA01B901A301F7
:1032100092010E94A21C2093DB093093DC094093A9
:10322000DD095093DE0968E270E089ED99E00E94C3
:10323000990968EE73E080E090E00E94920660E0F9
:1032400086E10E94F40360E080E00E946A0C8CE159
:1032500094E00E94D10C61E080E00E946A0C0E9420
:10326000C406AB01BC018091740590917505A091D5
:103270007605B091770588579C4EAF4FBF4F4817E2
:1032800059076A077B0758F368E873E180E090E02C
:103290000E94920660E080E00E946A0C83E394E062
:1032A0000E94D10C61E080E00E946A0C61E087E13D
:1032B0000E94F4032091C5093091C609032E000C29
:1032C000440B550B60E077E883E993E00E94A21C71
:1032D000CA01B901A30192010E94A21C2093C10955
:1032E0003093C2094093C3095093C40968ED7FEF3E
:1032F0008FEB99E00E94990968EE73E080E090E01E
:103300000E94920660E087E10E94F40380917805B4
:10331000909179050196909379058093780560E006
:1033200080E00E946A0C85E494E00E94D10C0E9427
:10333000C10B8BA19CA1059710F10E94C10B60E00D
:1033400080E00E946A0C8BE694E00E94D10C61E060
:1033500080E00E946A0C87E794E00E94D10C60ED47
:1033600077E080E090E00E9492066DE972E0CE0185
:103370004F960E940A0E0E94C10B0F5F1F4FE11073
:1033800048C0F3E2FF125ECE0330110509F093C08E
:1033900044C00E94C10B60E080E00E946A0C89E595
:1033A00094E00E94D10C61E080E00E946A0C6EE320
:1033B00073E0CE0101960E94E40EBE01615E7F4F74
:1033C000CE0101960E94D60DBC0187EA99E00E94C9
:1033D000E901CE0101960E947A0D0F5F1F4F6DE942
:1033E00072E0CE014F960E940A0E60ED77E080E019
:1033F00090E00E9492069BCF89831A8241E050E0C0
:10340000BE016F5F7F4FCE014F960E94AA0DE12C47
:1034100090CF0330110509F04BC085E30E94A7044B
:103420000E94C10B60E080E00E946A0C86E894E094
:103430000E94D10C61E080E00E946A0C85E994E072
:103440000E94D10C60ED77E080E090E00E9492064F
:1034500085E30E94260467EA74E0CE0101960E948B
:10346000E40ECE014F960E947A0D66EC74E0CE0118
:1034700001960E94EA0C811118C067EA74E0CE013F
:1034800001960E94EA0C811110C06DEC74E0CE012F
:1034900001960E94EA0C882341F00E94C10380EA51
:1034A00095E00E94250A0E94CA0ACE01019647CCE7
:1034B00043E2F412CECD85E30E94A7040E94C10B23
:1034C00060E080E00E946A0C8FEA94E00E94D10CD8
:1034D00061E080E00E946A0C8CEB94E00E94D10CC9
:1034E00060ED77E080E090E00E94920685E30E9424
:1034F00026040E94C10B66EC74E0AFCF66ED74E069
:10350000CE0185960E94EA0C8823B9F10E94860EAE
:103510003AEFE32E36E0F32E10E000E067EF72E0C2
:10352000C7010E94EA0C0F5F1F4F8823F9F0B80112
:10353000CE0101960E94140EBE016F5F7F4F8DE594
:1035400096E00E94E901CE0101960E947A0D68EB97
:103550007BE080E090E00E9492060E94C10380EA36
:1035600095E00E94250A0E94CA0AEBCB86E0E80E8D
:10357000F11C0031110591F6EACF6FED74E0CE0138
:1035800085960E94EA0C882309F4DBCB0E94860E04
:103590002AEFE22E26E0F22E10E000E067EF72E064
:1035A000C7010E94EA0C0F5F1F4F882309F44AC02D
:1035B000B801CE0101960E94140EBE016F5F7F4FCD
:1035C0008DE596E00E94E901CE0101960E947A0DF8
:1035D00090E1C92E92E0D92EF12CE12C10E000E010
:1035E0009701200F311FE6E0E29FC001E39F900D9D
:1035F000112468EE72E08650994F0E94EA0C8823ED
:1036000049F0F801EE0FFF1FEC0DFD1D81E090E089
:10361000918380830F5F1F4F0430110509F794E0F9
:10362000E90EF11CE8E0CE0ED11CF0E1EF16F1043A
:10363000A9F668EB7BE080E090E00E94920680E1D2
:1036400092E08FCF96E0E90EF11C0031110509F0F0
:10365000A5CFBECFCF93DF93CAE5D7E02697CE01A3
:103660000E947A0D86E0CA3FD807C1F784EC97E044
:103670000E947A0D8EEB97E00E947A0D88EB97E01E
:103680000E947A0D82EB97E00E947A0D8CED97E014
:103690000E947A0D86ED97E00E947A0D80ED97E00A
:1036A0000E947A0D8AEC97E00E947A0D81E598E0FD
:1036B0000E947A0D87E598E00E947A0DC9E8D9E06A
:1036C0002697CE010E947A0D88E0CD35D807C1F744
:1036D00089E899E00E947A0D8FE899E00E947A0DBE
:1036E00085E999E00E947A0D8BE999E00E947A0DB4
:1036F00081EA99E00E947A0D83EF99E0DF91CF9102
:103700000C947A0D8F929F92AF92BF92CF92DF92DC
:10371000EF92FF92CF93DF93EC01688179818A81E8
:103720009B81611571058105910521F464E279EDB4
:103730008BE597E02DE133EF41E050E00E94A21CC1
:1037400049015A019B01AC01A7EAB1E40E94C11CE6
:103750006B017C01ACEEB4EFA50194010E94CF1C7B
:10376000C60ED71EE81EF91EF7FE06C081E0C81A75
:10377000D108E10880E8F80AC882D982EA82FB828F
:10378000C701B6019F77DF91CF91FF90EF90DF9057
:10379000CF90BF90AF909F908F9008958F929F92FF
:1037A000AF92BF92CF92DF92EF92FF926091490267
:1037B00070914A0280914B0290914C026115710503
:1037C0008105910521F464E279ED8BE597E02DE127
:1037D00033EF41E050E00E94A21C49015A019B01D5
:1037E000AC01A7EAB1E40E94C11C6B017C01ACEE04
:1037F000B4EFA50194010E94CF1CC60ED71EE81E8F
:10380000F91EF7FE06C081E0C81AD108E10880E879
:10381000F80AC0924902D0924A02E0924B02F0921A
:103820004C02C701B6019F77FF90EF90DF90CF90D9
:10383000BF90AF909F908F900895609349027093CE
:103840004A0280934B0290934C020895BB274A3062
:1038500031F4992322F4BDE2909581959F4F0C9409
:10386000631CBB272A3051F4992342F4BDE29095A2
:103870008095709561957F4F8F4F9F4F0C94411CA1
:10388000BB27FA01A62F6217710581059105330B3D
:1038900030FB66F0AA27660F771F881F991FAA1FA3
:1038A000A21710F0A21B63953850A9F7A05DAA33A8
:1038B00008F0A95DA19336F7B111B1931082CA0146
:1038C0000C947C1CBB27FB015527AA27880F991F46
:1038D000AA1FA41710F0A41B83955051B9F7A05D3F
:1038E000AA3308F0A95DA193009779F7B111B193BC
:1038F0001192CB010C947C1CDC01FC01672F7191AF
:103900007723E1F7329704C07C916D9370836291C5
:10391000AE17BF07C8F30895F999FECF92BD81BDD8
:10392000F89A992780B50895262FF999FECF1FBAE6
:1039300092BD81BD20BD0FB6F894FA9AF99A0FBED8
:1039400001960895052E97FB1EF400940E94B91C61
:1039500057FD07D00E94D41C07FC03D04EF40C94F2
:10396000B91C50954095309521953F4F4F4F5F4F73
:10397000089590958095709561957F4F8F4F9F4FDB
:1039800008950E94F61CA59F900DB49F900DA49FD2
:10399000800D911D11240895B7FF0C94C11C0E9445
:1039A000C11C821B930B0895A1E21A2EAA1BBB1BFC
:1039B000FD010DC0AA1FBB1FEE1FFF1FA217B307FB
:1039C000E407F50720F0A21BB30BE40BF50B661F11
:1039D000771F881F991F1A9469F7609570958095D5
:1039E00090959B01AC01BD01CF010895A29FB0014C
:1039F000B39FC001A39F700D811D1124911DB29F23
:103A0000700D811D1124911D089597FB072E16F44A
:103A1000009407D077FD09D00E94211D07FC05D036
:103A20003EF4909581959F4F0895709561957F4FD5
:103A30000895EE0FFF1F881F8BBF0790F691E02DB2
:103A40001994AA1BBB1B51E107C0AA1FBB1FA617D5
:103A5000B70710F0A61BB70B881F991F5A95A9F737
:103A600080959095BC01CD0108950F931F93CF933E
:103A7000DF938230910510F482E090E0E091FB0941
:103A8000F091FC0930E020E0B0E0A0E0309799F43C
:103A90002115310509F44AC0281B390B24303105A2
:103AA000D8F58A819B816115710589F1FB019383AA
:103AB0008283FE0111C04081518102811381481728
:103AC0005907E0F04817590799F4109761F01296DA
:103AD0000C93129713961C933296CF01DF91CF91DE
:103AE0001F910F9108950093FB091093FC09F4CFE7
:103AF0002115310551F04217530738F0A901DB01B8
:103B00009A01BD01DF01F801C1CFEF01F9CF909318
:103B1000FC098093FB09CDCFFE01E20FF31F8193D7
:103B200091932250310939832883D7CF2091F90905
:103B30003091FA09232B41F420914F023091500229
:103B40003093FA092093F90920914D0230914E02E9
:103B50002115310541F42DB73EB7409151025091E6
:103B60005202241B350BE091F909F091FA09E21792
:103B7000F307A0F42E1B3F0B2817390778F0AC0190
:103B80004E5F5F4F2417350748F04E0F5F1F50936D
:103B9000FA094093F909819391939FCFF0E0E0E017
:103BA0009CCFCF93DF930097E9F0FC01329713820B
:103BB0001282A091FB09B091FC09ED0130E020E0F8
:103BC0001097A1F420813181820F931F2091F90970
:103BD0003091FA092817390709F061C0F093FA0902
:103BE000E093F909DF91CF910895EA01CE17DF073D
:103BF000E8F54A815B819E0141155105B1F7E90164
:103C0000FB83EA8349915991C40FD51FEC17FD0737
:103C100061F4808191810296840F951FE901998357
:103C20008883828193819B838A83F0E0E0E012960F
:103C30008D919C9113970097B9F52D913C91119717
:103C4000CD010296820F931F2091F9093091FA0954
:103C50002817390739F6309751F51092FC09109260
:103C6000FB09B093FA09A093F909BCCFD383C283AF
:103C700040815181840F951FC817D90761F44E5FA9
:103C80005F4F88819981480F591F518340838A81F2
:103C90009B81938382832115310509F0B0CFF09386
:103CA000FC09E093FB099ECFFD01DC01C0CF13822C
:103CB0001282D7CF4F925F926F927F928F929F9294
:103CC000AF92BF92CF92DF92EF92FF920F931F932A
:103CD000CF93DF938C01009799F4CB01DF91CF91C3
:103CE0001F910F91FF90EF90DF90CF90BF90AF901A
:103CF0009F908F907F906F905F904F900C94351DA8
:103D0000FC01E60FF71F9C0122503109E217F3076F
:103D100008F4AEC0D901CD91DC911197C617D70731
:103D200020F1C530D10578F0CE01049786179707AA
:103D300050F0C61BD70B2297C193D1936D937C9300
:103D4000CF010E94D11DC801DF91CF911F910F912A
:103D5000FF90EF90DF90CF90BF90AF909F908F90AB
:103D60007F906F905F904F9008955B01AC1ABD0AF1
:103D70004C018C0E9D1EA091FB09B091FC09512CA9
:103D8000412CF12CE12C109731F58091F90990919B
:103D9000FA098815990509F05CC04616570608F01F
:103DA00058C080914D0290914E02009741F48DB71A
:103DB0009EB74091510250915202841B950BE81717
:103DC000F90708F055C0F093FA09E093F909F901F1
:103DD00071836083B8CF8D919C91119712966C90EE
:103DE000129713967C901397A815B90559F56C0195
:103DF00042E0C40ED11CCA14DB0420F1AC014A1904
:103E00005B09DA011296159780F062827382518302
:103E10004083D9016D937C93E114F10471F0D701D3
:103E20001396FC93EE9312978ECF22968C0F9D1FC4
:103E3000F90191838083F301EFCFF093FC09E093C4
:103E4000FB0981CF4816590608F42C017D01D301E6
:103E50009ACFCB010E94351D7C01009749F0AE013D
:103E6000B8010E943B1FC8010E94D11D87016BCF82
:103E700010E000E068CFFB01DC0102C001900D9270
:103E800041505040D8F70895FB01DC018D9101901D
:103E900080190110D9F3990B0895FB01DC01019001
:103EA0000D920020E1F7089511E0C8E5D1E000E0AF
:103EB00006C0802FFE010E94191D2196011DC935E3
:103EC000D10780E00807A9F7F894FFCF0A0A0A0093
:103ED00000110E000E11111F1B1B1F00000000001F
:103EE00000000100000000000100000000000100CF
:103EF000000000000100000000000000FF060708AD
:103F0000090203040537383941343536423132333A
:103F1000432A302344010000000000FD09800018FE
:103F20000019001B001D001F002100230025002791
:103F30000029002B002D002F003100330034000039
:103F40000000009702F7012402E402550233024701
:103F5000020000000069062204F10300000000795D
:103F60000CF701220AE8010D0A0061646D696E2DEB
:103F70003132333400456E636F6E747261646F006A
:103F800061646D696E0061646D696E320031323357
:103F9000343200736172612D73617269746100451E
:103FA00064756172646F2D313233342C5245474948
:103FB00053545241520031323334585A0042004374
:103FC00000440056005573756172696F20004269A4
:103FD000656E76656E69646F00477275706F332D1C
:103FE00053656363696F6E204100202045737065DF
:103FF00072616E646F2E2E2E202000202020202043
:1040000020202020202020202020202020002020D0
:104010002020205573756172696F20202020202098
:1040200020202020202020002020202020457869EA
:104030007374656E746520202020202020202020AD
:10404000200020202020205265676973747261640B
:104050006F2020202020202020202020004C4F47AF
:10406000494E002020202020436F6E6578696F6ED6
:104070002020202020202020202020202000202060
:10408000202020657869746F736120202020202013
:10409000202020202000544F4B454E00544F4B45CC
:1040A0004E3A200044494749544520535520544F27
:1040B0004B454E3A0020544F4B454E20434F5252F1
:1040C0004543544F2000454E5452414E444F2050DA
:1040D00041525155454F002D2061627269656E64F1
:1040E0006F202D2020202000496E677265736F209D
:1040F0007665686963756C6F202020202020002D74
:104100002063657272616E646F202D202020202054
:10411000004C6973746F2020202020202020202054
:104120002020202000544F4B454E20494E434F52F3
:10413000524543544F200045584345444520534978
:104140005A4500202044454C20544F4B454E2020DA
:104150002000544F4B454E20494E56414C49444F48
:10416000004578636564696F203320696E74656EFD
:1041700074730066616C6C69646F00424F544F4EFB
:104180002043414E43454C0053452041435449563A
:104190004F0063616E63656C00636F727265637478
:1041A0006F00494E475245534152005245534552C4
:0441B0005641520022
:020000040003F7
:10E000000D9489F10D94B2F10D94B2F10D94B2F129
:10E010000D94B2F10D94B2F10D94B2F10D94B2F1F0
:10E020000D94B2F10D94B2F10D94B2F10D94B2F1E0
:10E030000D94B2F10D94B2F10D94B2F10D94B2F1D0
:10E040000D94B2F10D94B2F10D94B2F10D94B2F1C0
:10E050000D94B2F10D94B2F10D94B2F10D94B2F1B0
:10E060000D94B2F10D94B2F10D94B2F10D94B2F1A0
:10E070000D94B2F10D94B2F10D94B2F10D94B2F190
:10E080000D94B2F10D94B2F10D94B2F10D94B2F180
:10E090000D94B2F10D94B2F10D94B2F10D94B2F170
:10E0A0000D94B2F10D94B2F10D94B2F10D94B2F160
:10E0B0000D94B2F10D94B2F10D94B2F10D94B2F150
:10E0C0000D94B2F10D94B2F10D94B2F10D94B2F140
:10E0D0000D94B2F10D94B2F10D94B2F10D94B2F130
:10E0E0000D94B2F141546D656761323536300041AF
:10E0F000726475696E6F206578706C6F72657220DE
:10E1000073746B3530305632206279204D4C530099
:10E11000426F6F746C6F616465723E004875683F52
:10E1200000436F6D70696C6564206F6E203D200048
:10E130004350552054797065202020203D20005FF9
:10E140005F4156525F415243485F5F3D2000415658
:10E1500052204C696243205665723D20004743437C
:10E160002056657273696F6E203D20004350552024
:10E1700049442020202020203D20004C6F7720663D
:10E18000757365202020203D20004869676820665F
:10E190007573652020203D200045787420667573D6
:10E1A00065202020203D20004C6F636B2066757336
:10E1B000652020203D20004D617220203720323024
:10E1C000313300312E362E3800342E332E350056A2
:10E1D00023202020414444522020206F7020636F70
:10E1E00064652020202020696E73747275637469E1
:10E1F0006F6E2061646472202020496E74657272B3
:10E20000757074006E6F20766563746F7200726A49
:10E210006D702020006A6D70200057686174207056
:10E220006F72743A00506F7274206E6F7420737541
:10E2300070706F72746564004D7573742062652030
:10E2400061206C6574746572002000577269747483
:10E25000696E672045450052656164696E672045B7
:10E26000450045452065727220636E743D00504F35
:10E27000525400303D5A65726F2061646472003FF1
:10E280003D43505520737461747300403D454550C3
:10E29000524F4D207465737400423D426C696E6B41
:10E2A000204C454400453D44756D70204545505215
:10E2B0004F4D00463D44756D7020464C415348001B
:10E2C000483D48656C70004C3D4C69737420492F83
:10E2D0004F20506F72747300513D51756974005234
:10E2E0003D44756D702052414D00563D73686F7707
:10E2F00020696E7465727275707420566563746FF0
:10E30000727300593D506F727420626C696E6B00BD
:10E310002A0011241FBECFEFD1E2DEBFCDBF01E046
:10E320000CBF12E0A0E0B2E0EEE1FDEF03E00BBFB6
:10E3300002C007900D92A030B107D9F712E0A0E01B
:10E34000B2E001C01D92AE30B107E1F70F9460F367
:10E350000D948DFE01E20EBF0FEF0DBF11241FBE05
:10E360000D9460F30D9400F020E030E040ED57E0B4
:10E3700005C0FA013197F1F72F5F3F4F2817390792
:10E38000C0F308959C01260F311DC901A0E0B0E043
:10E390002F5F3F4FABBFFC018791882361F08093D3
:10E3A000C6008091C00086FFFCCF8091C0008064D1
:10E3B0008093C000EACF08958DE08093C6008091DD
:10E3C000C00086FFFCCF8091C00080648093C000B5
:10E3D0008AE08093C6008091C00086FFFCCF8091C8
:10E3E000C00080648093C00008950F94C2F10F9420
:10E3F000DCF10895FC019081992359F09093C600B7
:10E400008091C00086FFFCCF8091C0008064809323
:10E41000C0003196992379F70895282F982F929567
:10E420009F70892F805D8A3308F0895F8093C600D2
:10E430008091C00086FFFCCF8091C00080648093F3
:10E44000C000822F8F70982F905D9A3308F0995FEB
:10E450009093C6008091C00086FFFCCF8091C000E1
:10E4600080648093C00008959C01FB01853691056E
:10E470001CF46330710594F0C90164E670E00F94F8
:10E480002EFE605D7F4F6093C6008091C00086FFC6
:10E49000FCCF8091C00080648093C0002B30310598
:10E4A00014F43297B4F0C90164E670E00F942EFEC4
:10E4B0006AE070E00F942EFE605D7F4F6093C600AF
:10E4C0008091C00086FFFCCF8091C0008064809363
:10E4D000C000C9016AE070E00F942EFEC0968093E0
:10E4E000C6008091C00086FFFCCF8091C000806490
:10E4F0008093C00008951F93182F8EE692EE60E07F
:10E500000F94C2F11093C6008091C00086FFFCCF2B
:10E510008091C00080648093C0000F94DCF11F9153
:10E5200008952F923F924F925F926F927F928F92B7
:10E530009F92AF92BF92CF92DF92EF92FF920F9392
:10E540001F93DF93CF93CDB7DEB762970FB6F894E2
:10E55000DEBF0FBECDBF382E622ECA01DB015C01CB
:10E560006D01772420E2222E2E010894411C511CBB
:10E570008BC081E0A81680E0B80681E0C80680E084
:10E58000D80628F0C601AA27BB270F940DF2BB2797
:10E59000AD2D9C2D8B2D0F940DF28A2D0F940DF225
:10E5A0002092C6008091C00086FFFCCF8091C00001
:10E5B00080648093C0009DE29093C6008091C0006B
:10E5C00086FFFCCF8091C00080648093C0002092C1
:10E5D000C6008091C00086FFFCCF8091C00080649F
:10E5E0008093C00019828601750188249924A1E0D6
:10E5F0003A1651F03A1620F0B2E03B1661F409C029
:10E600000BBFF701779007C0C7010F9477FE782EF4
:10E6100002C0F7017080872D0F940DF22092C60082
:10E620008091C00086FFFCCF8091C0008064809301
:10E63000C000872D8052F401EF70F0708F3520F408
:10E64000E40DF51D708204C0E40DF51D8EE280839B
:10E650000894E11CF11C011D111D0894811C911CE2
:10E6600090E18916910409F0C2CF80E190E0A0E02A
:10E67000B0E0A80EB91ECA1EDB1E198AC2010F9493
:10E68000FAF10F94DCF16A94662009F072CF629679
:10E690000FB6F894DEBF0FBECDBFCF91DF911F91B3
:10E6A0000F91FF90EF90DF90CF90BF90AF909F9031
:10E6B0008F907F906F905F904F903F902F90089534
:10E6C0002F923F924F925F926F927F928F929F9282
:10E6D000AF92BF92CF92DF92EF92FF920F931F9370
:10E6E000DF93CF93CDB7DEB7CD53D1400FB6F894BB
:10E6F000DEBF0FBECDBF01E20EBF0FEF0DBF94B75F
:10E70000F894A89514BE80916000886180936000A1
:10E7100010926000789493FF05C0E0910002F091A0
:10E7200001021995279A2F9A8091C00082608093E8
:10E73000C00080E18093C40088E18093C1000000A4
:10E74000EE24FF24870144E0A42EB12CCC24DD2448
:10E7500024C0C5010197F1F70894E11CF11C011DCB
:10E76000111D21E2E2162EE4F20620E0020720E06D
:10E77000120718F031E0C32ED12CC801B70127ECE5
:10E780003BE140E050E00F9441FE611571058105C9
:10E79000910519F485B1805885B98091C00087FD35
:10E7A00003C0C114D104A9F2A6014F5F5F4FC25E3E
:10E7B000DE4F59834883CE51D140C25EDE4F8881FF
:10E7C0009981CE51D140019711F00D9410FEC05D9A
:10E7D000DE4F19821882C053D14060E0C15DDE4F28
:10E7E0001882CF52D14088249924C35DDE4F19820C
:10E7F0001882CD52D140C05EDE4F188219821A8233
:10E800001B82C052D140CE5CDE4F188219821A8220
:10E810001B82C253D140EE24FF2487010BBFF701B6
:10E8200007911691C45CDE4F19830883CC53D14005
:10E830000D940BFEC25EDE4F28813981CE51D1404E
:10E840002130310509F52091C600C25EDE4F1982E4
:10E850001882CE51D14022C02F5F3F4F4F4F5F4FA4
:10E86000213082E138078AE7480780E0580780F0C6
:10E87000C45CDE4FE881F981CC53D140EF5FFF4F9C
:10E8800019F0EE27FF27099420E030E040E050E047
:10E890008091C00087FFE0CF2091C600C35DDE4FAE
:10E8A00048815981CD52D1404F5F5F4FC35DDE4FEC
:10E8B00059834883CD52D140213209F063C64A3092
:10E8C000510508F05FC60894811C911C53E0851621
:10E8D000910409F059C600E010E018C081E280936D
:10E8E000C6008091C00086FFFCCF8091C00080648C
:10E8F0008093C0002F5F3F4F2931310579F70F9486
:10E90000DCF10F5F1F4F0530110519F020E030E0FA
:10E91000E5CF10920A0210920B0210920C02109294
:10E920000D02109206021092070210920802109235
:10E930000902109202021092030210920402109235
:10E9400005028FEE90EE60E00F94F5F180E191EE1C
:10E9500060E00F94C2F18091C00087FFFCCF9091DE
:10E96000C600903608F09F759032B8F09093C600BC
:10E970008091C00086FFFCCF8091C00080648093AE
:10E98000C000A0E2A093C6008091C00086FFFCCF2B
:10E990008091C00080648093C000983409F4D7C18E
:10E9A0009934B8F4923409F459C1933458F490333B
:10E9B00019F1903308F4E3C59F33A1F1903409F0C5
:10E9C000DEC5BDC0953409F470C1963409F0D7C5D1
:10E9D00098C1923509F42BC2933538F49C3409F46C
:10E9E000F5C1913509F0CBC518C2963509F445C279
:10E9F000993509F0C4C567C483E792EE62E00F94CD
:10EA0000F5F110920602109207021092080210927D
:10EA1000090210920A0210920B0210920C0210923C
:10EA20000D0213C18FE792EE62E00F94F5F18FEEC5
:10EA300090EE60E00F94F5F181E291EE60E00F94CA
:10EA4000C2F187EB91EE60E00F94F5F180E391EE77
:10EA500060E00F94C2F184EE90EE60E00F94F5F167
:10EA60008FE391EE60E00F94C2F186E090E061E008
:10EA700070E00F9434F20F94DCF18DE591EE60E0DC
:10EA80000F94C2F189EC91EE60E00F94F5F18EE401
:10EA900091EE60E00F94C2F183EC91EE60E00F9490
:10EAA000F5F18CE691EE60E00F94C2F18EE10F94E7
:10EAB0000DF288E90F940DF281E00F940DF20F949E
:10EAC000DCF18BE791EE60E00F94C2F119E0E0E039
:10EAD000F0E010935700E4918E2F0F940DF20F94F5
:10EAE000DCF18AE891EE60E00F94C2F1E3E0F0E03F
:10EAF00010935700E4918E2F0F940DF20F94DCF1D8
:10EB000089E991EE60E00F94C2F1E2E0F0E0109349
:10EB10005700E4918E2F0F940DF20F94DCF188EAE8
:10EB200091EE60E00F94C2F1E1E0F0E01093570045
:10EB30001491812F0F940DF20F94DCF107CF8BE825
:10EB400092EE62E00F94F5F18BE492EE60E00F94A8
:10EB5000F5F10F94DCF100E010E019C0C8016F2D51
:10EB60000F947FFEFF2031F489E492EE60E00F9471
:10EB7000C2F10BC0F092C6008091C00086FFFCCFAE
:10EB80008091C00080648093C0000F5F1F4FC80158
:10EB900081519F41A0E0B0E0ABBFFC01F790BAE229
:10EBA000FB1621F0E2E000301E07C1F60F94DCF105
:10EBB0000F94DCF187E592EE60E00F94F5F10F948D
:10EBC000DCF1CC24DD2400E010E01EC0C8010F946D
:10EBD00077FEF82E882331F489E492EE60E00F94FA
:10EBE000C2F10BC08093C6008091C00086FFFCCFAD
:10EBF0008091C00080648093C000FE1419F00894D6
:10EC0000C11CD11C0F5F1F4FC80181519F41A0E063
:10EC1000B0E0ABBFFC01E790FAE2EF1621F022E092
:10EC20000030120799F60F94DCF10F94DCF182E6C4
:10EC300092EE60E00F94C2F1C60161E070E00F94C3
:10EC400034F20F94DCF10F94DCF110920202109276
:10EC50000302109204021092050278CE89E992EE26
:10EC600062E00F94F5F1279A2F9A16C02F9880E052
:10EC700090E0E0EDF7E03197F1F7019684369105E9
:10EC8000C1F72F9A80E090E0E0EDF7E03197F1F7DF
:10EC9000019684369105C1F78091C00087FFE6CFC9
:10ECA0008091C00087FFFCCF64C485EA92EE62E0E9
:10ECB0000F94F5F140910202509103026091040219
:10ECC0007091050281E020E10F9491F2809102029F
:10ECD00090910302A0910402B091050280509F4FD1
:10ECE000AF4FBF4F8093020290930302A0930402A0
:10ECF000B093050280509041A040B04008F426CE69
:10ED0000A4CF83EB92EE62E00F94F5F140910602FE
:10ED100050910702609108027091090280E020E1A1
:10ED20000F9491F28091060290910702A09108023F
:10ED3000B091090280509F4FAF4FBF4F80930602A2
:10ED400090930702A0930802B0930902FFCD80ECD4
:10ED500092EE62E00F94F5F183E792EE60E00F949B
:10ED6000F5F18FE792EE60E00F94F5F18BE892EE0B
:10ED700060E00F94F5F189E992EE60E00F94F5F10F
:10ED800085EA92EE60E00F94F5F183EB92EE60E09D
:10ED90000F94F5F180EC92EE60E00F94F5F187ECC2
:10EDA00092EE60E00F94F5F188ED92EE60E00F9442
:10EDB000F5F18FED92EE60E00F94F5F18AEE92EEB0
:10EDC00060E00F94F5F183E093EEBDCD87EC92EE19
:10EDD00062E00F94F5F181E40F947BF282E40F94EA
:10EDE0007BF283E40F947BF284E40F947BF285E45E
:10EDF0000F947BF286E40F947BF287E40F947BF20E
:10EE000088E40F947BF28AE40F947BF28BE40F94F6
:10EE10007BF28CE40F947BF299CD88ED92EE62E068
:10EE20000F94F5F1772473948824992409C48FED05
:10EE300092EE62E00F94F5F140910A0250910B02BC
:10EE400060910C0270910D0282E020E10F9491F22A
:10EE500080910A0290910B02A0910C02B0910D02D8
:10EE600080509F4FAF4FBF4F80930A0290930B0289
:10EE7000A0930C02B0930D0269CD8AEE92EE62E08F
:10EE80000F94F5F184EE90EE60E00F94F5F18FECC5
:10EE900091EE60E00F94F5F1662477244301CC5D98
:10EEA000DE4F19821882C452D140D401C301B695F5
:10EEB000A79597958795CA5DDE4F88839983AA8326
:10EEC000BB83C652D140CC5DDE4FA881B981C4520C
:10EED000D1401196CC5DDE4FB983A883C452D14096
:10EEE000CD0162E070E00F9434F2B0E2B093C6005E
:10EEF0008091C00086FFFCCF8091C0008064809329
:10EF0000C000EDE2E093C6008091C00086FFFCCF18
:10EF10008091C00080648093C000F0E2F093C6004E
:10EF20008091C00086FFFCCF8091C00080648093F8
:10EF3000C000CA5DDE4FE880F9800A811B81C6529D
:10EF4000D140BB27A12F902F8F2D0F940DF2CA5DBA
:10EF5000DE4F8881C652D1400F940DF2B0E2FB2EF5
:10EF6000F092C6008091C00086FFFCCF8091C00067
:10EF700080648093C0000DE30093C6008091C000C0
:10EF800086FFFCCF8091C00080648093C00010E2B7
:10EF90001093C6008091C00086FFFCCF8091C00016
:10EFA00080648093C0008BBEF3012791C65DDE4F65
:10EFB0002883CA52D140A22EBB24CC24DD2408943D
:10EFC000611C711C811C911C8BBEF3018791282E42
:10EFD0003324442455240894611C711C811C911C09
:10EFE0008BBEF3013791C55DDE4F3883CB52D140E4
:10EFF0000894611C711C811C911C8BBEF30147910C
:10F00000C45DDE4F4883CC52D140ADEFEA2EAFEF66
:10F01000FA2EAFEF0A2FAFEF1A2F6E0C7F1C801E57
:10F02000911E142D032DF22CEE24EA0CFB1C0C1D5A
:10F030001D1D0F940DF220E22093C6008091C000A8
:10F0400086FFFCCF8091C00080648093C000C65DC5
:10F05000DE4F8881CA52D1400F940DF230E23093D6
:10F06000C6008091C00086FFFCCF8091C000806404
:10F070008093C000C45DDE4F8881CC52D1400F9494
:10F080000DF240E24093C6008091C00086FFFCCFA5
:10F090008091C00080648093C000C55DDE4F888190
:10F0A000CB52D1400F940DF250E25093C6008091A4
:10F0B000C00086FFFCCF8091C00080648093C000B8
:10F0C0008FEFE8168FEFF80680E0080780E018075A
:10F0D00031F484E092EE60E00F94C2F1DFC0D80119
:10F0E000C7018070907CA070B0708050904CA040A0
:10F0F000B040D1F52FEF3FE340E050E0E222F322B1
:10F1000004231523CA5DDE4FA880B980CA80DB8046
:10F11000C652D140AE0CBF1CC01ED11EAA0CBB1CD7
:10F12000CC1CDD1C8EE092EE60E00F94C2F1BB2798
:10F13000A12F902F8F2D0F940DF28E2D0F940DF285
:10F1400030E23093C6008091C00086FFFCCF8091F2
:10F15000C00080648093C0004EE34093C60080915D
:10F16000C00086FFFCCF87C08EE09EEFA0E0B0E03D
:10F17000E822F9220A231B239CE0E91694E9F90608
:10F1800090E0090790E0190709F088C0C45DDE4FE0
:10F19000A881CC52D140EA2EFF2400E010E0102FCD
:10F1A0000F2DFE2CEE24C55DDE4FB881CB52D14031
:10F1B000EB0EF11C011D111DD601C501817090706F
:10F1C000A070B070DC0199278827E80EF91E0A1F8D
:10F1D0001B1F20EF30E040E050E0A222B322C42207
:10F1E000D52241E1AA0CBB1CCC1CDD1C4A95D1F7F1
:10F1F000EA0CFB1C0C1D1D1D81E090E0A0E0B0E0BE
:10F20000282239224A225B2235E1220C331C441C7D
:10F21000551C3A95D1F7E20CF31C041D151D57013E
:10F220006801AA0CBB1CCC1CDD1C85E192EE60E0E1
:10F230000F94C2F1C801AA27BB270F940DF2BB2778
:10F24000A12F902F8F2D0F940DF28E2D0F940DF274
:10F2500090E29093C6008091C00086FFFCCF809121
:10F26000C00080648093C000AEE3A093C60080918C
:10F27000C00086FFFCCF8091C00080648093C000F6
:10F28000C601AA27BB270F940DF2BB27AD2D9C2DDD
:10F290008B2D0F940DF28A2D0F940DF20F94DCF14B
:10F2A000CC5DDE4FE881F981C452D140F99709F471
:10F2B0004DCBF4E0EF2EF12C012D112D6E0C7F1CA7
:10F2C000801E911EF2CD83E093EE62E00F94F5F183
:10F2D0008AE192EE60E00F94C2F18091C00087FF56
:10F2E000FCCF1091C6001F751093C6008091C0001E
:10F2F00086FFFCCF8091C00080648093C0000F9493
:10F30000DCF1812F81548A3108F036C1163409F4BA
:10F3100095C0173490F4133409F44EC0143430F40B
:10F320001134F1F0123409F01DC130C0143409F465
:10F3300059C0153409F016C16BC01A3409F4C4C0A1
:10F340001B3438F4173409F48FC0183409F00AC19B
:10F35000A1C01B3409F4D2C01C3409F003C1E8C0B9
:10F360008FEF81B90DC082B1809582B980E090E0C5
:10F37000E0EDF7E03197F1F70196883C9105C1F790
:10F380008091C00087FFEFCF12B8EFC08FEF84B934
:10F390000DC085B1809585B980E090E0E0EDF7E0A3
:10F3A0003197F1F70196883C9105C1F78091C00033
:10F3B00087FFEFCF15B8D9C08FEF87B90DC088B1DF
:10F3C000809588B980E090E0E0EDF7E03197F1F7C3
:10F3D0000196883C9105C1F78091C00087FFEFCF6F
:10F3E00018B8C3C08FEF8AB90DC08BB180958BB9A7
:10F3F00080E090E0E0EDF7E03197F1F70196883C8E
:10F400009105C1F78091C00087FFEFCF1BB8ADC059
:10F410008FEF8DB90DC08EB180958EB980E090E0F0
:10F42000E0EDF7E03197F1F70196883C9105C1F7DF
:10F430008091C00087FFEFCF1EB897C08FEF80BBD1
:10F440000DC081B3809581BB80E090E0E0EDF7E0F6
:10F450003197F1F70196883C9105C1F78091C00082
:10F4600087FFEFCF11BA81C08FEF83BB0DC084B38C
:10F47000809584BB80E090E0E0EDF7E03197F1F714
:10F480000196883C9105C1F78091C00087FFEFCFBE
:10F4900014BA6BC08FEF809301010FC080910201FD
:10F4A00080958093020180E090E0E0EDF7E03197F5
:10F4B000F1F70196883C9105C1F78091C00087FF64
:10F4C000EDCF1092020151C08FEF809304010FC065
:10F4D0008091050180958093050180E090E0E0ED4A
:10F4E000F7E03197F1F70196883C9105C1F78091DB
:10F4F000C00087FFEDCF1092050137C08FEF8093DA
:10F5000007010FC08091080180958093080180E079
:10F5100090E0E0EDF7E03197F1F70196883C910536
:10F52000C1F78091C00087FFEDCF109208011DC088
:10F530008FEF80930A010FC080910B01809580931B
:10F540000B0180E090E0E0EDF7E03197F1F70196F4
:10F55000883C9105C1F78091C00087FFEDCF1092E4
:10F560000B0103C085E292EEEEC98091C00087FFD7
:10F57000FCCF8091C600EAC988E392EEE4C98CE131
:10F5800091EEE1C988249924933011F1943028F444
:10F59000913089F09230B8F408C0953061F195301F
:10F5A000F0F0963009F048C043C02B3109F042C951
:10F5B00091E06BE13FC96227C15DDE4F2883CF52E6
:10F5C000D14092E037C9B22FA0E0622793E032C960
:10F5D000822F90E0A82BB92B622794E02BC92E3004
:10F5E00009F039C3622795E0C05DDE4F19821882A9
:10F5F000C053D1401FC9E1E0F0E0EC0FFD1FC05D3A
:10F60000DE4F08811981C053D140E00FF11F2083E4
:10F610000F5F1F4FC05DDE4F19830883C053D14079
:10F6200062270A171B0709F005C9D80196E002C92D
:10F63000261709F010C303C0973009F0FBC87724E0
:10F640009981933109F412C19431C8F4963009F4C8
:10F65000D8C0973050F4923009F406C1933009F4C1
:10F660006DC0913009F059C253C0913109F477C08F
:10F67000923108F0BBC0903109F04FC2F5C098310B
:10F6800009F487C0993150F4953109F4EFC09531F0
:10F6900008F4C6C1963109F040C2C2C19A3109F4DA
:10F6A0006CC09A3108F491C09B3109F45BC09D3164
:10F6B00009F033C29D81903359F48F81882311F46E
:10F6C0009EE11CC0813011F091E018C098E916C08D
:10F6D000892F807591F0903539F4E0E0F0E089E011
:10F6E0008093570094910AC0983539F4E3E0F0E034
:10F6F00089E080935700949101C090E01A821B82A8
:10F700008D818C831D829E831F8227E030E009C299
:10F710001A8288E08B8381E48C8386E58D8382E581
:10F720008E8389E48F8383E5888780E589878FE5E9
:10F730008A8782E38B872BE030E0F3C18A818139AD
:10F7400041F0823941F0803911F48FE005C080E04A
:10F7500003C082E001C08AE01A828B8344C0772410
:10F76000739482C08D81882311F48EE12CC0813086
:10F7700011F081E028C088E926C01A82E1E0F0E0BB
:10F7800089E08093570084918B831C8224E030E0D1
:10F79000C8C18B81803589F48C81883039F4E2E0EE
:10F7A000F0E089E08093570084910DC0E0E0F0E044
:10F7B00089E080935700849106C0E3E0F0E089E09F
:10F7C0008093570084911A82DFCF8D81836C99E0FA
:10F7D000E1E0F0E0082E90935700E89507B600FCB2
:10F7E000FDCF1A821B8223E030E09BC180EC8A832C
:10F7F000CE5CDE4F188219821A821B82C253D1401E
:10F800008EC18A8190E0A0E0B0E0582F44273327D2
:10F8100022278B8190E0A0E0B0E0DC0199278827C7
:10F82000282B392B4A2B5B2B8D8190E0A0E0B0E098
:10F83000282B392B4A2B5B2B8C8190E0A0E0B0E089
:10F84000BA2FA92F982F8827282B392B4A2B5B2BCF
:10F85000220F331F441F551FC05EDE4F288339839C
:10F860004A835B83C052D1401A8259C13A81C95C34
:10F87000DE4F3883C753D140CA5CDE4F1882C6536F
:10F88000D1408B81C82EDD24CA5CDE4F488159816E
:10F89000C653D140C42AD52A933109F082C0CE5C28
:10F8A000DE4F88819981AA81BB81C253D1408050AB
:10F8B000904CA340B04030F583E0CE5CDE4FE88052
:10F8C000F9800A811B81C253D140F70100935B008C
:10F8D00080935700E89507B600FCFDCFCE5CDE4F65
:10F8E000088119812A813B81C253D14000501F4FAA
:10F8F0002F4F3F4FCE5CDE4F088319832A833B8313
:10F90000C253D140C05EDE4F488159816A817B81FC
:10F91000C052D140DE011B9631E08C9111962C91A2
