:020000040000FA
:100000000C9445010C9476010C9476010C947601C5
:100010000C9476010C9476010C9476010C94760184
:100020000C9476010C9476010C9476010C94760174
:100030000C9476010C943A070C9476010C9476019A
:100040000C9476010C9476010C9476010C94760154
:100050000C9476010C9476010C9476010C9458085B
:100060000C9476010C9422080C94F8070C947601F9
:100070000C9476010C9476010C9476010C94760124
:100080000C9476010C9476010C9476010C94760114
:100090000C94C2070C9498070C9476010C9476018A
:1000A0000C9476010C9476010C9476010C947601F4
:1000B0000C9476010C9476010C9476010C947601E4
:1000C0000C9476010C9476010C9476010C947601D4
:1000D0000C9476010C9476010C9476010C947601C4
:1000E0000C9476010C943E030C944A030C94380350
:1000F0000C94CD020C9465030C9479030C943E028D
:100100000C9453030C9430040C94A70C0C944D03E2
:100110000C945B040C9461030C94DC010C94570365
:100120000C9480020C949F010C945D030C945F046A
:100130000C94A0010C9430020C9433040C946B03C7
:100140000C9478030C9442030C9446030C94CD0158
:100150000C947D030C94A5050C94A2080C946F03D9
:100160000C947303000020002300260029002C00BB
:100170002F00320000010000030106010901000008
:100180002100240027002A002D0030003300010147
:100190000000040107010A010000220025002800D8
:1001A0002B002E003100340002010000050108017F
:1001B0000B010505050507050808080802020202EB
:1001C0000A0A0808040404040101010101010101F3
:1001D0000303030303030303040707070C0C0C0CBE
:1001E0000C0C0C0C020202020606060606060606A7
:1001F0000B0B0B0B0B0B0B0B010210202008081034
:100200002040102040800201020108040201010286
:10021000040810204080804020100804020180045F
:1002200002018040201008040201080402010102BA
:1002300004081020408001020408102040800000C3
:100240000A0B02090C0D0E08070304010000000050
:10025000000000000000000000000000000000009E
:10026000000000000000000000001211100000005B
:10027000000000000000000000000000000000007E
:10028000000000000200A208A70C11241FBECFEF3F
:10029000D1E2DEBFCDBF00E00CBF12E0A0E0B2E0D3
:1002A000EEE4F0E200E00BBF02C007900D92A03C2C
:1002B000B107D9F725E0A0ECB2E001C01D92A0344F
:1002C000B207E1F711E0C4E4D1E000E006C02197F5
:1002D0000109802FFE010E94EE0DC334D10780E09A
:1002E0000807A9F70E94910A0C9415100C940000BD
:1002F000FC01A089B18982E08C93A485B5851C920C
:10030000A685B7858FEC8C93108EA489B58986E07D
:100310008C93A289B3898C9180618C93A289B389D3
:100320008C9188608C93A289B3898C9180688C931E
:100330000288F389E02D80818F7D80830895089560
:10034000AF92BF92CF92DF92EF92FF920F931F93E3
:10035000CF93DF936C017B018B01040F151FEB0121
:100360005E01AE18BF08C017D10759F06991D601D8
:10037000ED91FC910190F081E02DC6011995892B3A
:1003800079F7C501DF91CF911F910F91FF90EF9009
:10039000DF90CF90BF90AF900895FC01538D448DB6
:1003A000252F30E0842F90E0821B930B541710F020
:1003B000CF96089501970895FC01918D828D98172D
:1003C00061F0A28DAE0FBF2FB11D5D968C91928D05
:1003D0009F5F9F73928F90E008958FEF9FEF089536
:1003E0002FB7F8948091E3029091E402A091E50286
:1003F000B091E6022FBF80938C0390938D03A0935E
:100400008E03B0938F0384E893E00E94DC0197FF92
:1004100026C02FB7F8948091E3029091E402A09156
:10042000E502B091E6022FBF40918C0350918D03FD
:1004300060918E0370918F03841B950BA60BB70BF5
:10044000409188035091890360918A0370918B03D6
:1004500084179507A607B707B0F28FEF9FEF0895AF
:10046000FC01918D828D981731F0828DE80FF11D7E
:10047000858D90E008958FEF9FEF0895FC01918D99
:10048000228D892F90E0805C9F4F821B91098F7392
:100490009927089587EE92E00E943E0221E0892B81
:1004A00009F420E0822F089584E893E00E943E0240
:1004B00021E0892B09F420E0822F0895FC01A48D0E
:1004C000A80FB92FB11DA35ABF4F2C91848D90E076
:1004D00001968F739927848FA689B7892C93A08959
:1004E000B1898C91837080648C93938D848D9813E3
:1004F00006C00288F389E02D80818F7D8083089576
:10050000EF92FF920F931F93CF93DF93EC0181E063
:10051000888F9B8D8C8D98131AC0E889F98980810A
:1005200085FF15C09FB7F894EE89FF896083E8893D
:10053000F98980818370806480839FBF81E090E02F
:10054000DF91CF911F910F91FF90EF900895F62EBC
:100550000B8D10E00F5F1F4F0F731127E02E8C8D56
:100560008E110CC00FB607FCFACFE889F98980819B
:1005700085FFF5CFCE010E945E02F1CFEB8DEC0F2F
:10058000FD2FF11DE35AFF4FF0829FB7F8940B8FB8
:10059000EA89FB8980818062CFCFCF93DF93EC0122
:1005A000888D8823B9F0AA89BB89E889F9898C915B
:1005B00085FD03C0808186FD0DC00FB607FCF7CF17
:1005C0008C9185FFF2CF808185FFEDCFCE010E9417
:1005D0005E02E9CFDF91CF91089580E090E0892B12
:1005E00029F00E94540281110E94000080E090E0F6
:1005F000892B29F00E944A0281110E94000080E0AC
:1006000090E0892B49F080E090E0892B29F00E944E
:10061000000081110E94000080E090E0892B49F0E9
:1006200080E090E0892B29F00E94000081110C9459
:10063000000008958150823108F05AC0E82FF0E0A0
:100640008827EA5DFC4F8F4F0C94EE0D46034A035A
:1006500038033E03420378034D03530357035D03FE
:10066000610365036B036F037803730379037D03F1
:10067000809180008F778093800008958091800022
:100680008F7DF9CF80918000877FF5CF84B58F77FC
:1006900084BD089584B58F7DFBCF8091B0008F77A6
:1006A0008093B00008958091B0008F7DF9CF809144
:1006B00090008F77809390000895809190008F7DB7
:1006C000F9CF80919000877FF5CF8091A0008F7740
:1006D0008093A00008958091A0008F7DF9CF809134
:1006E000A000877FF5CF809120018F778093200134
:1006F0000895809120018F7DF9CF80912001877F1F
:10070000F5CF1F93CF93DF93282F30E0F901E25C00
:10071000FD4F8491F901E850FE4FD491F901EE5458
:10072000FE4FC491CC23A9F0162F81110E941A0309
:10073000EC2FF0E0EE0FFF1FE856FE4FA591B491AD
:100740008FB7F894EC91111108C0D095DE23DC939B
:100750008FBFDF91CF911F910895DE2BF8CF90913D
:10076000000289130DC0E4E8F2E0E4919FEF90935A
:100770000002E230E1F038F4EE2381F0E13089F05C
:1007800060E00C948103E43049F110F1E530C1F7E9
:10079000909173009D7F90937300F2CF10926E0042
:1007A000EFCF90916F009D7F90936F00E9CF909174
:1007B00070009D7F9093700091E09093B0009091B5
:1007C000B100987F94609093B1001092B300D8CF9D
:1007D000909171009D7F90937100D2CF90917200A3
:1007E0009D7F90937200CCCFCF93DF9390E0FC017C
:1007F000E850FE4F24918E549E4FFC018491882333
:10080000C9F090E0880F991FFC01E258FE4FA591B6
:10081000B491FC01E856FE4FC591D49161110DC011
:100820009FB7F8948C91209582238C9388812823FC
:1008300028839FBFDF91CF910895623051F49FB715
:10084000F8943C91822F809583238C93E8812E2B02
:10085000EFCF8FB7F894EC912E2B2C938FBFEACF6C
:1008600090E080E00895CF93DF9370E0FB01E25CBD
:10087000FD4F8491FB01E850FE4FD4916E547E4FA2
:10088000FB01C491CC23A1F081110E941A03EC2F2B
:10089000F0E0EE0FFF1FEC59FE4FA591B491EC91E3
:1008A000ED2381E090E009F480E0DF91CF9108959D
:1008B00080E090E0FACF862F642F0C948103862F7E
:1008C000642F0C94F403CF93DF93EC0160E08E81EE
:1008D0000E94810361E08E810E94810360E08E812D
:1008E0000E9481038BE891E00197F1F7DF91CF91AE
:1008F0000895CF92DF92EF92FF920F931F93CF93C1
:10090000DF936C017C0187E0E80EF11CD0E0C0E0D1
:10091000062F10E0B8010C2E02C0759567950A9459
:10092000E2F76170F70181917F010E9481032196B6
:10093000C430D10579F7C601DF91CF911F910F9196
:10094000FF90EF90DF90CF900C946304CF92DF92F2
:10095000EF92FF920F931F93CF93DF93EC01F62E4C
:10096000642F8C810E9481038D818F3F19F060E09C
:100970000E9481030F2D10E08F8584FF25C06E013A
:1009800087E0C80ED11CF12CE12CB8010E2C02C05E
:10099000759567950A94E2F76170F60181916F0190
:1009A0000E948103FFEFEF1AFF0A88E0E816F104C6
:1009B00061F7CE01DF91CF911F910F91FF90EF90E2
:1009C000DF90CF900C946304B80184E0759567952F
:1009D0008A95E1F7CE010E9479046F2DCE01DF9157
:1009E000CF911F910F91FF90EF90DF90CF900C94DB
:1009F000790440E0682F80EF94E00C94A604CF9334
:100A0000DF93823029F49091FF0498609093FF0463
:100A1000809303051092040580E48093050580E12E
:100A20008093060580E58093070561E08091F404DA
:100A30000E94F4038091F5048F3F19F061E00E9459
:100A4000F40361E08091F6040E94F403C0EFD4E067
:100A50009E01205F34408091FF0484FD0BC084E040
:100A600090E021962817390744F461E08E810E94B6
:100A7000F403EECF88E090E0F4CF8BE39DE00197A4
:100A8000F1F760E08091F4040E94810360E08091BE
:100A9000F6040E9481038091F5048F3F19F060E015
:100AA0000E9481038091FF0484FD39C063E080EFE0
:100AB00094E00E947904CBE4D6E4CE010197F1F7EB
:100AC00063E080EF94E00E9479042197F1F763E0FE
:100AD00080EF94E00E94790483E592E00197F1F7BA
:100AE00062E080EF94E00E9479048091FF048062CC
:100AF0000E94F90484E0809300058CE00E94F904D0
:100B000081E00E94F9048BE39FE10197F1F782E015
:100B10008093010586E0DF91CF910C94F904806207
:100B20000E94F9048BE496E40197F1F78091FF04A9
:100B300080620E94F90483E592E00197F1F78091C9
:100B4000FF0480620E94F904D0CF41E00E94A60415
:100B500081E090E00895FB0101900020E9F73197D2
:100B6000AF01461B570B0C94A0018F929F92AF923E
:100B7000BF920F931F93CF93DF93CDB7DEB7A197AB
:100B80000FB6F894DEBF0FBECDBF19A2423008F4F5
:100B90004AE08E010F5D1F4F842E912CB12CA12CA9
:100BA000A50194010E94BD0DE62FB901CA01EA30EA
:100BB00004F5E05DD801EE938D01232B242B252B2A
:100BC00079F790E080E0109729F0BD0184E893E088
:100BD0000E94AB05A1960FB6F894DEBF0FBECDBF45
:100BE000DF91CF911F910F91BF90AF909F908F9009
:100BF0000895E95CDFCFCF92DF92EF92FF92CF931F
:100C0000DF936B017C016DE284E893E00E94800237
:100C1000EC0166277727CB016C197D098E099F09A6
:100C20004AE00E94B5058C0F9D1FDF91CF91FF9088
:100C3000EF90DF90CF900895CF93DF93EC01888100
:100C40009981009711F00E94920E198218821D82DC
:100C50001C821B821A82DF91CF910895FC01808152
:100C60009181009711F00C94920E08950F931F93A9
:100C7000CF93DF93EC0188819981009759F02A8105
:100C80003B812617370730F081E0DF91CF911F912C
:100C90000F9108958B016F5F7F4F0E941B0F00978C
:100CA00059F0998388831B830A832C813D81232BF0
:100CB00059F7FC011082E8CF80E0E7CFEF92FF9276
:100CC0000F931F93CF93DF93EC017B018A01BA014D
:100CD0000E94360681110BC0CE010E941C06CE0177
:100CE000DF91CF911F910F91FF90EF9008951D8399
:100CF0000C83B701888199810E940E10F0CFCF93A9
:100D0000DF93EC01FB018617970749F06081718141
:100D10006115710541F0448155810E945E06CE0146
:100D2000DF91CF9108950E941C06F9CFFC0111823A
:100D300010821382128215821482FB01019000201E
:100D4000E9F73197AF01461B570B0C945E068F9263
:100D50009F92AF92BF92CF92DF92EF92FF920F934A
:100D60001F93CF93DF93EC018B01FB01C480D580EF
:100D7000D60111972FEF3FEFB12CA12C90E080E02E
:100D800070E060E0A817B9072CF14617570734F157
:100D9000FC0131967F018C159D0560F4F80180807F
:100DA00091808114910431F0F401E80FF91FE08182
:100DB000EC3219F0A817B90759F46F5F7F4F59014A
:100DC000FFEFAF1ABF0A9701A817B90709F09C01F6
:100DD000C701D8CF461757070CF046C069012A153E
:100DE0003B0510F06501590169EB72E0CE010E94EC
:100DF0009606F801E480F580CE14DF0418F5AE14F1
:100E0000BF0408F47501F80160817181FB01EE0DEA
:100E1000FF1DB08010826C0D7D1D6115710501F103
:100E2000FB0101900020E9F73197AF01461B570BFA
:100E3000CE010E945E06F80180819181E80EF91EC4
:100E4000F701B082CE01DF91CF911F910F91FF90FA
:100E5000EF90DF90CF90BF90AF909F908F900895CC
:100E6000CE010E941C06E7CF69EB72E0CE010E9422
:100E70009606E8CF1F920F920FB60F9211240BB671
:100E80000F922F933F934F935F936F937F938F9323
:100E90009F93AF93BF93EF93FF938091DF02909165
:100EA000E002A091E102B091E202892B8A2B8B2B08
:100EB000D1F19091DE02809100008927809300009B
:100EC0008091DF029091E002A091E102B091E202F4
:100ED000181619061A061B069CF48091DF029091E1
:100EE000E002A091E102B091E2020197A109B109EB
:100EF0008093DF029093E002A093E102B093E202BC
:100F0000FF91EF91BF91AF919F918F917F916F91E1
:100F10005F914F913F912F910F900BBE0F900FBE9D
:100F20000F901F901895809100020E94AF03E8CFA8
:100F30001F920F920FB60F9211240BB60F922F93A0
:100F40003F934F935F936F937F938F939F93AF9351
:100F5000BF93EF93FF9387EE92E00E945E02FF91B2
:100F6000EF91BF91AF919F918F917F916F915F9121
:100F70004F913F912F910F900BBE0F900FBE0F908E
:100F80001F9018951F920F920FB60F9211240BB657
:100F90000F922F938F939F93EF93FF93E091F7021C
:100FA000F091F8028081E091FD02F091FE0282FD55
:100FB0001DC09081809100038F5F8F73209101038A
:100FC000821741F0E0910003F0E0E951FD4F958F69
:100FD00080930003FF91EF919F918F912F910F903C
:100FE0000BBE0F900FBE0F901F9018958081F2CF0F
:100FF0001F920F920FB60F9211240BB60F922F93E0
:101000003F934F935F936F937F938F939F93AF9390
:10101000BF93EF93FF9384E893E00E945E02FF91F9
:10102000EF91BF91AF919F918F917F916F915F9160
:101030004F913F912F910F900BBE0F900FBE0F90CD
:101040001F9018951F920F920FB60F9211240BB696
:101050000F922F938F939F93EF93FF93E0919403BD
:10106000F09195038081E0919A03F0919B0382FDBA
:101070001DC0908180919D038F5F8F7320919E038F
:10108000821741F0E0919D03F0E0EC57FC4F958F03
:1010900080939D03FF91EF919F918F912F910F90DE
:1010A0000BBE0F900FBE0F901F9018958081F2CF4E
:1010B0001F920F920FB60F9211242F933F938F938D
:1010C0009F93AF93BF938091E3029091E402A0912C
:1010D000E502B091E6023091DD0223E0230F2D37C7
:1010E00058F50196A11DB11D2093DD028093E30206
:1010F0009093E402A093E502B093E6028091D902B6
:101100009091DA02A091DB02B091DC020196A11D60
:10111000B11D8093D9029093DA02A093DB02B093C1
:10112000DC02BF91AF919F918F913F912F910F90D2
:101130000FBE0F901F90189526E8230F0296A11D51
:10114000B11DD2CF0F931F93CF93DF931092EA027A
:101150001092E90248EE53E060E070E04093EB0249
:101160005093EC026093ED027093EE0287E392E0FD
:101170009093E8028093E7022DEC30E03093F40284
:101180002093F3022CEC30E03093F6022093F5022A
:1011900028EC30E03093F8022093F70229EC30E09D
:1011A0003093FA022093F9022AEC30E03093FC02EB
:1011B0002093FB022EEC30E03093FE022093FD02E0
:1011C0001092000310920103109202031092030385
:1011D00010928703109286034093880350938903EB
:1011E00060938A0370938B039093850380938403A9
:1011F00085EC90E0909391038093900384EC90E0D1
:10120000909393038093920380EC90E090939503E6
:101210008093940381EC90E09093970380939603DE
:1012200082EC90E0909399038093980386EC90E091
:1012300090939B0380939A0310929D0310929E03B8
:1012400010929F031092A00310922D0510922C056E
:10125000109223051092220510923805109239053C
:1012600010923A0510923B0508E210E01093290510
:101270000093280582E490E090932F0580932E053B
:1012800083E490E0909331058093300584E490E00E
:10129000909333058093320585E490E09093350573
:1012A0008093340561E082E40E94F40361E0809160
:1012B00030050E94F40361E0809132050E94F4033E
:1012C00061E0809134050E94F4031092370510927A
:1012D0003605C4E0D0E0D0932B05C0932A051092C8
:1012E000130510921205109209051092080510922C
:1012F0001E0510921F0510922005109221051093D3
:101300000F0500930E058EE390E0909315058093F2
:1013100014058FE390E0909317058093160580E401
:1013200090E0909319058093180581E490E09093E4
:101330001B0580931A0561E08EE30E94F40361E0CF
:10134000809116050E94F40361E0809118050E94C7
:10135000F40361E080911A050E94F40310921D05C8
:1013600010921C05D0931105C09310051092F30440
:101370001092F20483E592E09093F1048093F004DC
:1013800086E38093F4048FEF8093F50487E38093E2
:10139000F60488E38093F70489E38093F8048AE3F2
:1013A0008093F9048BE38093FA041092FB0410926B
:1013B000FC041092FD041092FE041092FF0481E0E0
:1013C0000E94FF0469EB72E08AEE94E00E949606A8
:1013D0006BE572E084EE94E00E94960664E772E0AA
:1013E0008EED94E00E94960661E672E088ED94E04E
:1013F0000E94960668E672E082ED94E00E949606EE
:101400006EE672E086EC94E00E94960669E772E070
:101410008CEC94E00E94960665E872E080EC94E023
:101420000E9496061092530410925704109256048C
:101430001092580489E492E09093520480935104EE
:10144000EDE6F4E089EA94E01082148213821582BA
:1014500036968E179F07C1F785E192E09093B4040A
:101460008093B30481E192E09093B6048093B50435
:1014700084E08093B7048093B80489E192E090936C
:10148000B2048093B1048AE090E09093BA04809310
:10149000B90484EF91E09093BC048093BB04109254
:1014A000BF041092BE041092AD041092AE041092CC
:1014B000AF041092B0041092BD0469EB72E089E3AE
:1014C00094E00E94960669EB72E08FE394E00E943C
:1014D000960669EB72E085E494E00E94960669EB5B
:1014E00072E08BE494E00E9496066CE972E081E27F
:1014F00094E00E9496066EE972E087E294E00E9412
:10150000960660EA72E08DE294E00E94960662EA36
:1015100072E083E394E0DF91CF911F910F910C94DF
:101520009606CF93DF93CDB7DEB762970FB6F894E8
:10153000DEBF0FBECDBF789484B5826084BD84B514
:10154000816084BD85B5826085BD85B5816085BDBE
:1015500080916E00816080936E0010928100809176
:1015600081008260809381008091810081608093FE
:101570008100809180008160809380008091B10023
:1015800084608093B1008091B00081608093B0004E
:1015900080919100826080939100809191008160A0
:1015A0008093910080919000816080939000809161
:1015B000A10082608093A1008091A100816080934E
:1015C000A1008091A00081608093A0008091210102
:1015D00082608093210180912101816080932101AB
:1015E0008091200181608093200180917A00846045
:1015F00080937A0080917A00826080937A00809153
:101600007A00816080937A0080917A00806880936C
:101610007A001092C10061E08DE00E94F40361E065
:1016200086E10E94F40361E087E10E94F40361E037
:1016300085E30E94F40385E30E94AF0380E40E94E7
:10164000F90409E012E081E1E82E82E0F82EF801C9
:1016500061918F0180EF94E00E94A505E016F106EC
:10166000B1F788E40E94F90401E012E0F801619109
:101670008F0180EF94E00E94A505F2E009301F077A
:10168000A9F78FB7F8944091E3025091E40260917A
:10169000E5027091E6028FBF82E00E94FF0481E0C4
:1016A0000E94F9048BE39FE10197F1F780917B00A1
:1016B000877F80937B0086E480937C0080917A0012
:1016C000806480937A0080917A0086FDFCCF8091BF
:1016D000780060917900762F682F072E000C880B18
:1016E000990B611571058105910511F00E94820D1C
:1016F00084E893E00E94780187EE92E00E947801EE
:1017000084E893E00E943E02181619060CF0A9C066
:1017100069EB72E0CE0101960E9496060E94F001EC
:1017200097FD1BC08F8318860D811E810F5F1F4F91
:10173000B801CE0101960E943606882379F32981EB
:101740003A818D819E81BE01695F7F4F820F931F19
:101750000E940E101E830D83E1CF8091EA049091C8
:10176000EB04009709F482C069817A8161157105E3
:1017700009F47AC04091EC045091ED042D813E8132
:101780004217530708F470C00E940E108D819E818D
:101790009093EF048093EE041E821D82CE01019689
:1017A0000E942E061A8219821C821B821E821D82B2
:1017B0006AEE74E0CE0101960E947F0650E040E0A0
:1017C000BE016F5F7F4FCE010D960E94A706CE012E
:1017D00001960E942E061A8219821C821B821E828A
:1017E0001D826AEE74E0CE0101960E947F0641E000
:1017F00050E0BE016F5F7F4FCE0107960E94A706A3
:10180000CE0101960E942E068B859C85892B09F1BD
:101810000F81188562E972E0C8010E940510892BCA
:10182000E1F564EA72E084E893E00E94AB0567EBBF
:1018300072E084E893E00E94AB0564EA72E087EE10
:1018400092E00E94AB0567EB72E087EE92E00E94A7
:10185000AB05CE0107960E942E06CE010D960E9482
:101860002E060E94ED024CCF0E94920E89819A8131
:101870009093EB048093EA048B819C819093ED0418
:101880008093EC048D819E819093EF048093EE040D
:101890001A8219821C821B827FCF6AEB72E0C80118
:1018A0000E940510892BA9F61A8219821C821B82BC
:1018B0001E821D82BE01635F7F4FCE0101960E9492
:1018C0007F06CD80DE80E980FA8006EC14E0B12C42
:1018D000F801848195818C159D05F1F480819181B9
:1018E000009751F0E114F10471F5C114D10491F0A5
:1018F000FC01808190E00CC0E114F10459F0C114A6
:10190000D10441F0F701808190E091958195910992
:10191000892B11F4BB24B3940A5F1F4FF4E0023DFE
:101920001F07B1F64AE061E070E080E090E0B1109E
:1019300003C060E070E0CB010E94B505CE010196C6
:101940000E942E0686CFB7010E940510E1CF83E3E7
:1019500094E00E942E068DE294E00E942E0687E21B
:1019600094E00E942E0681E294E00E942E068BE411
:1019700094E00E942E0685E494E00E942E068FE3F8
:1019800094E00E942E0689E394E00E942E0680ECEB
:1019900094E00E942E068CEC94E00E942E0686ECC9
:1019A00094E00E942E0682ED94E00E942E0688EDBF
:1019B00094E00E942E068EED94E00E942E0684EEA6
:1019C00094E00E942E068AEE94E00C942E068F92EC
:1019D0009F92AF92BF92CF92DF92EF92FF92CF93FE
:1019E000DF93EC01688179818A819B8161157105A2
:1019F0008105910521F464E279ED8BE597E02DE115
:101A000033EF41E050E00E948B0D49015A019B01E8
:101A1000AC01A7EAB1E40E94AA0D6B017C01ACEE17
:101A2000B4EFA50194010E94B80DC60ED71EE81EA2
:101A3000F91EF7FE06C081E0C81AD108E10880E867
:101A4000F80AC882D982EA82FB82C701B6019F7771
:101A5000DF91CF91FF90EF90DF90CF90BF90AF904C
:101A60009F908F9008958F929F92AF92BF92CF9246
:101A7000DF92EF92FF926091290270912A02809189
:101A80002B0290912C02611571058105910521F4BD
:101A900064E279ED8BE597E02DE133EF41E050E032
:101AA0000E948B0D49015A019B01AC01A7EAB1E4E8
:101AB0000E94AA0D6B017C01ACEEB4EFA50194016C
:101AC0000E94B80DC60ED71EE81EF91EF7FE06C00E
:101AD00081E0C81AD108E10880E8F80AC09229021A
:101AE000D0922A02E0922B02F0922C02C701B6019A
:101AF0009F77FF90EF90DF90CF90BF90AF909F9037
:101B00008F9008956093290270932A0280932B028C
:101B100090932C020895052E97FB1EF400940E94CA
:101B2000A20D57FD07D00E94BD0D07FC03D04EF457
:101B30000C94A20D50954095309521953F4F4F4FF5
:101B40005F4F089590958095709561957F4F8F4F69
:101B50009F4F08950E94DF0DA59F900DB49F900D9B
:101B6000A49F800D911D11240895B7FF0C94AA0D18
:101B70000E94AA0D821B930B0895A1E21A2EAA1BA4
:101B8000BB1BFD010DC0AA1FBB1FEE1FFF1FA2172D
:101B9000B307E407F50720F0A21BB30BE40BF50B2A
:101BA000661F771F881F991F1A9469F760957095B3
:101BB000809590959B01AC01BD01CF010895A29F36
:101BC000B001B39FC001A39F700D811D1124911D11
:101BD000B29F700D811D1124911D0895EE0FFF1FFE
:101BE000881F8BBF0790F691E02D19940F931F93D8
:101BF000CF93DF938230910510F482E090E0E09182
:101C00003E05F0913F0530E020E0B0E0A0E03097E5
:101C100099F42115310509F44AC0281B390B2430E9
:101C20003105D8F58A819B816115710589F1FB0128
:101C300093838283FE0111C040815181028113810F
:101C400048175907E0F04817590799F4109761F0C1
:101C500012960C93129713961C933296CF01DF9134
:101C6000CF911F910F91089500933E0510933F056A
:101C7000F4CF2115310551F04217530738F0A9016F
:101C8000DB019A01BD01DF01F801C1CFEF01F9CFFE
:101C900090933F0580933E05CDCFFE01E20FF31FE9
:101CA000819391932250310939832883D7CF209192
:101CB0003C0530913D05232B41F420912F023091BA
:101CC000300230933D0520933C0520912D02309148
:101CD0002E022115310541F42DB73EB74091310256
:101CE00050913202241B350BE0913C05F0913D05EB
:101CF000E217F307A0F42E1B3F0B2817390778F0E3
:101D0000AC014E5F5F4F2417350748F04E0F5F1F41
:101D100050933D0540933C05819391939FCFF0E014
:101D2000E0E09CCFCF93DF930097E9F0FC0132977E
:101D300013821282A0913E05B0913F05ED0130E083
:101D400020E01097A1F420813181820F931F209110
:101D50003C0530913D052817390709F061C0F09323
:101D60003D05E0933C05DF91CF910895EA01CE1740
:101D7000DF07E8F54A815B819E0141155105B1F706
:101D8000E901FB83EA8349915991C40FD51FEC17F0
:101D9000FD0761F4808191810296840F951FE9010E
:101DA00099838883828193819B838A83F0E0E0E03A
:101DB00012968D919C9113970097B9F52D913C91B6
:101DC0001197CD010296820F931F20913C0530910F
:101DD0003D052817390739F6309751F510923F0520
:101DE00010923E05B0933D05A0933C05BCCFD38334
:101DF000C28340815181840F951FC817D90761F4B0
:101E00004E5F5F4F88819981480F591F51834083EE
:101E10008A819B81938382832115310509F0B0CF9C
:101E2000F0933F05E0933E059ECFFD01DC01C0CF5E
:101E300013821282D7CF4F925F926F927F928F92CE
:101E40009F92AF92BF92CF92DF92EF92FF920F9349
:101E50001F93CF93DF938C01009799F4CB01DF910F
:101E6000CF911F910F91FF90EF90DF90CF90BF9097
:101E7000AF909F908F907F906F905F904F900C9459
:101E8000F60DFC01E60FF71F9C0122503109E21705
:101E9000F30708F4AEC0D901CD91DC911197C617B4
:101EA000D70720F1C530D10578F0CE010497861709
:101EB000970750F0C61BD70B2297C193D1936D9310
:101EC0007C93CF010E94920EC801DF91CF911F91A8
:101ED0000F91FF90EF90DF90CF90BF90AF909F90C9
:101EE0008F907F906F905F904F9008955B01AC1A38
:101EF000BD0A4C018C0E9D1EA0913E05B0913F0580
:101F0000512C412CF12CE12C109731F580913C059E
:101F100090913D058815990509F05CC04616570655
:101F200008F058C080912D0290912E02009741F444
:101F30008DB79EB74091310250913202841B950BB0
:101F4000E817F90708F055C0F0933D05E0933C050C
:101F5000F90171836083B8CF8D919C91119712968E
:101F60006C90129713967C901397A815B90559F5A4
:101F70006C0142E0C40ED11CCA14DB0420F1AC0198
:101F80004A195B09DA011296159780F06282738212
:101F900051834083D9016D937C93E114F10471F076
:101FA000D7011396FC93EE9312978ECF22968C0F47
:101FB0009D1FF90191838083F301EFCFF0933F05DB
:101FC000E0933E0581CF4816590608F42C017D01A7
:101FD000D3019ACFCB010E94F60D7C01009749F006
:101FE000AE01B8010E94FC0FC8010E94920E870149
:101FF0006BCF10E000E068CFFB01DC0102C0019074
:102000000D9241505040D8F70895FB01DC018D91AD
:10201000019080190110D9F3990B0895FB01DC019F
:1020200001900D920020E1F7089511E0C4E4D1E0A1
:1020300000E006C0802FFE010E94EE0D2196011DDA
:10204000C534D10780E00807A9F7F894FFCFFF0A4D
:102050000A0A0000110E000E11111F1B1B1F0006A3
:10206000070809020304053738394134353642314F
:102070003233432A30234401000000000040058031
:1020800000000000008002A001CD01CD023E02DC74
:10209000013002000000005F045B04330400000014
:1020A00000A505A00130049F0161646D696E0061A7
:1020B000646D696E320031323334320061646D69AF
:1020C0006E2D3132333400736172612D7361726928
:1020D0007461004564756172646F2D313233342C44
:1020E0005245474953545241520041004200430077
:1020F00044004573746F7920656E2072656769735B
:0E21000074726172000D0A004C4F47494E0088
:020000040003F7
:10E000000D9489F10D94B2F10D94B2F10D94B2F129
:10E010000D94B2F10D94B2F10D94B2F10D94B2F1F0
:10E020000D94B2F10D94B2F10D94B2F10D94B2F1E0
:10E030000D94B2F10D94B2F10D94B2F10D94B2F1D0
:10E040000D94B2F10D94B2F10D94B2F10D94B2F1C0
:10E050000D94B2F10D94B2F10D94B2F10D94B2F1B0
:10E060000D94B2F10D94B2F10D94B2F10D94B2F1A0
:10E070000D94B2F10D94B2F10D94B2F10D94B2F190
:10E080000D94B2F10D94B2F10D94B2F10D94B2F180
:10E090000D94B2F10D94B2F10D94B2F10D94B2F170
:10E0A0000D94B2F10D94B2F10D94B2F10D94B2F160
:10E0B0000D94B2F10D94B2F10D94B2F10D94B2F150
:10E0C0000D94B2F10D94B2F10D94B2F10D94B2F140
:10E0D0000D94B2F10D94B2F10D94B2F10D94B2F130
:10E0E0000D94B2F141546D656761323536300041AF
:10E0F000726475696E6F206578706C6F72657220DE
:10E1000073746B3530305632206279204D4C530099
:10E11000426F6F746C6F616465723E004875683F52
:10E1200000436F6D70696C6564206F6E203D200048
:10E130004350552054797065202020203D20005FF9
:10E140005F4156525F415243485F5F3D2000415658
:10E1500052204C696243205665723D20004743437C
:10E160002056657273696F6E203D20004350552024
:10E1700049442020202020203D20004C6F7720663D
:10E18000757365202020203D20004869676820665F
:10E190007573652020203D200045787420667573D6
:10E1A00065202020203D20004C6F636B2066757336
:10E1B000652020203D20004D617220203720323024
:10E1C000313300312E362E3800342E332E350056A2
:10E1D00023202020414444522020206F7020636F70
:10E1E00064652020202020696E73747275637469E1
:10E1F0006F6E2061646472202020496E74657272B3
:10E20000757074006E6F20766563746F7200726A49
:10E210006D702020006A6D70200057686174207056
:10E220006F72743A00506F7274206E6F7420737541
:10E2300070706F72746564004D7573742062652030
:10E2400061206C6574746572002000577269747483
:10E25000696E672045450052656164696E672045B7
:10E26000450045452065727220636E743D00504F35
:10E27000525400303D5A65726F2061646472003FF1
:10E280003D43505520737461747300403D454550C3
:10E29000524F4D207465737400423D426C696E6B41
:10E2A000204C454400453D44756D70204545505215
:10E2B0004F4D00463D44756D7020464C415348001B
:10E2C000483D48656C70004C3D4C69737420492F83
:10E2D0004F20506F72747300513D51756974005234
:10E2E0003D44756D702052414D00563D73686F7707
:10E2F00020696E7465727275707420566563746FF0
:10E30000727300593D506F727420626C696E6B00BD
:10E310002A0011241FBECFEFD1E2DEBFCDBF01E046
:10E320000CBF12E0A0E0B2E0EEE1FDEF03E00BBFB6
:10E3300002C007900D92A030B107D9F712E0A0E01B
:10E34000B2E001C01D92AE30B107E1F70F9460F367
:10E350000D948DFE01E20EBF0FEF0DBF11241FBE05
:10E360000D9460F30D9400F020E030E040ED57E0B4
:10E3700005C0FA013197F1F72F5F3F4F2817390792
:10E38000C0F308959C01260F311DC901A0E0B0E043
:10E390002F5F3F4FABBFFC018791882361F08093D3
:10E3A000C6008091C00086FFFCCF8091C0008064D1
:10E3B0008093C000EACF08958DE08093C6008091DD
:10E3C000C00086FFFCCF8091C00080648093C000B5
:10E3D0008AE08093C6008091C00086FFFCCF8091C8
:10E3E000C00080648093C00008950F94C2F10F9420
:10E3F000DCF10895FC019081992359F09093C600B7
:10E400008091C00086FFFCCF8091C0008064809323
:10E41000C0003196992379F70895282F982F929567
:10E420009F70892F805D8A3308F0895F8093C600D2
:10E430008091C00086FFFCCF8091C00080648093F3
:10E44000C000822F8F70982F905D9A3308F0995FEB
:10E450009093C6008091C00086FFFCCF8091C000E1
:10E4600080648093C00008959C01FB01853691056E
:10E470001CF46330710594F0C90164E670E00F94F8
:10E480002EFE605D7F4F6093C6008091C00086FFC6
:10E49000FCCF8091C00080648093C0002B30310598
:10E4A00014F43297B4F0C90164E670E00F942EFEC4
:10E4B0006AE070E00F942EFE605D7F4F6093C600AF
:10E4C0008091C00086FFFCCF8091C0008064809363
:10E4D000C000C9016AE070E00F942EFEC0968093E0
:10E4E000C6008091C00086FFFCCF8091C000806490
:10E4F0008093C00008951F93182F8EE692EE60E07F
:10E500000F94C2F11093C6008091C00086FFFCCF2B
:10E510008091C00080648093C0000F94DCF11F9153
:10E5200008952F923F924F925F926F927F928F92B7
:10E530009F92AF92BF92CF92DF92EF92FF920F9392
:10E540001F93DF93CF93CDB7DEB762970FB6F894E2
:10E55000DEBF0FBECDBF382E622ECA01DB015C01CB
:10E560006D01772420E2222E2E010894411C511CBB
:10E570008BC081E0A81680E0B80681E0C80680E084
:10E58000D80628F0C601AA27BB270F940DF2BB2797
:10E59000AD2D9C2D8B2D0F940DF28A2D0F940DF225
:10E5A0002092C6008091C00086FFFCCF8091C00001
:10E5B00080648093C0009DE29093C6008091C0006B
:10E5C00086FFFCCF8091C00080648093C0002092C1
:10E5D000C6008091C00086FFFCCF8091C00080649F
:10E5E0008093C00019828601750188249924A1E0D6
:10E5F0003A1651F03A1620F0B2E03B1661F409C029
:10E600000BBFF701779007C0C7010F9477FE782EF4
:10E6100002C0F7017080872D0F940DF22092C60082
:10E620008091C00086FFFCCF8091C0008064809301
:10E63000C000872D8052F401EF70F0708F3520F408
:10E64000E40DF51D708204C0E40DF51D8EE280839B
:10E650000894E11CF11C011D111D0894811C911CE2
:10E6600090E18916910409F0C2CF80E190E0A0E02A
:10E67000B0E0A80EB91ECA1EDB1E198AC2010F9493
:10E68000FAF10F94DCF16A94662009F072CF629679
:10E690000FB6F894DEBF0FBECDBFCF91DF911F91B3
:10E6A0000F91FF90EF90DF90CF90BF90AF909F9031
:10E6B0008F907F906F905F904F903F902F90089534
:10E6C0002F923F924F925F926F927F928F929F9282
:10E6D000AF92BF92CF92DF92EF92FF920F931F9370
:10E6E000DF93CF93CDB7DEB7CD53D1400FB6F894BB
:10E6F000DEBF0FBECDBF01E20EBF0FEF0DBF94B75F
:10E70000F894A89514BE80916000886180936000A1
:10E7100010926000789493FF05C0E0910002F091A0
:10E7200001021995279A2F9A8091C00082608093E8
:10E73000C00080E18093C40088E18093C1000000A4
:10E74000EE24FF24870144E0A42EB12CCC24DD2448
:10E7500024C0C5010197F1F70894E11CF11C011DCB
:10E76000111D21E2E2162EE4F20620E0020720E06D
:10E77000120718F031E0C32ED12CC801B70127ECE5
:10E780003BE140E050E00F9441FE611571058105C9
:10E79000910519F485B1805885B98091C00087FD35
:10E7A00003C0C114D104A9F2A6014F5F5F4FC25E3E
:10E7B000DE4F59834883CE51D140C25EDE4F8881FF
:10E7C0009981CE51D140019711F00D9410FEC05D9A
:10E7D000DE4F19821882C053D14060E0C15DDE4F28
:10E7E0001882CF52D14088249924C35DDE4F19820C
:10E7F0001882CD52D140C05EDE4F188219821A8233
:10E800001B82C052D140CE5CDE4F188219821A8220
:10E810001B82C253D140EE24FF2487010BBFF701B6
:10E8200007911691C45CDE4F19830883CC53D14005
:10E830000D940BFEC25EDE4F28813981CE51D1404E
:10E840002130310509F52091C600C25EDE4F1982E4
:10E850001882CE51D14022C02F5F3F4F4F4F5F4FA4
:10E86000213082E138078AE7480780E0580780F0C6
:10E87000C45CDE4FE881F981CC53D140EF5FFF4F9C
:10E8800019F0EE27FF27099420E030E040E050E047
:10E890008091C00087FFE0CF2091C600C35DDE4FAE
:10E8A00048815981CD52D1404F5F5F4FC35DDE4FEC
:10E8B00059834883CD52D140213209F063C64A3092
:10E8C000510508F05FC60894811C911C53E0851621
:10E8D000910409F059C600E010E018C081E280936D
:10E8E000C6008091C00086FFFCCF8091C00080648C
:10E8F0008093C0002F5F3F4F2931310579F70F9486
:10E90000DCF10F5F1F4F0530110519F020E030E0FA
:10E91000E5CF10920A0210920B0210920C02109294
:10E920000D02109206021092070210920802109235
:10E930000902109202021092030210920402109235
:10E9400005028FEE90EE60E00F94F5F180E191EE1C
:10E9500060E00F94C2F18091C00087FFFCCF9091DE
:10E96000C600903608F09F759032B8F09093C600BC
:10E970008091C00086FFFCCF8091C00080648093AE
:10E98000C000A0E2A093C6008091C00086FFFCCF2B
:10E990008091C00080648093C000983409F4D7C18E
:10E9A0009934B8F4923409F459C1933458F490333B
:10E9B00019F1903308F4E3C59F33A1F1903409F0C5
:10E9C000DEC5BDC0953409F470C1963409F0D7C5D1
:10E9D00098C1923509F42BC2933538F49C3409F46C
:10E9E000F5C1913509F0CBC518C2963509F445C279
:10E9F000993509F0C4C567C483E792EE62E00F94CD
:10EA0000F5F110920602109207021092080210927D
:10EA1000090210920A0210920B0210920C0210923C
:10EA20000D0213C18FE792EE62E00F94F5F18FEEC5
:10EA300090EE60E00F94F5F181E291EE60E00F94CA
:10EA4000C2F187EB91EE60E00F94F5F180E391EE77
:10EA500060E00F94C2F184EE90EE60E00F94F5F167
:10EA60008FE391EE60E00F94C2F186E090E061E008
:10EA700070E00F9434F20F94DCF18DE591EE60E0DC
:10EA80000F94C2F189EC91EE60E00F94F5F18EE401
:10EA900091EE60E00F94C2F183EC91EE60E00F9490
:10EAA000F5F18CE691EE60E00F94C2F18EE10F94E7
:10EAB0000DF288E90F940DF281E00F940DF20F949E
:10EAC000DCF18BE791EE60E00F94C2F119E0E0E039
:10EAD000F0E010935700E4918E2F0F940DF20F94F5
:10EAE000DCF18AE891EE60E00F94C2F1E3E0F0E03F
:10EAF00010935700E4918E2F0F940DF20F94DCF1D8
:10EB000089E991EE60E00F94C2F1E2E0F0E0109349
:10EB10005700E4918E2F0F940DF20F94DCF188EAE8
:10EB200091EE60E00F94C2F1E1E0F0E01093570045
:10EB30001491812F0F940DF20F94DCF107CF8BE825
:10EB400092EE62E00F94F5F18BE492EE60E00F94A8
:10EB5000F5F10F94DCF100E010E019C0C8016F2D51
:10EB60000F947FFEFF2031F489E492EE60E00F9471
:10EB7000C2F10BC0F092C6008091C00086FFFCCFAE
:10EB80008091C00080648093C0000F5F1F4FC80158
:10EB900081519F41A0E0B0E0ABBFFC01F790BAE229
:10EBA000FB1621F0E2E000301E07C1F60F94DCF105
:10EBB0000F94DCF187E592EE60E00F94F5F10F948D
:10EBC000DCF1CC24DD2400E010E01EC0C8010F946D
:10EBD00077FEF82E882331F489E492EE60E00F94FA
:10EBE000C2F10BC08093C6008091C00086FFFCCFAD
:10EBF0008091C00080648093C000FE1419F00894D6
:10EC0000C11CD11C0F5F1F4FC80181519F41A0E063
:10EC1000B0E0ABBFFC01E790FAE2EF1621F022E092
:10EC20000030120799F60F94DCF10F94DCF182E6C4
:10EC300092EE60E00F94C2F1C60161E070E00F94C3
:10EC400034F20F94DCF10F94DCF110920202109276
:10EC50000302109204021092050278CE89E992EE26
:10EC600062E00F94F5F1279A2F9A16C02F9880E052
:10EC700090E0E0EDF7E03197F1F7019684369105E9
:10EC8000C1F72F9A80E090E0E0EDF7E03197F1F7DF
:10EC9000019684369105C1F78091C00087FFE6CFC9
:10ECA0008091C00087FFFCCF64C485EA92EE62E0E9
:10ECB0000F94F5F140910202509103026091040219
:10ECC0007091050281E020E10F9491F2809102029F
:10ECD00090910302A0910402B091050280509F4FD1
:10ECE000AF4FBF4F8093020290930302A0930402A0
:10ECF000B093050280509041A040B04008F426CE69
:10ED0000A4CF83EB92EE62E00F94F5F140910602FE
:10ED100050910702609108027091090280E020E1A1
:10ED20000F9491F28091060290910702A09108023F
:10ED3000B091090280509F4FAF4FBF4F80930602A2
:10ED400090930702A0930802B0930902FFCD80ECD4
:10ED500092EE62E00F94F5F183E792EE60E00F949B
:10ED6000F5F18FE792EE60E00F94F5F18BE892EE0B
:10ED700060E00F94F5F189E992EE60E00F94F5F10F
:10ED800085EA92EE60E00F94F5F183EB92EE60E09D
:10ED90000F94F5F180EC92EE60E00F94F5F187ECC2
:10EDA00092EE60E00F94F5F188ED92EE60E00F9442
:10EDB000F5F18FED92EE60E00F94F5F18AEE92EEB0
:10EDC00060E00F94F5F183E093EEBDCD87EC92EE19
:10EDD00062E00F94F5F181E40F947BF282E40F94EA
:10EDE0007BF283E40F947BF284E40F947BF285E45E
:10EDF0000F947BF286E40F947BF287E40F947BF20E
:10EE000088E40F947BF28AE40F947BF28BE40F94F6
:10EE10007BF28CE40F947BF299CD88ED92EE62E068
:10EE20000F94F5F1772473948824992409C48FED05
:10EE300092EE62E00F94F5F140910A0250910B02BC
:10EE400060910C0270910D0282E020E10F9491F22A
:10EE500080910A0290910B02A0910C02B0910D02D8
:10EE600080509F4FAF4FBF4F80930A0290930B0289
:10EE7000A0930C02B0930D0269CD8AEE92EE62E08F
:10EE80000F94F5F184EE90EE60E00F94F5F18FECC5
:10EE900091EE60E00F94F5F1662477244301CC5D98
:10EEA000DE4F19821882C452D140D401C301B695F5
:10EEB000A79597958795CA5DDE4F88839983AA8326
:10EEC000BB83C652D140CC5DDE4FA881B981C4520C
:10EED000D1401196CC5DDE4FB983A883C452D14096
:10EEE000CD0162E070E00F9434F2B0E2B093C6005E
:10EEF0008091C00086FFFCCF8091C0008064809329
:10EF0000C000EDE2E093C6008091C00086FFFCCF18
:10EF10008091C00080648093C000F0E2F093C6004E
:10EF20008091C00086FFFCCF8091C00080648093F8
:10EF3000C000CA5DDE4FE880F9800A811B81C6529D
:10EF4000D140BB27A12F902F8F2D0F940DF2CA5DBA
:10EF5000DE4F8881C652D1400F940DF2B0E2FB2EF5
:10EF6000F092C6008091C00086FFFCCF8091C00067
:10EF700080648093C0000DE30093C6008091C000C0
:10EF800086FFFCCF8091C00080648093C00010E2B7
:10EF90001093C6008091C00086FFFCCF8091C00016
:10EFA00080648093C0008BBEF3012791C65DDE4F65
:10EFB0002883CA52D140A22EBB24CC24DD2408943D
:10EFC000611C711C811C911C8BBEF3018791282E42
:10EFD0003324442455240894611C711C811C911C09
:10EFE0008BBEF3013791C55DDE4F3883CB52D140E4
:10EFF0000894611C711C811C911C8BBEF30147910C
:10F00000C45DDE4F4883CC52D140ADEFEA2EAFEF66
:10F01000FA2EAFEF0A2FAFEF1A2F6E0C7F1C801E57
:10F02000911E142D032DF22CEE24EA0CFB1C0C1D5A
:10F030001D1D0F940DF220E22093C6008091C000A8
:10F0400086FFFCCF8091C00080648093C000C65DC5
:10F05000DE4F8881CA52D1400F940DF230E23093D6
:10F06000C6008091C00086FFFCCF8091C000806404
:10F070008093C000C45DDE4F8881CC52D1400F9494
:10F080000DF240E24093C6008091C00086FFFCCFA5
:10F090008091C00080648093C000C55DDE4F888190
:10F0A000CB52D1400F940DF250E25093C6008091A4
:10F0B000C00086FFFCCF8091C00080648093C000B8
:10F0C0008FEFE8168FEFF80680E0080780E018075A
:10F0D00031F484E092EE60E00F94C2F1DFC0D80119
:10F0E000C7018070907CA070B0708050904CA040A0
:10F0F000B040D1F52FEF3FE340E050E0E222F322B1
:10F1000004231523CA5DDE4FA880B980CA80DB8046
:10F11000C652D140AE0CBF1CC01ED11EAA0CBB1CD7
:10F12000CC1CDD1C8EE092EE60E00F94C2F1BB2798
:10F13000A12F902F8F2D0F940DF28E2D0F940DF285
:10F1400030E23093C6008091C00086FFFCCF8091F2
:10F15000C00080648093C0004EE34093C60080915D
:10F16000C00086FFFCCF87C08EE09EEFA0E0B0E03D
:10F17000E822F9220A231B239CE0E91694E9F90608
:10F1800090E0090790E0190709F088C0C45DDE4FE0
:10F19000A881CC52D140EA2EFF2400E010E0102FCD
:10F1A0000F2DFE2CEE24C55DDE4FB881CB52D14031
:10F1B000EB0EF11C011D111DD601C501817090706F
:10F1C000A070B070DC0199278827E80EF91E0A1F8D
:10F1D0001B1F20EF30E040E050E0A222B322C42207
:10F1E000D52241E1AA0CBB1CCC1CDD1C4A95D1F7F1
:10F1F000EA0CFB1C0C1D1D1D81E090E0A0E0B0E0BE
:10F20000282239224A225B2235E1220C331C441C7D
:10F21000551C3A95D1F7E20CF31C041D151D57013E
:10F220006801AA0CBB1CCC1CDD1C85E192EE60E0E1
:10F230000F94C2F1C801AA27BB270F940DF2BB2778
:10F24000A12F902F8F2D0F940DF28E2D0F940DF274
:10F2500090E29093C6008091C00086FFFCCF809121
:10F26000C00080648093C000AEE3A093C60080918C
:10F27000C00086FFFCCF8091C00080648093C000F6
:10F28000C601AA27BB270F940DF2BB27AD2D9C2DDD
:10F290008B2D0F940DF28A2D0F940DF20F94DCF14B
:10F2A000CC5DDE4FE881F981C452D140F99709F471
:10F2B0004DCBF4E0EF2EF12C012D112D6E0C7F1CA7
:10F2C000801E911EF2CD83E093EE62E00F94F5F183
:10F2D0008AE192EE60E00F94C2F18091C00087FF56
:10F2E000FCCF1091C6001F751093C6008091C0001E
:10F2F00086FFFCCF8091C00080648093C0000F9493
:10F30000DCF1812F81548A3108F036C1163409F4BA
:10F3100095C0173490F4133409F44EC0143430F40B
:10F320001134F1F0123409F01DC130C0143409F465
:10F3300059C0153409F016C16BC01A3409F4C4C0A1
:10F340001B3438F4173409F48FC0183409F00AC19B
:10F35000A1C01B3409F4D2C01C3409F003C1E8C0B9
:10F360008FEF81B90DC082B1809582B980E090E0C5
:10F37000E0EDF7E03197F1F70196883C9105C1F790
:10F380008091C00087FFEFCF12B8EFC08FEF84B934
:10F390000DC085B1809585B980E090E0E0EDF7E0A3
:10F3A0003197F1F70196883C9105C1F78091C00033
:10F3B00087FFEFCF15B8D9C08FEF87B90DC088B1DF
:10F3C000809588B980E090E0E0EDF7E03197F1F7C3
:10F3D0000196883C9105C1F78091C00087FFEFCF6F
:10F3E00018B8C3C08FEF8AB90DC08BB180958BB9A7
:10F3F00080E090E0E0EDF7E03197F1F70196883C8E
:10F400009105C1F78091C00087FFEFCF1BB8ADC059
:10F410008FEF8DB90DC08EB180958EB980E090E0F0
:10F42000E0EDF7E03197F1F70196883C9105C1F7DF
:10F430008091C00087FFEFCF1EB897C08FEF80BBD1
:10F440000DC081B3809581BB80E090E0E0EDF7E0F6
:10F450003197F1F70196883C9105C1F78091C00082
:10F4600087FFEFCF11BA81C08FEF83BB0DC084B38C
:10F47000809584BB80E090E0E0EDF7E03197F1F714
:10F480000196883C9105C1F78091C00087FFEFCFBE
:10F4900014BA6BC08FEF809301010FC080910201FD
:10F4A00080958093020180E090E0E0EDF7E03197F5
:10F4B000F1F70196883C9105C1F78091C00087FF64
:10F4C000EDCF1092020151C08FEF809304010FC065
:10F4D0008091050180958093050180E090E0E0ED4A
:10F4E000F7E03197F1F70196883C9105C1F78091DB
:10F4F000C00087FFEDCF1092050137C08FEF8093DA
:10F5000007010FC08091080180958093080180E079
:10F5100090E0E0EDF7E03197F1F70196883C910536
:10F52000C1F78091C00087FFEDCF109208011DC088
:10F530008FEF80930A010FC080910B01809580931B
:10F540000B0180E090E0E0EDF7E03197F1F70196F4
:10F55000883C9105C1F78091C00087FFEDCF1092E4
:10F560000B0103C085E292EEEEC98091C00087FFD7
:10F57000FCCF8091C600EAC988E392EEE4C98CE131
:10F5800091EEE1C988249924933011F1943028F444
:10F59000913089F09230B8F408C0953061F195301F
:10F5A000F0F0963009F048C043C02B3109F042C951
:10F5B00091E06BE13FC96227C15DDE4F2883CF52E6
:10F5C000D14092E037C9B22FA0E0622793E032C960
:10F5D000822F90E0A82BB92B622794E02BC92E3004
:10F5E00009F039C3622795E0C05DDE4F19821882A9
:10F5F000C053D1401FC9E1E0F0E0EC0FFD1FC05D3A
:10F60000DE4F08811981C053D140E00FF11F2083E4
:10F610000F5F1F4FC05DDE4F19830883C053D14079
:10F6200062270A171B0709F005C9D80196E002C92D
:10F63000261709F010C303C0973009F0FBC87724E0
:10F640009981933109F412C19431C8F4963009F4C8
:10F65000D8C0973050F4923009F406C1933009F4C1
:10F660006DC0913009F059C253C0913109F477C08F
:10F67000923108F0BBC0903109F04FC2F5C098310B
:10F6800009F487C0993150F4953109F4EFC09531F0
:10F6900008F4C6C1963109F040C2C2C19A3109F4DA
:10F6A0006CC09A3108F491C09B3109F45BC09D3164
:10F6B00009F033C29D81903359F48F81882311F46E
:10F6C0009EE11CC0813011F091E018C098E916C08D
:10F6D000892F807591F0903539F4E0E0F0E089E011
:10F6E0008093570094910AC0983539F4E3E0F0E034
:10F6F00089E080935700949101C090E01A821B82A8
:10F700008D818C831D829E831F8227E030E009C299
:10F710001A8288E08B8381E48C8386E58D8382E581
:10F720008E8389E48F8383E5888780E589878FE5E9
:10F730008A8782E38B872BE030E0F3C18A818139AD
:10F7400041F0823941F0803911F48FE005C080E04A
:10F7500003C082E001C08AE01A828B8344C0772410
:10F76000739482C08D81882311F48EE12CC0813086
:10F7700011F081E028C088E926C01A82E1E0F0E0BB
:10F7800089E08093570084918B831C8224E030E0D1
:10F79000C8C18B81803589F48C81883039F4E2E0EE
:10F7A000F0E089E08093570084910DC0E0E0F0E044
:10F7B00089E080935700849106C0E3E0F0E089E09F
:10F7C0008093570084911A82DFCF8D81836C99E0FA
:10F7D000E1E0F0E0082E90935700E89507B600FCB2
:10F7E000FDCF1A821B8223E030E09BC180EC8A832C
:10F7F000CE5CDE4F188219821A821B82C253D1401E
:10F800008EC18A8190E0A0E0B0E0582F44273327D2
:10F8100022278B8190E0A0E0B0E0DC0199278827C7
:10F82000282B392B4A2B5B2B8D8190E0A0E0B0E098
:10F83000282B392B4A2B5B2B8C8190E0A0E0B0E089
:10F84000BA2FA92F982F8827282B392B4A2B5B2BCF
:10F85000220F331F441F551FC05EDE4F288339839C
:10F860004A835B83C052D1401A8259C13A81C95C34
:10F87000DE4F3883C753D140CA5CDE4F1882C6536F
:10F88000D1408B81C82EDD24CA5CDE4F488159816E
:10F89000C653D140C42AD52A933109F082C0CE5C28
:10F8A000DE4F88819981AA81BB81C253D1408050AB
:10F8B000904CA340B04030F583E0CE5CDE4FE88052
:10F8C000F9800A811B81C253D140F70100935B008C
:10F8D00080935700E89507B600FCFDCFCE5CDE4F65
:10F8E000088119812A813B81C253D14000501F4FAA
:10F8F0002F4F3F4FCE5CDE4F088319832A833B8313
:10F90000C253D140C05EDE4F488159816A817B81FC
:10F91000C052D140DE011B9631E08C9111962C91A2
:10F9200011971296C75CDE4F2883C953D140C85C3B
:10F93000DE4F1882C853D14090E0C85CDE4FE881AA
:10F94000F981C853D1408E2B9F2B0C01FA01609393
:10F950005B0030935700E89511244E5F5F4F6F4F67
:10F960007F4F0EEFE02E0FEFF02ECE0CDF1CC114F8
:10F97000D10499F685E0C05EDE4F088119812A81A5
:10F980003B81C052D140F80120935B008093570027
:10F99000E89507B600FCFDCF81E180935700E8951C
:10F9A00035C0C05EDE4F88819981AA81BB81C0527B
:10F9B000D140B695A795979587957C018601ABE0D8
:10F9C000AA2EB12CAC0EBD1E0BC0D5016D915D01F0
:10F9D000C7010F947FFE0894E11CF11C01501040F8
:10F9E0000115110591F7A60160E070E0440F551F65
:10F9F000661F771FC05EDE4FE880F9800A811B8199
:10FA0000C052D1404E0D5F1D601F711F1A82C05E33
:10FA1000DE4F488359836A837B83C052D1407FC0C5
:10FA2000FA80C55CDE4FF882CB53D140C65CDE4F16
:10FA30001882CA53D1408B81C82EDD24C65CDE4FAC
:10FA400008811981CA53D140C02AD12A1A828981DA
:10FA5000BE016D5F7F4F843121F59601C05EDE4FA0
:10FA6000E880F9800A811B81C052D1400BBFF701A9
:10FA700087919691DB018C9311969C936E5F7F4FDB
:10FA8000D801C7010296A11DB11DC05EDE4F88835B
:10FA90009983AA83BB83C052D14022503040F1F6F3
:10FAA00036C0C05EDE4F288139814A815B81C052F9
:10FAB000D1400894C108D108760100E010E0089414
:10FAC000C11CD11C0894E11CF11C011D111DE20E8A
:10FAD000F31E041F151F21BDBB27A52F942F832FB5
:10FAE00082BD2F5F3F4F4F4F5F4FF89A80B5DB01CC
:10FAF0008D93BD012E153F054007510761F7C05E8C
:10FB0000DE4F288339834A835B83C052D1409601FC
:10FB10002D5F3F4FFB01108204C080EC8A8322E0FE
:10FB200030E08BE18093C6008091C00086FFFCCF5F
:10FB30008091C00080648093C000C15DDE4FF88179
:10FB4000CF52D140F093C6008091C00086FFFCCF19
:10FB50008091C00080648093C000432F3093C60022
:10FB60008091C00086FFFCCF8091C00080648093AC
:10FB7000C000922F2093C6008091C00086FFFCCF6A
:10FB80008091C00080648093C0008EE08093C600A6
:10FB90008091C00086FFFCCF8091C000806480937C
:10FBA000C00065E1C15DDE4FE880CF52D1406E25D7
:10FBB00069276427FE01319610C090819093C6009A
:10FBC0008091C00086FFFCCF31968091C000806498
:10FBD0008093C0006927215030402115310569F715
:10FBE0006093C6008091C00086FFFCCF8091C0006A
:10FBF00080648093C00085B1805885B9772081F4F6
:10FC0000C15DDE4F0881CF52D1400F5FC15DDE4F35
:10FC10000883CF52D14090E0A0E0B0E00D941AF4F8
:10FC200027982F9880E090E020ED37E0F901319798
:10FC3000F1F7019684369105C9F700008091C00064
:10FC40008D7F8093C00081E180935700E895EE2777
:10FC5000FF270994FFCF90E00D941AF497FB092E2B
:10FC600007260AD077FD04D02ED006D000201AF443
:10FC7000709561957F4F0895F6F7909581959F4F08
:10FC80000895A1E21A2EAA1BBB1BFD010DC0AA1FDD
:10FC9000BB1FEE1FFF1FA217B307E407F50720F0F5
:10FCA000A21BB30BE40BF50B661F771F881F991F70
:10FCB0001A9469F760957095809590959B01AC01B9
:10FCC000BD01CF010895AA1BBB1B51E107C0AA1FAC
:10FCD000BB1FA617B70710F0A61BB70B881F991FED
:10FCE0005A95A9F780959095BC01CD010895F99991
:10FCF000FECF92BD81BDF89A992780B50895262F31
:10FD0000F999FECF1FBA92BD81BD20BD0FB6F89400
:0EFD1000FA9AF99A0FBE01960895F894FFCF63
:00000001FF
