:100000000C9445010C9476010C9476010C947601C5
:100010000C9476010C9476010C9476010C94760184
:100020000C9476010C9476010C9476010C94760174
:100030000C9476010C9442050C9476010C94760194
:100040000C9476010C9476010C9476010C94760154
:100050000C9476010C9476010C9476010C943F0676
:100060000C9476010C9409060C94DF050C9476012F
:100070000C9476010C9476010C9476010C94760124
:100080000C9476010C9476010C9476010C94760114
:100090000C9476010C9476010C9476010C94760104
:1000A0000C9476010C9476010C9476010C947601F4
:1000B0000C9476010C9476010C9476010C947601E4
:1000C0000C9476010C9476010C9476010C947601D4
:1000D0000C9476010C9476010C9476010C947601C4
:1000E0000C9476010C94FD020C94F7020C94E90236
:1000F0000C94D0020C94F3020C94CA020C940B03DF
:100100000C94D4020C94C8010C94F3040C94D60102
:100110000C94E5020C9489060C947E030C940A035B
:100120000C9401030C945B020C9481030C947D03EA
:100130000C94DC020C94EF020C94B4010C94DF02DA
:100140000C9478010C94D8020C940F030C940503C2
:100150000C94AD030C940E020C94A9030C94A5010D
:100160000C940909000020002300260029002C001F
:100170002F00320000010000030106010901000008
:100180002100240027002A002D0030003300010147
:100190000000040107010A010000220025002800D8
:1001A0002B002E003100340002010000050108017F
:1001B0000B010505050507050808080802020202EB
:1001C0000A0A0808040404040101010101010101F3
:1001D0000303030303030303040707070C0C0C0CBE
:1001E0000C0C0C0C020202020606060606060606A7
:1001F0000B0B0B0B0B0B0B0B010210202008081034
:100200002040102040800201020108040201010286
:10021000040810204080804020100804020180045F
:1002200002018040201008040201080402010102BA
:1002300004081020408001020408102040800000C3
:100240000A0B02090C0D0E08070304010000000050
:10025000000000000000000000000000000000009E
:10026000000000000000000000001211100000005B
:10027000000000000000000000000000000000007E
:100280000000000002008906090911241FBECFEFFB
:10029000D1E2DEBFCDBF00E00CBF12E0A0E0B2E0D3
:1002A000E0EBF6E100E00BBF02C007900D92A03634
:1002B000B107D9F724E0A0E6B2E001C01D92A43155
:1002C000B207E1F711E0C4E4D1E000E006C02197F5
:1002D0000109802FFE010E942809C334D10780E064
:1002E0000807A9F70E940C080C94460B0C94000018
:1002F000AF92BF92CF92DF92EF92FF920F931F9334
:10030000CF93DF936C017B018B01040F151FEB0171
:100310005E01AE18BF08C017D10759F06991D60128
:10032000ED91FC910190F081E02DC6011995892B8A
:1003300079F7C501DF91CF911F910F91FF90EF9059
:10034000DF90CF90BF90AF900895FC01538D448D06
:10035000252F30E0842F90E0821B930B541710F070
:10036000CF96089501970895FC01918D828D98177D
:1003700061F0A28DAE0FBF2FB11D5D968C91928D55
:100380009F5F9F73928F90E008958FEF9FEF089586
:10039000FC01918D828D981731F0828DE80FF11D4F
:1003A000858D90E008958FEF9FEF0895FC01918D6A
:1003B000228D892F90E0805C9F4F821B91098F7363
:1003C0009927089588E892E00E94D60121E0892BC0
:1003D00009F420E0822F0895FC01A48DA80FB92F05
:1003E000B11DA35ABF4F2C91848D90E001968F735D
:1003F0009927848FA689B7892C93A089B1898C917C
:10040000837080648C93938D848D981306C00288CA
:10041000F389E02D80818F7D80830895EF92FF9294
:100420000F931F93CF93DF93EC0181E0888F9B8D17
:100430008C8D98131AC0E889F989808185FF15C0D1
:100440009FB7F894EE89FF896083E889F9898081F4
:100450008370806480839FBF81E090E0DF91CF91C3
:100460001F910F91FF90EF900895F62E0B8D10E0E5
:100470000F5F1F4F0F731127E02E8C8D8E110CC054
:100480000FB607FCFACFE889F989808185FFF5CF9F
:10049000CE010E94EC01F1CFEB8DEC0FFD2FF11D91
:1004A000E35AFF4FF0829FB7F8940B8FEA89FB89DC
:1004B00080818062CFCFCF93DF93EC01888D88233A
:1004C000B9F0AA89BB89E889F9898C9185FD03C0B7
:1004D000808186FD0DC00FB607FCF7CF8C9185FF9C
:1004E000F2CF808185FFEDCFCE010E94EC01E9CFF4
:1004F000DF91CF91089580E090E0892B29F00E9450
:10050000E20181110E94000080E090E0892B49F017
:1005100080E090E0892B29F00E94000081110E9468
:10052000000080E090E0892B49F080E090E0892B8A
:1005300029F00E94000081110E94000080E090E0FC
:10054000892B49F080E090E0892B29F00E9400007F
:1005500081110C94000008958150823108F05AC036
:10056000E82FF0E08827E854FD4F8F4F0C942809BE
:10057000D802DC02CA02D002D4020A03DF02E5027A
:10058000E902EF02F302F702FD0201030A03050389
:100590000B030F03809180008F7780938000089574
:1005A000809180008F7DF9CF80918000877FF5CF8B
:1005B00084B58F7784BD089584B58F7DFBCF8091FE
:1005C000B0008F778093B00008958091B0008F7D48
:1005D000F9CF809190008F7780939000089580915B
:1005E00090008F7DF9CF80919000877FF5CF80912B
:1005F000A0008F778093A00008958091A0008F7D48
:10060000F9CF8091A000877FF5CF809120018F776F
:10061000809320010895809120018F7DF9CF8091F2
:100620002001877FF5CF1F93CF93DF93282F30E0F2
:10063000F901E25CFD4F8491F901E850FE4FD4913D
:10064000F901EE54FE4FC491CC23A9F0162F81116D
:100650000E94AC02EC2FF0E0EE0FFF1FE856FE4FB9
:10066000A591B4918FB7F894EC91111108C0D09571
:10067000DE23DC938FBFDF91CF911F910895DE2B96
:10068000F8CFCF93DF9390E0FC01E850FE4F249128
:100690008E549E4FFC0184918823C9F090E0880F0E
:1006A000991FFC01E258FE4FA591B491FC01E85658
:1006B000FE4FC591D49161110DC09FB7F8948C91F4
:1006C000209582238C938881282328839FBFDF91E4
:1006D000CF910895623051F49FB7F8943C91822FE6
:1006E000809583238C93E8812E2BEFCF8FB7F894DE
:1006F000EC912E2B2C938FBFEACF089590E080E0F1
:100700000895CF93DF9370E0FB01E25CFD4F84918D
:10071000FB01E850FE4FD4916E547E4FFB01C49113
:10072000CC23A1F081110E94AC02EC2FF0E0EE0F7F
:10073000FF1FEC59FE4FA591B491EC91ED2381E0A0
:1007400090E009F480E0DF91CF91089580E090E09F
:10075000FACF862F642F0C941303862F642F0C94EA
:100760004103CF93DF93EC0160E08E810E9413037D
:1007700061E08E810E94130360E08E810E9413036A
:100780008BE891E00197F1F7DF91CF910895CF9237
:10079000DF92EF92FF920F931F93CF93DF936C0141
:1007A0007C0187E0E80EF11CD0E0C0E0062F10E0ED
:1007B000B8010C2E02C0759567950A94E2F7617036
:1007C000F70181917F010E9413032196C430D10566
:1007D00079F7C601DF91CF911F910F91FF90EF90B4
:1007E000DF90CF900C94B103CF92DF92EF92FF9203
:1007F0000F931F93CF93DF93EC01F62E642F8C8120
:100800000E9413038D818F3F19F060E00E94130353
:100810000F2D10E08F8584FF25C06E0187E0C80E84
:10082000D11CF12CE12CB8010E2C02C075956795F6
:100830000A94E2F76170F60181916F010E9413033F
:10084000FFEFEF1AFF0A88E0E816F10461F7CE0126
:10085000DF91CF911F910F91FF90EF90DF90CF909C
:100860000C94B103B80184E0759567958A95E1F71A
:10087000CE010E94C7036F2DCE01DF91CF911F9152
:100880000F91FF90EF90DF90CF900C94C70340E062
:10089000682F84EC93E00C94F403CF93DF938230C1
:1008A00029F49091D30398609093D3038093D70356
:1008B0001092D80380E48093D90380E18093DA0317
:1008C00080E58093DB0361E08091C8030E944103CF
:1008D0008091C9038F3F19F061E00E94410361E0FC
:1008E0008091CA030E944103C4ECD3E09E01245CC2
:1008F00033408091D30384FD0BC084E090E02196C7
:100900002817390744F461E08E810E944103EECF3D
:1009100088E090E0F4CF8BE39DE00197F1F760E091
:100920008091C8030E94130360E08091CA030E9473
:1009300013038091C9038F3F19F060E00E941303F5
:100940008091D30384FD39C063E084EC93E00E947E
:10095000C703CBE4D6E4CE010197F1F763E084EC62
:1009600093E00E94C7032197F1F763E084EC93E0E2
:100970000E94C70383E592E00197F1F762E084ECFF
:1009800093E00E94C7038091D30380620E944704D2
:1009900084E08093D4038CE00E94470481E00E94AD
:1009A00047048BE39FE10197F1F782E08093D50341
:1009B00086E0DF91CF910C94470480620E94470447
:1009C0008BE496E40197F1F78091D30380620E9453
:1009D000470483E592E00197F1F78091D3038062A9
:1009E0000E944704D0CF41E00E94F40381E090E0F0
:1009F0000895EF92FF920F931F93CF93DF93EC0133
:100A00007B01198218821B821A821D821C82FB01C3
:100A100001900020E9F731978F01061B170BB801F1
:100A20006F5F7F4F90E080E00E94550A0097B9F019
:100A3000998388831B830A832C813D81232B11F4A6
:100A4000FC0110821D830C83B70188819981DF919D
:100A5000CF911F910F91FF90EF900C943F0B8881E5
:100A60009981009711F00E94CC09198218821D8289
:100A70001C821B821A82DF91CF911F910F91FF90F0
:100A8000EF9008951F920F920FB60F9211240BB69C
:100A90000F922F933F934F935F936F937F938F9317
:100AA0009F93AF93BF93EF93FF9380917F029091B9
:100AB0008002A0918102B0918202892B8A2B8B2B1C
:100AC000D1F190917E0280910000892780930000EF
:100AD00080917F0290918002A0918102B091820268
:100AE000181619061A061B069CF480917F02909135
:100AF0008002A0918102B09182020197A109B109FF
:100B000080937F0290938002A0938102B09382022F
:100B1000FF91EF91BF91AF919F918F917F916F91D5
:100B20005F914F913F912F910F900BBE0F900FBE91
:100B30000F901F90189580910002E4E8F2E0E49194
:100B40009FEF90930002E230E9F040F4EE2389F049
:100B5000E13091F060E00E941303DACFE43049F114
:100B600010F1E530B9F7909173009D7F9093730079
:100B7000F1CF10926E00EECF90916F009D7F909319
:100B80006F00E8CF909170009D7F9093700091E08E
:100B90009093B0009091B100987F94609093B100D1
:100BA0001092B300D7CF909171009D7F9093710008
:100BB000D1CF909172009D7F90937200CBCF1F9206
:100BC0000F920FB60F9211240BB60F922F933F93F3
:100BD0004F935F936F937F938F939F93AF93BF9345
:100BE000EF93FF9388E892E00E94EC01FF91EF9170
:100BF000BF91AF919F918F917F916F915F914F9135
:100C00003F912F910F900BBE0F900FBE0F901F9032
:100C100018951F920F920FB60F9211240BB60F92D8
:100C20002F938F939F93EF93FF93E0919802F0910E
:100C300099028081E0919E02F0919F0282FD1DC089
:100C400090818091A1028F5F8F732091A202821701
:100C500041F0E091A102F0E0E857FD4F958F8093BD
:100C6000A102FF91EF919F918F912F910F900BBE59
:100C70000F900FBE0F901F9018958081F2CF1F929A
:100C80000F920FB60F9211242F933F938F939F9340
:100C9000AF93BF938091830290918402A0918502CB
:100CA000B091860230917D0223E0230F2D3758F555
:100CB0000196A11DB11D20937D0280938302909324
:100CC0008402A0938502B09386028091790290916C
:100CD0007A02A0917B02B0917C020196A11DB11D08
:100CE0008093790290937A02A0937B02B0937C0266
:100CF000BF91AF919F918F913F912F910F900FBE18
:100D00000F901F90189526E8230F0296A11DB11D84
:100D1000D2CF0F931F93CF93DF9310928B02109239
:100D20008A0288EE93E0A0E0B0E080938C0290937A
:100D30008D02A0938E02B0938F0283E392E0909392
:100D400089028093880285EC90E0909395028093CD
:100D5000940284EC90E0909397028093960280EC4A
:100D600090E0909399028093980281EC90E09093A8
:100D70009B0280939A0282EC90E090939D02809374
:100D80009C0286EC90E090939F0280939E021092CA
:100D9000A1021092A2021092A3021092A402109239
:100DA0000104109200041092F7031092F6031092BF
:100DB0000C0410920D0410920E0410920F0408E21D
:100DC00010E01093FD030093FC0382E490E0909305
:100DD00003048093020483E490E0909305048093DD
:100DE000040484E490E0909307048093060485E46F
:100DF00090E0909309048093080461E082E40E94EB
:100E0000410361E0809104040E94410361E080910C
:100E100006040E94410361E0809108040E9441039E
:100E200010920B0410920A04C4E0D0E0D093FF03A8
:100E3000C093FE031092E7031092E6031092DD03C5
:100E40001092DC031092F2031092F3031092F40359
:100E50001092F5031093E3030093E2038EE390E016
:100E60009093E9038093E8038FE390E09093EB0382
:100E70008093EA0380E490E09093ED038093EC0389
:100E800081E490E09093EF038093EE0361E08EE3C2
:100E90000E94410361E08091EA030E94410361E006
:100EA0008091EC030E94410361E08091EE030E9477
:100EB00041031092F1031092F003D093E503C09325
:100EC000E4031092C7031092C6038FE492E090935C
:100ED000C5038093C40386E38093C8038FEF809398
:100EE000C90387E38093CA0388E38093CB0389E334
:100EF0008093CC038AE38093CD038BE38093CE036E
:100F00001092CF031092D0031092D1031092D2030B
:100F10001092D30381E00E944D0410925703109267
:100F20005B0310925A0310925C0385E492E0909365
:100F3000560380935503E1E7F3E08DEA93E01082D6
:100F400014821382158236968E179F07C1F785E1AA
:100F500092E09093B8038093B70381E192E090937D
:100F6000BA038093B90384E08093BB038093BC03EE
:100F700089E192E09093B6038093B5038AE090E014
:100F80009093BE038093BD0384EF91E09093C003E0
:100F90008093BF031092C3031092C2031092B10357
:100FA0001092B2031092B3031092B4031092C103D3
:100FB00068E572E08DE393E00E94F90468E572E071
:100FC00083E493E00E94F90468E572E089E493E029
:100FD0000E94F90468E572E08FE493E00E94F9044E
:100FE00067E572E085E293E00E94F90469E572E04A
:100FF0008BE293E00E94F9046BE572E081E393E0F9
:101000000E94F9046DE572E087E393E0DF91CF91F0
:101010001F910F910C94F904789484B5826084BD7B
:1010200084B5816084BD85B5826085BD85B58160EC
:1010300085BD80916E00816080936E00109281006A
:101040008091810082608093810080918100816025
:1010500080938100809180008160809380008091E6
:10106000B10084608093B1008091B0008160809372
:10107000B0008091910082608093910080919100F6
:1010800081608093910080919000816080939000B6
:101090008091A10082608093A1008091A100816075
:1010A0008093A1008091A00081608093A000809136
:1010B00021018260809321018091210181608093D0
:1010C00021018091200181608093200180917A002C
:1010D000846080937A0080917A00826080937A00A5
:1010E00080917A00816080937A0080917A00806894
:1010F00080937A001092C10061E08DE00E9441036C
:1011000061E086E10E94410361E087E10E944103C2
:1011100080E40E944704C9E0D2E0699184EC93E046
:101120000E94F30482E0C131D807B9F788E40E9435
:101130004704C1E0D2E0699184EC93E00E94F3049B
:1011400082E0C930D807B9F78FB7F894409183028D
:101150005091840260918502709186028FBF82E077
:101160000E944D0481E00E9447048BE39FE10197B8
:10117000F1F7E0919802F091990282E08083E0918A
:101180009402F09195021082E0919602F0919702FC
:101190008FEC80831092A002E0919C02F0919D025E
:1011A00086E08083E0919A02F0919B0280818061C9
:1011B0008083E0919A02F0919B0280818860808315
:1011C000E0919A02F0919B02808180688083E09197
:1011D0009A02F0919B0280818F7D808388E892E063
:1011E0000E94D6011816190634F488E892E00E948D
:1011F000B401809387028091870261E0853419F001
:10120000813421F460E08DE00E9413030E947B0290
:10121000E5CFCF93DF93CDE3D3E026978881998103
:10122000009711F00E94CC0983E0C532D807A9F7D6
:10123000C5E5D3E0269788819981009711F00E9437
:10124000CC0983E0CD33D807A9F7DF91CF9108957A
:10125000EE0FFF1F881F8BBF0790F691E02D1994AA
:101260000F931F93CF93DF938230910510F482E0A8
:1012700090E0E0911204F091130430E020E0B0E03F
:10128000A0E0309799F42115310509F44AC0281BD4
:10129000390B24303105D8F58A819B8161157105A0
:1012A00089F1FB0193838283FE0111C0408151814A
:1012B0000281138148175907E0F04817590799F43C
:1012C000109761F012960C93129713961C93329616
:1012D000CF01DF91CF911F910F91089500931204D8
:1012E00010931304F4CF2115310551F04217530721
:1012F00038F0A901DB019A01BD01DF01F801C1CF7E
:10130000EF01F9CF9093130480931204CDCFFE0127
:10131000E20FF31F8193919322503109398328837F
:10132000D7CF2091100430911104232B41F4209148
:101330002B0230912C023093110420931004209141
:10134000290230912A022115310541F42DB73EB70B
:1013500040912D0250912E02241B350BE091100478
:10136000F0911104E217F307A0F42E1B3F0B28178E
:10137000390778F0AC014E5F5F4F2417350748F00E
:101380004E0F5F1F5093110440931004819391936B
:101390009FCFF0E0E0E09CCFCF93DF930097E9F0A0
:1013A000FC01329713821282A0911204B0911304AF
:1013B000ED0130E020E01097A1F420813181820F0F
:1013C000931F20911004309111042817390709F058
:1013D00061C0F0931104E0931004DF91CF91089560
:1013E000EA01CE17DF07E8F54A815B819E014115CE
:1013F0005105B1F7E901FB83EA8349915991C40F83
:10140000D51FEC17FD0761F4808191810296840F4E
:10141000951FE90199838883828193819B838A83C5
:10142000F0E0E0E012968D919C9113970097B9F54A
:101430002D913C911197CD010296820F931F20911F
:101440001004309111042817390739F6309751F5F7
:101450001092130410921204B0931104A09310047C
:10146000BCCFD383C28340815181840F951FC8179D
:10147000D90761F44E5F5F4F88819981480F591FEA
:10148000518340838A819B81938382832115310517
:1014900009F0B0CFF0931304E09312049ECFFD0146
:1014A000DC01C0CF13821282D7CF4F925F926F922E
:1014B0007F928F929F92AF92BF92CF92DF92EF92E4
:1014C000FF920F931F93CF93DF938C01009799F4B2
:1014D000CB01DF91CF911F910F91FF90EF90DF90A3
:1014E000CF90BF90AF909F908F907F906F905F90C4
:1014F0004F900C943009FC01E60FF71F9C0122501D
:101500003109E217F30708F4AEC0D901CD91DC919F
:101510001197C617D70720F1C530D10578F0CE0155
:1015200004978617970750F0C61BD70B2297C193D5
:10153000D1936D937C93CF010E94CC09C801DF91B8
:10154000CF911F910F91FF90EF90DF90CF90BF90C0
:10155000AF909F908F907F906F905F904F90089585
:101560005B01AC1ABD0A4C018C0E9D1EA0911204A9
:10157000B0911304512C412CF12CE12C109731F532
:1015800080911004909111048815990509F05CC0B0
:101590004616570608F058C08091290290912A02F9
:1015A000009741F48DB79EB740912D0250912E02C5
:1015B000841B950BE817F90708F055C0F093110448
:1015C000E0931004F90171836083B8CF8D919C91F1
:1015D000119712966C90129713967C901397A815FA
:1015E000B90559F56C0142E0C40ED11CCA14DB04E4
:1015F00020F1AC014A195B09DA011296159780F0C7
:101600006282738251834083D9016D937C93E1148C
:10161000F10471F0D7011396FC93EE9312978ECFDD
:1016200022968C0F9D1FF90191838083F301EFCFE8
:10163000F0931304E093120481CF4816590608F47E
:101640002C017D01D3019ACFCB010E9430097C018E
:10165000009749F0AE01B8010E94360BC8010E9404
:10166000CC0987016BCF10E000E068CFFB01DC0103
:1016700002C001900D9241505040D8F70895FB01EF
:10168000DC0101900D920020E1F7089511E0C4E41F
:10169000D1E000E006C0802FFE010E9428092196BB
:1016A000011DC534D10780E00807A9F7F894FFCFE2
:1016B000FF0A0A0A0000110E000E11111F1B1B1F4A
:1016C0000006070809020304053738394134353666
:1016D00042313233432A3023440000140480000096
:1016E0000000000E027801A5015B02D601B401C81A
:1016F0000100000000AD03A903810300000000F316
:101700000478017E037D0341004200430044000051
:00000001FF
